:020000040800F2
:10000000D05100209D01000807780008DD57000846
:100010000578000851160008E3A50008000000005C
:1000200000000000000000000000000061830008E4
:100030003923000800000000398200086D830008A1
:10004000B7010008B7010008B7010008B7010008B0
:10005000B7010008B7010008B7010008B7010008A0
:10006000B70100083B23000841230008B70100083E
:1000700089200008B7010008B7010008B70100088F
:10008000B7010008B7010008B70100086D160008A5
:100090005516000861160008B7010008472300083C
:1000A00015840008B701000831840008B701000872
:1000B000B7010008B7010008B7010008B701000840
:1000C000B7010008B7010008B7010008B701000830
:1000D000B7010008998A0008B7010008A58A00083E
:1000E000B7010008B7010008B701000859840008EB
:1000F0009184000875840008B7010008B701000862
:10010000B7010008B7010008B7010008B7010008EF
:10011000B7010008B70100084D840008B7010008C6
:10012000B701000895200008A1200008AD200008B4
:10013000B7010008B7010008B701000891160008D0
:100140007916000885160008B7010008417A0008F2
:10015000B7010008B9200008C5200008B98A0008C6
:10016000B7010008B7010008B7010008B70100088F
:10017000B7010008B7010008B7010008000000003F
:10018000B7010008B7010008DFF80CD001F028F82B
:1001900000480047F9B80008D051002006488047C1
:1001A00006480047FEE7FEE7FEE7FEE7FEE7FEE75C
:1001B000FEE7FEE7FEE7FEE7058400088901000888
:1001C0009FED1A1AF5EE000A40EE010ABDEEE00AB4
:1001D000F5EEC00A10EE100AF1EE10FA38BF401E1C
:1001E00000EE100A1349F7EE001AB8EEC00A30EE1E
:1001F000C00ADFED0F0A20EE200AFCEEC00A10EE66
:10020000900AC0F3080000EE900A01EB8000F8EEBF
:10021000600A90ED011A70EE600A90ED000A71EE2E
:10022000E01A21EE800A00EE810A704783F9223E2F
:10023000000000441CCD0008B5EEC00AF1EE10FA33
:1002400007D2DFED1E0AB4EEE00AF1EE10FAA8BF05
:100250007047DFED1B0AB5EEC00A60EE200ABDEE66
:10026000E01A11EE100AF1EE10FA38BF401E00EE4F
:10027000100A1549F7EE001AB8EEC00A30EEC00AAF
:10028000DFED100A60EE200ABCEEE00A10EE100A64
:10029000C0F3080000EE100A01EB8000B8EE400A3F
:1002A00090ED011A70EEC00A90ED000A71EEE01AAE
:1002B00021EE800A00EE810A70470000CD024CB4A6
:1002C00083F9223E000000441CCD000870B405886C
:1002D0000E884468D1F804C05368B54208D14088FC
:1002E0004988884201BF11888D425188884203D0D5
:1002F00070BC6FF00200704705FB00F1880827D042
:1003000094ED001ADCED000A94ED010ADCED011A0F
:1003100031EE201AD4ED020A70EE211A9CED020A89
:1003200083ED001AC3ED011A94ED031ADCED031AF4
:1003300030EE800A401E71EE210A83ED020A04F1BC
:100340001004C3ED030A03F110030CF1100CD7D114
:1003500011F0030030D0B0F1004F30D200282BDD77
:10036000211F1B1FACF1040210F0010F0AD091ED08
:10037000010AD2ED010A091D121D30EE200A83ED9B
:10038000010A1B1D400817D091ED010AD2ED010AA8
:10039000401E30EE200A83ED010A91ED020AD2EDF3
:1003A000020A01F1080102F1080230EE200A83ED91
:1003B000020A03F10803E7D170BC00207047B4ECD7
:1003C000010A401EFCEC010A30EE200AA3EC010AEF
:1003D000F5D1F1E701804280436070472DE9F34F8A
:1003E00084B0049840680090486801900498B0F880
:1003F00000E04588DFEDFE0A00200290B0EE600AC2
:10040000AE4506D108884988884204BF71468645B2
:1004100004D06FF0020006B0BDE8F08F01985FEAEB
:10042000010C18BFB7EE001A3DD000BFBEEB0C01A7
:1004300017D0B1F1004F80F01F82002911DD021F9B
:1004400011F0010F1CBFC2ED010A121D4B1006D0A6
:10045000C2ED010AC2ED020A08325B1EF8D100EBC0
:100460008100BCF10102A0EC011A19D0B2F1004FD9
:1004700080F00882002A13DD031F12F0010F1CBF59
:10048000C3ED010A1B1D511008D000BFC3ED010AC6
:10049000C3ED020A491E03F10803F7D100EB820005
:1004A000BCF1010CC2D14FF000080395002D14BF20
:1004B000B0EE602A002000F0BF8100BF009908FB69
:1004C00005F001EB800B0199DBED002A01EB8000C8
:1004D0000346F0EE421AC64552D9AEEB0802ABEB2A
:1004E000850112F0010F17D001EB850191ED000A93
:1004F000B5EEC00AF1EE10FA07DDB4EEE10AF1EE56
:1005000010FA09DDF0EE401A06E0B1EE400AF4EE12
:10051000C01AF1EE10FAF5D3521031D001EB850C70
:100520009CED000AB5EEC00AF1EE10FA05DDB4EE5E
:10053000E10AF1EE10FA09DD06E0B1EE400AF4EE50
:10054000C01AF1EE10FA01D2F0EE401A01EBC5012B
:1005500091ED000AB5EEC00AF1EE10FA05DDB4EE39
:10056000E10AF1EE10FA09DD06E0B1EE400AF4EE20
:10057000C01AF1EE10FA01D2F0EE401A521ECDD19F
:10058000F5EEC01AF1EE10FA00F07381F5EEC02A14
:100590000126F1EE10FA0099D4BFB1EE620AB0EE76
:1005A000620AB4EE610AF1EE10FA1CBFAEEB08026B
:1005B000B2F1010C47D005FB08F201EB820292ED8B
:1005C000001A00BFB0EE410A05FB06F4B5EEC00A02
:1005D00000EB8404F1EE10FACCBFF0EE400AF1EE2D
:1005E000400AF4EE610AF1EE10FA28D1B5EB080CDE
:1005F00011D0BCF1004F7DD2BCF1000F0BDD00BF6C
:1006000092ED000AD1ED000ABCF1010CE2EC010A06
:10061000A1EC010AF4D129000ED0B1F1004F6AD249
:10062000002909DD94ED000AD0ED000A491EE4EC32
:10063000010AA0EC010AF5D1012002900BE0761C22
:10064000BCF1010CBED10298012804D0F5EEC02AFD
:10065000F1EE10FA7ED09BED000AB5EB08009A4649
:100660005946064622D0B0F1004F74D200281DDD55
:10067000091F10F0010F06D0F0EE400A80EEA01A1C
:1006800081ED011A091D401010D000BFD1ED010A03
:10069000401E80EE801A81ED011A91ED021AC1EE22
:1006A000000AC1ED020A01F10801EFD1280026D0AD
:1006B000B0F1004F7ED2002821DDAAF1040110F034
:1006C000010F06D0D1ED010A80EE801A81ED011AEA
:1006D000091D401013D000BFD1ED010A401E80EE6D
:1006E000801A81ED011AD1ED020A80EE801A81EDA7
:1006F000021A01E0CBE0D6E001F10801ECD1DDE91E
:1007000000124FF000095FEA0E0773D0C14504BF25
:1007100001EB860102EB850274D091ED000ADC4604
:100720005046331E35D01C46B6F1004F7ED2002C09
:100730002FDD0B1FABF1040C16F0010F0FD0F0EE04
:10074000400ADCED011AB0EE601A00EEE11A83ED0A
:10075000011A01E08DE0B1E01B1D0CF1040C7410D6
:1007600015D000BFD3ED010A9CED011A40EE410AFD
:10077000C3ED010AD3ED020A9CED021A0CF1080C3C
:1007800040EE410AC3ED020A0833641EEAD101EBD0
:1007900086012B0036D0B3F1004F72D2002B31DD31
:1007A000A2F1040CAAF1040013F0010F0CD0DCED4F
:1007B000010A00E08BE090ED011A001D40EE410AB5
:1007C000CCED010A0CF1040C5C1019D0DCED010A2F
:1007D00090ED011A40EE410ACCED010ADCED020A6F
:1007E00090ED021A083040EE410ACCED020A03E017
:1007F000000000000DE005E0641E0CF1080CE5D1DE
:1008000002EB830201EB88017F1E09F101097FF4ED
:100810007DAF009808F10108001D00900398401E6C
:1008200003907FF44BAE0299012900E058E004BF29
:1008300006B0BDE8F08F00BFB5EEC00AF1EE10FAC9
:100840007FF4E9AD04990EFB05F3002B4A684FF0E5
:1008500000010BD902EB810C9CED000AB5EEC00A39
:10086000F1EE10FA02D1491C8B42F3D88B427FF48F
:10087000D2AD6FF00400CEE5E0EC010A491EFBD1D9
:10088000EFE538E0E0EC010A521EFBD108E692EDFC
:10089000000AD1ED000ABCF1010CE2EC010AA1EC66
:1008A000010AF4D1B7E694ED000AD0ED000A491E22
:1008B000E4EC010AA0EC010AF5D1BDE6D1ED000A95
:1008C000401E80EE801AA1EC011AF7D1EEE6D3EDBE
:1008D000000A401E80EE801AA3EC011AF7D10EE741
:1008E000BCEC011AD1ED000A5B1E40EE410AE1ECBE
:1008F000010AF5D14DE7B0EC011AD2ED000A5B1EFA
:1009000040EE410AE2EC010AF5D17BE72DE9F04F18
:1009100082B0466853680193058847884B88002059
:1009200000900888874201BFB2F800C06545528830
:1009300093421EBF6FF0020002B0BDE8F08F9FED42
:10094000412A4FEA970EC7F3400B00BFDDE90002D2
:1009500002EB800A4A6898464FF00009B0EE420A5E
:10096000B4465FEA0E0025D092ED001ADCED001AC5
:1009700002EB8302DCED010A01EE810A92ED001A1E
:1009800002EB8302401ED2ED001A02EB830200EE5E
:10099000810A9CED021ADCED030A00040CF1100C34
:1009A000000C01EE210A92ED001A02EB830200EE28
:1009B000810AD9D117F0030026D0ACF10404A2EBD0
:1009C000830210F0010F08D002EB8302D4ED010A7C
:1009D00092ED001A241D00EE810A5FEA0B0013D08D
:1009E00002EB830CD4ED010A9CED001A02EBC3026A
:1009F000401E00EE810AD4ED020A92ED001A04F1C5
:100A0000080400EE810AEBD109F10100AAEC010A09
:100A10001FFA80F9486800EB8902A8F101001FFA6B
:100A200080F8B8F1000F99D1009806EB87061844BA
:100A300080B20090681E05042D0C87D102B0002002
:100A4000BDE8F08F0000000070B405880E8844688F
:100A5000D1F804C05368B54208D14088498888421B
:100A600001BF11888D425188884203D070BC6FF05D
:100A70000200704705FB00F1880827D094ED001AAA
:100A8000DCED000A94ED010ADCED011A31EE601A8A
:100A9000D4ED020A70EE611A9CED020A83ED001A91
:100AA000C3ED011A94ED031ADCED031A30EEC00A0F
:100AB000401E71EE610A83ED020A04F11004C3EDD9
:100AC000030A03F110030CF1100CD7D111F003004D
:100AD00030D0B0F1004F30D200282BDD211F1B1F7A
:100AE000ACF1040210F0010F0AD091ED010AD2ED31
:100AF000010A091D121D30EE600A83ED010A1B1D5B
:100B0000400817D091ED010AD2ED010A401E30EEE7
:100B1000600A83ED010A91ED020AD2ED020A01F1A9
:100B2000080102F1080230EE600A83ED020A03F1C7
:100B30000803E7D170BC00207047B4EC010A401EE6
:100B4000FCEC010A30EE600AA3EC010AF5D1F1E7F2
:100B50002DE9F04F02884768B0F802804888D1F844
:100B6000049082B04FF0000A1646824207BF0988FF
:100B700088456FF0020002B018BFBDE8F08F4FEA61
:100B8000980B02EB42000190C8F34000CDF8000042
:100B900009EB8A01BBF1000F33D0019801EB820C05
:100BA00001EB80043B46E64601EBC2054FEA0B0031
:100BB00093ED000A401E81ED000A93ED010A01EB5E
:100BC00002118CED000A93ED020A0CEB021C85ED7C
:100BD000000A93ED030A05EB021584ED000A04EB0D
:100BE000021403F11003E3D10EEB820000EB82004C
:100BF00000EB8201ABF10100504307EB0B1701EB57
:100C0000001118F0030C21D03B1FA1EB82011CF056
:100C1000010F06D093ED010A01EB82011B1D81ED4E
:100C2000000A009880B100BF93ED010A01EB820435
:100C300001EBC20184ED000A93ED020A401E81ED32
:100C4000000A03F10803EFD107EB8C070AF101005A
:100C50001FFA80FA701E0604360C99D102B00020EB
:100C6000BDE8F08F2DE9F05F0546002092469B46D7
:100C700088460646814640241BE0284641464746B2
:100C8000224600F0DEF953465A46C01A914110D36D
:100C900011461846224600F0C5F92D1A67EB0108E7
:100CA0004F4622460120002100F0BCF917EB000955
:100CB0004E41201EA4F10104DFDC484631462A469D
:100CC0004346BDE8F09F40EA01039B0703D009E0DB
:100CD00008C9121F08C0042AFAD203E011F8013B28
:100CE00000F8013B521EF9D27047D2B201E000F881
:100CF000012B491EFBD270470022F6E710B51346C0
:100D00000A4604461946FFF7F0FF204610BD2DE9BC
:100D1000FE4F804681EA0300C00F0C46009021F090
:100D2000004123F00045B8EB0200A94105D240463E
:100D3000214690461C460B46024623F000401043D5
:100D400047D0270DC7F30A00C3F30A510290401A97
:100D5000019040286BDAC3F3130040F4801B009825
:100D6000924620B10023D2EB030A63EB0B0B0198F0
:100D70005946C0F14002504600F054F906460D466F
:100D800050465946019A00F06CF910EB0800614199
:100D9000002487EA115284EAE7731A4340D0009A8C
:100DA00062B3019A012A4FEA075215DC001B61EB7E
:100DB00002014FF0004202EA0752CDE90042001C56
:100DC00041F5801132462B4600F0A3F903B0BDE88F
:100DD000F08F40462146F9E7001B61EB0201001C41
:100DE00041F5801300185B412018A2F5001747EB6E
:100DF000030140EAD570B6196D4111E06D084FEA64
:100E0000360645EAC0754FEA0752001B61EB020146
:100E1000001C41F5801149084FEA3000001951418A
:100E200032462B4603B0BDE8F04F00F063B900989E
:100E3000012240000023D0EB020263EBE073009834
:100E400021464FEAE074B8EB000061EB0401E9E7EA
:100E500083F000435BE781F0004158E72DE9FE4F46
:100E600081EA030404F0004421F0004100944FF0B3
:100E7000000B23F0004350EA01045ED052EA030461
:100E80005BD0C3F30A54C1F30A552C44A4F2F334E3
:100E90000194A0FB0254C1F3130141F48011C3F388
:100EA000130343F4801301FB024400FB034E840A46
:100EB000970A44EA815447EA8357A4FB07680295DE
:100EC0008D0A05FB07854FEA932C04FB0C5427057C
:100ED000029D4FEA065847EA1637B5EB08056EEB58
:100EE000070C870E920E47EA811742EA8312A7FB8E
:100EF0000201B6EB0B0164EB00042B0D43EA0C334B
:100F00005E1844EB1C50DA465146E7FB0201C5F37C
:100F100013044FEA0B3343EA14534FEA0432019CA3
:100F200043EA0603A4F10C040294009CCDE900B44A
:100F300000F0EFF803B0BDE8F08F00200146F9E7BC
:100F40000EB5C10F80EAE0700844CA07002140F2E4
:100F500033438DE80E000A460B4600F0DAF803B082
:100F600000BDC1F30A5210B5C1F3130140F2FF33C3
:100F700041F480119A4201DA002010BD40F233435F
:100F80009A42A2F2334203DC524200F05AF810BDFA
:100F9000904010BD00F0004230F000400AD0C10D7A
:100FA00001F56071C0F3160042EA0151C208400722
:100FB00011437047002001467047000030B5041E01
:100FC00071F1000404DB4FF00044404264EB010186
:100FD000141E73F1000405DB1C464FF0004352421F
:100FE00063EB04038B4208BF824230BD01F0004333
:100FF00030B421F0004150EA010206D00A0DA2F5FA
:101000006072C1F31301002A02DC30BC002070477B
:10101000440F44EAC104C100E01830BC00EBC250E8
:1010200000F031B8202A04DB203A00FA02F1002057
:1010300070479140C2F1200320FA03F31943904016
:101040007047202A04DB203A21FA02F00021704781
:1010500021FA02F3D040C2F1200291400843194620
:101060007047202A06DBCB17203A41FA02F043EA08
:10107000E07306E041FA02F3D040C2F12002914051
:101080000843194670470029A8BF7047401C490013
:1010900008BF20F00100704710B4B0FA80FC00FADD
:1010A0000CF050EA010404BF10BC704749B1CCF108
:1010B000200421FA04F411FA0CF118BF0121214394
:1010C0000843A3EB0C01CB1D4FEA00614FEA10204F
:1010D00042BF002010BC704700EBC35010440029F1
:1010E000A4BF10BC7047401C490008BF20F001009D
:1010F00010BC704710B5141E73F1000408DA401CD0
:1011000041F1000192185B411A4301D120F0010026
:1011100010BD2DE9F04D92469B4611B1B1FA81F216
:1011200002E0B0FA80F220329046FFF77BFF0446DF
:101130000F4640EA0A0041EA0B0153465A4608436B
:1011400013D0114653EA010019D0C8F140025046AD
:10115000FFF777FF05460E46504659464246FFF7D1
:1011600061FF084305D0012004E020463946BDE870
:10117000F08D0020054346EAE0762C4337430A9879
:101180006305E40AA0EB08000022FD0A44EA475484
:101190000A3002D500200146E9E70105101969412E
:1011A000DDE9084500196941BDE8F04DA2E70000FE
:1011B00030B5041E71F1000404DB4FF000444042DE
:1011C00064EB0101141E73F1000405DB1C464FF0B3
:1011D0000043524263EB0403994208BF904230BD82
:1011E000064C074D06E0E06840F0010394E8070074
:1011F00098471034AC42F6D3FEF7CAFF20D500085A
:1012000040D5000870B58C1810F8015B15F0070385
:1012100001D110F8013B2A1106D110F8012B03E08F
:1012200010F8016B01F8016B5B1EF9D12B0705D497
:101230000023521E0DD401F8013BFAE710F8013BE0
:10124000CB1A921C03E013F8015B01F8015B521EFC
:10125000F9D5A142D8D3002070BD00000122102191
:10126000014802F021B800000000024000221021D5
:10127000014802F019B800000000024001221146A6
:10128000014802F011B800000004024000220121D0
:10129000014802F009B800000004024010B50446FD
:1012A000A82000F0D9FF0121044800F0E3F800284D
:1012B000F9D105F093F90248046710BD0C0E002027
:1012C000D830002005F0E6B970B50446FFF7CEFF30
:1012D000922000F02DF906226549122000F00AF94B
:1012E000FFF7BCFF624DA5F11C0668782978000263
:1012F00000B2084300EE100AD6ED030AB8EEC00AA9
:1013000060EE200A94ED080A60EE800AC4ED000A3F
:10131000E878A978000200B2084300EE900AB8EE1F
:10132000E01AD6ED030A21EE201A21EE001A84ED10
:10133000011A68792979000200B2084301EE100A07
:101340003081B8EEC11A61EE200A20EE800A84EDE9
:10135000020AFFF79BFF08222946002000F0CAF886
:10136000FFF78CFF28780F285AD1F078A978002849
:10137000E8784FEA002000B240EA01002BD000EEEE
:10138000100AD4ED090AB8EEC01A96ED040A51EE1F
:10139000000AC4ED030A68792979000200B2084303
:1013A00000EE900A94ED0A1AF8EEE00A10EE801AA8
:1013B00084ED041AE879A979000200B2084300EE2E
:1013C000900A308194ED0B1AF8EEE00A10EE801AC4
:1013D00084ED051A24E000EE100AF8EEC00A96ED3E
:1013E000040A60EE800AC4ED030A687929790002D4
:1013F00000B2084300EE900AF8EEE00A60EE800AC0
:10140000C4ED040AE879A979000200B2084300EEAD
:10141000900A3081F8EEE00A20EE800A84ED050A99
:10142000FFF724FFA22000F083F8022210492220B7
:1014300000F060F8FFF712FF28786978C00040EAF2
:1014400051103081B0F5806F02DBA0F50060308173
:10145000B6F90800B4EE001A00EE100AF8EEC00A61
:10146000B3EE070A00EE810A84ED070A70BD0000A2
:101470001003002070B50D461649174C0860002077
:10148000A07009F0B3FCA1780843A07009F042FDF8
:10149000A1780843A0701DB1104800F091F916E042
:1014A0000E489FED0F0A80ED090A9FED0E0A80EDB0
:1014B0000A0A80ED0B0A9FED0C0A80ED0C0A9FEDE5
:1014C0000B0A80ED080A9FED0A0A80ED060AA07853
:1014D00070BD00003C030020F4020020E433002033
:1014E000AC38223BB016CE393F161B41C48B813F2E
:1014F0000000204270B514460D4640F0800000F018
:1015000017F806E0552000F013F8641E05F8010BEB
:10151000E4B2002CF6D170BD10B50C4640F080004E
:1015200000F006F8552000F003F8207010BD000010
:1015300001B582B04FF47A7000900548012301AAEA
:1015400002A9006802F0E6FF9DF804000EBD00004D
:101550003C03002010B50C46FFF7EAFF2046BDE82B
:101560001040FFF7E5BFB6EE002A92ED020AB0EE9A
:10157000421AD2ED030A00EE401AD0ED001AD0ED67
:10158000013A00EEE01A21EE213A92ED011AD2ED75
:10159000001A61EE002A41EEE02A61EE200A41EED7
:1015A000800A02EEA33A90ED020AF0EE002A00EE65
:1015B000803A23EE220A81ED000AD2ED010AD2ED33
:1015C000021A92ED001A92ED030A20EEA13AD0ED34
:1015D000003A90ED014A01EE003A23EE233AF0EE94
:1015E000423A40EEE03A40EE403A21EE800A01EE07
:1015F000600A03EE843AD0ED020A00EE203A23EEB0
:10160000220A81ED010AD2ED010AD2ED031A92ED10
:10161000020A92ED001A20EEA13A60EE211AD0EDF6
:10162000003A00EEE02A01EE403A41EE201A90ED39
:10163000011A00EE402A23EE233A90ED020A01EE51
:10164000813A02EE003A23EE220A81ED020A704747
:10165000FEE70000014801F0CEB80000BC0D0020FC
:10166000014801F0C8B80000BC0D0020014801F09D
:10167000C2B80000BC0D0020014801F0BCB8000059
:10168000E40D0020014801F0B6B80000E40D002090
:10169000014801F0B0B80000E40D002000207047C0
:1016A0000020704710B500220449054807F0EEFB02
:1016B0000449034807F0DDFB002010BD282100206D
:1016C0004C1400202819002010B504460146294872
:1016D00007F0CFFB274807F0A5FB2078A5281ED1EF
:1016E00025480022A15C8154521CD2B20B2AF9D3A6
:1016F00050F8021FDFED210A00EE101AB1EE400A89
:1017000010EE101A0160416800EE101A30EE600A07
:1017100010EE101A41601A49174808F08FFF207820
:10172000F52825D117480022A15C8154521CD2B261
:101730000D2AF9D350F8051FDFED130A00EE101A39
:1017400020EE200A10EE101A9FED100A40F804193E
:10175000016800EE901A60EE800A10EE901A0160A7
:10176000816800EE901A20EE800A10EE101A816057
:10177000002010BD4C140020F0090020000034436C
:10178000550300207834002000409CC500409C4553
:10179000002070470A46094910B5D1F8BC12D1F8AB
:1017A000141209B1012010BD0146044807F06EFB78
:1017B000BDE81040014807F0E3BB00004C140020D6
:1017C0002DE9F04F04462DED048B89B000200090E8
:1017D000019000F01FFDEB4E02AF0DF1140886EDF5
:1017E000050A4FF07C5BDFF8A093DFF8A0A300F0C0
:1017F00011FDD6ED050AE64930EE600A10EE100A3A
:10180000884212DD9FEDE30A84ED090A9FEDE20AAA
:1018100084ED0A0A84ED0B0A9FEDE00A84ED0C0AC0
:101820009FEDDF0A84ED060A87E19FEDDE0A00F0F6
:10183000B5FC9FEDDD0A002584ED0C0A84ED090A54
:1018400084ED0A0A84ED0B0AF8E0FFF70FFD922001
:10185000FFF76EFE062269461220FFF74BFEFFF7E8
:10186000FDFC9DF801009DF80010000200B2084345
:1018700000EE100AD6ED030AB8EEC00A20EE200AE8
:1018800084ED000A9DF803009DF80210000200B2EA
:10189000084300EE900A96ED031A20EE000AF8EED7
:1018A000E00A60EE810AC4ED010A9DF805009DF88A
:1018B0000410000200B2084301EE900A00EEA00AF4
:1018C000F8EEE11A21EE811A84ED021A01EE010A06
:1018D00009F042FAB0EE408A94ED0C0A30EE080AA4
:1018E00084ED0C0AFFF7D2FC082269460020FFF7BE
:1018F00001FEFFF7C3FC9DF800000F2840D19DF8C2
:1019000003009DF80210000200B2084300EE100A26
:10191000F8EEC00A96ED040A60EE800AC4ED030AF0
:1019200094ED091A71EE200AC4ED090A9DF805002C
:101930009DF80410000200B2084300EE900AF8EE91
:10194000E00A60EE800AC4ED040A94ED0A1A71EE12
:10195000200AC4ED0A0A9DF807009DF8061000024F
:1019600000B2084300EE900AF8EEE00A20EE800A8A
:1019700084ED050AD4ED0B0A30EE800A84ED0B0AE3
:10198000002D7CD0B4EEC98AF1EE10FA01DDB0EE84
:10199000489AB4EEE88AF1EE10FA01D2F0EE488AE5
:1019A0000020424604EB800191ED030A07EB800121
:1019B000D1ED000AB4EEE00AF1EE10FA01DD81ED9E
:1019C000000A02EB8001D1ED000AB4EEE00AF1EE6C
:1019D00010FA01D281ED000A401CC0B20328E1D305
:1019E00039EE680A0020414686ED060A4A4607EBB2
:1019F0008003D3ED000A01EB800393ED001A02EBA4
:101A00008003401C70EEC10AC0B20328C3ED000A77
:101A1000EDD310EE100A584514DC1168504681428F
:101A200010DC516881420DDCD9F80810514509DC01
:101A30009FED5E0A00F0B2FB6D1CADB2F0888542EE
:101A4000FFF403AFF288D4ED0C0A00EE102A002058
:101A5000B8EE400A80EE801A84ED0C1A00EE102ACF
:101A600004EB8001401CB8EE400AD1ED090AC0B277
:101A7000032880EE801A81ED091AEFD300E069E0B7
:101A8000FFF7F4FBA220FFF753FD02226946222054
:101A9000FFF730FDFFF7E2FB9DF800009DF8011015
:101AA000C00040EA5110B0F5806F01DBA0F5006086
:101AB00000EE100AB4EE001AF8EEC00AB3EE070A00
:101AC00000EE810A84ED060AB088401CB080B0693F
:101AD00058453FF78CAE94ED0C0ADFED350A30EE39
:101AE000600AB0EEC00A10EE100A5845F1DCD9F8D1
:101AF0000020514648468A42EBDC42688A42E8DCD4
:101B0000D9F808005045E4DC94ED090A2948B0EE04
:101B1000C00A10EE101A8142DBDC94ED0A0AB0EE26
:101B2000C00A10EE101A8142D3DC94ED0B0AB0EE1D
:101B3000C00A10EE101A8142CBDC94ED0C0ADFEDE6
:101B40001E0A80EE801A84ED081A09B0BDEC048BE1
:101B5000BDE8F08FB0EE489AF0EE488A002041468A
:101B600004EB800292ED030A07EB800282ED000A8B
:101B700001EB8002401CC0B282ED000A0328EFD3C3
:101B80002EE70000F4020020D83300209A99193E75
:101B900000002041AC38223BB016CE393F161B4125
:101BA000000020420AD7A33B000000006F12033A56
:101BB000CDCC1C410AD7233CC3F51C41002900D0E1
:101BC0000164704710F8742F12028A8243781A4415
:101BD00092B200EE102A8A82B8EE400A81ED060A1F
:101BE000827812028A81C3781A4412B200EE102A57
:101BF0008A81B8EEC00A81ED040A02791202CA8312
:101C000043791A4412B200EE102ACA83B8EEC00A11
:101C100081ED080A807981F8240070470021017164
:101C2000704710B50446007938B904F1440006F055
:101C3000B5FA04F18C0006F0B1FA0120207110BD54
:101C4000818A828B881A914202D241F6FF71084440
:101C500080B270472DE9F04F8BB00025DFF828B136
:101C6000C26617460E4604464FF00E084FF00109B3
:101C7000AA460160E80140F2012C00EB4C110091F2
:101C800040F2022100EB4111019140F2032100EBEF
:101C900041110291CDE9069A4A465346CDF820906B
:101CA000022D06D000F5814003905E4504D10595D4
:101CB00008E0CDF80CC0F8E73448864204D105F1BD
:101CC0000E000590CDF8248017B1012F03D005E058
:101CD0000220049301E010200492206769463046F8
:101CE00000F072FC6D1CEDB2032DC3D343F6E0711E
:101CF0000091CDF820904FF4804145F6E072CDE997
:101D00000112CDE9069A4846554603915E4501D138
:101D1000042103E01D498E4203D11121CDF8248016
:101D2000059117B1012F03D005E00220049501E0D1
:101D30000490102020676946304600F045FC30468C
:101D4000216F00F0D0FB304600F0A7FF0820810192
:101D50002561A160C4E90550491EA5622162C4E95C
:101D60000B502564C4E9115040F2FF20A06300200D
:101D700004EB8001401CC0B2C1F894500B28F7D38B
:101D80000BB0BDE8F08F0000BC0D0020E40D00207A
:101D900010B5029C016042718371848300218163CC
:101DA0008162C0F8D410C0F8D810C0F8E010C0F8B4
:101DB000E41010BD31B10A6800EB8202A2F5805236
:101DC000C2F89018AFF3008070B5002686803146C7
:101DD00034463346324600EB8105D5F8945015B1B0
:101DE0002D782C44E4B2491CC9B20429F3D314B1B0
:101DF00006F580768680042100EB8104D4F89440B7
:101E000014B124782344DBB2491CC9B20829F3D3A6
:101E100013B1B1B210318180082100EB8103D3F8F6
:101E2000943013B11B781A44D2B2491CC9B20B29A1
:101E3000F3D3002A02D08188491C818070BD70B51F
:101E40000646002506EB8504D4F89400E8B3017932
:101E500079B1816A21B18847D4F8940080ED0B0AEA
:101E6000D4F89400817939B1012915D002293BD1E8
:101E700034E00022014649E0D0F8D810D1ED000A44
:101E8000D0F8D410443091ED000A06F0F3F8D4F8FD
:101E9000940080ED370A27E0D0F8D810D1ED000A81
:101EA000D0F8D410443091ED000A06F0E3F854F86D
:101EB000940F80ED370A2068D0F8E410D1ED000AC5
:101EC000D0F8E01091ED000A00E022E08C3006F03E
:101ED000D1F854F8940980ED3A0A05E0016B88477F
:101EE000D4F8940080ED0D0AD4F89400816B21B1F0
:101EF0008847D4F8940080ED0F0A54F8940F006CD2
:101F000090ED000A09F0CBFB21680246304600F054
:101F100096F86D1CEDB20B2D94D370BDF0B40C4649
:101F2000DDE9047600F1440500F18C013FB1AC42DB
:101F300001D1C0F8D4708C4201D1C0F8E0703EB13C
:101F4000AC4201D1C0F8D8608C4201D1C0F8E46045
:101F5000002B06D093EC050A20461146F0BC09F090
:101F60009BBEF0BC70478162704710B50446C16EDD
:101F7000006804F1740304F1500200F0ACFB216F1F
:101F8000206800F0B0FA94F85000401EC0B204EB94
:101F90008000D0F894102046BDE81040FFF712BE34
:101FA0002DE9F0410446808804F18C0804F13807DB
:101FB00004F17C0604F1200504F1840204F1080117
:101FC000B0F5807F22D006DC012815D0102818D06B
:101FD00011282BD10BE0A0F5807001381CD00F2800
:101FE0001FD0102822D10123206800F08EFA02238E
:101FF00032462946206811E00423424639462068CB
:1020000006E0022332462946206801E020680123C9
:10201000BDE8F04100F079BA0123206800F075FABC
:10202000EAE70123206800F070FAEAE7BDE8F081F2
:10203000417909B1B1EE400A80ED020A704710B54E
:102040000978C2F30723D2B20C2915D2DFE801F0D8
:1020500014060606060D0D0D0D1515154900891EF1
:10206000C9B2084400F8843F05E049000A39C9B202
:10207000084400F87C3F427010BD49001239C9B2D3
:10208000084400F88C3FF6E7014800F093BE0000DA
:102090002C130020014800F08DBE00008C1300209E
:1020A000014800F087BE0000640E0020014800F0E7
:1020B00081BE0000C40E0020014800F07BBE00007D
:1020C000EC130020014800F075BE0000CC12002087
:1020D00001681823CAB2103AB2FBF3F2054B6FF352
:1020E0000901032A9B5CC36500D9091D8165084667
:1020F000704700003AC9000810B5014600208B69FE
:102100008A6A4FF0C07453B1B3F5005F15D072B155
:10211000012A0CD0022A0AD0032A09D104E01AB1FC
:10212000012A06D0022A03D1C96AC90100D50120BB
:1021300010BDC96AA142FAD010BD002AF7D0012A09
:10214000F2D0022AF3D0032AF3D010BD30B50468D0
:10215000256825F480252560046863608368402B2A
:10216000036803D099600068C26030BD9A6000685F
:10217000C16030BD074808B5406800900146064878
:102180000269914202D2C168491CC1600099016193
:1021900008BD0000001000E0C80100200A484168A6
:1021A0000A4AD2ED000A4268521AF8EE601A01EEAD
:1021B000102AB8EE411A60EE211AB4EEE11AF1EEDF
:1021C00010FAF0D370470000001000E0C8010020B2
:1021D00000B50E492DED028B81B049680091016870
:1021E000009A511A00EE101A0949F8EE400A91EDD2
:1021F000000A0260B8EE400A80EE808AFFF7BAFF5C
:1022000001B0B0EE480ABDEC028B00BD001000E04A
:10221000C801002010B500F043F80C489FED0C1ADF
:10222000818890ED000A00EE901AC088B8EE400A4E
:10223000F8EE600A00EE810A00EE900A9FED051AA2
:10224000F8EE600A00EE810A10BD0000F8010020DF
:102250006F12833ABD3786350D490A6842F08072A5
:102260000A600C4900224A600B6843F001030B60CE
:1022700009494FF47A734843B0FBF3F30749C1E9C6
:102280000003054BB0FBF3F0C1E902027047000008
:10229000FCED00E0001000E040420F00C80100200B
:1022A0002DE9F843224840680090FFF763FF214C76
:1022B00000270098E1684FF0FF323D46E1FB020540
:1022C000C4E90E05D4F80080064642463B4629463E
:1022D000FEF7C8FC0246A2FB083CC4E9060101FB6C
:1022E00008C002FB0701F01A65EB0105C4E9080507
:1022F00004F130080646C8F80020D4F80490002302
:102300004A462946FEF7AEFC81B2A8F8041001FB4C
:1023100009F1701A65EB0705C4E90A05294600238F
:10232000A268FEF79FFCA8F80600BDE8F88300004D
:10233000001000E0C80100207047082000F0C0BE77
:10234000102000F0BDBE202000F0BABEB6EE002A7C
:1023500092ED020AB0EE421AD2ED030A00EE401AE4
:10236000D0ED001AD0ED013A00EEE01A21EE213A4C
:1023700092ED011AD2ED001A61EE002A41EEA02A78
:1023800061EE200A41EEC00A02EEA33A90ED020A85
:10239000F0EE002A00EE803A23EE220A81ED000AD8
:1023A000D2ED010AD2ED021A92ED001A92ED030A63
:1023B00020EEA13AD0ED003A90ED014A01EE403A0C
:1023C00023EE233AF0EE423A40EEE03A40EE403A55
:1023D00021EE800A01EE200A03EE843AD0ED020AD3
:1023E00000EE203A23EE220A81ED010AD2ED010A25
:1023F000D2ED031A92ED020A92ED001A20EEA13AF4
:1024000060EE211AD0ED003A00EEE02A01EE003A2B
:1024100041EE601A90ED011A00EE402A23EE233AB5
:1024200090ED020A01EE813A02EE003A23EE220A12
:1024300081ED020A704772B6FEE70A780270B1F8C1
:102440000120C2F30A0242808A78CB78D20842EA9D
:102450004312C2F30A028280CA780B79920942EAD7
:1024600083024B7942EA8322C2F30A02C2804A798C
:102470008B79520842EAC312C2F30A0202818A79B6
:10248000CB79120942EA0312C2F30A024281CA79E5
:102490000B7AD20942EA43024B7A42EA4322C2F360
:1024A0000A0282814A7A8B7A920842EA8312C2F344
:1024B0000A02C2818A7ACB7A520942EAC3020282B4
:1024C0008A89C2F30A0242824A7B8B7BD20842EAA3
:1024D0004312C2F30A028282CA7D8275097EC175E7
:1024E00070470173704790F82020012A07D0022A14
:1024F00005D0416A41F480214162012070470068A3
:1025000042690A43426100207047F0B590F82050BC
:102510000468A468012D05D0022D03D0416A41F45E
:1025200080214DE014F0406F01D1E50045D5C4F3A2
:1025300001640125A5401D608B684FF4C0759BB1F7
:10254000CE6833434E6843EAC603066805EB0417BA
:10255000F3514FF4C273076803EB04130E69FE5086
:10256000097D012905D009E00E88CB6843EA46536E
:10257000EBE70168CE5846F48076CE501179D2F858
:1025800005304FF4C67641EA0321036806EB0416D2
:1025900099511178D2F801204FF4C47341EA022115
:1025A000026803EB0413D150006805EB0411425894
:1025B00042F0010242500020F0BD416A41F4001196
:1025C00041620120F0BD000010B590F82020012AE2
:1025D00007D0022A05D0416A41F4802141620120DE
:1025E00010BD3B48D0F8002242F00102C0F80022A2
:1025F000D0F8002222F47C52C0F80022D0F8002249
:102600004B6A42EA0322C0F800220A7D02F01F034F
:1026100001229A40D0F81C329343C0F81C32CB6997
:10262000B3B9D0F80C329343C0F80C328C894B68A4
:1026300064F31F434C6900EBC404C4F840320C89B6
:102640000B6864F31F434C6900EBC404C4F84432C4
:10265000CB69012B16D1D0F80C321343C0F80C32E1
:102660000C884B6864F31F434C6900EBC404C4F846
:1026700040320C89CB6864F31F434C6900EBC404FF
:10268000C4F844328B69002BD0F804320ED01343C7
:10269000C0F804320B69002BD0F8143208D0134371
:1026A000C0F81432096A012904D008E09343EFE727
:1026B0009343F5E7D0F81C121143C0F81C12D0F870
:1026C000001221F00101C0F80012002010BD00002E
:1026D00000640040704770B590F82040012C05D090
:1026E000022C03D0416A41F4802128E0046809B338
:1026F0002469A40720D04FF4D874056804EB0114B2
:102700002D5915F00405956005682D591AD0ED086E
:10271000556005682C5904F00204D4604FF4DA7453
:10272000056804EB01142E5906F00F06082E0CD391
:1027300008250DE0E468DCE7416A41F400114162DC
:10274000012070BD6D0D1560E3E72D5905F00F05F3
:10275000156105682D59C5F30725956105682C5944
:10276000240C54614FF4DC72046802EB0112A4588B
:102770001C700468A458240A5C700468A458240CD3
:102780009C700468A258120EDA704FF4DE7204686E
:1027900002EB0112A4581C710468A458240A5C714D
:1027A0000468A458240C9C710468A258120EDA71B3
:1027B000006829B1016941F020010161002070BD6C
:1027C000C16841F02001C160F8E70246002092F89C
:1027D0002010012901D002290CD111688A68520108
:1027E00000D501208A68120100D5401C8968C90003
:1027F00000D5401C70472DE9F05F054600680024B5
:102800004669D0F804908768D0F80CB0D0F810A0D2
:10281000D0F81880F10748D0F90714D00121816061
:10282000B80703D5284600F064FA0CE0780702D513
:102830004FF4006407E0380702D54FF4805402E0FB
:10284000284600F055FAF80516D529684FF480702F
:102850008860B80503D5284600F04DFA0CE07805ED
:1028600002D544F4005407E0380502D544F480440E
:1028700002E0284600F03EFAF80316D529684FF426
:1028800080308860B80303D5284600F036FA0CE0A3
:10289000780302D544F4004407E0380302D544F439
:1028A000803402E0284600F027FA300707D55FEAB7
:1028B000CB6004D52968102044F40074C860700708
:1028C0004FF0080707D55FEA0B7004D52868C7608A
:1028D000284600F0B7F9B00706D52868C068800719
:1028E00002D0284600F0B0F9700607D55FEACA604A
:1028F00004D52968102044F480640861B00607D527
:102900005FEA0A7004D528680761284600F0B6F926
:10291000F00606D528680069800702D0284600F036
:10292000AFF9B00308D55FEAC96005D52968102062
:102930004860284600F0B0F9F00307D55FEA097057
:1029400004D528684760284600F0D8F9300446D5F9
:102950005FEA497040D5F00504D55FEAC87001D040
:1029600044F00104B00504D55FEA887001D544F055
:102970000204700504D55FEA487001D544F00404F0
:10298000300529D518F0700F26D008F070004028C7
:1029900015D006DC102809D020280AD0302816D1FE
:1029A0000AE050280ED0602811D10EE044F008044F
:1029B0000DE044F010040AE044F0200407E044F085
:1029C000400404E044F0800401E044F4807428688A
:1029D000816921F070018161296804204860002C20
:1029E00005D0686A204368622846FFF773FEBDE899
:1029F000F09F70B5040003D094F8200010B104E0FB
:102A0000012070BD204600F081F82068016841F087
:102A10000101016000F04EFC0546052604E000F0CF
:102A200049FC401B0A2811D820684068C007F6D02E
:102A30002068016821F00201016000F03BFC0546BE
:102A40000BE000F037FC401B0A2806D9606A40F40E
:102A50000030606284F82060D2E720684068800718
:102A6000EFD4207E0128206801683DD021F080014C
:102A70000160607E01282068016838D021F04001A3
:102A80000160A07E01282068016833D021F0200178
:102A90000160E07E0128206801682ED041F010011D
:102AA0000160207F01282068016829D021F00801F9
:102AB0000160607F01282068016824D021F00401B2
:102AC0000160D4E902010843D4E904121143084328
:102AD0006168491E08432168C861002060620120C6
:102AE00084F82000002070BD41F08001C0E741F073
:102AF0004001C5E741F02001CAE721F01001CFE70E
:102B000041F00801D4E741F00401D9E7F0B587B0FE
:102B1000044614216846FEF7EFF84549454ADFF8B8
:102B20000CE10868D4F800C0424B032402250926B2
:102B300010320027401CF44531D10860012807D12C
:102B4000106840F000701060106800F00070059090
:102B5000186840F00800186018688DE8B00000F0B0
:102B60000800CDE9046069460394334800F0B4FAE4
:102B700000221146132000F00BFC132000F0FAFB9A
:102B800000221146142000F003FC142000F0F2FB98
:102B900000221146152000F0FBFB152041E0DFF874
:102BA0009CE0F4453FD1D2F800C04CF0806CC2F8F4
:102BB00000C0D2F800C001280CF0806CCDF814C021
:102BC000086007D1106840F000701060106800F0D5
:102BD00000700590186840F0020018601868694697
:102BE00000F00200059060208DE8A100CDE90346C9
:102BF000134800F071FA002211463F2000F0C8FB94
:102C00003F2000F0B7FB00221146402000F0C0FB3F
:102C1000402000F0AFFB00221146412000F0B8FB3D
:102C2000412000F0A7FB07B0F0BD000000640040A9
:102C30000400002030380240000C024000680040D0
:102C4000000402407047000010B504460748844263
:102C500002D10748FFF789F90648844204D1BDE84C
:102C600010400548FFF781B910BD0000BC0D0020E1
:102C7000AC030020E40D0020440600207047000053
:102C80000349884202D1034808F060BA7047000047
:102C9000BC0D0020180A0020704770B5044690F85B
:102CA0002000012804D0606A40F40020606217E030
:102CB000022084F820002068016821F001010160F1
:102CC00000F0F8FA05460DE000F0F4FA401B0A287F
:102CD00008D9606A40F400306062052084F8200062
:102CE000012070BD20684068C007EDD1606270BDF2
:102CF00070477047704770477047704770472DE9BD
:102D0000F0410446876D00F0D5FA054694F8350089
:102D10000026022806D08020606584F834600120F7
:102D2000BDE8F0812068016821F01601016020688B
:102D3000416921F080014161206C08B9A06C20B18B
:102D40002068016821F0080101602068016821F015
:102D5000010101600CE000F0ADFA401B052807D925
:102D600020206065032084F8350084F83460D7E7BC
:102D700020680068C007EED194F85C103F208840BE
:102D8000B860012084F8350084F834600020C7E77B
:102D900090F83510022903D0802141650120704749
:102DA000052180F835100068016821F001010160FB
:102DB000002070472DE9F84304464FF00009CDF894
:102DC000009063484FF41651A56D0068B0FBF1F711
:102DD0002E6894F85C20082101FA02F030420FD0EE
:102DE0002068026852070BD5026822F004020260D4
:102DF00094F85C008140A960606D40F0010060655E
:102E000094F85C104FF0010808FA01F0304208D045
:102E100021684969090604D5A860606D40F0020088
:102E2000606594F85C1004208840304208D0216826
:102E30000968890704D5A860606D40F004006065EA
:102E400094F85C1010208840304218D0216809683E
:102E5000090714D5A86020680168490304D50068F3
:102E6000000308D5A16C07E00168C90503D4016817
:102E700021F008010160216C09B12046884794F8CF
:102E80005C1020208840304231D021680968C90692
:102E90002DD5A86094F8350005282068016806D073
:102EA000490347D5006800031DD4616C1CE021F084
:102EB000160101602068416921F080014161206CA8
:102EC00008B9A06C20B12068016821F008010160F8
:102ED00094F85C103F208840A86084F8358084F81E
:102EE0003490216D1FE0E16B09B120468847606D89
:102EF00000282BD0606DC00714D0052084F8350061
:102F00002068016821F0010101600098401C0090D8
:102F1000B84203D820680068C007F6D184F835802D
:102F200084F83490E16C002910D001B02046BDE84F
:102F3000F04308470168C905D5D4016821F01001A4
:102F4000016084F8358084F83490CCE7BDE8F883DC
:102F5000140000202DE9F041044600F0ABF90546CD
:102F60005CB1022084F83500002684F834602068C3
:102F7000016821F0010101600DE00120BDE8F08150
:102F800000F098F9401B052805D920206065032032
:102F900084F83500F2E720680068C007F0D12168A6
:102FA0000A6820480240D4E901031843D4E90335F4
:102FB0002B43184363691843A3691843E369184313
:102FC000236A18431043626A042A03D1D4E90B230D
:102FD0001A431043086020684069656A20F00701C1
:102FE00028460D43012704280CD1A06A0543E06A56
:102FF00040B12046FFF780F820B14020606584F89A
:103000003570BAE7206845612046FFF761F894F80B
:103010005C203F2191408160666584F83570002016
:10302000ACE700003F8010F02DE9F0410446866DCA
:1030300090F83400002501280DD0012084F83400D8
:1030400094F835700020012F07D084F83400022551
:103050002846BDE8F0810220FBE7022784F835709E
:1030600060652046FFF772F894F85C103F208840B6
:10307000B0602068016841F016010160206C20B149
:103080002068016841F0080101602068016841F092
:1030900001010160DCE7000070B5044600F00AF9A8
:1030A0000546601C02D004480078044400F002F990
:1030B000401BA042FAD370BD0800002070470000FA
:1030C000044910B50A68024202D00860FFF7F6FF13
:1030D00010BD0000143C01402DE9F84FDFF89C9131
:1030E0000022A9F1040B03274FF00F0C09F1040A89
:1030F000ABF1040E01250B6895402B40AB426ED11D
:103100000C7904F00304012C01D0022C15D186683F
:10311000540007FA04F826EA0806D1F80C8008FAE9
:1031200004F848EA0608C0F808804468AC430D7902
:10313000C5F300159540254345600C79E443A40789
:1031400008D0C568540007FA04F6B5438E68A64057
:103150002E43C6600C7904F00304022C11D1D4086C
:1031600000EB8406356A5407E40E0CFA04F825EAED
:103170000805D1F8108008FA04F848EA0508C6F8EE
:1031800020800568540007FA04F6B5430E7906F06E
:103190000306A6402E4306604C6814F4403F66D0F8
:1031A000374C256845F480452560246822F00305E6
:1031B00004F480440094334C05EB0408D8F8085814
:1031C0009407260F0CFA06F4A5432F4CA04201D118
:1031D000002424E02D4CA04202D101241FE046E04F
:1031E0002B4CA04201D1022419E02A4CA04201D16B
:1031F000032414E0284CA04201D104240FE0274C02
:10320000A04201D105240AE0254CA04201D10624A8
:1032100005E0244CA04201D1072400E00824B4407A
:103220002C43C8F80848D9F800404D464E689C43E6
:10323000F60200D51C432C60DAF8004055464E6873
:103240009C43B60200D51C432C60DBF800405D4671
:103250004E689C43B60300D51C432C60DEF800404A
:1032600075464E689C43F60300D51C432C60521CE7
:10327000102AFFF43FAFBDE8F88F0000083C014082
:103280004438024000300140000002400004024087
:1032900000080240000C02400010024000140240EE
:1032A00000180240001C02400AB181617047090405
:1032B000FBE700000148806870470000080000201C
:1032C000024881680278114481607047080000203C
:1032D0000B4810B5016841F400710160016841F4C8
:1032E00080610160016841F480710160032000F099
:1032F0006FF80F2000F006F800F024F8002010BD51
:10330000003C024070B50D4D04464FF47A712878A8
:10331000B1FBF0F00A490968B1FBF0F001F0EDF9FA
:1033200048B9102C07D200222146501E00F030F878
:1033300000206C6070BD012070BD000008000020FE
:10334000140000200A4808B5016841F4804101607A
:10335000006800F4804000900548001F016841F0BB
:1033600080510160006800F08050009008BD0000AE
:1033700044380240002809DB00F01F02012191407F
:103380004009800000F1E020C0F800117047000003
:10339000F0B40E4B1B68C3F30223C3F10704042CE3
:1033A00000D904241D1D072D01D2002300E0DB1EDF
:1033B000012606FA04F56D1E0D409D409E40761EC6
:1033C000164045EA0601F0BC07F0DDB90CED00E05F
:1033D000064A00F0070110684FF6FF03184040EA64
:1033E0000120034908431060704700000CED00E025
:1033F0000000FA0570470068416200207047F0B590
:103400000368586A39B19C6A4FF4827500EB144422
:1034100000204E1E0AE040EA024098620FE005EBF1
:103420008007DF59401C04EB1744C0B2B042F6D30A
:1034300044EA02404FF4807202EB810158500020B0
:10344000F0BDD0F8E00406F030B801EBC10200EBAB
:103450008202D0F8E004126A05F083BF01EBC102DA
:1034600000EB8202D0F8E004D2F8602205F0D2BF6F
:10347000D0F8E00406F01BB80A0601F00F0101EBDA
:10348000C10100EB810101D5143101E001F5157195
:10349000006806F0F5BE70B504460B0601F00F009B
:1034A00000EBC00104EB81014FF001024FF0000579
:1034B00002D54A75143103E081F8555201F51571B2
:1034C000087094F89404012808D084F894242068A3
:1034D00006F0F4FB84F89454002070BD022070BD07
:1034E00070B5044601F00F002279904201D9012005
:1034F00070BD0B0601F00F0101EBC10104EB81016E
:103500004FF001024FF0000502D54A75143103E077
:1035100081F8555201F515718D70087094F8940476
:10352000012808D084F89424206806F035FD84F83A
:103530009454002070BD022070BD01F00F0101EB1A
:10354000C10100EB8100D0F8680270472DE9F0411D
:1035500004460F0601F00F0000EBC00104EB8101EF
:103560004FF001064FF0000502D54E75143103E00F
:1035700081F8555201F51571C2F30A0208708A608C
:103580000B714A7802B14883022B00D14D7194F837
:103590009404012809D084F89464206806F0E0FAC5
:1035A000284684F89454BDE8F0810220FBE710B56A
:1035B00001F00F0404EBC40100EB8101C1E9982381
:1035C0000023C1F8683281F8553281F8544283797A
:1035D00001F51571012B00D1CA618279006806F0EE
:1035E00033FD002010BD70B504460D4601F00F00FC
:1035F0002179884201D9012070BD29064FF00006CB
:103600004FF0010206D500EBC00104EB81014A75C1
:10361000143107E005EBC50104EB810181F8556227
:1036200001F515718A70087094F89404012807D088
:1036300084F89424206806F0DBFC280702D007E019
:10364000022070BDA17904F29C42206806F078FC4B
:1036500084F89464002070BD10B501F00F0404EBF1
:10366000C40100EB8101C1E9082300238B6201231F
:103670004B7501F8144F8379012B00D1CA6182790F
:10368000006806F0E1FC002010BD00002DE9F84FB5
:1036900005680446284606F08EFE00287DD1206885
:1036A00006F0B5FE002878D0D5F80808C0F30D2044
:1036B000C4F8D404206806F0AAFE800704D5206868
:1036C000416901F002014161206806F0A0FEC106D7
:1036D00004F29C40009034D52068816921F01001EB
:1036E00081612F6A07F00F0000EBC00004EB800639
:1036F000C7F3434006F51576022802D0062811D0FC
:103700001AE047F6F070074216D0C7F30A121746C0
:103710002846F16806F07FFEF0683844F060706972
:10372000384408E008222846009906F074FE7069C3
:10373000C7F30A11084470612068816941F01001E3
:103740008161206806F063FE00034FF0010B7AD51B
:103750000026206806F03AFE8046DFF878A46FE085
:103760005FEAC87069D0F1B2206806F048FE0746EB
:10377000C00707D005EB4611C1F808BB314620460B
:1037800004F064F9380722D505EB46110820C1F88A
:10379000080B2068D0F8409000E018E200EB4610DB
:1037A000D0F8082BD14505D9110403D54FF40041B9
:1037B000C0F8081B204600F0F0FAD14507D9A079DF
:1037C000012804D120680121009A06F0B9FBF8060F
:1037D00004D505EB46111020C1F8080BB8071DD51C
:1037E0006869000605D5D5F8040840F48061C5F87D
:1037F000041806EBC60004EB800090F8571200F5A1
:103800001570012905D10021C170F1B2204600F0E8
:10381000E7F905EB46110220C1F8080BB80604D5FC
:1038200005EB46102021C0F8081BB80405D505EBB0
:1038300046104FF40051C0F8081B4FEA5808761C98
:10384000B8F1000F8CD1206806F0E1FD40036DD582
:10385000206806F0B4FD8046002664E05FEAC87088
:103860005ED0F1B2206806F0B8FD0746C00723D04D
:1038700006F00F010BFA01F0D5F834188143C5F8B2
:10388000341805EB4610C0F808B9A07901280FD10B
:1038900006EBC60004EB8000D0E907211144016269
:1038A00036B9606A20B920680121009A06F048FB09
:1038B000F1B22046FFF7C9FD380704D505EB4611E4
:1038C0000820C1F80809F80604D505EB46111020B8
:1038D000C1F80809780604D505EB46104021C0F868
:1038E0000819B80716D53146284606F039FD06EB0B
:1038F000C60004EB8000C17D1430012905D10021F0
:10390000C170F1B2204600F067F905EB46110220C4
:10391000C1F80809380603D53146204604F0FCF802
:103920004FEA5808761CB8F1000F97D1206806F0CE
:103930006EFD002811DAD5F8040820F00101C5F861
:10394000041894F8CC0401282BD0204600F00AFA81
:103950002068416901F000414161206806F057FD8F
:1039600000050BD5D5F80808C00702D0204600F0A6
:103970003DFA2068416901F400614161206806F068
:1039800046FDC00467D5D5F8040820F00101C5F84C
:1039900004181021206806F0E3FC00214FF67F3266
:1039A00020E0002084F8CC0401462046FFF722FDE9
:1039B000CEE705EB4110C0F80829D0F8003923F410
:1039C0000013C0F80039C0F8082BD0F8003B23F4EE
:1039D0000013C0F8003BD0F8003B43F00063C0F890
:1039E000003B491C20798842E3D8D5F81C0840F0F8
:1039F0000111C5F81C18E07B002828460DD0D0F82E
:103A0000840840F00B01C5F88418D5F8440840F04C
:103A10000B012846C5F844180DE0D0F8140842F20E
:103A20002B010843C5F81408D5F8100840F00B0125
:103A30002846C5F81018D0F8000820F4FE61C5F833
:103A40000018A1792068009A06F07AFA2068416986
:103A500001F480514161206806F0D9FC800415D53D
:103A6000206806F0BDF8206806F098FCE07100F0D0
:103A70006FFA0146E279206806F02CFD204600F03E
:103A80005BF92068416901F400514161206806F04A
:103A9000BEFC000707D5204600F068F920684169A0
:103AA00001F008014161206806F0B1FC000615D55F
:103AB000A86920F08001A96101260CE006EBC60090
:103AC00004EB800090F85702012803D1F1B22046A0
:103AD000FFF7D2FC761C2079B042EFD8206806F0C0
:103AE00096FCC0021FD501265F4614E005EB461088
:103AF000D0F8001906EBC60004EB8000027E012A14
:103B000008D1002906DAC775F0B240F080012046DE
:103B1000FFF7B2FC761C2079B042E7D820684169F3
:103B200001F480114161206806F071FC800231D5FA
:103B300001205B4626E005EB4011D1F8001B00EBAD
:103B4000C00204EB820292F85862012E19D10029BA
:103B500017DA94F8D46401F4803106F00106B1421A
:103B60000FD182F85732A96941F08002AA616969D0
:103B7000090606D4D5F8040840F40070C5F8040816
:103B800003E0401C21798142D5D82068416901F4C5
:103B900000114161206806F03AFC400007D520463C
:103BA000FFF74FFC2068416901F0804141612068C6
:103BB00006F02DFC40070AD520684568680702D545
:103BC0002046FFF755FC2068416829434160BDE865
:103BD000F88F00000A30544FD0F8E00405F0B9BC6B
:103BE000D0F8E00405F0C9BCF8B5040005D094F89D
:103BF00095042668002510B106E00120F8BD84F880
:103C00009454204600F056F8032084F89504B6F149
:103C1000A04F00D1A571206806F08CF9207C8DF8AA
:103C2000000094E80F0005F0E9FF0226B0BB002178
:103C3000206806F00FFC88BB002101270CE001EB97
:103C4000C10004EB800047750175C1850576C5612B
:103C50000562491CC9B2456220798842EFD800212B
:103C600011E001EBC10004EB800080F8555280F8B0
:103C7000541280F85852C0F85C52C0F86052491C87
:103C8000C9B2C0F8645220798842EAD8207C8DF805
:103C9000000094E80F0006F095F810B184F89564E0
:103CA000ABE7657484F89574206806F07DF8002011
:103CB000F8BD000010B586B0044614216846FDF733
:103CC0001BF82068B0F1A04F2FD1194800210268DD
:103CD00042F001020260006800F0010005904FF41C
:103CE000C05000900220CDE90101032003900A207A
:103CF000049069460F48FFF7EFF90D48001D016871
:103D000041F0800101600A481430016841F48041AB
:103D100001600068002200F48040059011464320B5
:103D2000FFF736FB4320FFF725FB06B010BD000070
:103D3000303802400000024070B50446C0790125C9
:103D400070B1022801D0FEF776FB2946D4F8E004D2
:103D500005F081FCD4F8E004BDE8704005F036BC05
:103D60000025F2E7D0F8E00405F05EBCD0F8E004EE
:103D700005F064BC10B5044690F8940401280AD0FC
:103D8000012084F894046174206806F091FB0020FF
:103D900084F8940410BD022010BDD0F8E02400F295
:103DA0009C41104605F063BC10B50446006894F8C9
:103DB0009414012909D0012184F89414C16849069A
:103DC00009D5617B012902D005E0022010BD816B7D
:103DD00041F480318163206806F0A0FA206805F084
:103DE000D5FF002084F8940410BD000010B50446EF
:103DF000D0F8E00405F07DFC2068D0F8001E41F00A
:103E00000101C0F8001EE07A002804D002480168D1
:103E100041F00601016010BD10ED00E02DE9F04712
:103E20000D46040065D0DFF81491D9F80000EFB218
:103E300000F00700A84207D289F80070D9F8000006
:103E400000F00700A84254D120683D4E810712D5EA
:103E5000400703D5306840F4E05030602078000718
:103E600003D5306840F4604030603068A16820F0CD
:103E7000F000084330602078C0072DD030496068DA
:103E80000839012812D0022813D0032811D009685C
:103E9000890700292DDA316821F0030101433160DF
:103EA000FFF708FA804641F2883A0EE00968890374
:103EB000EFE709688901ECE7FFF7FCF9A0EB0801DF
:103EC000514502D90320BDE8F0873068616800F0F1
:103ED0000C00B0EB810FEFD1D9F80010484601F08B
:103EE0000701A94207D90770006800F00700A8423F
:103EF00001D00120E7E72078400705D53068E16868
:103F000020F4E050084330602078000706D5306880
:103F1000216920F4604040EAC100306000F03EF8C2
:103F20003168084AC1F30311515CC8400649086072
:103F300006480068FFF7E6F90020C4E7003C0240AD
:103F40000838024042C90008140000200C0000207C
:103F5000014800687047000014000020044805492B
:103F600000680968044AC1F38221515CC840704767
:103F7000140000200838024052C9000804480549CE
:103F800000680968044AC1F34231515CC840704777
:103F9000140000200838024052C90008154810B526
:103FA000006810F00C01144813D0144B04290FD0F2
:103FB00008290ED10F4C241F216801F03F0221680F
:103FC000490207D52068C0F38810A0FB030106E072
:103FD000184610BD2168C1F38811A1FB0001002320
:103FE000FCF740FE2168C1F30141491C4900B0FBC8
:103FF000F1F010BD083802400024F400001BB700A7
:104000002DE9F84F040075D02078DFF838A3C007F9
:10401000AAF1040548D00AF104000168C1F3810146
:10402000012908D00068C0F3810002280AD1DAF81B
:104030000000400206D52868800335D56068002856
:10404000E1D031E06068B0F5803F10D0B0F5A02F2E
:10405000286810D020F480302860286820F4802060
:1040600028606068A0B1FFF725F906460CE02868D3
:1040700040F48030F4E740F480202860F7E7FFF751
:1040800019F9801B642871D828688003F7D50BE0E4
:10409000FFF710F9064604E0FFF70CF9801B6428CF
:1040A000F1D828688003F7D42078DFF89C92800745
:1040B0004FF0000B3DD5A348001D016811F00C0F17
:1040C00008D00068C0F3810002280AD1DAF80000A5
:1040D000400206D42868800715D5E068012809D178
:1040E00011E0E068B8B10120C9F80000FFF7E2F87C
:1040F000064605E022E1FFF7DDF8801B0228C2D862
:1041000028688007F7D52868216920F0F80040EA80
:10411000C10028600DE0C9F800B0FFF7CBF80646F3
:1041200004E0FFF7C7F8801B02281FD82868800723
:10413000F7D42078000722D5824F84486169703710
:1041400071B101210160FFF7B5F8064604E0FFF701
:10415000B1F8801B022809D838688007F7D50EE02F
:10416000C0F800B0FFF7A6F8064605E082E0FFF7CA
:10417000A1F8801B02287DD838688007F7D4207802
:10418000400765D56F484FF000083C300068C0001C
:104190000BD46C483C30016841F0805101600068EC
:1041A0004FF0010800F080500090694F3868C0055A
:1041B0000FD4386840F480703860FFF77BF806460B
:1041C00004E0FFF777F8801B022853D83868C00551
:1041D000F7D55C4FA0686C3701280FD005283868E8
:1041E00010D020F001003860386820F004003860FA
:1041F000A068B0B1FFF75EF806460EE0386840F000
:104200000100F4E740F004003860F7E7FFF752F8E8
:10421000811B41F28830814263D838688007F5D528
:104220000DE0FFF747F8064606E0FFF743F8811B6D
:1042300041F28830814254D838688007F5D4B8F10B
:10424000000F05D03F483C30016821F080510160EB
:10425000A069B8B33B49091D0968C1F3810102296E
:1042600046D00228584606D0C9F86000FFF722F869
:10427000044639E035E04F46C9F86000FFF71AF808
:10428000064604E0FFF716F8801B022829D82868A4
:104290008001F7D4D4E907010843A16A2D4A4908EF
:1042A00002EB0141626A41EA8211084394F82C1042
:1042B00040EA0161CAF8001001203866FEF7FAFFF3
:1042C000044605E03CE0FEF7F5FF001B022808D895
:1042D00028688001F7D533E0FEF7ECFF001B0228C9
:1042E00002D90320BDE8F88F28688001F4D427E0C4
:1042F0000128F7D0DAF80000E26900F48001914269
:104300001CD1226A00F03F01914217D147F6C071DB
:10431000626A0140B1EB821F10D1A26A4FF0FF33F5
:1043200000F4403103EB5202B1EB024F06D194F896
:104330002C1000F07060B0EB016F01D00120D1E7CC
:104340000020CFE70438024000004742800E474279
:10435000007000400000FFFF70B5040009D0606AE3
:10436000002540B125616561A56294F8510040B116
:104370000CE0012070BD6068B0F5827FF4D0E5618B
:10438000F2E784F85050204600F044F8022084F808
:1043900051002068016821F040010160A088218956
:1043A00000F4827001F404410843A18901F4006122
:1043B0000843217C01F002010843217D01F0010145
:1043C0000843218B01F400710843217F01F038017B
:1043D000084394F8201001F080010843218D01F476
:1043E0000051084321680860A069042101EA1040D7
:1043F00094F8241001F010010843216848602068F7
:10440000C16921F40061C1616565012084F8510032
:10441000002070BD2DE9F04186B0044614216846A5
:10442000FCF76AFC35492068884264D1344800258D
:10443000016841F480510160006800F480500590EB
:104440002F481438016841F002010160016801F051
:1044500002010591016841F0010101600068022636
:1044600000F0010005901820CDE9000602AA0327FC
:104470004FF0050882E8A00169462248FEF72CFEAD
:104480008020CDE9000602AA694682E8A0011E4804
:10449000FEF722FE1E4E1D487F063060C6E90175FC
:1044A0004FF48068C6E9035875617812B561C6E9B2
:1044B000075030467562FEF74DFD08B1FDF7BBFFB2
:1044C000E664B463124E114860361830E6E802071D
:1044D0004020A6E82101C00246F81459B561C6E99A
:1044E00007500B4875626030FEF734FD08B1FDF7E8
:1044F000A2FFA664B46306B0BDE8F08100300140BD
:10450000443802400004024000000240406402407F
:10451000640E00202DE9FF4F81B01F4693460446EC
:1045200001250E9EFEF7C6FE804694F85100616894
:10453000012806D0B1F5827F3CD1A168C9BB04280F
:1045400038D10298002870D0BBF1000FFBD0002FAB
:10455000F9D094F8500001282CD04FF0010A84F8CB
:1045600050A094F85100042802D0052084F851008E
:104570004FF00009C4F85490C4F838B0E787A78713
:1045800002992163E786A786C4F84090C4F8449056
:1045900020680168490603D4016841F040010160C8
:1045A000E068B0F5006F606808D0E8B3012F47D02D
:1045B0007DE0FFE7022005B0BDE8F08F08B1012FD4
:1045C00037D1206B21680088C860206B801C206375
:1045D000E08E401EE0862CE02068816889070DD5BA
:1045E000E18E59B1012D09D1216B0988C160206B81
:1045F000801C2063E08E401EE086002520688168D4
:10460000C9070BD0E18F49B1C068A16B0880A06BCE
:10461000801CA063E08F401EE0870125FEF74AFE64
:10462000A0EB0800B04201E00AE064E001D3701C96
:104630004ED1E08E0028CFD1E08F0028CCD13CE0D5
:10464000206B216800780873206B401C2063E08E8B
:10465000401EE0862BE02068816889070DD5E18E39
:1046600059B1012D09D1216B09780173206B401CD0
:104670002063E08E401EE086002520688168C9071F
:104680000BD0E18F49B1C068A16B0870A06B401CD2
:10469000A063E08F401EE0870125FEF70BFEA0EB34
:1046A0000800B04202D3701C01D011E086B1E08E48
:1046B0000028D0D1E08F0028CDD142463146204697
:1046C00003F0BCFD50B12020606584F8509012E0EA
:1046D00084F851A084F8509003206CE7A06818B9C2
:1046E0002068C1688068009084F851A084F85090D8
:1046F000606D0028F1D001205DE710B5401EB0F1DB
:10470000807F01D3012010BD4FF0E02460610F21B4
:10471000601706F038F80020A06107202061002013
:1047200010BD7047704710B590F83C20012A22D088
:10473000012280F83C20CA688C6822F4407222432F
:104740004C6822F4806222430C6822F40062224307
:104750000C6922F4805222434C6922F40052224315
:10476000C969002322F480420A4301684A6480F840
:104770003C30002010BD022010BD000070B590F844
:104780003C20012A32D0012580F83C50022280F8DA
:104790003D2002685368946823F070060B68334329
:1047A0005360134B02689A4214D0B2F1804F11D07B
:1047B000104B9A420ED0104B9A420BD00F4B9A429C
:1047C00008D00F4B9A4205D00E4B9A4202D00E4BA6
:1047D0009A4204D1496824F080031943916080F81B
:1047E0003D50002180F83C10084670BD022070BD8D
:1047F000000001400004004000080040000C0040A0
:1048000000040140004001400018004010B50400C1
:1048100003D094F83D0010B107E0012010BD002046
:1048200084F83C00204600F01FF8022084F83D0088
:10483000211D206803F03AFE012084F8460084F828
:104840003E0084F83F0084F8400084F8410084F87A
:10485000420084F8430084F8440084F8450084F85A
:104860003D00002010BD000008B500685C4A5D49AD
:10487000904210D1086840F00100086008680022EA
:1048800000F00100009011461820FEF781FD18206D
:10489000FEF770FD63E0534A534B121F984207D155
:1048A000106840F004001060106800F0040049E057
:1048B0004E4B98420ED1106840F010001060106806
:1048C000002200F01000009011463620FEF760FD37
:1048D000362080E0464B984218D1086840F002002C
:1048E00008600868002200F00200009001212B20DF
:1048F000FEF74EFD2B20FEF73DFD002211462C2039
:10490000FEF746FD2C20FEF735FD5EE0394B984260
:104910000ED1086840F4803008600868002200F476
:104920008030009011461820FEF732FD182052E02A
:10493000314B984208D1086840F40030086008689C
:1049400000F40030009008BD2C4B98420ED108684E
:1049500040F480200860086800F480200090002265
:1049600011461A20FEF714FD1A2034E0244988422B
:104970000ED1106840F0400010601068002200F076
:104980004000009001212B20FEF702FD2B2022E0A9
:104990001C4988420ED1106840F0800010601068F9
:1049A000002200F08000009011462C20FEF7F0FC61
:1049B0002C2010E014498842C5D1106840F4807062
:1049C0001060106800F480700090002211462D20C5
:1049D000FEF7DEFC2D20BDE80840FEF7CBBC000052
:1049E0000000014044380240000800400010004030
:1049F00000040140004001400044014000480140E3
:104A000000180040001C00400020004090F83D10BD
:104A1000012901D001207047022180F83D10006873
:104A20001149884214D0B0F1804F11D00F4988420B
:104A30000ED00F4988420BD00E49884208D00E494B
:104A4000884205D00D49884202D00D49884204D1E0
:104A5000816801F00701062903D0016841F00101D6
:104A60000160002070470000000001400004004089
:104A700000080040000C00400004014000400140DC
:104A80000018004090F83D10012901D00120704726
:104A9000022180F83D100168CA6842F00102CA6034
:104AA00000681149884214D0B0F1804F11D00F49ED
:104AB00088420ED00E4988420BD00E49884208D059
:104AC0000D49884205D00D49884202D00C498842E0
:104AD00004D1816801F00701062903D0016841F083
:104AE0000101016000207047000001400004004007
:104AF00000080040000C004000040140004001405C
:104B00000018004070B5044690F83C0000250128CC
:104B100017D0012684F83C60022084F83D0020680C
:104B2000826822F0770222F47F428260086850286F
:104B300038D00DDC20284FD005DC90B3102811D1DF
:104B40004AE0022070BD302846D040280AD13BE020
:104B500060282FD070280DD0B0F5805F03D0B0F55D
:104B6000005F12D0012584F83D60002084F83C00ED
:104B7000284670BDCB68D1E90121206803F00FFD04
:104B80002068816841F0770109E0CB68D1E9012113
:104B9000206803F004FD2068816841F48041816051
:104BA000E1E719E0CA684968206803F0E2FD502196
:104BB000206806E0CA684968206803F0EBFD6021C0
:104BC000206803F0F6FCCEE7CA684968206803F065
:104BD000D0FD40212068F4E7226801461046F0E746
:104BE00070472DE9F04104460068C66805694FF03A
:104BF0000007A90713D5B10711D5F91E01610120DE
:104C00002077206880698007204602D0FFF7E8FF00
:104C100004E000F0D7F8204600F069F9277768072C
:104C200016D5700714D521686FF0040008610220C2
:104C300020772068806910F4407F204602D0FFF77B
:104C4000CFFF04E000F0BEF8204600F050F92777CF
:104C5000280715D5300713D521686FF008000861C3
:104C6000042020772068C0698007204602D0FFF723
:104C7000B7FF04E000F0A6F8204600F038F92777E7
:104C8000E80616D5F00614D521686FF0100008610B
:104C9000082020772068C06910F4407F204602D0A9
:104CA000FFF79EFF04E000F08DF8204600F01FF9AA
:104CB0002777E80708D0F00706D021686FF00100D9
:104CC0000861204600F0BAF9280608D5300606D556
:104CD00021686FF0800008612046FFF722FD68061A
:104CE00008D5700606D521686FF04000086120469F
:104CF00000F02EFAA8060AD5B00608D521686FF094
:104D0000200008612046BDE8F041FFF70BBDBDE87B
:104D1000F081000030B587B0044614216846FBF7E7
:104D2000EBFF214D20680023204902220124A842E4
:104D30000FD1086840F010000860086800F010000B
:104D4000059048158DE80D00CDE9033469461848F3
:104D500011E0184DA84212D1086840F00800086020
:104D60000868694600F00800059028148DE80D00D9
:104D7000CDE903321048FEF7AFF907B030BD0F4B55
:104D80009842FAD1086840F0200008600868694637
:104D900000F02000059040208DE815000320CDE9AB
:104DA00003200748E7E700000000014030380240D8
:104DB0000010024000080040000C02400044014086
:104DC00000140240704770B5044690F83C0000267D
:104DD0000D4601280FD0012084F83C006AB1042A56
:104DE0001DD0082A2FD00C2A3FD00126002084F89D
:104DF0003C00304670BD022070BD206803F0E2FB2D
:104E00002068816941F0080181612068816921F091
:104E100004018161206881692A69114311E02068D9
:104E200003F000FC2068816941F400618161206821
:104E3000816921F480618161206881692A6941EA80
:104E400002218161D2E7206803F022FC2068C16959
:104E500041F00801C1612068C16921F00401C1610C
:104E60002068C1692A69114311E0206803F044FCFD
:104E70002068C16941F40061C1612068C16921F401
:104E80008061C1612068C1692A6941EA0221C1616A
:104E9000ACE710B5040003D094F83D0010B107E072
:104EA000012010BD002084F83C00204600F01EF8D0
:104EB000022084F83D00211D206803F0F7FA01204C
:104EC00084F8460084F83E0084F83F0084F84000EF
:104ED00084F8410084F8420084F8430084F84400D8
:104EE00084F8450084F83D00002010BD70477047ED
:104EF00010B5044649B104290AD008290BD094F80A
:104F0000410001280AD0012010BD94F83E00F8E7C6
:104F100094F83F00F5E794F84000F2E70220B1B3BF
:104F2000042938D0082939D084F8410001222068AA
:104F300003F028FB1B4920681B4A884201D090429D
:104F400003D1436C43F4004343642068884213D088
:104F5000B0F1804F10D0154988420DD014498842D5
:104F60000AD01449884207D0904205D0124988429D
:104F700002D01249884204D1816801F00701062954
:104F800003D0016841F001010160002010BDFFE77E
:104F900084F83E00CAE784F83F00C7E784F8400081
:104FA000C4E700000000014000040140000400408C
:104FB00000080040000C0040004001400018004084
:104FC00030B504460D460068002203F0DBFA1949AB
:104FD00041F2111220689310884202D0164988428B
:104FE00009D1016A114206D1016A194203D1416C0B
:104FF00021F4004141642068016A114206D1016A2E
:10500000194203D1016821F00101016001203DB185
:10501000042D08D0082D09D084F84100002030BDAF
:1050200084F83E00FAE784F83F00F7E784F8400090
:10503000F4E7000000000140000401402DE9F041C8
:1050400004463048844202D12F48FCF73BF92F48F0
:105050002D4F2F4E84420BD12E48D6ED041A96EDDB
:10506000371A90ED020AD7ED020A2B4801F01EFC18
:105070002A48844204D12A4805F0C0FA06F056FFB7
:105080002848294D844219D1284806F03FF928487C
:10509000DFED280A018829844188698496ED060A93
:1050A00090ED021A1E4830EE600ADFED230A017B04
:1050B00060EE200A97ED000A05F0ACFA1F48844222
:1050C00008D107F00FF848F2010310221C491748D5
:1050D00006F0BAF81B48844206D11B4E3068FCF734
:1050E000AEFE3068FCF75CFF1848844207D12868A0
:1050F000FCF7A5FE2868BDE8F041FCF751BFBDE80C
:10510000F0810000B40F0020840D0020FC0F00206F
:10511000580500200C0A0020F41100204410002043
:10512000F0090020D4100020C8090020180A00202F
:10513000B00D00200020C345EA04343D1C110020BE
:10514000A00D002064110020740D0020AC1100207F
:105150007047704770470000F8B50168044608685A
:10516000CA684B6910F00F0F4FF0000559D003F0DB
:10517000010602F49077374365D0C10705D0D10509
:1051800003D5616C41F001016164410705D5D90780
:1051900003D0616C41F002016164810705D5D90734
:1051A00003D0616C41F004016164010707D502F08E
:1051B0002001314303D0616C41F008016164616CEE
:1051C00000293AD0800604D5900602D5204603F087
:1051D0007BFB20684069616CC0F38010090700D434
:1051E00060B3204603F03BFB20684069400621D5B0
:1051F0002068143050E8001F21F0400140E8001200
:10520000002AF5D1E06BA8B16E490165E06BFDF7AE
:10521000BFFD002811D0E06B016D01B0BDE8F0408A
:10522000084783060FD593060DD52046BDE8F84004
:1052300003F04ABB2046FFF78DFFF8BD2046FFF77D
:1052400089FF6564F8BD266B2023012E7DD1C6063B
:105250007BD5D60679D508684868009048694FF034
:105260000206400641D5E16B086840680004000C66
:10527000E8D0A28D8242E5D9E085C869B0F5807F8B
:105280002DD020680C3050E8001F21F4807140E8D8
:105290000012002AF5D12068143050E8001F21F0D8
:1052A000010140E80012002AF5D12068143050E8CE
:1052B000001F21F0400140E80012002AF5D184F8D7
:1052C0004230256320680C3050E8001F21F01001A7
:1052D00040E80012002AF5D1E06BFDF710FD66638F
:1052E000A08DE18D401A81B22AE0A08DE18D401A97
:1052F00081B2E08D0028A5D00029A3D020680C3011
:1053000050E8002F22F4907240E80027002FF5D1DA
:105310002068143050E8002F22F0010240E80027F6
:10532000002FF5D184F84230256320680C3050E816
:10533000002F22F0100240E80023002BF5D1666315
:105340002046FFF706FFF8BDFFE705062BD515063B
:1053500029D594F841002128F5D1A068B0F5805FE7
:1053600001D12069B0B1206A411C21622168007816
:105370004860E08C401E0004000CE084E3D120680B
:10538000C16821F08001C1602068C16841F040011E
:10539000C160D8E7206A0088C0F308004860206A2E
:1053A000801C2062E5E74006CDD55006CBD5CA6803
:1053B000204622F04002CA6084F8413000F08EF9A5
:1053C000C1E70000B987000870B5040004D094F864
:1053D0004100002510B106E0012070BD84F8405066
:1053E000204600F023F8242084F841002068C1689A
:1053F00021F40051C160204603F0C8FA2068016919
:1054000021F4904101612068416921F02A01416144
:105410002068C16841F40051C1606564202084F8AF
:10542000410084F842006563002070BD2DE9F04F13
:1054300087B0044614216846FBF75EFC7C48DFF821
:10544000EC811438D4F800C0794A022703210723DD
:10545000002506154FF0006A4FF0400BC4454BD1B4
:10546000D2F800C04CF0100CC2F800C0126802F074
:1054700010020592026842F002020260026802F025
:1054800002020592026842F0010202600068894649
:1054900000F0010005908020CDE90007CDE9025918
:1054A0009846694604936348FDF716FE7010CDE9EF
:1054B0000007CDE902596946CDF810805E48FDF736
:1054C0000BFE5F4F5D48C7E903567D61BD6187E80C
:1054D000010CB001C7E9075038467D62FDF73AFD7F
:1054E00008B1FCF7A8FFA763002211462520BC6382
:1054F000FDF74EFF25203FE0DFF848814FF40039EB
:10550000C4453ED14A4A121FD2F800C04CF4802C48
:10551000C2F800C0126802F480220592026842F0CC
:10552000040202600068029500F004000590CDE9D5
:1055300003134FF44060CDE9000769464248FDF788
:10554000CBFD3F4F414860373860C7E901A5C7E947
:1055500003567D61BD61C7E9075938467D62FDF795
:10556000F9FC08B1FCF767FFE7630022114627202A
:10557000BC63FDF70DFF2720FDF7FCFE07B0BDE87B
:10558000F08F334B9C45F9D1136843F0200313602F
:10559000126802F020020592026842F040020260A6
:1055A0000068029500F0400005904FF48440CDE97A
:1055B00000070820CDE9031069462648FDF78CFD59
:1055C0001F4F1E48C037903838604FF02068C7E939
:1055D0000185C7E903567D61BD61C7E907593846B2
:1055E0007D62FDF7B7FC08B1FCF725FFE763BC63FC
:1055F000194F1248C7E903567D611838BD6187E825
:1056000001094FF48030C7E9075038467D62FDF745
:10561000A1FC08B1FCF70FFFA76300221146472049
:10562000BC63FDF7B5FE4720A6E70000001001406F
:10563000443802400004024000000240B8640240C6
:10564000CC120020004800400008024028600240C0
:105650000014014000180240EC13002070470000C5
:1056600037B5044690F84100202801D002203EBD05
:10567000019951B34AB32162A284E284002060649C
:10568000212384F84130A56B114BEB63A56B114BC3
:105690002B64A56B104BEB64A36B18652068134655
:1056A000A56B021D2846FDF7BFFC21686FF0400086
:1056B00008602068143050E8001F41F0800140E885
:1056C0000012002AF5D100203EBD01203EBD0000A1
:1056D0001388000855880008C9870008704770477C
:1056E00070B5044600203C4D2074A27B2888616878
:1056F0004243D4F8F400FBF7E6FAA17B2888414343
:105700006068FBF7F9FAA07B10FB00F128884143A1
:10571000D4F81801FBF7F0FA207BA17B10FB01F114
:1057200028884143D4F80C01FBF7E6FA00202BE06F
:10573000D4F8F41001EB800292ED000AB5EEC00A35
:10574000F1EE10FA1ED0227C01EB820181ED000AFD
:10575000227C616A8854A169227B01EB8001237C51
:1057600091ED000A6169095C12FB03116FF00302FD
:1057700002EB8101D4F80C21114481ED000A217C57
:10578000491C2174401CC0B2A17B8142D0D80020AA
:1057900010E0636AE2691B5C02EB830292ED000A8F
:1057A00010FB0101D4F81821401C02EB8101C0B2AA
:1057B00081ED000A217C8142EBD8C8B224F8780F31
:1057C00014F86C0C608020816181218361832084C6
:1057D000618424F8301C70BD08020020FEE7000040
:1057E000F0B5894F0E462DED068B044687B0154661
:1057F000D0ED040A97ED050A844830EEC00AB0EEF9
:10580000C00A10EE101A814219DC94ED050A97EDDA
:10581000061A30EE410AB0EEC00A10EE101A8142AC
:105820000DDC94ED060A97ED071A30EE410AB0EE52
:10583000C00A10EE101A814201DC2078F0B3DFEDCF
:1058400074AA80EEAA0AFAF7BBFCD4ED050AF0EEC2
:10585000409A80EEAA0AFAF7B3FCD4ED060AB0EE3D
:1058600040AA80EEAA0AFAF7ABFCD4ED040AB0EE27
:10587000409A80EEAA0AFAF7DFFCD4ED050AB0EEF2
:10588000408A80EEAA0AFAF7D7FCD4ED060AF0EEB9
:10589000408A80EEAA0AFAF7CFFC69EE890A68EE20
:1058A000281AB0EE601A01EE801A87ED081A2AEE67
:1058B000081A87ED091A29EE801A00E023E069EE44
:1058C000081A002001EEE81A87ED0A1A29EEA81A34
:1058D00021EE001A09EE481A87ED0B1A29EE8A1AF2
:1058E00087ED0C1A28EE401A2AEE400A00EEE81A5C
:1058F00087ED0D1A87ED0E0A2AEE090AC7ED0F8A09
:1059000087ED100A20700020694606EB800292EDB8
:10591000000A04EB8002D2ED010A01EB8002401C78
:1059200020EE200AC0B2032882ED000AEDD39DEDDF
:10593000001AD7ED085ADDED010AD7ED094A61EEEC
:10594000251A9DED020A97ED0A2A002044EEA01ABE
:1059500003A942EE001AC6ED001A97ED0B3AD7EDF7
:105960000C3A97ED0D4A61EE031A43EEA01A44EE8D
:10597000001AC6ED011AD7ED0E1A97ED0F5AD7EDA2
:10598000102A21EE211A05EE201A02EE801A86ED69
:10599000021A05EB800292ED000A01EB8002401C26
:1059A000C0B282ED000A0328F3D39DED030A9DEDFA
:1059B000041ADDED050A60EE255A44EE815A42EEE6
:1059C000205A20EE032A20EE210A03EE812A05EE5A
:1059D000010AC5ED005A04EE202A02EEA00A85ED68
:1059E000012A85ED020A94ED040A87ED050A94ED7B
:1059F000050A87ED060A94ED060A87ED070A07B047
:105A0000BDEC068BF0BD0000840100206F12833ACC
:105A1000E12E654210B504462DED048BD0F8EC0064
:105A2000D0ED009AD0ED018A90ED029A29EEA90AF4
:105A300090ED038A08EEA80A09EE090A08EE080AA2
:105A400005F044FF0020D4F8EC1001EB8001401C6D
:105A5000D1ED000AC0B2042860EE800AC1ED000A50
:105A6000F1D33F48D4F8001190ED6F0A60EE280A98
:105A7000B6EE000A60EE800AC1ED040AD0ED6F0AAE
:105A8000D4F8001160EE890A60EE800AC1ED050AC3
:105A9000D0ED6F0AD4F8001120EEA91AFEEE000A2C
:105AA00021EE201A81ED0A1A90ED6F1AD4F8001138
:105AB00021EE081A21EE001A81ED0B1A90ED6F1AF3
:105AC000D4F8001121EE081A21EE201A81ED101AE7
:105AD00090ED6F1AD4F8001121EE291A21EE201A48
