:020000040800F2
:1000000040550020A1010008999C0008817000085B
:10001000959C0008D3190008EDDB000800000000E3
:100020000000000000000000000000003DA90008E2
:10003000D12B000800000000D9A7000851A9000832
:10004000BB010008BB010008BB010008BB010008A0
:10005000BB010008BB010008BB010008BB01000890
:10006000BB010008D32B0008DD2B0008BB010008F2
:1000700021280008BB010008BB010008BB010008E3
:10008000BB010008BB010008BB010008F91900080A
:10009000D9190008E9190008BB010008E72B00087E
:1000A00021AA0008BB01000839AA0008BB0100080A
:1000B000BB010008BB010008BB010008BB01000830
:1000C000BB010008BB010008BB010008BB01000820
:1000D000BB01000821B30008BB01000831B30008D0
:1000E000BB010008BB010008BB01000861AA0008B1
:1000F00091AA000879AA0008BB010008BB0100080A
:10010000BB010008BB010008BB010008BB010008DF
:10011000BB010008BB01000851AA0008BB01000890
:10012000BB010008312800084128000851280008B8
:10013000BB010008BB010008BB010008291A000828
:10014000091A0008191A0008BB010008419F00089D
:10015000BB010008612800087128000845B30008A9
:10016000BB010008BB010008BB010008BB0100087F
:10017000BB010008BB010008BB0100080000000033
:10018000BB010008BB010008DFF810D001F00EF938
:10019000004800478D000108AFF300804055002063
:1001A0000648804706480047FEE7FEE7FEE7FEE711
:1001B000FEE7FEE7FEE7FEE7FEE7FEE70DAA000822
:1001C000890100089FED1A1AF5EE000A40EE010AB7
:1001D000BDEEE00AF5EEC00A10EE100AF1EE10FADC
:1001E00038BF401E00EE100A1349F7EE001AB8EEB1
:1001F000C00A30EEC00ADFED0F0A20EE200AFCEE46
:10020000C00A10EE900AC0F3080000EE900A01EB5D
:100210008000F8EE600A90ED011A70EE600A90ED31
:10022000000A71EEE01A21EE800A00EE810A7047A2
:1002300083F9223E000000441C210108B5EEC00AEB
:10024000F1EE10FA07D2DFED1E0AB4EEE00AF1EE8D
:1002500010FAA8BF7047DFED1B0AB5EEC00A60EECA
:10026000200ABDEEE01A11EE100AF1EE10FA38BFC6
:10027000401E00EE100A1549F7EE001AB8EEC00A4B
:1002800030EEC00ADFED100A60EE200ABCEEE00A94
:1002900010EE100AC0F3080000EE100A01EB800017
:1002A000B8EE400A90ED011A70EEC00A90ED000A17
:1002B00071EEE01A21EE800A00EE810A704700001C
:1002C000CD024CB483F9223E000000441C210108F9
:1002D00070B405880E884468D1F804C05368B542EC
:1002E00008D140884988884201BF11888D425188D1
:1002F000884203D070BC6FF00200704705FB00F12C
:10030000880827D094ED001ADCED000A94ED010A6C
:10031000DCED011A31EE201AD4ED020A70EE211A3A
:100320009CED020A83ED001AC3ED011A94ED031A45
:10033000DCED031A30EE800A401E71EE210A83EDD7
:10034000020A04F11004C3ED030A03F110030CF1D7
:10035000100CD7D111F0030030D0B0F1004F30D2E3
:1003600000282BDD211F1B1FACF1040210F0010F30
:100370000AD091ED010AD2ED010A091D121D30EEDD
:10038000200A83ED010A1B1D400817D091ED010AD8
:10039000D2ED010A401E30EE200A83ED010A91EDF4
:1003A000020AD2ED020A01F1080102F1080230EE60
:1003B000200A83ED020A03F10803E7D170BC002094
:1003C0007047B4EC010A401EFCEC010A30EE200A32
:1003D000A3EC010AF5D1F1E7018042804360704748
:1003E0002DE9F34F84B0049840680090486801906C
:1003F0000498B0F800E04588DFEDFE0A0020029086
:10040000B0EE600AAE4506D108884988884204BF2C
:100410007146864504D06FF0020006B0BDE8F08F4B
:1004200001985FEA010C18BFB7EE001A3DD000BF7B
:10043000BEEB0C0117D0B1F1004F80F01F820029F4
:1004400011DD021F11F0010F1CBFC2ED010A121DC8
:100450004B1006D0C2ED010AC2ED020A08325B1E43
:10046000F8D100EB8100BCF10102A0EC011A19D017
:10047000B2F1004F80F00882002A13DD031F12F052
:10048000010F1CBFC3ED010A1B1D511008D000BF96
:10049000C3ED010AC3ED020A491E03F10803F7D1B7
:1004A00000EB8200BCF1010CC2D14FF000080395B3
:1004B000002D14BFB0EE602A002000F0BF8100BF05
:1004C000009908FB05F001EB800B0199DBED002A98
:1004D00001EB80000346F0EE421AC64552D9AEEB5E
:1004E0000802ABEB850112F0010F17D001EB85017B
:1004F00091ED000AB5EEC00AF1EE10FA07DDB4EE98
:10050000E10AF1EE10FA09DDF0EE401A06E0B1EE74
:10051000400AF4EEC01AF1EE10FAF5D3521031D0C1
:1005200001EB850C9CED000AB5EEC00AF1EE10FA65
:1005300005DDB4EEE10AF1EE10FA09DD06E0B1EEF8
:10054000400AF4EEC01AF1EE10FA01D2F0EE401AB1
:1005500001EBC50191ED000AB5EEC00AF1EE10FA0B
:1005600005DDB4EEE10AF1EE10FA09DD06E0B1EEC8
:10057000400AF4EEC01AF1EE10FA01D2F0EE401A81
:10058000521ECDD1F5EEC01AF1EE10FA00F07381D3
:10059000F5EEC02A0126F1EE10FA0099D4BFB1EEB3
:1005A000620AB0EE620AB4EE610AF1EE10FA1CBF04
:1005B000AEEB0802B2F1010C47D005FB08F201EBEB
:1005C000820292ED001A00BFB0EE410A05FB06F46C
:1005D000B5EEC00A00EB8404F1EE10FACCBFF0EEE9
:1005E000400AF1EE400AF4EE610AF1EE10FA28D169
:1005F000B5EB080C11D0BCF1004F7DD2BCF1000F5F
:100600000BDD00BF92ED000AD1ED000ABCF1010C38
:10061000E2EC010AA1EC010AF4D129000ED0B1F1FB
:10062000004F6AD2002909DD94ED000AD0ED000ADE
:10063000491EE4EC010AA0EC010AF5D10120029068
:100640000BE0761CBCF1010CBED10298012804D04D
:10065000F5EEC02AF1EE10FA7ED09BED000AB5EB64
:1006600008009A465946064622D0B0F1004F74D28F
:1006700000281DDD091F10F0010F06D0F0EE400A22
:1006800080EEA01A81ED011A091D401010D000BFA4
:10069000D1ED010A401E80EE801A81ED011A91ED24
:1006A000021AC1EE000AC1ED020A01F10801EFD100
:1006B000280026D0B0F1004F7ED2002821DDAAF11B
:1006C000040110F0010F06D0D1ED010A80EE801A6E
:1006D00081ED011A091D401013D000BFD1ED010AB0
:1006E000401E80EE801A81ED011AD1ED020A80EEE3
:1006F000801A81ED021A01E0CBE0D6E001F1080199
:10070000ECD1DDE900124FF000095FEA0E0773D06B
:10071000C14504BF01EB860102EB850274D091ED67
:10072000000ADC465046331E35D01C46B6F1004F59
:100730007ED2002C2FDD0B1FABF1040C16F0010F45
:100740000FD0F0EE400ADCED011AB0EE601A00EEB8
:10075000E11A83ED011A01E08DE0B1E01B1D0CF1FF
:10076000040C741015D000BFD3ED010A9CED011AE2
:1007700040EE410AC3ED010AD3ED020A9CED021AD4
:100780000CF1080C40EE410AC3ED020A0833641E66
:10079000EAD101EB86012B0036D0B3F1004F72D2C3
:1007A000002B31DDA2F1040CAAF1040013F0010FBB
:1007B0000CD0DCED010A00E08BE090ED011A001D89
:1007C00040EE410ACCED010A0CF1040C5C1019D08A
:1007D000DCED010A90ED011A40EE410ACCED010A70
:1007E000DCED020A90ED021A083040EE410ACCED31
:1007F000020A03E0000000000DE005E0641E0CF1B9
:10080000080CE5D102EB830201EB88017F1E09F1A0
:1008100001097FF47DAF009808F10108001D0090E8
:100820000398401E03907FF44BAE0299012900E02B
:1008300058E004BF06B0BDE8F08F00BFB5EEC00AB7
:10084000F1EE10FA7FF4E9AD04990EFB05F3002BED
:100850004A684FF000010BD902EB810C9CED000AB5
:10086000B5EEC00AF1EE10FA02D1491C8B42F3D862
:100870008B427FF4D2AD6FF00400CEE5E0EC010ACC
:10088000491EFBD1EFE538E0E0EC010A521EFBD136
:1008900008E692ED000AD1ED000ABCF1010CE2EC91
:1008A000010AA1EC010AF4D1B7E694ED000AD0EDFB
:1008B000000A491EE4EC010AA0EC010AF5D1BDE6EC
:1008C000D1ED000A401E80EE801AA1EC011AF7D18A
:1008D000EEE6D3ED000A401E80EE801AA3EC011A6A
:1008E000F7D10EE7BCEC011AD1ED000A5B1E40EE19
:1008F000410AE1EC010AF5D14DE7B0EC011AD2ED65
:10090000000A5B1E40EE410AE2EC010AF5D17BE7EA
:100910002DE9F04F82B046685368019305884788F7
:100920004B88002000900888874201BFB2F800C0C1
:100930006545528893421EBF6FF0020002B0BDE8C9
:10094000F08F9FED412A4FEA970EC7F3400B00BF8F
:10095000DDE9000202EB800A4A6898464FF0000980
:10096000B0EE420AB4465FEA0E0025D092ED001ABE
:10097000DCED001A02EB8302DCED010A01EE810AD4
:1009800092ED001A02EB8302401ED2ED001A02EB38
:10099000830200EE810A9CED021ADCED030A0004DA
:1009A0000CF1100C000C01EE210A92ED001A02EB82
:1009B000830200EE810AD9D117F0030026D0ACF1F2
:1009C0000404A2EB830210F0010F08D002EB8302B3
:1009D000D4ED010A92ED001A241D00EE810A5FEAAF
:1009E0000B0013D002EB830CD4ED010A9CED001A2E
:1009F00002EBC302401E00EE810AD4ED020A92ED22
:100A0000001A04F1080400EE810AEBD109F101009B
:100A1000AAEC010A1FFA80F9486800EB8902A8F1E4
:100A200001001FFA80F8B8F1000F99D1009806EB89
:100A30008706184480B20090681E05042D0C87D1EB
:100A400002B00020BDE8F08F0000000070B40588FF
:100A50000E884468D1F804C05368B54208D1408874
:100A60004988884201BF11888D425188884203D04D
:100A700070BC6FF00200704705FB00F1880827D0BA
:100A800094ED001ADCED000A94ED010ADCED011A88
:100A900031EE601AD4ED020A70EE611A9CED020A82
:100AA00083ED001AC3ED011A94ED031ADCED031A6D
:100AB00030EEC00A401E71EE610A83ED020A04F1B5
:100AC0001004C3ED030A03F110030CF1100CD7D18D
:100AD00011F0030030D0B0F1004F30D200282BDDF0
:100AE000211F1B1FACF1040210F0010F0AD091ED81
:100AF000010AD2ED010A091D121D30EE600A83EDD4
:100B0000010A1B1D400817D091ED010AD2ED010A20
:100B1000401E30EE600A83ED010A91ED020AD2ED2B
:100B2000020A01F1080102F1080230EE600A83EDC9
:100B3000020A03F10803E7D170BC00207047B4EC4F
:100B4000010A401EFCEC010A30EE600AA3EC010A27
:100B5000F5D1F1E72DE9F04F02884768B0F802803F
:100B60004888D1F8049082B04FF0000A16468242BD
:100B700007BF098888456FF0020002B018BFBDE8C2
:100B8000F08F4FEA980B02EB42000190C8F340004F
:100B9000CDF8000009EB8A01BBF1000F33D00198BA
:100BA00001EB820C01EB80043B46E64601EBC205FB
:100BB0004FEA0B0093ED000A401E81ED000A93ED11
:100BC000010A01EB02118CED000A93ED020A0CEB15
:100BD000021C85ED000A93ED030A05EB021584ED76
:100BE000000A04EB021403F11003E3D10EEB8200C0
:100BF00000EB820000EB8201ABF10100504307EBF8
:100C00000B1701EB001118F0030C21D03B1FA1EBD7
:100C100082011CF0010F06D093ED010A01EB820165
:100C20001B1D81ED000A009880B100BF93ED010A01
:100C300001EB820401EBC20184ED000A93ED020A8C
:100C4000401E81ED000A03F10803EFD107EB8C078A
:100C50000AF101001FFA80FA701E0604360C99D1C1
:100C600002B00020BDE8F08F2DE9F05F05460020BE
:100C700092469B4688460646814640241BE028460D
:100C800041464746224600F0C2FA53465A46C01A29
:100C9000914110D311461846224600F0A9FA2D1AA8
:100CA00067EB01084F4622460120002100F0A0FA20
:100CB00017EB00094E41201EA4F10104DFDC484679
:100CC00031462A464346BDE8F09F2DE9F041002415
:100CD000061B254671F1000605DA01240027D0EB3A
:100CE000070067EB0101161E73F1000605DA002705
:100CF000D2EB0702012567EB0303FFF7B5FF86463A
:100D00000E4617469C46AC4204D00025D0EB050E9B
:100D100065EB010624B10020D2EB000760EB030C69
:100D2000704631463A466346BDE8F08140EA010329
:100D30009B0703D009E008C9121F08C0042AFAD291
:100D400003E011F8013B00F8013B521EF9D2704755
:100D5000D2B201E000F8012B491EFBD270470022FD
:100D6000F6E710B513460A4604461946FFF7F0FFAA
:100D7000204610BD2DE9FE4F804681EA0300C00FDA
:100D80000C46009021F0004123F00045B8EB020032
:100D9000A94105D24046214690461C460B460246D4
:100DA00023F00040104347D0270DC7F30A00C3F3D8
:100DB0000A510290401A019040286BDAC3F31300E5
:100DC00040F4801B0098924620B10023D2EB030A26
:100DD00063EB0B0B01985946C0F14002504600F0FE
:100DE00007FA06460D4650465946019A00F01FFA8A
:100DF00010EB08006141002487EA115284EAE7738E
:100E00001A4340D0009A62B3019A012A4FEA07526E
:100E100015DC001B61EB02014FF0004202EA0752B1
:100E2000CDE90042001C41F5801132462B4600F00E
:100E300056FA03B0BDE8F08F40462146F9E7001BA3
:100E400061EB0201001C41F5801300185B41201882
:100E5000A2F5001747EB030140EAD570B6196D41C2
:100E600011E06D084FEA360645EAC0754FEA0752B1
:100E7000001B61EB0201001C41F5801149084FEA9B
:100E800030000019514132462B4603B0BDE8F04F07
:100E900000F016BA0098012240000023D0EB0202B5
:100EA00063EBE073009821464FEAE074B8EB000072
:100EB00061EB0401E9E783F000435BE781F0004167
:100EC00058E72DE9FE4F81EA030404F0004421F0C5
:100ED000004100944FF0000B23F0004350EA01045E
:100EE0005ED052EA03045BD0C3F30A54C1F30A553F
:100EF0002C44A4F2F3340194A0FB0254C1F3130177
:100F000041F48011C3F3130343F4801301FB024443
:100F100000FB034E840A970A44EA815447EA835748
:100F2000A4FB076802958D0A05FB07854FEA932C01
:100F300004FB0C542705029D4FEA065847EA163772
:100F4000B5EB08056EEB070C870E920E47EA81178A
:100F500042EA8312A7FB0201B6EB0B0164EB00042B
:100F60002B0D43EA0C335E1844EB1C50DA46514615
:100F7000E7FB0201C5F313044FEA0B3343EA1453B2
:100F80004FEA0432019C43EA0603A4F10C040294E4
:100F9000009CCDE900B400F0A2F903B0BDE8F08FE9
:100FA00000200146F9E72DE9F04D81EA030404F041
:100FB000004B21F0004514464FF0000A23F0004199
:100FC00050EA050220D054EA01021DD0C5F30A57A9
:100FD0000246C5F31303C1F31300C1F30A5640F4EC
:100FE000801543F48013A7EB0608101BD64608F2C1
:100FF000FD3873EB050002D308F1010801E09218F7
:101000005B41B8F1000F03DA00200146BDE8F08D26
:1010100000204FF48011064684460EE0171B73EB48
:10102000050705D3121B63EB050306434CEA010CCD
:1010300049084FEA300092185B4150EA0107EDD1B0
:1010400052EA030012D082EA040083EA0501084351
:1010500005D0101BAB4106D20122002306E000227E
:101060004FF0004302E06FF0010253101AEB06004C
:101070004CEB085110EB0A0041EB0B01BDE8F04DC1
:1010800000F01EB9F0B4CA17CB0F50405140C6183B
:1010900041F100054FEAC372314628004FF0960334
:1010A00003D0B623F0BC00F0DDB830460021F9E7EC
:1010B0000EB5C10F80EAE0700844CA07002140F273
:1010C00033438DE80E000A460B4600F008F903B0E2
:1010D00000BD0EB540F2334102910021CDE900116F
:1010E0000A460B4600F0FBF803B000BD10B500F057
:1010F000004420F00040C20DC0F3160040F4000090
:101100007F2A02DA0020014610BD0021962A03DC66
:10111000C2F19602D04002E0963A00F069F8002C45
:10112000F2D00023D0EB030063EB010110BDC1F34B
:101130000A5210B5C1F3130140F2FF3341F480119C
:101140009A4201DA002010BD40F233439A42A2F2E3
:10115000334203DC524200F05AF810BD904010BDFB
:1011600000F0004230F000400AD0C10D01F560717E
:10117000C0F3160042EA0151C2084007114370470C
:10118000002001467047000030B5041E71F10004D4
:1011900004DB4FF00044404264EB0101141E73F184
:1011A000000405DB1C464FF00043524263EB04038E
:1011B0008B4208BF824230BD01F0004330B421F0C1
:1011C000004150EA010206D00A0DA2F56072C1F397
:1011D0001301002A02DC30BC00207047440F44EAAF
:1011E000C104C100E01830BC00EBC25000F031B8BF
:1011F000202A04DB203A00FA02F1002070479140D7
:10120000C2F1200320FA03F3194390407047202ACB
:1012100004DB203A21FA02F00021704721FA02F3A0
:10122000D040C2F120029140084319467047202A5D
:1012300006DBCB17203A41FA02F043EAE07306E0FE
:1012400041FA02F3D040C2F120029140084319460E
:1012500070470029A8BF7047401C490008BF20F014
:101260000100704710B4B0FA80FC00FA0CF050EAAC
:10127000010404BF10BC704749B1CCF1200421FA2D
:1012800004F411FA0CF118BF012121430843A3EB28
:101290000C01CB1D4FEA00614FEA102042BF002035
:1012A00010BC704700EBC35010440029A4BF10BC11
:1012B0007047401C490008BF20F0010010BC704777
:1012C00010B5141E73F1000408DA401C41F100014E
:1012D00092185B411A4301D120F0010010BD2DE9A5
:1012E000F04D92469B4611B1B1FA81F202E0B0FA9C
:1012F00080F220329046FFF77BFF04460F4640EA1B
:101300000A0041EA0B0153465A46084313D01146DE
:1013100053EA010019D0C8F140025046FFF777FFA9
:1013200005460E46504659464246FFF761FF0843C0
:1013300005D0012004E020463946BDE8F08D0020AC
:10134000054346EAE0762C4337430A986305E40AEE
:10135000A0EB08000022FD0A44EA47540A3002D5F7
:1013600000200146E9E7010510196941DDE908455A
:1013700000196941BDE8F04DA2E7000030B5041E38
:1013800071F1000404DB4FF00044404264EB0101C2
:10139000141E73F1000405DB1C464FF0004352425B
:1013A00063EB0403994208BF904230BD064C074DE1
:1013B00006E0E06840F0010394E807009847103425
:1013C000AC42F6D3FEF7E4FE402A0108602A010889
:1013D00070B5C1F30A5201F000450024C1F31301B6
:1013E00040F2FF3341F480119A4201DA002070BDCF
:1013F00040F233439A42A2F2334203DC5242FFF7F7
:1014000006FF00E090402C43F1D0404270BD70B523
:101410008C1810F8015B15F0070301D110F8013B9F
:101420002A1106D110F8012B03E010F8016B01F826
:10143000016B5B1EF9D12B0705D40023521E0DD47E
:1014400001F8013BFAE710F8013BCB1A921C03E0CC
:1014500013F8015B01F8015B521EF9D5A142D8D304
:10146000002070BD10B501221021024802F094FD49
:1014700010BD00000000024010B5002210210248FB
:1014800002F08AFD10BD00000000024010B50122EC
:101490001146024802F080FD10BD00000004024029
:1014A00010B500220121024802F076FD10BD0000B7
:1014B0000004024010B50446A82001F0EDFA00BF78
:1014C0000121054800F050F90028F9D107F02EF865
:1014D0000248046710BD0000481100206833002056
:1014E00010B5044607F084F810BD000010B504469E
:1014F000FFF7C2FF922000F0A3F9062295491220BF
:1015000000F07EF9FFF7AEFF92484078000200B28B
:10151000904909780843904908800846B0F90000CE
:1015200000EE100AB8EEC00A8C48D0ED000A20EE9A
:10153000200AD4ED080A20EE200A84ED000A85482E
:10154000C078000200B28349897808438249088044
:101550000846B0F9000000EE100AB8EEC00A7F4855
:10156000D0ED000A20EE200AD4ED080A20EE200A71
:1015700084ED010A77484079000200B27549097983
:101580000843754908800846B0F9000000EE100ACB
:10159000B8EEC00A7148D0ED000A20EE200AD4ED62
:1015A000080A20EE200A84ED020AFFF779FF0822DC
:1015B0006849002000F024F9FFF768FF65480078CB
:1015C0000F284FD166480078F0B36248C078000217
:1015D00000B26049897808435F49088094ED090AA0
:1015E0000846B0F9000000EE900AF8EEE00A5D4807
:1015F00090ED001A10EE810A84ED030A55484079F7
:10160000000200B25349097908435349088094ED18
:101610000A0A0846B0F9000000EE900AF8EEE00A67
:10162000504890ED001A10EE810A84ED040A4948F2
:10163000C079000200B247498979084346490880C9
:1016400094ED0B0A084600E00DE0B0F9000000EE52
:10165000900AF8EEE00A434890ED001A10EE810A75
:1016600084ED050A44E03B48C078000200B23949E5
:1016700089780843384908800846B0F9000000EE30
:10168000100AB8EEC00A3748D0ED000A20EE200A52
:1016900084ED030A2F484079000200B22D490979F0
:1016A00008432D4908800846B0F9000000EE100AF2
:1016B000B8EEC00A2B48D0ED000A20EE200A84EDD7
:1016C000040A2448C079000200B2224989790843FB
:1016D000214908800846B0F9000000EE100AB8EE73
:1016E000C00A2048D0ED000A20EE200A84ED050A49
:1016F000FFF7C2FEA22000F0A3F802221549222023
:1017000000F07EF8FFF7AEFE12480078C0001149E5
:10171000497840EA6110104908800846B0F9000095
:10172000B0F5806F05DB08460088A0F5006000B2C8
:1017300008800948B0F9000000EE100AF8EEC00A6F
:10174000B4EE001AB3EE070A00EE810A84ED070A30
:1017500010BD00002E06002036060020F0050020F7
:1017600000060020F405002070B504460D461C4814
:10177000046000201B4908700DF098FB1949097896
:101780000843184908700DF047FC164909780843CA
:10179000144908701DB1144800F020FA1CE09FEDB8
:1017A000130A114880ED090A9FED110A80ED0A0A1B
:1017B0009FED0F0A80ED0B0A9FED0E0A80ED0C0ADB
:1017C00090ED0C0ADFED0C0A80EE801A80ED081A0D
:1017D0009FED0A0A80ED060A0248007870BD0000FD
:1017E00038060020FA05002024370020AC38223BC0
:1017F000B016CE393F161B41C3F51C4100002042F4
:1018000070B506460C46154646F0800000F018F804
:1018100006E0552000F014F82070641C681EC5B264
:10182000002DF6D170BD70B504460D4644F0800021
:1018300000F006F8552000F003F8287070BD000095
:1018400001B582B04FF47A70012301AA02A9009079
:101850000348006803F0F6FF9DF804000EBD000089
:101860003806002070B505460C462846FFF7E8FF0D
:101870002046FFF7E5FF70BDD2ED020A92ED021A95
:10188000B6EE000A00EEC10AD2ED030A92ED031A89
:1018900000EEC10AD0ED000A20EE200AD2ED010AC6
:1018A00092ED021A60EE810A92ED001AD2ED031A4F
:1018B00041EE610A90ED011A00EE810AD2ED010AB3
:1018C00092ED031A60EE810A92ED001AD2ED021A2F
:1018D00041EE210A90ED021A00EE810AF0EE000AB4
:1018E00020EE200A81ED000A92ED010AD2ED020AF3
:1018F00020EE200AD2ED000A92ED031A00EE810AD2
:10190000D0ED000A60EE200A92ED011AD2ED011A24
:10191000B6EE000A01EE610AD2ED031A92ED032A37
:10192000B0EE401A01EEC21AD0ED011AB0EE600A14
:1019300001EE210AD2ED020A92ED031A60EE810A4D
:1019400092ED001AD2ED011A41EE610A90ED021AF1
:1019500000EE810AF0EE000A20EE200A81ED010A75
:1019600092ED010AD2ED030A20EE200AD2ED000A20
:1019700092ED021A00EEC10AD0ED000A20EE200A14
:10198000D2ED020A92ED031A60EE810A92ED001A7E
:10199000D2ED011A41EE210A90ED011A00EE810A02
:1019A00092ED011AD2ED011AF6EE000A41EE610A3B
:1019B00092ED021AD2ED021A41EE610A90ED021A7E
:1019C00000EE810AF0EE000A20EE200A81ED020A04
:1019D000704700BFFEE7000010B5024801F060FC50
:1019E00010BD0000F810002010B5024801F058FCAE
:1019F00010BD0000F810002010B5024801F050FCA6
:101A000010BD0000F810002010B5024801F048FC9D
:101A100010BD00002011002010B5024801F040FC6C
:101A200010BD00002011002010B5024801F038FC64
:101A300010BD0000201100200346042B15D007DC48
:101A40007BB1012B0ED0022B0DD0032B12D10BE05A
:101A5000202B0BD0212B0AD0222B09D0232B09D1EC
:101A600007E008E007E006E005E004E003E002E04C
:101A700001E000E000BF00BF002070470020704779
:101A800010B500220449054809F001FF0449034844
:101A900009F0EEFE002010BD64240020881700200D
:101AA000641C002070B504460D462146334809F0F9
:101AB000DFFE324809F0A8FE2078A52827D10020B3
:101AC00004E0215C2E4A1154411CC8B20B28F8D303
:101AD0002B48D0F8020000EE100AF7EE000A20EEC4
:101AE000200A10EE100A2649C1F802000846D0F874
:101AF000060000EE100ADFED230A30EE600A10EE59
:101B0000100AC1F8060020491D480CF0C1F82078E1
:101B1000F52830D1002004E0215C1C4A1154411CFE
:101B2000C8B20D28F8D31948D0F8050000EE100A05
:101B3000DFED170A20EE200A10EE100A1349C1F853
:101B400005000846D0F8010000EE100ADFED110A8A
:101B500020EE200A10EE100AC1F801000846D0F865
:101B6000090000EE100ADFED0B0A20EE200A10EE4D
:101B7000100AC1F80900002070BD0000881700207D
:101B8000280D00200000344370060020E8370020B4
:101B900000409CC500409C4510B503460C46002102
:101BA000084610BD2DE9F04104460D4600260A48BE
:101BB000D0F8BC72D7F8140210B10120BDE8F08152
:101BC0002A462146044809F062FE034809F012FF44
:101BD00006463046F2E700008817002070B52DED6C
:101BE000048B88B0044600200690079000F02AFF7E
:101BF000FE4880ED000A00BF00F024FFFB48D0ED56
:101C0000000A30EE600AF2EE040AB4EEE00AF1EEE9
:101C100010FA14DD9FEDF60A84ED090A9FEDF50A2E
:101C200084ED0A0A9FEDF30A84ED0B0A9FEDF20A98
:101C300084ED0C0A9FEDF10A84ED060A55E29FED52
:101C4000F00A00F0BBFE9FEDEF0A84ED0C0A9FED59
:101C5000ED0A84ED090A9FEDEB0A84ED0A0A9FED77
:101C6000E90A84ED0B0A002673E1FFF705FC9220D8
:101C7000FFF7E6FD062206A91220FFF7C1FDFFF7D8
:101C8000F1FB9DF81900000200B29DF8181040EA1F
:101C9000010500EE105AB8EEC00ADB48D0ED000A8C
:101CA00020EE200A84ED000A9DF81B00000200B21D
:101CB0009DF81A1040EA010500EE105AB8EEC00A6D
:101CC000D148D0ED000A20EE200A84ED010A9DF8EB
:101CD0001D00000200B29DF81C1040EA010500EE54
:101CE000105AB8EEC00AC848D0ED000A20EE200A0B
:101CF00084ED020AD4ED000A60EEA00A94ED011A08
:101D0000D4ED011A41EE210A94ED021AD4ED021A23
:101D100041EE210AB0EE600A0CF068FCB0EE408A99
:101D200094ED0C0A30EE080A84ED0C0AFFF7B8FBBC
:101D3000082206A90020FFF763FDFFF7A7FB9DF827
:101D400018000F2850D19DF81B00000200B29DF82A
:101D50001A1040EA010500EE105AB8EEC00AAB486E
:101D6000D0ED000A20EE200A84ED030A94ED090A62
:101D7000D4ED030A30EE200A84ED090A9DF81D0017
:101D8000000200B29DF81C1040EA010500EE105A56
:101D9000B8EEC00A9D48D0ED000A20EE200A84ED7E
:101DA000040A94ED0A0AD4ED040A30EE200A84ED08
:101DB0000A0A9DF81F00000200B29DF81E1040EABA
:101DC000010500EE105AB8EEC00A9048D0ED000AA6
:101DD00020EE200A84ED050A94ED0B0AD4ED050AE5
:101DE00030EE200A84ED0B0A06BBF0EE488AB0EE16
:101DF000489A002017E004F10C0101EB800191EDFD
:101E0000000A03A901EB800181ED000A04F10C0135
:101E100001EB800191ED000A694601EB800181ED43
:101E2000000A411CC8B20328E5DB49E0B4EEE88AA9
:101E3000F1EE10FA01DDF0EE488AB4EEC98AF1EE57
:101E400010FA01D2B0EE489A002037E004F10C01FC
:101E500001EB800191ED000A03A901EB8001D1EDB6
:101E6000000AB4EEE00AF1EE10FA0ADD04F10C010A
:101E700001EB800191ED000A03A901EB800181EDE6
:101E8000000A04F10C0101EB800191ED000A6946A2
:101E900001EB8001D1ED000AB4EEE00AF1EE10FA98
:101EA0000AD204F10C0101EB800191ED000A6946B0
:101EB00001EB800181ED000A411CC8B20328C5DB9B
:101EC00038EEC90A524880ED000A002012E003A94A
:101ED00001EB800191ED000A694601EB8001D1ED33
:101EE000000A30EE600A4B4901EB800181ED000AE7
:101EF000411CC8B20328EADB454890ED000AF6EE23
:101F0000000AB4EEE00AF1EE10FA1BDC414890ED55
:101F1000000ADFED410AB4EEE00AF1EE10FA11DC3E
:101F200090ED010ADFED3C0AB4EEE00AF1EE10FAA2
:101F300008DC90ED020ADFED380AB4EEE00AF1EEBB
:101F400010FA00DD0AE09FED350A00F037FD701C45
:101F500086B2334800888642FFF687AE00BFD4EDD4
:101F60000C0A2F48008800EE100AB8EE400A80EEF6
:101F7000801A84ED0C1A002015E004F1240101EB15
:101F80008001D1ED000A2649098800EE101AB8EE4A
:101F9000400A80EE801A04F1240101EB800181EDFA
:101FA000001A411CC8B20328E7DBFFF765FAA2203C
:101FB000FFF746FC022206A92220FFF721FCFFF7CB
:101FC00051FA9DF81800C0009DF8191040EA6115FB
:101FD000B5F5806F02DBA5F5006005B200EE105A82
:101FE000F8EEC00AB4EE001A1CE00000280600203B
:101FF000AC38223BB016CE393F161B4100002042C0
:102000000AD7A33B00000000F0050020F4050020E3
:10201000FC050020183700209A99193E6F12033AE8
:102020002C060020B3EE070A00EE810A84ED060AB2
:1020300034480088401C00B232490880324890ED94
:10204000000AF6EE000AB4EEE00AF1EE10FA3FF7ED
:10205000D3AD94ED0C0ADFED2D0A30EE600AB0EE40
:10206000C00AF6EE000AB4EEE00AF1EE10FAEEDC79
:10207000274890ED000A5FED180AB4EEE00AF1EE91
:1020800010FAE4DC90ED010A5FED1D0AB4EEE00AFF
:10209000F1EE10FADBDC90ED020A5FED210AB4EEFE
:1020A000E00AF1EE10FAD2DC94ED090AB0EEC00AB3
:1020B000DFED180AB4EEE00AF1EE10FAC7DC94ED99
:1020C0000A0AB0EEC00ADFED130AB4EEE00AF1EE40
:1020D00010FABCDC94ED0B0AB0EEC00ADFED0D0A7D
:1020E000B4EEE00AF1EE10FAB1DC00BF94ED0C0A98
:1020F000DFED090A80EE801A84ED081A08B0BDEC05
:10210000048B70BD02060020FC050020CDCC1C41D4
:10211000183700200AD7233CC3F51C4101B10164E4
:10212000704790F8742012028A828B8A7522125CA2
:102130001A448A828A8A00EE102AB8EE400A81ED9B
:10214000060A7622125C120212B28A818B897722E9
:10215000125C1A4412B28A81B1F90C2000EE102AE6
:10216000B8EEC00A81ED040A7822125C120212B2A3
:10217000CA83CB8B7922125C1A4412B2CA83B1F99A
:102180001E2000EE102AB8EEC00A81ED080A7A225D
:10219000125C81F82420704700210171704710B54E
:1021A0000446207938B904F1440008F0BFFA04F17C
:1021B0008C0008F0BBFA0120207110BD0146888A0E
:1021C0008A8B904204DB888A8A8B801A80B270479F
:1021D000888A8A8B801A41F6FF72104480B2F6E733
:1021E000F0B58BB004460E4617462660E76600251C
:1021F00048E00120099007900020089040F201205B
:1022000000EB85004001019040F2022000EB8500C8
:102210004001029040F2032000EB85004001039052
:102220004FF4017000EB8500B0F5037F03D140F25D
:102230000120049005E04FF4017000EB850040019F
:1022400004903E48864203D106950E200A9007E08E
:102250003B48864204D105F10E0006900E200A90FC
:1022600027B9002005900220206705E0012F03D147
:10227000012005901020206701A9304600F098FE4B
:10228000681CC5B2032DB4DB012009900790002023
:10229000089043F6E07001904FF48040029045F6BC
:1022A000E07003904FF4804004902448864204D1AB
:1022B000042006900E200A9006E02148864203D1B1
:1022C000112006900E200A9027B9002005900220C8
:1022D000206705E0012F03D1012005901020206721
:1022E00001A9304600F064FE3046216F00F0A6FDE3
:1022F000304601F0B2FA0021216161610821A1613B
:102300008801A0600021A162E16208212163401ED2
:1023100020620021216461640821A16440F2FF2051
:10232000A063002006E0002204F1940141F820207F
:10233000411CC8B20B28F6DB0BB0F0BDF810002032
:102340002011002030B5039C0160427183718483A9
:10235000002585638562C0F8D450C0F8D850C0F815
:10236000E050C0F8E45030BD30B505460C4634B1FD
:102370002068A0F2012005F1940141F82040284690
:1023800000F001F830BD30B5002585800021002225
:102390000023002400BF0DE000F1940555F8215002
:1023A00035B100F1940555F821502D781544EAB265
:1023B0004D1CE9B20429EFDB1AB1858805F580755B
:1023C000858004210DE000F1940555F8215035B1C8
:1023D00000F1940555F821502D781D44EBB24D1CA9
:1023E000E9B20829EFDB13B1858810358580082113
:1023F0000DE000F1940555F8215035B100F1940538
:1024000055F821502D782544ECB24D1CE9B20B292A
:10241000EFDB14B185886D1C858030BD70B5054635
:10242000002400BFD8E005F1940050F8240000B962
:10243000D0E005F1940050F82400007940B905F18E
:10244000940050F824100022284600F0AFF9C1E0B3
:1024500005F1940050F82400806A68B105F19402F7
:1024600052F8240052F82420916A884705F194001C
:1024700050F8240080ED0B0A05F1940050F8240078
:10248000807920B1012825D0022878D167E005F1B4
:10249000940151F82410D1F8D81091ED001AF0EE03
:1024A000410A05F1940151F82410D1F8D41091EDAE
:1024B000001AB0EE410A05F1940151F8241001F11F
:1024C000440008F03BF805F1940050F8240080ED3A
:1024D000370A55E005F1940151F82410D1F8D810CD
:1024E00091ED001AF0EE410A05F1940151F8241023
:1024F000D1F8D41091ED001AB0EE410A05F1940123
:1025000051F8241001F1440008F018F805F1940086
:1025100050F8240080ED370A05F1940151F8241099
:10252000D1F8E41091ED001AF0EE410A05F19401A2
:1025300051F82410D1F8E01091ED001AB0EE410AE4
:1025400005F1940151F8241001F18C0007F0F6FF19
:1025500005F1940050F8240080ED3A0A10E005F1EE
:10256000940252F8240052F82420116B884705F198
:10257000940050F8240080ED0D0A01E0FFE700BF51
:1025800000BF05F1940050F82400806B68B105F19C
:10259000940252F8240052F82420916B884705F1E8
:1025A000940050F8240080ED0F0A05F1940050F8D3
:1025B0002400006CD0ED000AB0EE600A0DF0B8FB0C
:1025C000064605F1940050F824103246284600F0E3
:1025D000EDF800BF601CC4B20B2CFFF624AF70BD39
:1025E0002DE9F04704460E4691461D46DDE9087880
:1025F0005FB104F14400864201D1C4F8D47004F103
:102600008C00864201D1C4F8E070B8F1000F0BD005
:1026100004F14400864201D1C4F8D88004F18C0052
:10262000864201D1C4F8E480BDB1D5ED042AB0EEF4
:10263000622AD5ED032AF0EE621AD5ED022AB0EE39
:10264000621AD5ED012AF0EE620AD5ED002AB0EE4D
:10265000620A494630460DF006FFBDE8F087816307
:1026600070478162704770B5044604F1740304F149
:102670005002E16E206800F02EFD216F206800F00E
:10268000DDFB94F85000401EC5B204F1940050F8F0
:1026900025102046FFF745FD70BD10B50446A08803
:1026A000B0F5807F32D006DC01280CD0102813D082
:1026B000112870D119E0A0F2011080B30F2840D08A
:1026C000102868D14EE0042304F18C0204F1380193
:1026D000206800F0C8FB5EE0022304F17C0204F1F4
:1026E0002001206800F0BFFB55E0022304F17C02CA
:1026F00004F12001206800F0B6FB042304F18C02F1
:1027000004F13801206800F0AEFB44E0012304F13D
:10271000840204F10801206800F0A5FB3BE0FFE71C
:10272000012304F1840204F10801206800F09BFBFE
:10273000042304F18C0204F13801206800F093FBBB
:1027400029E0012304F1840204F10801206800F06B
:102750008AFB022304F17C0204F12001206800F0CE
:1027600082FB18E0012304F1840204F108012068CF
:1027700000F079FB022304F17C0204F120012068BF
:1027800000F071FB042304F18C0204F1380120688D
:1027900000F069FB00BF00BF10BD417919B1F1EE37
:1027A000400AB0EE600A80ED020A704770B5034639
:1027B00008780C2831D2DFE800F030060708091449
:1027C00015161722232400BF00BF00BF441E640655
:1027D000200EC2F3072503F184042554451C6255DD
:1027E0001CE000BF00BF00BF441F6406200EC2F300
:1027F000072503F17C042554451C62550EE000BFFB
:1028000000BFA0F109046406200EC2F3072503F1FE
:102810008C042554451C625500BF00BF00BF70BD2D
:1028200010B5024801F0BAF810BD0000681600208B
:1028300010B5024801F0B2F810BD0000C816002023
:1028400010B5024801F0AAF810BD0000A011002048
:1028500010B5024801F0A2F810BD000000120020DF
:1028600010B5024801F09AF810BD000028170020AA
:1028700010B5024801F092F810BD000008160020C3
:102880000146087810381823B0FBF3F20848805C42
:10289000C865032A05D908686FF30900001D88651B
:1028A00003E008686FF309008865886D70470000D1
:1028B000361D0108014600208A6A8B69CBB932B106
:1028C000012A0DD0022A03D0032A10D10EE000BF46
:1028D000CB6A03F08073B3F1807F00D1012007E061
:1028E000CB6AB3F1C07F00D1012001E000E000BF5E
:1028F00034E08B69B3F5005F1AD132B1012A07D0F9
:10290000022A03D0032A11D10AE000BF01200EE001
:10291000CB6A03F08073B3F1807F00D1012006E021
:10292000CB6AB3F1C07F00D1012000E000BF15E009
:1029300032B1012A05D0022A04D0032A0CD103E0C7
:1029400000BF00BF012008E0CB6A03F08073B3F141
:10295000807F00D1012000E000BF00BF704730B58C
:102960000468246824F4802405682C60046863608B
:102970008468402C04D10468A2600468E16003E02C
:102980000468A1600468E26030BD000008B5084832
:1029900040680090074900980968884204D20648B8
:1029A0000068401C0449086002490098086008BD9E
:1029B000001000E068020020640200200C49486812
:1029C000F0EE400A00BF0A494968091A01EE101AE0
:1029D000F8EE411A074991ED001AB8EE411A20EEBF
:1029E000811AF4EEC11AF1EE10FAECD37047000030
:1029F000001000E05802002010B52DED028B82B0CF
:102A000004460E484068019020680199081A00EEBB
:102A1000100AF8EE400A0A4890ED000AB8EE400AA3
:102A200080EE801AB0EE418A01982060FFF7AEFF79
:102A3000B0EE480A02B0BDEC028B10BD001000E001
:102A40005802002010B52DED028B00F059F80F4808
:102A500090ED000AB8EE400A808800EE900AF8EE89
:102A6000600A9FED0B1A00EE810A0848C08800EE4C
:102A7000900AF8EE600A9FED071A00EE810AB0EEA8
:102A8000408AB0EE480ABDEC028B10BD5002002017
:102A90006F12833ABD3786351249096841F080715B
:102AA000104A11600021104A51601146096841F036
:102AB000010111600D4941430D4A11601146096839
:102AC0004FF47A72B1FBF2F10A4A116008490968C1
:102AD000064AB1FBF2F1084A11600021074A116071
:102AE00070470000FCED00E0001000E040420F00E5
:102AF000580200205C0200206002002064020020D6
:102B000038B5294840680090FFF740FF2748006823
:102B10004FF0FF31A0FB01310098181841F100017E
:102B2000234A03C2234800232149026803C9FEF750
:102B30009BF8214A03C220480CC81E4800680024A4
:102B4000A2FB001503FB005002FB04021848D0E969
:102B50000030591A60EB0200184AC2E9001016480A
:102B6000006817490860174800231449026803C920
:102B7000FEF77AF81249888008468088114909686A
:102B800041430E48D0E90030591A60F100000E4A66
:102B9000C2E900100D4800230B49026803C9FEF783
:102BA00063F80749C88038BD001000E064020020C7
:102BB00070020020580200207802002080020020CD
:102BC000500200205C0200208802002060020020E9
:102BD000704710B5082001F0D7F810BD10B51020CF
:102BE00001F0D2F810BD10B5202001F0CDF810BDD5
:102BF000D2ED020A92ED021AB6EE000A00EEC10A08
:102C0000D2ED030A92ED031A00EEC10AD0ED000ADC
:102C100020EE200AD2ED010A92ED021A60EE810A3E
:102C200092ED001AD2ED031A41EE210A90ED011A3D
:102C300000EE810AD2ED010A92ED031A60EE810ADC
:102C400092ED001AD2ED021A41EE610A90ED021ADD
:102C500000EE810AF0EE000A20EE200A81ED000A63
:102C600092ED010AD2ED020A20EE200AD2ED000A0E
:102C700092ED031A00EEC10AD0ED000A60EE200AC0
:102C800092ED011AD2ED011AB6EE000A01EE610AC8
:102C9000D2ED031A92ED032AB0EE401A01EEC21AE9
:102CA000D0ED011AB0EE600A01EE210AD2ED020A5F
:102CB00092ED031A60EE810A92ED001AD2ED011A2C
:102CC00041EE210A90ED021A00EE810AF0EE000AB0
:102CD00020EE200A81ED010A92ED010AD2ED030AED
:102CE00020EE200AD2ED000A92ED021A00EE810ACF
:102CF000D0ED000A20EE200AD2ED020A92ED031A6E
:102D000060EE810A92ED001AD2ED011A41EE610ADD
:102D100090ED011A00EE810A92ED011AD2ED011A2E
:102D2000F6EE000A41EE610A92ED021AD2ED021AA5
:102D300041EE610A90ED021A00EE810AF0EE000AFF
:102D400020EE200A81ED020A704772B600BFFEE74E
:102D50000A7802704A788B7842EA0322C2F30A02A8
:102D600042808A78D210CB7842EA4312C2F30A0238
:102D70008280CA7892110B7942EA83024B7942EA47
:102D80008322C2F30A02C2804A7952108B7942EA46
:102D9000C312C2F30A0202818A791211CB7942EA84
:102DA0000312C2F30A024281CA79D2110B7A42EAB3
:102DB00043024B7A42EA4322C2F30A0282814A7AF0
:102DC00092108B7A42EA8312C2F30A02C2818A7A93
:102DD0005211CB7A42EAC30202820A7B4B7B42EA5F
:102DE0000322C2F30A0242824A7BD2108B7B42EA60
:102DF0004312C2F30A028282CA7D82750A7EC275BC
:102E00007047000070B50A480468001D0568001D81
:102E10000668344454B108220649204605F042FDB4
:102E2000042204491031284605F03CFD70BD000025
:102E3000107AFF1F4E0000200173704710B5024644
:102E400092F82030012B01D0022B06D11068406986
:102E5000084314686061002010BD506A40F480206F
:102E600050620120F8E7F0B504460D461E4694F87E
:102E7000207020688368A86800B900E000BF012FB7
:102E800001D0022F7DD103F0806030B903F00060E3
:102E900018B903F0805000287ED0C3F301610120EF
:102EA00088403060A86860B9B5F800C0E86840EABA
:102EB0004C5C206800F5C07000EB0110C0F800C049
:102EC0000FE0D5E901C040EACC00D5F80CC040EADB
:102ED0000C00D4F800C00CF5C07C0CEB011CCCF845
:102EE0000000D5F810C0206800F5C07000EB01109C
:102EF000C0F804C0287D01280ED1206800F5C070FC
:102F000000EB0110406840F4807C206800F5C07040
:102F100000EB0110C0F804C0D079000692F806C09A
:102F200040EA0C4092F805C040EA0C2092F804C038
:102F300040EA0C00D4F800C00CF5C07C0CEB011C7E
:102F4000CCF80C00D078000692F802C040EA0C40A1
:102F500092F801C040EA0C2092F800C040EA0C0050
:102F6000D4F800C00CF5C07C0CEB011CCCF80800B8
:102F7000206800F5C07000EB0110006840F0010C03
:102F800001E00FE008E0206800F5C07000EB0110E0
:102F9000C0F800C00020F0BD606A40F4001060621C
:102FA0000120F8E7606A40F4802060620120F2E7C7
:102FB000F0B504460A46216894F82050012D01D04E
:102FC000022D7ED1424901F50071086840F00100F0
:102FD0000860086820F47C5008600868566A40EA77
:102FE00006200860107D00F01F06012000FA06F39D
:102FF000C8699843C861A1F50071D069C8B9D1F812
:103000000C029843C1F80C02908880B2968940EA7D
:10301000064601F51070576940F83760108880B295
:10302000168940EA064601F51070576900EBC700A3
:103030004660D069012819D1D1F80C021843C1F8B3
:103040000C02908880B2168840EA064601F510709E
:10305000576940F83760908980B2168940EA064681
:1030600001F51070576900EBC7004660906928B9F8
:10307000D1F804029843C1F8040204E0D1F8040234
:103080001843C1F80402106928B9D1F81402984312
:10309000C1F8140204E0D1F814021843C1F8140274
:1030A000106A012804D1D1F81C021843C1F81C028F
:1030B000D1F8000220F00100C1F800020020F0BDAC
:1030C000FFE7606A40F4802060620120F7E70000BB
:1030D00000640040704770B5044694F82050012DFC
:1030E00001D0022D7DD151B92068C06800F00300E5
:1030F00080B9606A40F400106062012070BD2068F1
:10310000006900F0030028B9606A40F400106062B2
:103110000120F3E7206800F5D87000EB011000688B
:1031200000F004009060906840B9206800F5D87005
:1031300000EB01100068400D106007E0206800F50A
:10314000D87000EB01100068C0085060206800F5DE
:10315000D87000EB0110006800F00200D060206819
:1031600000F5D87000EB0110406800F00F0008284F
:1031700002D30820106108E0206800F5D87000EB49
:103180000110406800F00F001061206800F5D87051
:1031900000EB0110406800F47F40000A9061206855
:1031A00000F5D87000EB01104068000C50612068F9
:1031B00000F5D87000EB011080681870206800F5E9
:1031C000D87000EB0110806800F47F40000A58704E
:1031D000206800F5D87000EB0110806800F47F00D3
:1031E00000E03CE0000C9870206800F5D87000EB1F
:1031F00001108068000ED870206800F5D87000EBD0
:103200000110C0681871206800F5D87000EB01103B
:10321000C06800F47F40000A5871206800F5D8703B
:1032200000EB0110C06800F47F00000C987120686A
:1032300000F5D87000EB0110C068000ED87131B9EC
:103240002068C06840F020002668F06005E0206833
:10325000006940F020002668306100204EE7606A77
:1032600040F480206062012048E70146002091F888
:103270002020012A01D0022A11D10B689B6803F09B
:10328000806303B1401C0B689B6803F0006303B1CB
:10329000401C0B689B6803F0805303B1401C7047CF
:1032A0002DE9F05F04460025206846692068D0F8C3
:1032B0000490206887682068D0F80CA02068D0F8B7
:1032C00010B02068D0F8188006F00100002855D012
:1032D00007F00100C0B101202168886007F00200FA
:1032E00018B1204600F0E9FA0EE007F0040010B132
:1032F00045F4006508E007F0080010B145F480557A
:1033000002E0204600F0D8FA07F48070C8B14FF40C
:1033100080702168886007F4007018B1204600F0C2
:10332000CEFA0EE007F4806010B145F4005508E0D5
:1033300007F4006010B145F4804502E0204600F03B
:10334000BDFA07F48030C8B14FF48030216888603E
:1033500007F4003018B1204600F0B3FA0EE007F48D
:10336000802010B145F4004508E007F4002010B1BA
:1033700045F4803502E0204600F0A2FA06F008008D
:1033800038B10AF0100020B145F400751020216812
:10339000C86006F0040040B10AF0080028B1082017
:1033A0002168C860204600F02DFA06F0020038B10E
:1033B0002068C06800F0030010B1204600F024FA35
:1033C00006F0400038B10BF0100020B145F48065E4
:1033D00010202168086106F0200040B10BF00800C1
:1033E00028B1082021680861204600F025FA06F07F
:1033F000100038B12068006900F0030010B12046C9
:1034000000F01CFA06F4003040B109F0100028B1B9
:10341000102021684860204600F01EFA06F4803033
:1034200040B109F0080028B1082021684860204612
:1034300000F048FA06F4004088B309F0040078B3BD
:1034400006F4807020B108F0010008B145F00105D4
:1034500006F4007020B108F0020008B145F0020542
:1034600006F4806020B108F0040008B145F00405BE
:1034700006F40060A0B108F0700088B108F0700098
:10348000402817D006DC10280BD020280CD030287C
:1034900019D10CE0502810D0602814D110E01DE0A4
:1034A00019E045F008050FE045F010050CE045F087
:1034B000200509E045F0400506E045F0800503E001
:1034C00045F4807500E000BF00BF2068806920F0EF
:1034D0007000216888610420216848602DB1606A0D
:1034E000284360622046FFF7F5FDBDE8F09F70B508
:1034F00004460CB9012070BD94F8200010B9204694
:1035000000F0B0F82068006840F001002168086011
:1035100000F048FD05460DE000F044FD401B0A2880
:1035200008D9606A40F400306062052084F8200009
:103530000120E0E72068406800F001000028EBD09F
:103540002068006820F002002168086000F02AFD71
:1035500005460DE000F026FD401B0A2808D9606AE8
:1035600040F400306062052084F820000120C2E7AA
:103570002068406800F002000028EBD1207E01287E
:1035800006D12068006840F080002168086005E0EE
:103590002068006820F0800021680860607E0128B3
:1035A00006D12068006840F040002168086005E00E
:1035B0002068006820F0400021680860A07E012893
:1035C00006D12068006840F020002168086005E00E
:1035D0002068006820F0200021680860E07E012853
:1035E00006D12068006820F010002168086005E01E
:1035F0002068006840F0100021680860207F0128E2
:1036000006D12068006840F008002168086005E0E5
:103610002068006820F0080021680860607F0128A9
:1036200006D12068006840F004002168086005E0C9
:103630002068006820F0040021680860D4E90201D5
:10364000084321690843616908436168491E0843CA
:103650002168C86100206062012084F820000020F9
:1036600049E7000010B586B00446142101A8FDF713
:1036700076FB5E492068884251D15D480068401C55
:103680005B4908600846006801280FD100BF002090
:1036900000905848006840F000705649086008469D
:1036A000006800F00070009000BF00BF00BF002065
:1036B000009050481038006840F008004D4910391B
:1036C00008600846006800F00800009000BF00BFD6
:1036D0000320019002200290002003900320049018
:1036E0000920059001A9444800F05CFB0022114626
:1036F000132000F0E5FC132000F0CEFC0022114660
:10370000142000F0DDFC142000F0C6FC002211465D
:10371000152000F0D5FC152000F0BEFC64E0374910
:103720002068884260D100BF0020009031480068C6
:1037300040F080602F4908600846006800F0806013
:10374000009000BF00BF2A480068401C284908605C
:103750000846006801280FD100BF002000902548CE
:10376000006840F00070234908600846006800F0D7
:103770000070009000BF00BF00BF002000901D48F7
:103780001038006840F002001A49103908600846F5
:10379000006800F00200009000BF00BF60200190B0
:1037A000022002900020039003200490092005903D
:1037B00001A9134800F0F6FA002211463F2000F05C
:1037C0007FFC3F2000F068FC00221146402000F002
:1037D00077FC402000F060FC00221146412000F000
:1037E0006FFC412000F058FC06B010BD00640040A2
:1037F0000400002040380240000C024000680040F5
:10380000000402407047000010B504460648844298
:1038100002D10648FEF727FF0548844202D1054839
:10382000FEF721FF10BD0000F8100020C8060020A0
:1038300020110020600900207047000010B50446E8
:103840000348844202D103480BF05AFD10BD00002A
:10385000F8100020640D0020704770B5044694F8FD
:103860002000012822D1022084F82000206800686E
:1038700020F001002168086000F094FB05460DE08F
:1038800000F090FB401B0A2808D9606A40F4003021
:103890006062052084F82000012070BD2068406827
:1038A00000F001000028EBD16062F6E7606A40F4A6
:1038B000002060620120F0E7704770477047704752
:1038C00070477047704770B50446A56D00F06AFBFD
:1038D000064694F83500022808D08020606500BFB5
:1038E000002084F8340000BF012070BD206800680B
:1038F00020F01600216808602068406920F08000F0
:1039000021684861206C08B9A06C28B12068006863
:1039100020F00800216808602068006820F001009D
:103920002168086010E000F03DFB801B05280BD9E2
:1039300020206065032084F8350000BF002084F853
:10394000340000BF0320D0E72068006800F00100C9
:103950000028E8D194F85C103F208840A86001203E
:1039600084F8350000BF002084F8340000BF00BF99
:10397000BBE7014691F83500022803D08020486556
:1039800001207047052081F835000868006820F0A4
:1039900001000A6810600020F3E70000F8B5044653
:1039A000002000908C4800684FF41651B0FBF1F7EE
:1039B000A56D2E6894F85C1008208840304098B1BE
:1039C0002068006800F0040070B12068006820F0F2
:1039D00004002168086094F85C1008208840A86002
:1039E000606D40F00100606594F85C100120884033
:1039F000304068B12068406900F0800040B194F820
:103A00005C1001208840A860606D40F00200606595
:103A100094F85C1004208840304068B12068006849
:103A200000F0020040B194F85C1004208840A860C7
:103A3000606D40F00400606594F85C1010208840D0
:103A4000304078B32068006800F0080050B394F864
:103A50005C1010208840A8602068006800F4802076
:103A600080B12068006800F4002028B9206CC8B13B
:103A70002046216C884715E0A06C98B12046A16CC7
:103A800088470FE02068006800F4807028B920683B
:103A9000006820F0080021680860206C10B1204602
:103AA000216C884794F85C10202088403040002822
:103AB00065D02068006800F0100000285FD094F8FE
:103AC0005C1020208840A86094F83500052828D193
:103AD0002068006820F016002168086020684069AE
:103AE00020F0800021684861206C08B9A06C28B1E2
:103AF0002068006820F008002168086094F85C10D5
:103B00003F208840A860012084F8350000BF0020D5
:103B100084F8340000BF206D10B12046216D884725
:103B2000F8BD2068006800F4802080B1206800683B
:103B300000F4002028B9606C10B12046616C884701
:103B40001DE0E06BD8B12046E16B884717E02068A4
:103B5000006800F4807068B92068006820F01000E8
:103B600021680860012084F8350000BF002084F837
:103B7000340000BFE06B10B12046E16B8847606DF8
:103B800038B3606D00F00100F0B1052084F8350015
:103B90002068006820F001002168086000BF0098DC
:103BA000401C0090B84200D905E02068006800F091
:103BB00001000028F3D100BF012084F8350000BFC8
:103BC000002084F8340000BFE06C10B12046E16CA6
:103BD000884700BFA4E70000140000202DE9F04151
:103BE0000446002500F0DEF9074614B90120BDE8BF
:103BF000F081606A00B100BF022084F8350000BF88
:103C0000002084F8340000BF2068006820F0010024
:103C1000216808600AE000F0C5F9C01B052805D935
:103C200020206065032084F83500E0E72068006804
:103C300000F001000028EED1206805682148054009
:103C4000D4E901010843E168084321690843616937
:103C50000843A1690843E1690843216A0843054311
:103C6000606A042803D1D4E90B01084305432068A6
:103C700005602068456925F00705606A0543606AAC
:103C800004280DD1A06A0543E06A48B12046FEF73A
:103C900011FE28B140206065012084F83500A6E7B8
:103CA000206845612046FEF7EBFD064694F85C105F
:103CB0003F208840B06000206065012084F8350016
:103CC000002094E73F8010F02DE9F04704460D46B0
:103CD00016461F464FF00008D4F8589000BF94F8DD
:103CE0003400012802D10220BDE8F087012084F8C9
:103CF000340000BF94F83500012825D1022084F853
:103D00003500002060653B46324629462046FEF7D6
:103D100026FE94F85C103F208840C9F8080020680F
:103D2000006840F0160021680860206C28B1206807
:103D3000006840F00800216808602068006840F0D2
:103D400001002168086006E000BF002084F834000C
:103D500000BF4FF002084046C6E7000070B50446B9
:103D600000F020F906462546681C10B1044800788A
:103D7000054400BF00F016F9801BA842FAD370BDBD
:103D8000100000207047000010B504460448006889
:103D9000204020B1024804602046FFF7F3FF10BD29
:103DA000143C0140F8B502460B46002500240020D3
:103DB0000021D6E0012606FA01F51E6806EA050490
:103DC000AC4274D11E7906F00306012E04D01E7990
:103DD00006F00306022E13D190684F000326BE4062
:103DE000B0434F00DE68BE4030439060506801260B
:103DF0008E40B0431E79C6F300168E4030435060AB
:103E00001E7906F00306032E09D0D0684F00032662
:103E1000BE40B0434F009E68BE403043D0601E7924
:103E200006F00306022E13D1CF0802F1200656F841
:103E300027004E07F70E0F26BE40B0434F07FF0E78
:103E40001E69BE403043CF0802F1200646F8270025
:103E500010684F000326BE40B0431E7906F00306EB
:103E60004F00BE40304310605E6806F44036002EBE
:103E700076D000BF002600963C4E366846F4804659
:103E80003A4F3E603E46366806F48046009600BFD4
:103E900000BF374E8F0856F827008E07370F0F26C2
:103EA000BE40B043334EB24202D1002624E057E078
:103EB000314EB24201D101261EE0304EB24201D154
:103EC000022619E02E4EB24201D1032614E02D4EF7
:103ED000B24201D104260FE02B4EB24201D1052699
:103EE0000AE02A4EB24201D1062605E0284EB2422F
:103EF00001D1072600E008268F073F0FBE40304360
:103F00001B4E8F0846F82700224E3068A0435E689B
:103F100006F4801606B120431E4E3060361D306810
:103F2000A0435E6806F4001606B12043194E361D04
:103F30003060184E361F3068A0435E6806F40036C5
:103F400006B12043134E361F3060361F3068A04341
:103F50005E6806F4803606B120430E4E083E30609F
:103F6000491C1029FFF426AFF8BD00004438024078
:103F700008380140000002400004024000080240EE
:103F8000000C0240001002400014024000180240E1
:103F9000001C0240083C01400AB1816101E00B04B1
:103FA00083617047014800687047000008000020E6
:103FB00003480068034909780844014908607047CC
:103FC000080000201000002010B50D48006840F4E3
:103FD00000700B4908600846006840F48060086083
:103FE0000846006840F480700860032000F0A6F8DE
:103FF0000F2000F007F800F02BF8002010BD0000A3
:10400000003C024070B504460E4800784FF47A71C7
:10401000B1FBF0F00C490968B1FBF0F5284601F05E
:1040200035FD08B1012070BD102C07D200222146B9
:10403000501E00F045F80548046001E00120F2E759
:104040000020F0E710000020140000200C000020E9
:1040500008B500BF002000900E48006840F4804082
:104060000C4908600846006800F48040009000BFDA
:1040700000BF00BF00200090081F006840F0805083
:10408000091F08600846006800F08050009000BFDB
:1040900000BF08BD443802400146084600280DDB39
:1040A00000BF00BF00F01F0301229A4043099B009C
:1040B00003F1E023C3F8002100BF00BF00BF704739
:1040C0002DE9F05F80460D461646002709F0FCFEFC
:1040D000074639462A46334601F00700C0F1070A71
:1040E000BAF1040F02D94FF0040A01E0C0F1070A47
:1040F000D14600F1040ABAF1070F02D24FF0000ACC
:1041000001E0A0F1030AD4464FF0010A0AFA09FAC5
:10411000AAF1010A0AEA020A0AFA0CFA4FF0010BA4
:104120000BFA0CFBABF1010B0BEA030B4AEA0B0495
:104130002146404609F0D0FEBDE8F09F00BF00F0E8
:104140000702064B19684FF6FF031940044B0B4357
:1041500043EA0221014B196000BF70470CED00E0FB
:104160000000FA057047024610684162002070475F
:10417000F0B5034615461868446A21B944EA05407B
:104180001E68B06219E01868806A04EB10440022CF
:1041900008E0186800F5827050F8220004EB104423
:1041A000501CC2B2481E9042F3D844EA0547186832
:1041B00000F582704E1E40F826700020F0BD10B54C
:1041C0000446D4F8E00408F086F810BD70B5044643
:1041D0000D4605EBC50304F1140101EB8301CA6828
:1041E0002946D4F8E00407F071FF70BD70B50446AD
:1041F0000D4605EBC50304F5157101EB8301CA6893
:104200002946D4F8E00407F0E5FF70BD10B5044678
:10421000D4F8E00408F062F810BD2DE9F04104463E
:104220000D4605F08000802808D105F00F0000EB56
:10423000C00104F1140000EB810607E005F00F0057
:1042400000EBC00104F5157000EB810631462068D3
:1042500009F08EFA07463846BDE8F08170B504468D
:104260000E4606F0800080280AD106F00F0000EB11
:10427000C00104F1140000EB81050120687009E021
:1042800006F00F0000EBC00104F5157000EB81058E
:104290000020687006F00F00287000BF94F89404A6
:1042A000012801D1022070BD012084F8940400BFD0
:1042B0002946206808F0EAFD00BF002084F8940435
:1042C00000BF00BFEFE770B504460E4606F00F00D2
:1042D0002179884201D9012070BD06F08000802834
:1042E0000AD106F00F0000EBC00104F1140000EB4E
:1042F00081050120687009E006F00F0000EBC001A5
:1043000004F5157000EB8105002068700020A8708E
:1043100006F00F00287000BF94F89404012801D122
:104320000220D9E7012084F8940400BF29462068C0
:1043300008F0AAFF00BF002084F8940400BF00BF6B
:10434000CAE7024601F00F0000EBC00302F515704A
:1043500000EB8300406970472DE9F04705460E46A3
:1043600090461F464FF0000906F0800080280AD1D1
:1043700006F00F0000EBC00105F1140000EB810412
:104380000120607009E006F00F0000EBC00105F5A8
:10439000157000EB81040020607006F00F002070A3
:1043A000C8F30A00A0602771607808B120786083A4
:1043B000022F01D10020607100BF95F894040128FC
:1043C00002D10220BDE8F087012085F8940400BFE7
:1043D0002146286808F06EFC00BF002085F8940490
:1043E00000BF4846EEE72DE9F04105460E46174668
:1043F000984606F00F0000EBC00105F5157000EBC4
:104400008104E760C4F8108000206061607006F0ED
:104410000F002070A879012800D1E761AA79214610
:10442000286808F0C5FF0020BDE8F08170B504469B
:104430000D4605F00F002179884201D9012070BD99
:1044400005F0800080280AD105F00F0000EBC001C4
:1044500004F1140000EB81060120707007E005EB09
:10446000C50104F5157000EB810600207070012075
:10447000B07005F00F00307000BF94F8940401286C
:1044800001D10220DBE7012084F8940400BF31460B
:10449000206808F040FF05F00F0028B9A17904F268
:1044A0009C42206808F0B8FE00BF002084F8940405
:1044B00000BF00BFC3E72DE9F04105460E46174691
:1044C000984606F00F0000EBC00105F1140000EB68
:1044D0008104E760C4F810800020606101206070F2
:1044E00006F00F002070A879012800D1E761AA79B1
:1044F0002146286808F05CFF0020BDE8F0812DE926
:10450000FE4F0446D4F800B05E46206809F012FA67
:10451000002874D1206809F04CFA08B9BDE8FE8F74
:1045200040F608008059C0F30D20C4F8D404206878
:1045300009F03FFA00F00200022805D12068406926
:1045400000F0020021684861206809F032FA00F0AA
:104550001000102845D12068806920F010002168E3
:104560008861DBF8209009F00F0000EBC00104F532
:10457000157000EB810AC9F3434002281AD147F6AF
:10458000F07009EA000030B3C9F30A125846DAF8AD
:104590000C1009F013FAC9F30A11DAF80C000844F8
:1045A000CAF80C00C9F30A11DAF814000844CAF872
:1045B000140010E0C9F3434006280CD1082204F28D
:1045C0009C41584609F0FAF9C9F30A11DAF81400C7
:1045D0000844CAF814002068806940F0100021687F
:1045E0008861206809F0E5F900F40020B0F5002F9B
:1045F0007BD10025206809F0ACF9029072E0E1E27D
:10460000029800F00100002868D0E9B2206809F0A3
:10461000C3F9804608F0010048B1012106F5306079
:1046200000EB451081602946204605F0C3FC08F0E8
:104630000800082809D1082106F5306000EB451074
:1046400081602946204605F083FC08F01000102800
:1046500005D1102106F5306000EB4510816008F0AF
:104660000200022824D1DBF8140000F0800080282A
:1046700007D140F60400805940F4806140F6040000
:10468000815105EBC50104F5157000EB810A9AF81C
:104690000300012806D100208AF80300E9B2204671
:1046A00000F09BFA022106F5306000EB45108160B6
:1046B00008F02000202805D1202106F5306000EB0D
:1046C0004510816008F40050B0F5005F06D14FF44A
:1046D000005106F5306000EB451081606D1C0298BA
:1046E00040080290029800288AD1206809F061F9F8
:1046F00000F48020B0F5802F7DD1206809F01FF9EB
:10470000029000259AE0029800F00100002873D082
:10471000E9B2206809F027F9804608F00100F0B3FB
:1047200005F00F0101208840019040F634008159C6
:10473000019821EA000040F634018851012106F574
:10474000106000EB45108160A079012824D105EBB1
:10475000C50104F1140000EB810005EBC502C1683E
:1047600004F1140000EB82008068014405EBC502EF
:1047700004F1140000EB8200C1606DB905EBC501C6
:1047800004F1140000EB8100006928B904F29C4296
:104790000121206808F040FDE9B2204600E001E078
:1047A000FFF714FD08F00800082805D1082106F5D8
:1047B000106000EB4510816008F01000102805D152
:1047C000102106F5106000EB4510816008F04000F4
:1047D000402805D1402106F5106000EB45108160AE
:1047E00008F0020002281DD12946584609F065F854
:1047F00005EBC50101E025E01CE004F1140000EB2D
:10480000810A9AF80300012806D100208AF80300E3
:10481000E9B2204600F0D8F9022106F5106000EB5D
:104820004510816008F08000802803D12946204689
:1048300005F062FC6D1C0298400802900298002866
:104840007FF461AF206809F0B4F800F00040B0F1E7
:10485000004F1CD140F60400805920F0010140F6C1
:104860000400815194F8CC04012807D1002084F879
:10487000CC0400212046FFF775FC02E0204600F042
:10488000D1FA2068406900F0004021684861206842
:1048900009F08FF800F40060B0F5006F0ED140F61B
:1048A0000800805900F0010010B1204600F012FB12
:1048B0002068406900F4006021684861206809F0C0
:1048C00078F800F48050B0F5805F7ED140F60400A7
:1048D000805920F0010140F6040081511021206828
:1048E00008F0EBFF002732E04FF67F3106F510604D
:1048F00000EB4710816006F5106000EB4710006880
:1049000020F4001106F5106000EB471001604FF62F
:104910007F3106F5306000EB4710816006F53060AE
:1049200000EB4710006820F4001106F5306000EB42
:104930004710016006F5306000EB4710006840F05A
:10494000006106F5306000EB471001607F1C2079A4
:10495000B842C9D840F61C00805940F0011140F619
:104960001C008151E07B70B1D6F8840840F00B0147
:10497000C6F8841840F64400805940F00B0140F618
:10498000440081510FE040F61400805942F22B019F
:10499000084340F614018851081F805940F00B016C
:1049A0004FF401608151D6F8000820F4FE60C6F88B
:1049B0000008A17904F29C42206808F02DFC2068D0
:1049C000406900F48050216800E000E04861206800
:1049D00008F0EFFF00F40050B0F5005F17D1206839
:1049E00008F0D0F9206808F092FFE07100F04EFB6B
:1049F0000090E2792068009909F062F8204600F002
:104A0000F9F92068406900F4005021684861206885
:104A100008F0CFFF00F00800082808D1204600F079
:104A200008FA2068406900F00800216848612068A1
:104A300008F0BFFF00F08000802818D1DBF81800D4
:104A400020F08000CBF8180001250DE005EBC50132
:104A500004F5157000EB8100C078012803D1E9B29C
:104A60002046FFF7DAFB6D1C2079A842EED82068BB
:104A700008F09FFF00F48010B0F5801F2DD10125B4
:104A800022E006F5106000EB4510D0F8009005EB31
:104A9000C50104F1140000EB81000079012812D156
:104AA00009F00040B0F1004F0DD1012105EBC50226
:104AB00004F1140000EB8200C170E8B240F0800104
:104AC0002046FFF7AAFB6D1C2079A842D9D82068A0
:104AD000406900F4801021684861206808F069FF8F
:104AE00000F40010B0F5001F44D1012538E006F5B0
:104AF000306000EB4510D0F8009005EBC50104F5DF
:104B0000157000EB81000079012828D109F00040E0
:104B1000B0F1004F23D109F4803094F8D41401F09F
:104B2000010188421BD1012105EBC50204F5157076
:104B300000EB8200C170DBF8180040F08000CBF879
:104B40001800DBF8140000F0800040B940F60400C3
:104B5000805940F4007140F60400815103E06D1C5F
:104B60002079A842C3D800BF2068406900F4001033
:104B700021684861206808F01CFF00F08040B0F117
:104B8000804F08D12046FFF71AFB2068406900F0EB
:104B9000804021684861206808F00BFF00F00400A5
:104BA00004280FD12068D0F8049009F004000428EC
:104BB00002D12046FFF72AFB2068406840EA09003E
:104BC0002168486000BFA9E470B504460D46294637
:104BD000D4F8E00407F0EEFB70BD70B504460D4656
:104BE0002946D4F8E00407F009FC70BDF8B5044686
:104BF0000CB90120F8BD266894F8950428B9002066
:104C000084F89404204600F0A1F8032084F8950469
:104C1000B6F1A04F01D10021A171206808F0F4FA8B
:104C2000207C8DF8000094E80F0008F0BFF820B158
:104C3000022084F895040120DCE70021206808F0B8
:104C4000EDFE20B1022084F895040120D2E7002572
:104C500031E0012105EBC50204F1140000EB8200F4
:104C6000417005EBC50104F1140000F8215005EB7B
:104C7000C50100EB81004583002105EBC50204F16D
:104C8000140000EB8200017105EBC50204F1140071
:104C900000EB8200816005EBC50204F1140000EB1B
:104CA0008200C16005EBC50204F1140000EB820034
:104CB0000161681CC5B22079A842CADC00252AE03F
:104CC000002105EBC50204F5157000EB8200417070
:104CD00005EBC50104F5157000F82150002105EB26
:104CE000C50200EB8200017105EBC50204F51570E9
:104CF00000EB8200816005EBC50204F5157000EB46
:104D00008200C16005EBC50204F5157000EB82005E
:104D10000161681CC5B22079A842D1DC207C8DF8E5
:104D2000000094E80F0008F07BF920B1022084F81D
:104D3000950401205EE700206074012084F895044A
:104D4000206808F05BF9002054E7000010B586B039
:104D50000446142101A8FCF702F82068B0F1A04F26
:104D600042D100BF002000902048006840F00100C0
:104D70001E4908600846006800F00100009000BF6E
:104D800000BF4FF4C0500190022002900020039019
:104D9000032004900A20059001A91548FFF702F8A6
:104DA00000BF1248001D006840F080000F49091D37
:104DB000086000BF002000900C481430006840F4E8
:104DC00080400A49143108600846006800F48040B9
:104DD000009000BF00BF00BF002211464320FFF734
:104DE0006FF94320FFF758F906B010BD3038024084
:104DF0000000024070B504460125E07908B900259D
:104E000006E0E079022801D1012501E0FDF79DFFD0
:104E10002946D4F8E00407F09AFBD4F8E00407F040
:104E200041FB70BD10B50446D4F8E00407F070FBF8
:104E300010BD10B50446D4F8E00407F074FB10BDB3
:104E400070B504460D4600BF94F89404012801D1C2
:104E5000022070BD012084F8940400BF65742946C7
:104E6000206808F00FFE00BF002084F8940400BF03
:104E700000BFEEE710B5044604F29C41D4F8E0040C
:104E800007F07CFB10BD70B50446256800BF94F8A0
:104E90009404012801D1022070BD012084F89404FB
:104EA00000BFE86800F0400030B1607B012803D10A
:104EB000A86B40F48030A863206808F0CFFC20681D
:104EC00008F08AF800BF002084F8940400BF00BFF7
:104ED000E2E7000010B50446D4F8E00407F0ABFBAD
:104EE0002068D0F8000E40F001002168C1F8000EE3
:104EF000E07A28B10348006840F0060001490860E4
:104F000010BD000010ED00E070B504460D460CB970
:104F1000012070BD5848006800F00700A84209D27F
:104F200055490D700846006800F00700A84201D0FE
:104F30000120EEE7207800F0020002281DD1207841
:104F400000F00400042805D14C48006840F4E0500B
:104F50004A490860207800F00800082805D1474831
:104F6000006840F46040454908604448006820F00B
:104F7000F000A168084341490860207800F0010072
:104F8000A8B36068012807D13C4808380068C0F31E
:104F90004040B8B90120BCE76068022802D06068D0
:104FA000032807D1354808380068C0F3406048B985
:104FB0000120AEE7314808380068C0F3400008B966
:104FC0000120A6E72D48006820F00300616808432F
:104FD0002A490860FEF7E6FF064609E0FEF7E2FF11
:104FE000801B41F28831884202D9032091E707E013
:104FF0002248006800F00C006168B0EB810FEDD131
:105000001D48006800F00700A84209D91A490D7030
:105010000846006800F00700A84201D0012078E7A8
:10502000207800F00400042807D11448006820F418
:10503000E050E168084311490860207800F008005A
:10504000082808D10D48006820F46040216940EA32
:10505000C1000A49086000F03FF808490968C1F337
:105060000311074A515CC8400649086006480068B9
:10507000FEF7C8FF00204CE7003C02400838024021
:105080003E1D0108140000200C00002001480068AB
:10509000704700001400002000B5FFF7F7FF044937
:1050A0000968C1F38221034A515CC84000BD000079
:1050B000083802404E1D010800B5FFF7E7FF04491C
:1050C0000968C1F34231034A515CC84000BD000089
:1050D000083802404E1D01082DE9F0470024002544
:1050E0000026A1462548006800F00C0020B10428E5
:1050F00005D008283AD105E0DFF8849039E0DFF8E0
:10510000849036E01D48001F006800F03F041B48F3
:10511000001F006800F4800078B11A481749091F81
:105120000968C1F38811A0FB0170014622460023E3
:105130003846FBF799FD05460EE011480F49091F57
:105140000968C1F38811A0FB0170014622460023C3
:105150003846FBF789FD05460848001F0068C0F384
:105160000140401C4600B5FBF6F902E0DFF8109064
:1051700000BF00BF4846BDE8F08700000838024085
:105180000024F400001BB700F8B504460CB9012058
:10519000F8BD207800F00100002874D0F9480068BC
:1051A00000F00C0004280DD0F648006800F00C0058
:1051B000082813D1F348001F006800F48000B0F500
:1051C000800F0BD1EF4808380068C0F3404000283A
:1051D00059D06068002856D10120D9E700BF606827
:1051E000B0F5803F08D1E7480838006840F48030C7
:1051F000E449083908601EE06068B0F5A02F0DD1C1
:10520000E0480838006840F48020DE49083908602A
:105210000846006840F4803008600CE0D94808383F
:10522000006820F48030D7490839086008460068D3
:1052300020F48020086000BF606890B1FEF7B2FEE5
:10524000054606E0FEF7AEFE401B642801D90320A8
:105250009EE7CC4808380068C0F340400028F1D0F1
:1052600011E0FEF79FFE054606E0FEF79BFE401BA1
:10527000642801D903208BE7C24808380068C0F3CE
:1052800040400028F1D1207800F0020002285FD1D0
:10529000BC48006800F00C0058B1BA48006800F043
:1052A0000C0008281CD1B748001F006800F48000DB
:1052B000B0B9B44808380068C0F3400020B1E068D5
:1052C000012801D0012063E7AE480838006820F0CB
:1052D000F800216940EAC100AA490839086037E0AE
:1052E000E06800B30120A8490860FEF75BFE0546B0
:1052F00006E0FEF757FE401B022801D9032047E7CE
:10530000A04808380068C0F340000028F1D09D484C
:105310000838006820F0F800216940EAC100994986
:105320000839086014E0002097490860FEF73AFE4B
:10533000054606E0FEF736FE401B022801D9032091
:1053400026E7904808380068C0F340000028F1D1F3
:10535000207800F0080008282CD16069A8B101204D
:105360008A490860FEF71EFE054606E0FEF71AFEB3
:10537000401B022801D903200AE782486C300068EC
:10538000C0F340000028F1D014E000207F490860FD
:10539000FEF708FE054606E0FEF704FE401B022865
:1053A00001D90320F4E677486C300068C0F3400070
:1053B0000028F1D1207800F00400042870D10027E3
:1053C00070483830006800F0805090B900BF00206D
:1053D00000906C483830006840F08050694938319E
:1053E00008600846006800F08050009000BF00BFD1
:1053F00001276748006800F48070B0B9644800680D
:1054000040F4807062490860FEF7CCFD054606E076
:10541000FEF7C8FD401B022801D90320B8E65C480E
:10542000006800F480700028F2D000BFA068012856
:1054300008D154486830006840F001005149683193
:1054400008601DE0A06805280DD14E48683000684E
:1054500040F004004B49683108600846006840F09D
:10546000010008600CE047486830006820F0010047
:105470004449683108600846006820F0040008606C
:1054800000BFA068A8B1FEF78DFD054609E0FEF754
:1054900089FD401B41F28831884202D9032077E61A
:1054A00026E0384868300068C0F340000028EED09D
:1054B00013E0FEF777FD054608E0FEF773FD401B9D
:1054C00041F28831884201D9032061E62D486830D5
:1054D0000068C0F340000028EFD1012F07D1294810
:1054E0003830006820F0805026493831086000BF0D
:1054F000A069002845D02348006800F00C00082867
:105500005DD0A069022845D100201F490866FEF73A
:1055100049FD054606E0FEF745FD401B022801D97E
:10552000032035E6174808380068C0F340600028BB
:10553000F1D1D4E907010843616A40EA81110122EF
:10554000A06AC2EB500041EA00412C20005D41EA14
:1055500000600C49091F086001200B490866FEF72E
:1055600021FD054606E0FEF71DFD401B022801D97E
:1055700003200DE6034808380068C0F340600028A7
:10558000F1D049E00838024000004742800E47420F
:1055900000700040002021490866FEF703FD054623
:1055A00006E0FEF7FFFC401B022801D90320EFE5CF
:1055B0001B480068C0F340600028F2D12CE0A069CD
:1055C000012800D1E4E51648001D0668A0690128FD
:1055D00020D006F48001E06981421BD106F03F0132
:1055E000206A814216D147F6C0703040616AB0EB44
:1055F000811F0FD106F440310122A06AC2EB500096
:10560000B1EB004F06D106F070612C20005DB1EBCC
:10561000006F01D00120BBE50020B9E50000474242
:105620000038024010B504460CB9012010BD606A74
:1056300038B96068B0F5827F00D105E00021E161F2
:1056400002E00021216161610021A16294F8510012
:1056500028B9002084F85000204600F047F80220C6
:1056600084F851002068006820F04000216808603C
:10567000A08800F48270218901F404410843A189C3
:1056800001F400610843217C01F002010843217DFF
:1056900001F001010843218B01F400710843217FCF
:1056A00001F0380108432021095D01F08001084321
:1056B000218D01F400510843216808600421A0698C
:1056C00001EA104094F8241001F010010843216809
:1056D00048602068C06920F400602168C86100202B
:1056E0006065012084F8510000209FE710B586B066
:1056F0000446142101A8FBF732FB4B49206888427D
:105700007ED100BF002000904848006840F48050DF
:10571000464908600846006800F48050009000BFC9
:1057200000BF00BF0020009040481438006840F0DF
:1057300002003E49143908600846006800F0020083
:10574000009000BF00BF00BF002000900846006826
:1057500040F0010008600846006800F00100009079
:1057600000BF00BF1820019002200290002003908B
:10577000032004900520059001A92D48FEF712FB97
:1057800080200190022002900020039003200490CA
:105790000520059001A92748FEF704FB2648274964
:1057A00008604FF0C0604860002124488160C160FB
:1057B0004FF480610161002141618161C1614FF459
:1057C0004031016200214162FEF708FA08B1FDF79D
:1057D000BCFA00BF1948E064846300BF1648183063
:1057E000174908604FF0C06048604021144881604C
:1057F0000021C1604FF4806101610021416100E03E
:1058000010E08161C1614FF4003101620021416209
:10581000FEF7E4F908B1FDF798FA00BF0848A06464
:10582000846300BF06B010BD003001404438024020
:10583000000402400000024040640240A011002029
:10584000001200202DE9FE4F04460F4690461D46EB
:105850000C9E01200190FEF7A5FB814694F851B003
:1058600060680290AA46BBF1010F0BD00298B0F518
:10587000827F04D1A06810B9BBF1040F02D00220CE
:10588000BDE8FE8F1FB1B8F1000F00D00DB90120A7
:10589000F6E700BF94F85000012801D10220EFE79D
:1058A000012084F8500000BF94F85100042802D071
:1058B000052084F8510000206065C4F83880E58731
:1058C000A5872763E586A586206460642068006854
:1058D00000F04000402805D02068006840F04000FB
:1058E00021680860E068B0F5006F52D1606810B1BF
:1058F000BAF1010F09D1206B00882168C860206BC4
:10590000801C2063E08E401EE0863BE020688068BB
:1059100000F00200022810D1E08E70B10198012839
:105920000BD1206B00882168C860206B801C20632D
:10593000E08E401EE086002001902068806800F024
:10594000010068B1E08F58B12068C068A16B088081
:10595000A06B801CA063E08F401EE08701200190B7
:10596000FEF720FBA0EB0900B0420BD3701C48B13E
:10597000012084F8510000BF002084F8500000BFCF
:1059800003207DE7E08E0028C0D1E08F0028BDD144
:1059900052E0606810B1BAF1010F09D1206B0078B4
:1059A00021680873206B401C2063E08E401EE08657
:1059B0003CE02068806800F00200022810D1E08EF0
:1059C00070B1019801280BD1206B00782168087311
:1059D000206B401C2063E08E401EE086002001907A
:1059E0002068806800F0010068B1E08F58B120683D
:1059F000C068A16B0870A06B401CA063E08F401EC4
:105A0000E08701200190FEF7CDFAA0EB0900B0423B
:105A100001D3701C00B94EB9012084F8510000BFB9
:105A2000002084F8500000BF032029E7E08E002802
:105A3000BFD1E08F0028BCD14A463146204604F051
:105A4000CDFE40B12020606500BF002084F85000EA
:105A500000BF012014E7A06850B900BF00200090EB
:105A60002068C068009020688068009000BF00BF78
:105A7000012084F8510000BF002084F8500000BFCE
:105A8000606D08B10120FBE60020F9E670B5044620
:105A90002546681EB0F1807F01D301200FE0681E0B
:105AA0004FF0E02148610F214FF0FF3008F014FA69
:105AB00000204FF0E021886107200861002070BDC0
:105AC0007047704710B50346002200BF93F83C00B2
:105AD000012801D1022010BD012083F83C0000BF45
