:020000040800F2
:10000000C05100209D010008FF770008C557000877
:10001000FD77000851160008E1A500080000000067
:100020000000000000000000000000005D830008E8
:10003000ED220008000000003582000869830008F6
:10004000B7010008B7010008B7010008B7010008B0
:10005000B7010008B7010008B7010008B7010008A0
:10006000B7010008EF220008F5220008B7010008D8
:1000700041200008B7010008B7010008B7010008D7
:10008000B7010008B7010008B70100086D160008A5
:100090005516000861160008B7010008FB22000889
:1000A00011840008B70100082D840008B70100087A
:1000B000B7010008B7010008B7010008B701000840
:1000C000B7010008B7010008B7010008B701000830
:1000D000B7010008958A0008B7010008A18A000846
:1000E000B7010008B7010008B701000855840008EF
:1000F0008D84000871840008B7010008B70100086A
:10010000B7010008B7010008B7010008B7010008EF
:10011000B7010008B701000849840008B7010008CA
:10012000B70100084D20000859200008652000088C
:10013000B7010008B7010008B701000891160008D0
:100140007916000885160008B7010008397A0008FA
:10015000B7010008712000087D200008B58A00085A
:10016000B7010008B7010008B7010008B70100088F
:10017000B7010008B7010008B7010008000000003F
:10018000B7010008B7010008DFF80CD001F028F82B
:100190000048004719B90008C051002006488047B0
:1001A00006480047FEE7FEE7FEE7FEE7FEE7FEE75C
:1001B000FEE7FEE7FEE7FEE701840008890100088C
:1001C0009FED1A1AF5EE000A40EE010ABDEEE00AB4
:1001D000F5EEC00A10EE100AF1EE10FA38BF401E1C
:1001E00000EE100A1349F7EE001AB8EEC00A30EE1E
:1001F000C00ADFED0F0A20EE200AFCEEC00A10EE66
:10020000900AC0F3080000EE900A01EB8000F8EEBF
:10021000600A90ED011A70EE600A90ED000A71EE2E
:10022000E01A21EE800A00EE810A704783F9223E2F
:1002300000000044A0CC0008B5EEC00AF1EE10FAB0
:1002400007D2DFED1E0AB4EEE00AF1EE10FAA8BF05
:100250007047DFED1B0AB5EEC00A60EE200ABDEE66
:10026000E01A11EE100AF1EE10FA38BF401E00EE4F
:10027000100A1549F7EE001AB8EEC00A30EEC00AAF
:10028000DFED100A60EE200ABCEEE00A10EE100A64
:10029000C0F3080000EE100A01EB8000B8EE400A3F
:1002A00090ED011A70EEC00A90ED000A71EEE01AAE
:1002B00021EE800A00EE810A70470000CD024CB4A6
:1002C00083F9223E00000044A0CC000870B40588E9
:1002D0000E884468D1F804C05368B54208D14088FC
:1002E0004988884201BF11888D425188884203D0D5
:1002F00070BC6FF00200704705FB00F1880827D042
:1003000094ED001ADCED000A94ED010ADCED011A0F
:1003100031EE201AD4ED020A70EE211A9CED020A89
:1003200083ED001AC3ED011A94ED031ADCED031AF4
:1003300030EE800A401E71EE210A83ED020A04F1BC
:100340001004C3ED030A03F110030CF1100CD7D114
:1003500011F0030030D0B0F1004F30D200282BDD77
:10036000211F1B1FACF1040210F0010F0AD091ED08
:10037000010AD2ED010A091D121D30EE200A83ED9B
:10038000010A1B1D400817D091ED010AD2ED010AA8
:10039000401E30EE200A83ED010A91ED020AD2EDF3
:1003A000020A01F1080102F1080230EE200A83ED91
:1003B000020A03F10803E7D170BC00207047B4ECD7
:1003C000010A401EFCEC010A30EE200AA3EC010AEF
:1003D000F5D1F1E701804280436070472DE9F34F8A
:1003E00084B0049840680090486801900498B0F880
:1003F00000E04588DFEDFE0A00200290B0EE600AC2
:10040000AE4506D108884988884204BF71468645B2
:1004100004D06FF0020006B0BDE8F08F01985FEAEB
:10042000010C18BFB7EE001A3DD000BFBEEB0C01A7
:1004300017D0B1F1004F80F01F82002911DD021F9B
:1004400011F0010F1CBFC2ED010A121D4B1006D0A6
:10045000C2ED010AC2ED020A08325B1EF8D100EBC0
:100460008100BCF10102A0EC011A19D0B2F1004FD9
:1004700080F00882002A13DD031F12F0010F1CBF59
:10048000C3ED010A1B1D511008D000BFC3ED010AC6
:10049000C3ED020A491E03F10803F7D100EB820005
:1004A000BCF1010CC2D14FF000080395002D14BF20
:1004B000B0EE602A002000F0BF8100BF009908FB69
:1004C00005F001EB800B0199DBED002A01EB8000C8
:1004D0000346F0EE421AC64552D9AEEB0802ABEB2A
:1004E000850112F0010F17D001EB850191ED000A93
:1004F000B5EEC00AF1EE10FA07DDB4EEE10AF1EE56
:1005000010FA09DDF0EE401A06E0B1EE400AF4EE12
:10051000C01AF1EE10FAF5D3521031D001EB850C70
:100520009CED000AB5EEC00AF1EE10FA05DDB4EE5E
:10053000E10AF1EE10FA09DD06E0B1EE400AF4EE50
:10054000C01AF1EE10FA01D2F0EE401A01EBC5012B
:1005500091ED000AB5EEC00AF1EE10FA05DDB4EE39
:10056000E10AF1EE10FA09DD06E0B1EE400AF4EE20
:10057000C01AF1EE10FA01D2F0EE401A521ECDD19F
:10058000F5EEC01AF1EE10FA00F07381F5EEC02A14
:100590000126F1EE10FA0099D4BFB1EE620AB0EE76
:1005A000620AB4EE610AF1EE10FA1CBFAEEB08026B
:1005B000B2F1010C47D005FB08F201EB820292ED8B
:1005C000001A00BFB0EE410A05FB06F4B5EEC00A02
:1005D00000EB8404F1EE10FACCBFF0EE400AF1EE2D
:1005E000400AF4EE610AF1EE10FA28D1B5EB080CDE
:1005F00011D0BCF1004F7DD2BCF1000F0BDD00BF6C
:1006000092ED000AD1ED000ABCF1010CE2EC010A06
:10061000A1EC010AF4D129000ED0B1F1004F6AD249
:10062000002909DD94ED000AD0ED000A491EE4EC32
:10063000010AA0EC010AF5D1012002900BE0761C22
:10064000BCF1010CBED10298012804D0F5EEC02AFD
:10065000F1EE10FA7ED09BED000AB5EB08009A4649
:100660005946064622D0B0F1004F74D200281DDD55
:10067000091F10F0010F06D0F0EE400A80EEA01A1C
:1006800081ED011A091D401010D000BFD1ED010A03
:10069000401E80EE801A81ED011A91ED021AC1EE22
:1006A000000AC1ED020A01F10801EFD1280026D0AD
:1006B000B0F1004F7ED2002821DDAAF1040110F034
:1006C000010F06D0D1ED010A80EE801A81ED011AEA
:1006D000091D401013D000BFD1ED010A401E80EE6D
:1006E000801A81ED011AD1ED020A80EE801A81EDA7
:1006F000021A01E0CBE0D6E001F10801ECD1DDE91E
:1007000000124FF000095FEA0E0773D0C14504BF25
:1007100001EB860102EB850274D091ED000ADC4604
:100720005046331E35D01C46B6F1004F7ED2002C09
:100730002FDD0B1FABF1040C16F0010F0FD0F0EE04
:10074000400ADCED011AB0EE601A00EEE11A83ED0A
:10075000011A01E08DE0B1E01B1D0CF1040C7410D6
:1007600015D000BFD3ED010A9CED011A40EE410AFD
:10077000C3ED010AD3ED020A9CED021A0CF1080C3C
:1007800040EE410AC3ED020A0833641EEAD101EBD0
:1007900086012B0036D0B3F1004F72D2002B31DD31
:1007A000A2F1040CAAF1040013F0010F0CD0DCED4F
:1007B000010A00E08BE090ED011A001D40EE410AB5
:1007C000CCED010A0CF1040C5C1019D0DCED010A2F
:1007D00090ED011A40EE410ACCED010ADCED020A6F
:1007E00090ED021A083040EE410ACCED020A03E017
:1007F000000000000DE005E0641E0CF1080CE5D1DE
:1008000002EB830201EB88017F1E09F101097FF4ED
:100810007DAF009808F10108001D00900398401E6C
:1008200003907FF44BAE0299012900E058E004BF29
:1008300006B0BDE8F08F00BFB5EEC00AF1EE10FAC9
:100840007FF4E9AD04990EFB05F3002B4A684FF0E5
:1008500000010BD902EB810C9CED000AB5EEC00A39
:10086000F1EE10FA02D1491C8B42F3D88B427FF48F
:10087000D2AD6FF00400CEE5E0EC010A491EFBD1D9
:10088000EFE538E0E0EC010A521EFBD108E692EDFC
:10089000000AD1ED000ABCF1010CE2EC010AA1EC66
:1008A000010AF4D1B7E694ED000AD0ED000A491E22
:1008B000E4EC010AA0EC010AF5D1BDE6D1ED000A95
:1008C000401E80EE801AA1EC011AF7D1EEE6D3EDBE
:1008D000000A401E80EE801AA3EC011AF7D10EE741
:1008E000BCEC011AD1ED000A5B1E40EE410AE1ECBE
:1008F000010AF5D14DE7B0EC011AD2ED000A5B1EFA
:1009000040EE410AE2EC010AF5D17BE72DE9F04F18
:1009100082B0466853680193058847884B88002059
:1009200000900888874201BFB2F800C06545528830
:1009300093421EBF6FF0020002B0BDE8F08F9FED42
:10094000412A4FEA970EC7F3400B00BFDDE90002D2
:1009500002EB800A4A6898464FF00009B0EE420A5E
:10096000B4465FEA0E0025D092ED001ADCED001AC5
:1009700002EB8302DCED010A01EE810A92ED001A1E
:1009800002EB8302401ED2ED001A02EB830200EE5E
:10099000810A9CED021ADCED030A00040CF1100C34
:1009A000000C01EE210A92ED001A02EB830200EE28
:1009B000810AD9D117F0030026D0ACF10404A2EBD0
:1009C000830210F0010F08D002EB8302D4ED010A7C
:1009D00092ED001A241D00EE810A5FEA0B0013D08D
:1009E00002EB830CD4ED010A9CED001A02EBC3026A
:1009F000401E00EE810AD4ED020A92ED001A04F1C5
:100A0000080400EE810AEBD109F10100AAEC010A09
:100A10001FFA80F9486800EB8902A8F101001FFA6B
:100A200080F8B8F1000F99D1009806EB87061844BA
:100A300080B20090681E05042D0C87D102B0002002
:100A4000BDE8F08F0000000070B405880E8844688F
:100A5000D1F804C05368B54208D14088498888421B
:100A600001BF11888D425188884203D070BC6FF05D
:100A70000200704705FB00F1880827D094ED001AAA
:100A8000DCED000A94ED010ADCED011A31EE601A8A
:100A9000D4ED020A70EE611A9CED020A83ED001A91
:100AA000C3ED011A94ED031ADCED031A30EEC00A0F
:100AB000401E71EE610A83ED020A04F11004C3EDD9
:100AC000030A03F110030CF1100CD7D111F003004D
:100AD00030D0B0F1004F30D200282BDD211F1B1F7A
:100AE000ACF1040210F0010F0AD091ED010AD2ED31
:100AF000010A091D121D30EE600A83ED010A1B1D5B
:100B0000400817D091ED010AD2ED010A401E30EEE7
:100B1000600A83ED010A91ED020AD2ED020A01F1A9
:100B2000080102F1080230EE600A83ED020A03F1C7
:100B30000803E7D170BC00207047B4EC010A401EE6
:100B4000FCEC010A30EE600AA3EC010AF5D1F1E7F2
:100B50002DE9F04F02884768B0F802804888D1F844
:100B6000049082B04FF0000A1646824207BF0988FF
:100B700088456FF0020002B018BFBDE8F08F4FEA61
:100B8000980B02EB42000190C8F34000CDF8000042
:100B900009EB8A01BBF1000F33D0019801EB820C05
:100BA00001EB80043B46E64601EBC2054FEA0B0031
:100BB00093ED000A401E81ED000A93ED010A01EB5E
:100BC00002118CED000A93ED020A0CEB021C85ED7C
:100BD000000A93ED030A05EB021584ED000A04EB0D
:100BE000021403F11003E3D10EEB820000EB82004C
:100BF00000EB8201ABF10100504307EB0B1701EB57
:100C0000001118F0030C21D03B1FA1EB82011CF056
:100C1000010F06D093ED010A01EB82011B1D81ED4E
:100C2000000A009880B100BF93ED010A01EB820435
:100C300001EBC20184ED000A93ED020A401E81ED32
:100C4000000A03F10803EFD107EB8C070AF101005A
:100C50001FFA80FA701E0604360C99D102B00020EB
:100C6000BDE8F08F2DE9F05F0546002092469B46D7
:100C700088460646814640241BE0284641464746B2
:100C8000224600F0DEF953465A46C01A914110D36D
:100C900011461846224600F0C5F92D1A67EB0108E7
:100CA0004F4622460120002100F0BCF917EB000955
:100CB0004E41201EA4F10104DFDC484631462A469D
:100CC0004346BDE8F09F40EA01039B0703D009E0DB
:100CD00008C9121F08C0042AFAD203E011F8013B28
:100CE00000F8013B521EF9D27047D2B201E000F881
:100CF000012B491EFBD270470022F6E710B51346C0
:100D00000A4604461946FFF7F0FF204610BD2DE9BC
:100D1000FE4F804681EA0300C00F0C46009021F090
:100D2000004123F00045B8EB0200A94105D240463E
:100D3000214690461C460B46024623F000401043D5
:100D400047D0270DC7F30A00C3F30A510290401A97
:100D5000019040286BDAC3F3130040F4801B009825
:100D6000924620B10023D2EB030A63EB0B0B0198F0
:100D70005946C0F14002504600F054F906460D466F
:100D800050465946019A00F06CF910EB0800614199
:100D9000002487EA115284EAE7731A4340D0009A8C
:100DA00062B3019A012A4FEA075215DC001B61EB7E
:100DB00002014FF0004202EA0752CDE90042001C56
:100DC00041F5801132462B4600F0A3F903B0BDE88F
:100DD000F08F40462146F9E7001B61EB0201001C41
:100DE00041F5801300185B412018A2F5001747EB6E
:100DF000030140EAD570B6196D4111E06D084FEA64
:100E0000360645EAC0754FEA0752001B61EB020146
:100E1000001C41F5801149084FEA3000001951418A
:100E200032462B4603B0BDE8F04F00F063B900989E
:100E3000012240000023D0EB020263EBE073009834
:100E400021464FEAE074B8EB000061EB0401E9E7EA
:100E500083F000435BE781F0004158E72DE9FE4F46
:100E600081EA030404F0004421F0004100944FF0B3
:100E7000000B23F0004350EA01045ED052EA030461
:100E80005BD0C3F30A54C1F30A552C44A4F2F334E3
:100E90000194A0FB0254C1F3130141F48011C3F388
:100EA000130343F4801301FB024400FB034E840A46
:100EB000970A44EA815447EA8357A4FB07680295DE
:100EC0008D0A05FB07854FEA932C04FB0C5427057C
:100ED000029D4FEA065847EA1637B5EB08056EEB58
:100EE000070C870E920E47EA811742EA8312A7FB8E
:100EF0000201B6EB0B0164EB00042B0D43EA0C334B
:100F00005E1844EB1C50DA465146E7FB0201C5F37C
:100F100013044FEA0B3343EA14534FEA0432019CA3
:100F200043EA0603A4F10C040294009CCDE900B44A
:100F300000F0EFF803B0BDE8F08F00200146F9E7BC
:100F40000EB5C10F80EAE0700844CA07002140F2E4
:100F500033438DE80E000A460B4600F0DAF803B082
:100F600000BDC1F30A5210B5C1F3130140F2FF33C3
:100F700041F480119A4201DA002010BD40F233435F
:100F80009A42A2F2334203DC524200F05AF810BDFA
:100F9000904010BD00F0004230F000400AD0C10D7A
:100FA00001F56071C0F3160042EA0151C208400722
:100FB00011437047002001467047000030B5041E01
:100FC00071F1000404DB4FF00044404264EB010186
:100FD000141E73F1000405DB1C464FF0004352421F
:100FE00063EB04038B4208BF824230BD01F0004333
:100FF00030B421F0004150EA010206D00A0DA2F5FA
:101000006072C1F31301002A02DC30BC002070477B
:10101000440F44EAC104C100E01830BC00EBC250E8
:1010200000F031B8202A04DB203A00FA02F1002057
:1010300070479140C2F1200320FA03F31943904016
:101040007047202A04DB203A21FA02F00021704781
:1010500021FA02F3D040C2F1200291400843194620
:101060007047202A06DBCB17203A41FA02F043EA08
:10107000E07306E041FA02F3D040C2F12002914051
:101080000843194670470029A8BF7047401C490013
:1010900008BF20F00100704710B4B0FA80FC00FADD
:1010A0000CF050EA010404BF10BC704749B1CCF108
:1010B000200421FA04F411FA0CF118BF0121214394
:1010C0000843A3EB0C01CB1D4FEA00614FEA10204F
:1010D00042BF002010BC704700EBC35010440029F1
:1010E000A4BF10BC7047401C490008BF20F001009D
:1010F00010BC704710B5141E73F1000408DA401CD0
:1011000041F1000192185B411A4301D120F0010026
:1011100010BD2DE9F04D92469B4611B1B1FA81F216
:1011200002E0B0FA80F220329046FFF77BFF0446DF
:101130000F4640EA0A0041EA0B0153465A4608436B
:1011400013D0114653EA010019D0C8F140025046AD
:10115000FFF777FF05460E46504659464246FFF7D1
:1011600061FF084305D0012004E020463946BDE870
:10117000F08D0020054346EAE0762C4337430A9879
:101180006305E40AA0EB08000022FD0A44EA475484
:101190000A3002D500200146E9E70105101969412E
:1011A000DDE9084500196941BDE8F04DA2E70000FE
:1011B00030B5041E71F1000404DB4FF000444042DE
:1011C00064EB0101141E73F1000405DB1C464FF0B3
:1011D0000043524263EB0403994208BF904230BD82
:1011E000064C074D06E0E06840F0010394E8070074
:1011F00098471034AC42F6D3FEF7CAFFA4D40008D7
:10120000C4D4000870B58C1810F8015B15F0070302
:1012100001D110F8013B2A1106D110F8012B03E08F
:1012200010F8016B01F8016B5B1EF9D12B0705D497
:101230000023521E0DD401F8013BFAE710F8013BE0
:10124000CB1A921C03E013F8015B01F8015B521EFC
:10125000F9D5A142D8D3002070BD00000122102191
:10126000014802F00FB800000000024000221021E7
:10127000014802F007B800000000024001221146B8
:10128000014801F0FFBF00000004024000220121DC
:10129000014801F0F7BF00000004024010B5044609
:1012A000A82000F0B5FF0121044800F0E3F8002871
:1012B000F9D105F091F90248046710BD0C0E002029
:1012C000D830002005F0E4B970B50546FFF7CEFF31
:1012D000922000F02DF906226549122000F00AF94B
:1012E000FFF7BCFF624CA4F11C0660782178000275
:1012F00000B2084300EE100AD6ED030AB8EEC00AA9
:1013000060EE200A95ED080A60EE800AC5ED000A3D
:10131000E078A178000200B2084300EE900A96ED52
:10132000031AF8EEE00A60EE810A60EE800AC5ED6D
:10133000010A60792179000200B2084300EE900AA8
:101340003081F8EEE00A60EE810A20EE800A85ED39
:10135000020AFFF79BFF08222146002000F0CAF88E
:10136000FFF78CFF20780F285AD1F078A178002859
:10137000E0784FEA002000B240EA01002BD000EEF6
:10138000100AD5ED090AB8EEC01A96ED040A51EE1E
:10139000000AC5ED030A60792179000200B2084312
:1013A00000EE900A95ED0A1AF8EEE00A10EE801AA7
:1013B00085ED041AE079A179000200B2084300EE3D
:1013C000900A308195ED0B1AF8EEE00A10EE801AC3
:1013D00085ED051A24E000EE100AF8EEC00A96ED3D
:1013E000040A60EE800AC5ED030A607921790002E3
:1013F00000B2084300EE900AF8EEE00A60EE800AC0
:10140000C5ED040AE079A179000200B2084300EEBC
:10141000900A3081F8EEE00A20EE800A85ED050A98
:10142000FFF724FFA22000F083F8022210492220B7
:1014300000F060F8FFF712FF20786178C00040EA02
:1014400051103081B0F5806F02DBA0F50060308173
:10145000B6F90800B4EE001A00EE100AF8EEC00A61
:10146000B3EE070A00EE810A85ED070A70BD0000A1
:101470001003002070B50D461649174C0860002077
:10148000A07009F0BBFCA1780843A07009F04AFDE8
:10149000A1780843A0701DB1104800F063F916E070
:1014A0000E489FED0F0A80ED090A9FED0E0A80EDB0
:1014B0000A0A80ED0B0A9FED0C0A80ED0C0A9FEDE5
:1014C0000B0A80ED080A9FED0A0A80ED060AA07853
:1014D00070BD00003C030020F4020020E433002033
:1014E000AC38223BB016CE393F161B41C48B813F2E
:1014F0000000204270B514460D4640F0800000F018
:1015000017F806E0552000F013F8641E05F8010BEB
:10151000E4B2002CF6D170BD10B50C4640F080004E
:1015200000F006F8552000F003F8207010BD000010
:1015300001B582B04FF47A7000900548012301AAEA
:1015400002A9006802F0E6FF9DF804000EBD00004D
:101550003C03002010B50C46FFF7EAFF2046BDE82B
:101560001040FFF7E5BFB6EE000AD2ED020AF0EE3A
:10157000401A92ED031A40EEE01A90ED002AD2EDE7
:10158000012AD0ED013A22EEA03A41EE411A21EEB5
:10159000822AD2ED001A01EEC13A22EE811A01EE42
:1015A000A01A03EE232AD0ED020AF0EE001A01EE93
:1015B000202A62EE210AC1ED000A92ED011AD2ED55
:1015C000023A92ED002AD2ED030A61EE232A90ED51
:1015D000003A90ED014A42EE202A62EE832AB0EEF4
:1015E000403A01EE413A00EEE03A63EEA00A42EEE4
:1015F000410A43EE042A90ED021A40EE812A62EE7F
:10160000A10AC1ED010A92ED011AD2ED032AD2ED31
:10161000020A92ED003A21EE222A60EEA22AD0EDD3
:10162000003A01EE410A03EE602A43EE012A90EDF2
:10163000013A00EEE00A22EE232AD0ED020A02EE81
:10164000832A00EE202A22EE210A81ED020A704749
:10165000FEE70000014801F0A8B80000BC0D002022
:10166000014801F0A2B80000BC0D0020014801F0C3
:101670009CB80000BC0D0020014801F096B80000A5
:10168000E40D0020014801F090B80000E40D0020B6
:10169000014801F08AB80000E40D002000207047E6
:1016A0000020704710B500220449054807F0ECFB04
:1016B0000449034807F0DBFB002010BD282100206F
:1016C0004C1400202819002010B504460146154886
:1016D00007F0CDFB134807F0A3FB2078124BA52899
:1016E00006D10022A05C9854521CD2B20B2AF9D326
:1016F00053F8020FDFED0D0A00EE100A0C49B1EEAF
:10170000400A10EE100A1860586800EE100A30EE19
:10171000600A10EE100A5860034808F08FFF00209E
:1017200010BD00004C140020F009002000003443DC
:101730005503002000207047094A10B5D2F8BC229A
:10174000D2F814220AB1012010BD0A46014604480D
:1017500007F09AFBBDE81040014807F00FBC0000FD
:101760004C1400202DE9F04F04462DED048B89B078
:1017700000200090019000F029FDED4DDFF8B4B39A
:10178000DFF8B49385ED050A02AE0DF114084FF0B1
:101790007C5A00BF00F01AFDD5ED050A30EE600A54
:1017A00010EE100A584512DD9FEDE40A84ED090A97
:1017B0009FEDE30A84ED0A0A84ED0B0A9FEDE10A2E
:1017C00084ED0C0A9FEDE00A84ED060A8BE19FEDA3
:1017D000DF0A00F0BFFC9FEDDE0A002784ED0C0A53
:1017E00084ED090A84ED0A0A84ED0B0AFBE000BFD0
:1017F000FFF73CFD9220FFF79BFE06226946122070
:10180000FFF778FEFFF72AFD9DF801009DF8001014
:10181000000200B2084300EE100AD5ED030AB8EE4C
:10182000C00A60EE201AC4ED001A9DF803009DF86E
:101830000210000200B2084300EE100A95ED031AF0
:10184000B8EEC00A60EE010AC4ED010A9DF8050079
:101850009DF80410000200B2084300EE100AB8EE32
:10186000C00A20EE011A21EEA10A84ED021A00EE50
:10187000A00A01EE010A09F077FAB0EE408A94ED71
:101880000C0A30EE080A84ED0C0AFFF7FFFC082270
:1018900069460020FFF72EFEFFF7F0FC9DF80000E0
:1018A0000F2840D19DF803009DF80210000200B2FD
:1018B000084300EE100AD5ED040AB8EEC00A20EE87
:1018C000200A84ED030A94ED091A31EE000A84ED32
:1018D000090A9DF805009DF80410000200B20843B3
:1018E00000EE100AB8EEC00A20EE200A84ED040AC9
:1018F00094ED0A1A31EE000A84ED0A0A9DF80700F9
:101900009DF80610000200B2084300EE100AB8EE7F
:10191000C00A20EE200A84ED050AD4ED0B0A30EE51
:10192000800A84ED0B0A002F7ED0B4EEC98AF1EE56
:1019300010FA01DDB0EE489AB4EEE88AF1EE10FA42
:1019400001D2F0EE488A00204FEA080204EB800141
:1019500091ED030A06EB8001D1ED000AB4EEE00A36
:10196000F1EE10FA01DD81ED000A02EB8001D1ED0C
:10197000000AB4EEE00AF1EE10FA01D281ED000A9D
:10198000401CC0B20328E1D339EE680A0020424669
:1019900085ED060A4FEA090106EB8003D3ED000A44
:1019A00002EB800393ED001A01EB8003401C70EE04
:1019B000C10AC0B20328C3ED000AEDD310EE100A2D
:1019C000504514DC63480A68824210DC4A6882424F
:1019D0000DDCD9F80810814209DC9FED5F0A00F0A8
:1019E000B9FB7F1CBFB2E8888742FFF401AFE988EA
:1019F000D4ED0C0A00EE101A2F460020B8EE400A73
:101A000080EE801A84ED0C1A00EE101A04EB8002AE
:101A1000401CB8EE400AD2ED090AC0B2032880EE9D
:101A2000801A82ED091A00E06AE0EDD3FFF71EFC90
:101A3000A220FFF77DFD022269462220FFF75AFD12
:101A4000FFF70CFC9DF800009DF80110C00040EA73
:101A50005110B0F5806F01DBA0F5006000EE100AB8
:101A6000B4EE001AF8EEC00AB3EE070A00EE810ADF
:101A700084ED060AB888401CB880B86950453FF725
:101A800089AE94ED0C0ADFED350A30EE600AB0EE57
:101A9000C00A10EE100A5045F1DC2E48D9F80010AB
:101AA0004A468142EBDC51688142E8DCD9F80810F3
:101AB0008142E4DC94ED090A2948B0EEC00A10EE38
:101AC000101A8142DBDC94ED0A0AB0EEC00A10EE77
:101AD000101A8142D3DC94ED0B0AB0EEC00A10EE6E
:101AE000101A8142CBDC94ED0C0ADFED1E0A80EE69
:101AF000801A84ED081A09B0BDEC048BBDE8F08FA4
:101B0000B0EE489AF0EE488A0020414604EB80028D
:101B100092ED030A06EB800282ED000A01EB8002DF
:101B2000401CC0B282ED000A0328EFD32CE700006E
:101B3000F402002000002041D8330020AC38223BC2
:101B4000B016CE393F161B41000020420AD7A33BF6
:101B5000000000009A99193E6F12033ACDCC1C4147
:101B60000AD7233CC3F51C41002900D0016470470B
:101B700010F8742F12028A8243781A4492B200EE4F
:101B8000102A8A82B8EE400A81ED060A8278120293
:101B90008A81C3781A4412B200EE102A8A81B8EE04
:101BA000C00A81ED040A02791202CA8343791A44F9
:101BB00012B200EE102ACA83B8EEC00A81ED080AFC
:101BC000807981F82400704700210171704710B5B9
:101BD0000446007938B904F1440006F0DDFA04F156
:101BE0008C0006F0D9FA0120207110BD818A828B09
:101BF000881A914202D241F6FF71084480B27047C0
:101C00002DE9F04F8BB00025DFF82CB1C2661746E6
:101C10000E4604464FF00E084FF00109AA46016037
:101C2000E80140F2012300EB431CCDF800C040F274
:101C3000022C00EB4C1CCDF804C040F2032C00EB4E
:101C40004C1CCDF808C0CDE9069A49465246CDF85D
:101C50002090022D06D000F5814003905E4503D10F
:101C6000059507E00393F9E73448864204D105F16E
:101C70000E000590CDF8248017B1012F03D005E0A8
:101C80000220049201E0102004912067694630464A
:101C900000F074FC6D1CEDB2032DC1D343F6E0716E
:101CA0000091CDF820904FF4804145F6E072CDE9E7
:101CB0000112CDE9069A4846554603915E4501D189
:101CC000042103E01D498E4203D11121CDF8248067
:101CD000059117B1012F03D005E00220049501E022
:101CE0000490102020676946304600F047FC3046DB
:101CF000216F00F0D2FB304600F0ACFF08208101DC
:101D00002561A160C4E90550491EA5622162C4E9AC
:101D10000B502564C4E9115040F2FF20A06300205D
:101D200004EB8001401CC0B2C1F894500B28F7D3DB
:101D30000BB0BDE8F08F0000BC0D0020E40D0020CA
:101D400010B5029C0160427183718483002181631C
:101D50008162C0F8D410C0F8D810C0F8E010C0F804
:101D6000E41010BD31B10A6800EB8202A2F5805286
:101D7000C2F89018AFF3008070B500258580294621
:101D80002C462B464FEA050200EB8106D6F89460FC
:101D900016B136783444E4B2491CC9B20429F3D3ED
:101DA00014B105F5807585805FF0040100EB8104B6
:101DB000D4F8944014B124782344DBB2491CC9B24E
:101DC0000829F3D313B1A9B2103181805FF0080163
:101DD00000EB8103D3F8943013B11B781A44D2B2CC
:101DE000491CC9B20B29F3D3002A02D08188491CAF
:101DF000818070BD70B506465FF0000506EB850476
:101E0000D4F89400F0B3017979B1816A21B188479F
:101E1000D4F8940080ED0B0AD4F89400817939B19C
:101E2000012915D002293BD134E00022014649E0C6
:101E3000D0F8D810D1ED000AD0F8D410443091ED8C
:101E4000000A06F015F9D4F8940080ED370A27E06F
:101E5000D0F8D810D1ED000AD0F8D410443091ED6C
:101E6000000A06F005F954F8940F80ED370A20684F
:101E7000D0F8E410D1ED000AD0F8E0108C3091EDEC
:101E8000000A00E021E006F0F3F854F8940980ED30
:101E90003A0A05E0016B8847D4F8940080ED0D0AFA
:101EA000D4F89400816B21B18847D4F8940080ED78
:101EB0000F0A54F8940F006C90ED000A09F0FDFB36
:101EC00021680246304600F096F86D1CEDB20B2DED
:101ED00094D370BDF0B40C46DDE9047600F14405FE
:101EE00000F18C013FB1AC4201D1C0F8D4708C42FA
:101EF00001D1C0F8E0703EB1AC4201D1C0F8D86069
:101F00008C4201D1C0F8E460002B06D093EC050AA6
:101F100020461146F0BC09F0CFBEF0BC704781628C
:101F2000704710B50446C16E006804F1740304F1F3
:101F3000500200F0AAFB216F206800F0AEFA94F87E
:101F40005000401EC0B204EB8000D0F89410204630
:101F5000BDE81040FFF70CBE2DE9F0410446808833
:101F600004F18C0804F1380704F17C0604F1200523
:101F700004F1840204F10801B0F5807F22D006DC70
:101F8000012815D0102818D011282BD10BE0A0F56E
:101F9000807001381CD00F281FD0102822D10123B7
:101FA000206800F08CFA022332462946206811E0AE
:101FB000042342463946206806E002233246294679
:101FC000206801E020680123BDE8F04100F077BA05
:101FD0000123206800F073FAEAE70123206800F08B
:101FE0006EFAEAE7BDE8F081417909B1B1EE400A45
:101FF00080ED020A704710B50978C2F30723D2B208
:102000000C2915D2DFE801F014060606060D0D0DA9
:102010000D1515154900891EC9B2084400F8843F02
:1020200005E049000A39C9B2084400F87C3F427013
:1020300010BD49001239C9B2084400F88C3FF6E7D8
:10204000014800F095BE00002C130020014800F06C
:102050008FBE00008C130020014800F089BE0000F4
:10206000640E0020014800F083BE0000C40E002072
:10207000014800F07DBE0000EC130020014800F094
:1020800077BE0000CC12002001681823CAB2103AB3
:10209000B2FBF3F2054B6FF30901032A9B5CC365A6
:1020A00000D9091D8165084670470000BEC80008B8
:1020B00010B5014600208B698A6A4FF0C07453B195
:1020C000B3F5005F15D072B1012A0CD0022A0AD0F4
:1020D000032A09D104E01AB1012A06D0022A03D149
:1020E000C96AC90100D5012010BDC96AA142FAD050
:1020F00010BD002AF7D0012AF2D0022AF3D0032A19
:10210000F3D010BD30B50468256825F4802525601E
:10211000046863608368402B036803D0996000689B
:10212000C26030BD9A600068C16030BD074808B524
:1021300040680090014606480269914202D2C16897
:10214000491CC1600099016108BD0000001000E059
:10215000C80100200A4948680A4AD2ED000A4A68C4
:10216000121AF8EE601A01EE102AB8EE411A60EE6B
:10217000211AB4EEE11AF1EE10FAF0D37047000024
:10218000001000E0C801002000B50E492DED028BC3
:1021900081B0496800910168009A511A00EE101A46
:1021A0000949F8EE400A91ED000A0260B8EE400AD3
:1021B00080EE808AFFF7BAFF01B0B0EE480ABDECAE
:1021C000028B00BD001000E0C801002010B500F037
:1021D00043F80C489FED0C1A818890ED000A00EE40
:1021E000901AC088B8EE400AF8EE600A00EE810A44
:1021F00000EE900A9FED051AF8EE600A00EE810AE3
:1022000010BD0000F80100206F12833ABD378635FB
:102210000D490A6842F080720A600C4900224A6047
:102220000B6843F001030B6009494FF47A7348438C
:10223000B0FBF3F30749C1E90003054BB0FBF3F032
:10224000C1E9020270470000FCED00E0001000E070
:1022500040420F00C80100202DE9F84321484068A2
:102260000090FFF763FF204F0024009EF8684FF0B6
:10227000FF312546E0FB0165C7E90E65D7F8008010
:102280002346424630462946FEF7ECFCA0FB083CBC
:10229000C7E9060101FB08C100FB0411F61A65EB52
:1022A0000105C7E9086507F130080023C8F80000F8
:1022B000D7F8049030464A462946FEF7D3FC80B250
:1022C000A8F8040000FB09F0301A65EB0405C7E923
:1022D0000A0529460023BA68FEF7C4FCA8F80600E0
:1022E000BDE8F883001000E0C80100207047082016
:1022F00000F0C4BE102000F0C1BE202000F0BEBE21
:10230000B6EE000AD2ED020AF0EE401A92ED031A80
:1023100040EEE01A90ED002AD2ED012AD0ED013A0C
:1023200022EEA03A41EE411A21EE822AD2ED001AA5
:1023300001EE813A22EE811A01EEE01A03EE232A21
:10234000D0ED020AF0EE001A01EE202A62EE210A18
:10235000C1ED000A92ED011AD2ED023A92ED002A87
:10236000D2ED030A61EE232A90ED003A90ED014A86
:1023700042EE602A62EE832AB0EE403A01EE413A24
:1023800000EEE03A63EEA00A42EE010A43EE042AB0
:1023900090ED021A40EE812A62EEA10AC1ED010A17
:1023A00092ED011AD2ED032AD2ED020A92ED003A23
:1023B00021EE222A60EEA22AD0ED003A01EE410A77
:1023C00003EE202A43EE412A90ED013A00EEE00AA6
:1023D00022EE232AD0ED020A02EE832A00EE202A02
:1023E00022EE210A81ED020A704772B6FEE70A78F2
:1023F0000270B1F80120C2F30A0242808A78CB78D9
:10240000D20842EA4312C2F30A028280CA780B79E8
:10241000920942EA83024B7942EA8322C2F30A021A
:10242000C2804A798B79520842EAC312C2F30A0287
:1024300002818A79CB79120942EA0312C2F30A02B5
:102440004281CA790B7AD20942EA43024B7A42EAC4
:102450004322C2F30A0282814A7A8B7A920842EAC4
:102460008312C2F30A02C2818A7ACB7A520942EA03
:10247000C30202828A89C2F30A0242824A7B8B7BB0
:10248000D20842EA4312C2F30A028282CA7D8275EE
:10249000097EC17570470173704790F82020012AAA
:1024A00007D0022A05D0416A41F48021416201200F
:1024B0007047006842690A43426100207047F0B5E6
:1024C00090F820500468A468012D05D0022D03D097
:1024D000416A41F480214DE014F0406F01D1E500E4
:1024E00045D5C4F301640125A5401D608D684FF4F6
:1024F000C0739DB1CE6835434E6845EAC60506688F
:1025000003EB0417F5514FF4C275076805EB04158A
:102510000E697E51097D012905D009E00E88CD683C
:1025200045EA4655EBE701684E5946F480764E5130
:102530001179D2F805504FF4C67641EA05210568B5
:1025400006EB0416A9511178D2F801204FF4C47596
:1025500041EA0221026805EB04155151006803EBC2
:102560000411425842F0010242500020F0BD416A7D
:1025700041F4001141620120F0BD000010B590F857
:102580002020012A07D0022A05D0416A41F4802187
:102590004162012010BD3B48D0F8002242F0010208
:1025A000C0F80022D0F8002222F47C52C0F80022A9
:1025B000D0F800224B6A42EA0322C0F800220A7DCA
:1025C00002F01F0301229A40D0F81C329343C0F856
:1025D0001C32CB69B3B9D0F80C329343C0F80C323B
:1025E0008C894B6864F31F434C6900EBC404C4F846
:1025F00040320C890B6864F31F434C6900EBC40440
:10260000C4F84432CB69012B16D1D0F80C321343F5
:10261000C0F80C320C884B6864F31F434C6900EB24
:10262000C404C4F840320C89CB6864F31F434C697E
:1026300000EBC404C4F844328B69002BD0F8043298
:102640000ED01343C0F804320B69002BD0F81432BB
:1026500008D01343C0F81432096A012904D008E0F5
:102660009343EFE79343F5E7D0F81C121143C0F80A
:102670001C12D0F8001221F00101C0F80012002055
:1026800010BD000000640040704770B590F8204015
:10269000012C05D0022C03D0416A41F4802128E0AE
:1026A000046809B32469A40720D04FF4D8740568DE
:1026B00004EB01142D5915F00405956005682D599A
:1026C0001AD0ED08556005682C5904F00204D46056
:1026D0004FF4DA74056804EB01142E5906F00F0666
:1026E000082E0CD308250DE0E468DCE7416A41F4CC
:1026F00000114162012070BD6D0D1560E3E72D5999
:1027000005F00F05156105682D59C5F3072595617D
:1027100005682C59240C54614FF4DC72046802EBF8
:102720000112A4581C700468A458240A5C70046840
:10273000A458240C9C700468A258120EDA704FF44E
:10274000DE72046802EB0112A4581C710468A458DC
:10275000240A5C710468A458240C9C710468A25873
:10276000120EDA71006829B1016941F0200101619E
:10277000002070BDC16841F02001C160F8E7024649
:10278000002092F82010012901D002290CD11168F3
:102790008A68520100D501208A68120100D5401CC8
:1027A0008968C90000D5401C70472DE9F05F0546D7
:1027B000006800244669D0F804908768D0F80CB00F
:1027C000D0F810A0D0F81880F10748D0F90714D03D
:1027D00001218160B80703D5284600F068FA0CE0B3
:1027E000780702D54FF4006407E0380702D54FF4AC
:1027F000805402E0284600F059FAF80516D52968F9
:102800004FF480708860B80503D5284600F051FA6F
:102810000CE0780502D544F4005407E0380502D5F1
:1028200044F4804402E0284600F042FAF80316D54A
:1028300029684FF480308860B80303D5284600F03B
:102840003AFA0CE0780302D544F4004407E0380378
:1028500002D544F4803402E0284600F02BFA300719
:1028600007D55FEACB6004D52968102044F40074D2
:10287000C86070074FF0080707D55FEA0B7004D5F2
:102880002868C760284600F0B9F9B00706D528685F
:10289000C068800702D0284600F0B2F9700607D55C
:1028A0005FEACA6004D52968102044F48064086196
:1028B000B00607D55FEA0A7004D528680761284684
:1028C00000F0B8F9F00606D528680069800702D044
:1028D000284600F0B1F9B00308D55FEAC96005D514
:1028E000296810204860284600F0B2F9F00307D5A7
:1028F0005FEA097004D528684760284600F0DCF9D3
:10290000300446D55FEA497040D5F00504D55FEA4A
:10291000C87001D044F00104B00504D55FEA8870A6
:1029200001D544F00204700504D55FEA487001D572
:1029300044F00404300529D518F0700F26D008F0B3
:102940007000402815D006DC102809D020280AD0B5
:10295000302816D10AE050280ED0602811D10EE0A0
:1029600044F008040DE044F010040AE044F02004B0
:1029700007E044F0400404E044F0800401E044F443
:1029800080742868816921F07001816129680420C0
:102990004860002C05D0686A204368622846FFF72B
:1029A00073FEBDE8F09F70B5040003D094F82000DA
:1029B00010B104E0012070BD204600F081F82068CD
:1029C000016841F00101016000F062FC0546052646
:1029D00004E000F05DFC401B0A2811D82068406824
:1029E000C007F6D02068016821F00201016000F004
:1029F0004FFC05460BE000F04BFC401B0A2806D9B3
:102A0000606A40F40030606284F82060D2E7206899
:102A100040688007EFD4207E0128206801683DD0FF
:102A200021F080010160607E01282068016838D0B3
:102A300021F040010160A07E01282068016833D0A8
:102A400021F020010160E07E0128206801682ED07D
:102A500041F010010160207F01282068016829D021
:102A600021F008010160607F01282068016824D0FE
:102A700021F004010160D4E902010843D4E9041201
:102A8000114308436168491E08432168C86100205A
:102A90006062012084F82000002070BD41F08001B8
:102AA000C0E741F04001C5E741F02001CAE721F04D
:102AB0001001CFE741F00801D4E741F00401D9E764
:102AC000F0B587B0044614216846FEF715F9464B69
:102AD0004648DFF810E11968D4F800C0434A0325DE
:102AE0000226092710300024491CF44532D1196010
:102AF000012907D1016841F000710160006800F010
:102B000000700590106840F0080010601068CDE972
:102B1000005600F00800CDE9047069463448CDE95C
:102B2000024500F0B7FA00221146132000F01EFC07
:102B3000132000F00DFC00221146142000F016FCBA
:102B4000142000F005FC00221146152000F00EFCB8
:102B5000152042E0DFF89CE0F44540D1D0F800C0F9
:102B60004CF0806CC0F800C0D0F800C001290CF017
:102B7000806CCDF814C0196007D1016841F0007174
:102B80000160006800F000700590106840F00200DD
:102B90001060106802AB00F0020005906020CDE9E3
:102BA000000683E8B0006946134800F073FA00227B
:102BB00011463F2000F0DAFB3F2000F0C9FB002265
:102BC0001146402000F0D2FB402000F0C1FB002263
:102BD0001146412000F0CAFB412000F0B9FB07B0CC
:102BE000F0BD0000006400400400002030380240C6
:102BF000000C0240006800400004024070470000E2
:102C000010B504460748844202D10748FFF789F906
:102C10000648844204D1BDE810400548FFF781B959
:102C200010BD0000BC0D0020AC030020E40D00200E
:102C300044060020704700000349884202D103483F
:102C400008F08CBA70470000BC0D0020180A002064
:102C50007047000070B5044690F82000012804D0A9
:102C6000606A40F40020606218E0022084F82000CE
:102C70002068016821F00101016000F009FB0546B0
:102C80000EE000BF00F004FB401B0A2808D9606A70
:102C900040F400306062052084F82000012070BDFF
:102CA00020684068C007EDD1606270BD7047704712
:102CB000704770477047704770472DE9F0410446F0
:102CC000876D00F0E5FA064694F8350000250228E5
:102CD00006D08020606584F834500120BDE8F08182
:102CE0002068016821F0160101602068416921F027
:102CF00080014161206C08B9A06C20B12068016896
:102D000021F0080101602068016821F001010160E3
:102D10000CE000F0BDFA801B052807D92020606573
:102D2000032084F8350084F83450D7E72068006821
:102D3000C007EED194F85C103F208840B8600120B5
:102D400084F8350084F834500020C7E790F8351037
:102D5000022903D08021416501207047052180F8B8
:102D600035100068016821F0010101600020704702
:102D70002DE9F84304464FF00009CDF80090634870
:102D80004FF41651A56D0068B0FBF1F72E6894F86A
:102D90005C10082000FA01F131420FD021680A6866
:102DA00052070BD50A6822F004020A6094F85C10FE
:102DB0008840A860606D40F00100606594F85C1088
:102DC0004FF0010808FA01F0304208D02168496943
:102DD000090604D5A860606D40F00200606594F8B3
:102DE0005C1004208840304208D0216809688907B7
:102DF00004D5A860606D40F00400606594F85C1034
:102E000010208840304218D021680968090714D57D
:102E1000A86020680168490304D50068000308D54C
:102E2000A16C07E00168C90503D4016821F008011D
:102E30000160216C09B12046884794F85C1020207D
:102E40008840304231D021680968C9062DD5A86074
:102E500094F8350005282068016806D0490347D555
:102E6000006800031DD4616C1CE021F016010160B4
:102E70002068416921F080014161206C08B9A06C93
:102E800020B12068016821F00801016094F85C100D
:102E90003F208840A86084F8358084F83490216D04
:102EA0001FE0E16B09B120468847606D00282BD0F8
:102EB000606DC00714D0052084F8350020680168D3
:102EC00021F0010101600098401C0090B84203D835
:102ED00020680068C007F6D184F8358084F8349003
:102EE000E16C002910D001B02046BDE8F04308474E
:102EF0000168C905D5D4016821F01001016084F88A
:102F0000358084F83490CCE7BDE8F88314000020C5
:102F10002DE9F041044600F0BBF906465CB1022001
:102F200084F83500002584F834502068016821F0C9
:102F3000010101600DE00120BDE8F08100F0A8F979
:102F4000801B052805D920206065032084F8350002
:102F5000F2E720680068C007F0D1226811682048B5
:102F60000140D4E901031843D4E90336334318433D
:102F700063691843A3691843E3691843236A184334
:102F80000843616A042903D1D4E90B1319430843A8
:102F9000106020684069666A20F0070130460E43E1
:102FA000012704280CD1A06A0643E06A40B12046FC
:102FB000FFF77EF820B14020606584F83570BAE7ED
:102FC000206846612046FFF75FF894F85C203F21B7
:102FD00091408160656584F835700020ACE70000A1
:102FE0003F8010F02DE9F0410446866D90F83400E2
:102FF000002501280DD0012084F8340094F83570A4
:103000000020012F07D084F8340002252846BDE8AF
:10301000F0810220FBE7022784F8357060652046C6
:10302000FFF770F894F85C103F208840B06020688B
:10303000016841F016010160206C20B12068016830
:1030400041F0080101602068016841F00101016060
:10305000DCE7000070B5044600F01AF90546601C74
:1030600002D004480078044400F012F9401BA0424A
:10307000FAD370BD0800002070470000044910B565
:103080000A68024202D00860FFF7F6FF10BD000098
:10309000143C01402DE9F84FDFF8BCA100220125C6
:1030A00003264FF00F090AF1040BAAF1040E00BF2A
:1030B0000B6805FA02F42340A34270D10F7907F0A0
:1030C0000307012F01D0022F16D187684FEA42086B
:1030D00006FA08FC27EA0C07D1F80CC00CFA08FC29
:1030E0004CEA070CC0F808C04768A7430C79C4F342
:1030F000001494403C4344600C79E443A4070AD094
:10310000C4684FEA420C06FA0CF7BC438F6807FA12
:103110000CF72743C7600C7904F00304022C12D18A
:10312000D40800EB840CDCF820405707FF0E09FAA6
:1031300007F824EA0804D1F8108008FA07F848EAEA
:103140000408CCF8208004684FEA420C06FA0CF719
:10315000BC430F7907F0030707FA0CF72743076012
:103160004C6814F4403F70D03C4C276847F48047CB
:103170002760246822F0030704F480440094384C4C
:1031800007EB040CDCF8084897074FEA177809FAB0
:1031900008F7BC43334FB84202D1002724E054E083
:1031A000314FB84201D101271EE0304FB84201D162
:1031B000022719E02E4FB84201D1032714E02D4F0A
:1031C000B84201D104270FE02B4FB84201D10527A7
:1031D0000AE02A4FB84201D1062705E0284FB8423D
:1031E00001D1072700E0082707FA08F72743CCF8A2
:1031F0000878DAF800405746D1F804C09C435FEAEB
:10320000CC2C00D51C433C60DBF800405F46D1F875
:1032100004C09C435FEA8C2C00D51C433C60DEF864
:1032200000407746D1F804C09C435FEA8C3C00D54F
:103230001C433C60084F083F3C68D1F804C09C43E5
:103240005FEACC3C00D51C433C60521C102AFFF4C2
:103250002FAFBDE8F88F0000083C01404438024021
:10326000003001400000024000040240000802401B
:10327000000C0240001002400014024000180240FE
:10328000001C02400AB1816170470904FBE700009D
:1032900001488068704700000800002002488168EB
:1032A0000278114481607047080000200B4810B577
:1032B000016841F400710160016841F480610160BE
:1032C000016841F480710160032000F06FF80F2065
:1032D00000F006F800F024F8002010BD003C024089
:1032E00070B50D4D04464FF47A712878B1FBF0F0BB
:1032F0000A490968B1FBF0F001F004FA48B9102C52
:1033000007D200222146501E00F030F800206C60E9
:1033100070BD012070BD00000800002014000020D6
:103320000A4808B5016841F480410160006800F472
:10333000804000900548001F016841F08051016005
:10334000006800F08050009008BD00004438024042
:10335000002809DB00F01F02012191404009800094
:1033600000F1E020C0F8001170470000F0B40E4BEF
:103370001B680C46C3F30223C3F10705042D00D9D3
:103380000425191D072901D2002300E0DB1E0126B8
:1033900006FA05F1491E214099409E40761E1640CE
:1033A0003143F0BC07F0F7B90CED00E0064900F03E
:1033B000070208684FF6FF03184040EA0220034A5C
:1033C00010430860704700000CED00E00000FA05B3
:1033D00070470068416200207047F0B50368586A82
:1033E00039B19C6A4FF4827600EB144400204D1EE4
:1033F0000AE040EA024098620FE006EB8007DF59DE
:10340000401C04EB1744C0B2A842F6D344EA024081
:103410004FF4807202EB810158500020F0BDD0F8CB
:10342000E00406F03EB801EBC10200EB8202D0F8E6
:10343000E004126A05F093BF01EBC10200EB8202C7
:10344000D0F8E004D2F8602205F0E4BFD0F8E00440
:1034500006F029B80A0601F00F0101EBC10100EBEB
:10346000810101D5143101E001F51571006806F004
:1034700005BF70B504460B0601F00F0000EBC0015C
:1034800004EB81014FF001024FF0000502D54A75AF
:10349000143103E081F8555201F51571087094F864
:1034A0009404012808D084F89424206806F000FCD5
:1034B00084F89454002070BD022070BD70B504469D
:1034C00001F00F002279904201D9012070BD0B0656
:1034D00001F00F0101EBC10104EB81014FF001028A
:1034E0004FF0000502D54A75143103E081F85552BA
:1034F00001F515718D70087094F89404012808D0B6
:1035000084F89424206806F045FD84F89454002043
:1035100070BD022070BD01F00F0101EBC10100EB95
:103520008100D0F8680270472DE9F04104460F068B
:1035300001F00F0000EBC00104EB81014FF0010628
:103540004FF0000502D54E75143103E081F8555255
:1035500001F51571C2F30A0208708A600B714A788E
:1035600002B14883022B00D14D7194F894040128D4
:1035700009D084F89464206806F0ECFA284684F8B0
:103580009454BDE8F0810220FBE710B501F00F0470
:1035900004EBC40100EB8101C1E998230023C1F8C9
:1035A000683281F8553281F85442837901F51571FA
:1035B000012B00D1CA618279006806F043FD00202A
:1035C00010BD70B504460D4601F00F002179884208
:1035D00001D9012070BD29064FF000064FF001020D
:1035E00006D500EBC00104EB81014A75143107E0F8
:1035F00005EBC50104EB810181F8556201F51571F8
:103600008A70087094F89404012807D084F89424F0
:10361000206806F0EBFC280702D007E0022070BD0E
:10362000A17904F29C42206806F088FC84F8946436
:10363000002070BD10B501F00F0404EBC40100EBD5
:103640008101C1E9082300238B6201234B7501F836
:10365000144F8379012B00D1CA618279006806F08A
:10366000F1FC002010BD00002DE9FC5F0568044658
:10367000284606F09FFE00287DD1206806F0C6FE91
:10368000002878D0D5F80808C0F30D20C4F8D40479
:10369000206806F0BBFE800704D52068416901F070
:1036A00002014161206806F0B1FEC10604F29C40AF
:1036B000009034D52068816921F0100181612F6A62
:1036C00007F00F0000EBC00004EB8006C7F3434097
:1036D00006F51576022802D0062811D01AE047F622
:1036E000F070074216D0C7F30A1217462846F16851
:1036F00006F090FEF0683844F0607069384408E0E5
:1037000008222846009906F085FE7069C7F30A1161
:10371000084470612068816941F01001816120686E
:1037200006F074FE00034FF0080B4FF0000A4FF054
:1037300001097CD50026206806F047FE074674E0A4
:10374000F80770D0F1B2206806F058FE8046C00736
:1037500007D005EB4611C1F8089B3146204604F01E
:1037600071F95FEA087024D505EB4611C1F808BB72
:103770002068016C00E023E200EB46100191D0F8D4
:10378000082BFB4B994205D9110403D54FF4004196
:10379000C0F8081B204600F0F6FAF5490198884267
:1037A00007D9A079012804D120680121009A06F0E8
:1037B000C5FB5FEAC86004D505EB46111020C1F8CF
:1037C000080B5FEA88701DD56869000605D5D5F835
:1037D000040840F48061C5F8041806EBC60004EB49
:1037E000800090F8571200F51570012905D180F876
:1037F00003A0F1B2204600F0E9F905EB46110220E2
:10380000C1F8080B5FEA886004D505EB461020215B
:10381000C0F8081B5FEA884005D505EB46104FF459
:103820000051C0F8081B7F08761C002F88D1206843
:1038300006F0ECFD40036ED5206806F0BFFD07469C
:10384000002666E0F80762D0F1B2206806F0C4FDF9
:103850008046C00723D006F00F01D5F8342809FAB6
:1038600001F18A43C5F8342805EB4611C1F80899DF
:10387000A07901280FD106EBC60004EB8000D0E947
:1038800007211144016236B9606A20B9206801211C
:10389000009A06F053FBF1B22046FFF7C4FD5FEA41
:1038A000087003D505EB4611C1F808B95FEAC86096
:1038B00004D505EB46111020C1F808095FEA4860FD
:1038C00004D505EB46104021C0F808195FEA88705E
:1038D00016D53146284606F042FD06EBC60004EB3D
:1038E0008000C17D1430012905D180F803A0F1B218
:1038F000204600F067F905EB46110220C1F80809DF
:103900005FEA086003D53146204604F001F97F08DC
:10391000761C002F96D1206806F078FD002811DA79
:10392000D5F8040820F00101C5F8041894F8CC0477
:1039300001282BD0204600F00BFA2068416901F0E5
:1039400000414161206806F061FD00050BD5D5F806
:103950000808C00702D0204600F03EFA20684169FE
:1039600001F400614161206806F050FDC00467D594
:10397000D5F8040820F00100C5F8040810212068DB
:1039800006F0EDFC00214FF67F3220E084F8CCA455
:1039900000212046FFF71CFDCFE700BF05EB4110DB
:1039A000C0F80829D0F8003923F40013C0F8003912
:1039B000C0F8082BD0F8003B23F40013C0F8003BFC
:1039C000D0F8003B43F00063C0F8003B491C20796D
:1039D0008842E3D8D5F81C0840F00111C5F81C183E
:1039E000E07B002828460DD0D0F8840840F00B0179
:1039F000C5F88418D5F8440840F00B012846C5F8EE
:103A000044180DE0D0F8140842F22B010843C5F821
:103A10001408D5F8100840F00B012846C5F8101816
:103A2000D0F8000820F4FE61C5F80018A1792068DC
:103A3000009A06F083FA2068416901F480514161DF
:103A4000206806F0E3FC800415D5206806F0C2F873
:103A5000206806F0A2FCE07100F070FA0146E279FD
:103A6000206806F035FD204600F05CF920684169C9
:103A700001F400514161206806F0C8FC000707D539
:103A8000204600F069F92068416901F008014161B0
:103A9000206806F0BBFC000616D5A86920F080015E
:103AA000A96101260DE000BF06EBC60004EB800013
:103AB00090F85702012803D1F1B22046FFF7CAFC63
:103AC000761C2079B042EFD8206806F09FFCC00237
:103AD0001FD501264F4614E005EB4610D0F800191B
:103AE00006EBC60004EB8002107E012808D10029F5
:103AF00006DAF0B240F08001D7752046FFF7AAFC45
:103B0000761C2079B042E7D82068416901F4801121
:103B10004161206806F07AFC800234D501204A46D3
:103B200029E000BF05EB4011D1F8001B00EBC003FA
:103B300004EB830393F85862012E1BD1002919DA94
:103B400094F8D46401F4803106F00106B14211D139
:103B500083F85722A96941F08003AB6169690906BE
:103B600008D4D5F8040840F40070C5F8040805E04E
:103B70000A30544F401C21798142D3D820684169D2
:103B800001F400114161206806F040FC400007D5B7
:103B90002046FFF744FC2068416901F08041416103
:103BA000206806F033FC40070AD52068456868079E
:103BB00002D52046FFF74AFC20684168294341604E
:103BC000BDE8FC9FD0F8E00405F0BFBCD0F8E004ED
:103BD00005F0CFBCF8B5040005D094F8950426682C
:103BE000002510B106E00120F8BD84F89454204669
:103BF00000F056F8032084F89504B6F1A04F00D1E8
:103C0000A571206806F094F9207C8DF8000094E8F6
:103C10000F0005F0EDFF0226B8BB0021206806F07A
:103C200018FC90BB002001270DE000BF00EBC00195
:103C300004EB81014F750875C8850D76CD610D6265
:103C4000401CC0B24D6221798142EFD8002011E0C2
:103C500000EBC00104EB810181F8555281F8540258
:103C600081F85852C1F85C52C1F86052401CC0B291
:103C7000C1F8645221798142EAD8207C8DF8000095
:103C800094E80F0006F096F810B184F89564AAE75E
:103C9000657484F89574206806F07EF80020F8BDFD
:103CA00010B586B0044614216846FDF725F8206853
:103CB000B0F1A04F2FD119480021026842F0010253
:103CC0000260006800F0010005904FF4C0500090C1
:103CD0000220CDE90101032003900A2004906946E7
:103CE0000F48FFF7D7F90D48001D016841F080012A
:103CF00001600A481430016841F4804101600068A5
:103D0000002200F48040059011464320FFF72EFB6F
:103D10004320FFF71DFB06B010BD00003038024005
:103D20000000024070B50446C079012570B1022838
:103D300001D0FEF75AFB2946D4F8E00405F087FCD1
:103D4000D4F8E004BDE8704005F03CBC0025F2E783
:103D5000D0F8E00405F064BCD0F8E00405F06ABCDB
:103D600010B5044690F8940401280AD0012084F884
:103D700094046174206806F09AFB002084F894048F
:103D800010BD022010BDD0F8E02400F29C41104686
:103D900005F069BC10B50446006894F89414012934
:103DA00009D0012184F89414C168490609D5617BC2
:103DB000012902D005E0022010BD816B41F4803161
:103DC0008163206806F0A9FA206805F0D7FF00207B
:103DD00084F8940410BD000010B50446D0F8E00447
:103DE00005F083FC2068D0F8001E41F00101C0F806
:103DF000001EE07A002804D00248016841F0060164
:103E0000016010BD10ED00E02DE9F0470E46050001
:103E100065D0DFF81481D8F80000F7B200F0070091
:103E2000B04207D288F80070D8F8000000F0070010
:103E3000B04254D128683D4C810712D5400703D5C4
:103E4000206840F4E05020602878000703D52068FF
:103E500040F4604020602068A96820F0F00008432A
:103E600020602878C0072DD03049686808390128BB
:103E700012D0022813D0032811D00968890700291D
:103E80002DDA216821F0030101432160FFF700FAD8
:103E9000814641F2883A0EE009688903EFE7096834
:103EA0008901ECE7FFF7F4F9A0EB0901514502D9CC
:103EB0000320BDE8F0872068696800F00C00B0EBD3
:103EC000810FEFD1D8F80010404601F00701B14250
:103ED00007D90770006800F00700B04201D0012048
:103EE000E7E72878400705D52068E96820F4E05026
:103EF000084320602878000706D52068296920F447
:103F0000604040EAC100206000F03EF82168084AA5
:103F1000C1F30311515CC8400649086006480068B7
:103F2000FFF7DEF90020C4E7003C024008380240F9
:103F3000C6C80008140000200C00002001480068DA
:103F40007047000014000020044805490068096813
:103F5000044AC1F38221515CC8407047140000201C
:103F600008380240D6C800080448054900680968B6
:103F7000044AC1F34231515CC8407047140000202C
:103F800008380240D6C80008154810B5006810F07F
:103F90000C02144813D01449042A0FD0082A0ED159
:103FA0000F4C241F2268236802F03F025B0207D5F2
:103FB0002068C0F38810A0FB010106E0084610BD90
:103FC0002168C1F38811A1FB00010023FCF74AFE20
:103FD0002168C1F30141491C4900B0FBF1F010BD5B
:103FE000083802400024F400001BB7002DE9F84F08
:103FF00004006ED02078DFF84C93C007A9F10405C7
:104000004AD009F104000168C1F38101012908D0F7
:104010000068C0F3810002280AD1D9F800004002EC
:1040200006D52868800337D560680028E1D033E0E2
:104030006068B0F5803F10D0B0F5A02F286810D090
:1040400020F480302860286820F480202860606890
:10405000A8B1FFF71DF906460DE0286840F480304E
:10406000F4E740F480202860F7E700BFFFF710F97D
:10407000801B642873D828688003F7D50CE0FFF70D
:1040800007F9064605E000BFFFF702F9801B642828
:10409000F0D828688003F7D42078DFF8AC82800756
:1040A0004FF0000A3ED5A748001D016811F00C0F23
:1040B00008D00068C0F3810002280BD1D9F80000B5
:1040C000400207D42868800716D5E068012800D18F
:1040D00012E033E1E068B8B10120C8F80000FFF752
:1040E000D7F8064605E000BFFFF7D2F8801B02288C
:1040F000C0D828688007F7D52868216920F0F80023
:1041000040EAC10028600DE0C8F800A0FFF7C0F841
:10411000064604E0FFF7BCF8801B02281FD8286879
:104120008007F7D42078000722D5864F8748616939
:10413000703771B101210160FFF7AAF8064604E06B
:10414000FFF7A6F8801B022809D838688007F7D542
:104150000EE0C0F800A0FFF79BF8064605E082E0FD
:10416000FFF796F8801B02287DD838688007F7D4BF
:104170002078400768D5DFF8CCB100270BF13C0B65
:10418000DBF80000C0000BD4DBF8001041F08051D8
:10419000CBF80010DBF80000012700F08050009001
:1041A0006B4E3068C00510D4306840F480703060C9
:1041B000FFF76EF8009005E0FFF76AF80099401AE3
:1041C000022850D83068C005F6D55E4EA0686C361F
:1041D00001280FD00528306810D020F00100306091
:1041E000306820F004003060A068B8B1FFF750F8E4
:1041F00000900FE0306840F00100F4E740F0040068
:104200003060F7E7FFF744F80099411A41F288302F
:10421000814266D830688007F4D50EE0FFF738F8A1
:10422000009007E0FFF734F80099411A41F2883016
:10423000814256D830688007F4D42FB1DBF80010E3
:1042400021F08051CBF80010A069C8B33D49091D89
:104250000968C1F3810102294AD00228504607D0DB
:10426000C8F8600000E03CE0FFF712F804463BE0CD
:104270004746C8F86000FFF70BF8064605E000BFA8
:10428000FFF706F8801B02282BD828688001F7D496
:10429000D4E907010843A16A2E4A490802EB01410B
:1042A000626A41EA8211084394F82C1040EA0161E5
:1042B000C9F8001001203866FEF7EAFF044606E060
:1042C0003EE000BFFEF7E4FF001B022809D8286883
:1042D0008001F7D534E000BFFEF7DAFF001B0228AB
:1042E00002D90320BDE8F88F28688001F4D427E0C4
:1042F0000128F7D0D9F80000E26900F4800191426A
:104300001CD1226A00F03F01914217D147F6C071DB
:10431000626A0140B1EB821F10D1A26A4FF0FF33F5
:1043200000F4403103EB5202B1EB024F06D194F896
:104330002C1000F07060B0EB016F01D00120D1E7CC
:104340000020CFE70438024000004742800E474279
:10435000007000400000FFFF70B5040009D0606AE3
:10436000002540B125616561A56294F8510040B116
:104370000CE0012070BD6068B0F5827FF4D0E5618B
:10438000F2E784F85050204600F044F8022084F808
:1043900051002068016821F040010160A088218956
:1043A00000F4827001F404410843A18901F4006122
:1043B0000843217C01F002010843217D01F0010145
:1043C0000843218B01F400710843217F01F038017B
:1043D000084394F8201001F080010843218D01F476
:1043E0000051084321680860A069042101EA1040D7
:1043F00094F8241001F010010843216848602068F7
:10440000C16921F40061C1616565012084F8510032
:10441000002070BD2DE9F04186B0064614216846A3
:10442000FCF76AFC35493068884264D1344800247E
:10443000016841F480510160006800F480500590EB
:104440002F481438016841F002010160016801F051
:1044500002010591016841F0010101600068022537
:1044600000F0010005901820CDE9000502AA0327FD
:104470004FF0050882E8900169462248FEF70AFEDF
:104480008020CDE9000502AA694682E890011E4815
:10449000FEF700FE1E4D1D487F062860C5E9017429
:1044A0004FF48068C5E903486C617812AC61C5E9D6
:1044B000074028466C62FEF72BFD08B1FDF795FF1B
:1044C000F564AE63124D114860351830E5E8020717
:1044D0004020A5E81101C00245F81449AC61C5E9C6
:1044E00007400B486C626030FEF712FD08B1FDF723
:1044F0007CFFB564AE6306B0BDE8F08100300140DA
:10450000443802400004024000000240406402407F
:10451000640E00202DE9FF4F81B01D4693460446EE
:104520004FF001090E9EFEF7B3FE074694F85100C6
:104530006168012806D0B1F5827F3CD1A168C9BB72
:10454000042838D10298002871D0BBF1000FFBD0AD
:10455000002DF9D094F8500001282CD04FF0010A1A
:1045600084F850A094F85100042802D0052084F863
:1045700051004FF00008C4F85480C4F838B0E58703
:10458000A58702992163E586A586C4F84080C4F812
:10459000448020680168490603D4016841F0400165
:1045A0000160E068B0F5006F606808D0F0B3012DDD
:1045B00049D081E0FFE7022005B0BDE8F08F08B1E7
:1045C000012D39D1206B21680088C860206B801CC8
:1045D0002063E08E401EE0862EE020688168890717
:1045E0000FD5E18E69B1B9F1010F0AD1216B0988AC
:1045F000C160206B801C2063E08E401EE0864FF07F
:10460000000920688168C9070CD0E18F51B1C068EA
:10461000A16B0880A06B801CA063E08F401EE08728
:104620004FF00109FEF734FEC01B01E00BE067E02C
:10463000B04201D3701C50D1E08E0028CDD1E08F64
:104640000028CAD13EE0206B216800780873206BF7
:10465000401C2063E08E401EE0862DE020688168CB
:1046600089070FD5E18E69B1B9F1010F0AD1216B2C
:1046700009780173206B401C2063E08E401EE086A9
:104680004FF0000920688168C9070CD0E18F51B153
:10469000C068A16B0870A06B401CA063E08F401E37
:1046A000E0874FF00109FEF7F3FDC01BB04202D3D3
:1046B000701C01D011E086B1E08E0028CED1E08FD1
:1046C0000028CBD13A463146204603F0B5FD50B123
:1046D0002020606584F8508012E084F851A084F8AE
:1046E0005080032068E7A06818B92068C168806816
:1046F000009084F851A084F85080606D0028F1D0BB
:10470000012059E710B5401EB0F1807F01D3012090
:1047100010BD4FF0E02460610F21601706F03BF8F8
:104720000020A06107202061002010BD7047704765
:1047300010B590F83C20012A22D0012280F83C20BC
:10474000CA688C6822F4407222434C6822F480626A
:1047500022430C6822F4006222430C6922F4805246
:1047600022434C6922F400522243C969002322F4F7
:1047700080420A4301684A6480F83C30002010BD42
:10478000022010BD70B590F83C20012A32D00124DF
:1047900080F83C40022280F83D2003685A689D68FA
:1047A00022F070060A6832435A60134B02689A423C
:1047B00014D0B2F1804F11D0104B9A420ED0104B52
:1047C0009A420BD00F4B9A4208D00F4B9A4205D019
:1047D0000E4B9A4202D00E4B9A4204D1496825F002
:1047E00080031943916080F83D40002180F83C101F
:1047F000084670BD022070BD00000140000400406A
:1048000000080040000C004000040140004001404E
:104810000018004010B5040003D094F83D0010B11A
:1048200007E0012010BD002084F83C00204600F085
:104830001FF8022084F83D00211D206803F034FE9B
:10484000012084F8460084F83E0084F83F0084F894
:10485000400084F8410084F8420084F8430084F862
:10486000440084F8450084F83D00002010BD00009D
:1048700008B55D4902685D488A4210D1016841F07F
:10488000010101600068002200F001000090114663
:104890001820FEF76BFD1820FEF75AFD63E0534920
:1048A000534B091F9A4207D1086840F00400086082
:1048B000086800F0040049E04E4B9A420ED10868A7
:1048C00040F0100008600868002200F0100000901E
:1048D00011463620FEF74AFD362080E0464B9A42CC
:1048E00018D1016841F0020101600068002200F067
:1048F0000200009001212B20FEF738FD2B20FEF74F
:1049000027FD002211462C20FEF730FD2C20FEF75B
:104910001FFD5EE0394B9A420ED1016841F48031AF
:1049200001600068002200F48030009011461820D9
:10493000FEF71CFD182052E0314B9A4208D1016865
:1049400041F400310160006800F40030009008BDBF
:104950002C4B9A420ED1016841F48021016000681D
:1049600000F480200090002211461A20FEF7FEFC81
:104970001A2034E0244882420ED1086840F04000FA
:1049800008600868002200F04000009001212B2000
:10499000FEF7ECFC2B2022E01C4882420ED1086876
:1049A00040F0800008600868002200F0800000905D
:1049B00011462C20FEF7DAFC2C2010E0144882422D
:1049C000C5D1086840F480700860086800F4807001
:1049D0000090002211462D20FEF7C8FC2D20BDE8D6
:1049E0000840FEF7B5BC000000000140443802401A
:1049F0000008004000100040000401400040014059
:104A0000004401400048014000180040001C0040E4
:104A10000020004090F83D10012901D0012070478E
:104A2000022180F83D1000681149884214D0B0F18D
:104A3000804F11D00F4988420ED00F4988420BD0C9
:104A40000E49884208D00E49884205D00D49884257
:104A500002D00D49884204D1816801F0070106297E
:104A600003D0016841F0010101600020704700009F
:104A7000000001400004004000080040000C00401D
:104A800000040140004001400018004090F83D1033
:104A9000012901D001207047022180F83D100168F2
:104AA000CA6842F00102CA6000681149884214D005
:104AB000B0F1804F11D00F4988420ED00E49884284
:104AC0000BD00E49884208D00D49884205D00D49C7
:104AD000884202D00C49884204D1816801F0070164
:104AE000062903D0016841F00101016000207047F0
:104AF000000001400004004000080040000C00409D
:104B000000040140004001400018004070B5044618
:104B100090F83C000025012817D0012684F83C605D
:104B2000022084F83D002068826822F0770222F497
:104B30007F4282600868502838D00DDC20284FD092
:104B400005DC90B3102811D14AE0022070BD302856
:104B500046D040280AD13BE060282FD070280DD0E5
:104B6000B0F5805F03D0B0F5005F12D0012584F866
:104B70003D60002084F83C00284670BDCB68D1E938
:104B80000121206803F009FD2068816841F0770168
:104B900009E0CB68D1E90121206803F0FEFC206820
:104BA000816841F480418160E1E719E0CA684968A1
:104BB000206803F0DCFD5021206806E0CA684968DF
:104BC000206803F0E5FD6021206803F0F0FCCEE7EB
:104BD000CA684968206803F0CAFD40212068F4E7EC
:104BE000226801461046F0E770472DE9F04104467F
:104BF0000068C66805694FF00007A90713D5B1071B
:104C000011D5F91E01610120207720688069800795
:104C1000204602D0FFF7E8FF04E000F0D7F8204676
:104C200000F069F92777680716D5700714D5216851
:104C30006FF004000861022020772068806910F47A
:104C4000407F204602D0FFF7CFFF04E000F0BEF81F
:104C5000204600F050F92777280715D5300713D5DF
:104C600021686FF008000861042020772068C0697F
:104C70008007204602D0FFF7B7FF04E000F0A6F857
:104C8000204600F038F92777E80616D5F00614D547
:104C900021686FF010000861082020772068C06943
:104CA00010F4407F204602D0FFF79EFF04E000F0A2
:104CB0008DF8204600F01FF92777E80708D0F007A5
:104CC00006D021686FF001000861204600F0B6F9B7
:104CD000280608D5300606D521686FF080000861E7
:104CE0002046FFF723FD680608D5700606D5216823
:104CF0006FF040000861204600F020FAA8060AD5AF
:104D0000B00608D521686FF0200008612046BDE894
:104D1000F041FFF70CBDBDE8F081000030B587B071
:104D2000044614216846FBF7E7FF214D2368002263
:104D3000204802210124AB420FD1036843F0100345
:104D40000360006800F01000059008028DE807007D
:104D5000CDE903246946184811E0184DAB4212D141
:104D6000036843F008030360006800F00800059042
:104D700028148DE80700CDE9032169461048FEF7A5
:104D800089F907B030BD0F4A9342FAD1026842F068
:104D900020020260006800F02000059040208DE8AD
:104DA00013000320CDE9031069460748E7E7000038
:104DB000000001403038024000100240000800406E
:104DC000000C02400044014000140240704770B5DE
:104DD000044690F83C0000260D4601280FD0012023
:104DE00084F83C006AB1042A1DD0082A2FD00C2A6E
:104DF0003FD00126002084F83C00304670BD0220E0
:104E000070BD206803F0DCFB2068816941F0080177
:104E100081612068816921F00401816120688169D4
:104E20002A69114311E0206803F0FAFB20688169C8
:104E300041F4006181612068816921F480618161B0
:104E4000206881692A6941EA02218161D2E72068EC
:104E500003F01CFC2068C16941F00801C1612068B1
:104E6000C16921F00401C1612068C1692A69114347
:104E700011E0206803F03EFC2068C16941F4006144
:104E8000C1612068C16921F48061C1612068C16984
:104E90002A6941EA0221C161ACE710B5040003D0E0
:104EA00094F83D0010B107E0012010BD002084F807
:104EB0003C00204600F01EF8022084F83D00211D31
:104EC000206803F0F1FA012084F8460084F83E00DF
:104ED00084F83F0084F8400084F8410084F84200E0
:104EE00084F8430084F8440084F8450084F83D00C9
:104EF000002010BD7047704710B50446022249B12A
:104F000004290ED0082913D094F84100012816D0A6
:104F1000012010BD94F83E000128F9D184F83E200C
:104F20000FE094F83F000128F2D184F83F2008E018
:104F300094F840000128EBD184F8402001E084F887
:104F400041200122206803F01BFB16492068164A05
:104F5000884201D0904203D1436C43F40043436440
:104F60002068884213D0B0F1804F10D00F4988429A
:104F70000DD00F4988420AD00E49884207D090428E
:104F800005D00D49884202D00C49884204D181687D
:104F900001F00701062903D0016841F00101016019
:104FA000002010BD0000014000040140000400404A
:104FB00000080040000C0040004001400018004084
:104FC00030B504460D460068002203F0D9FA194BAB
:104FD00041F2111120688A10984202D0164B984273
:104FE00009D1036A0B4206D1036A134203D1436C11
:104FF00023F4004343642068036A0B4206D1016A2C
:10500000114203D1016821F00101016001203DB18D
:10501000042D08D0082D09D084F84100002030BDAF
:1050200084F83E00FAE784F83F00F7E784F8400090
:10503000F4E70000000001400004014070B50446A0
:105040002B48844202D12B48FCF73CF92A48294DD1
:1050500084420CD12948D5ED000AD0ED041A90ED18
:10506000371A274890ED010A264801F01FFC264810
:10507000844204D1254805F0C0FA06F067FF2448B1
:1050800084421BD1234806F04DF923482349DFED24
:10509000250A02880A8442884A8490ED021A204830
:1050A00090ED060A194830EE600ADFED1F0A017B19
:1050B00060EE200A95ED000A05F0ACFA1B48844228
:1050C00008D107F01FF848F20103102218491148CF
:1050D00006F0C2F81748844208D1174C2068FCF744
:1050E00089FE2068BDE87040FCF736BF70BD000047
:1050F000B40F0020840D0020FC0F00206C04002061
:105100000C0A0020F411002044100020F0090020B7
:10511000D4100020180A0020B00D0020C80900207B
:10512000580500200020C345EA04343D1C1100202E
:10513000A00D002064110020740D002070477047FE
:1051400070470000F8B5016804460868CA684B69F2
:1051500010F00F0F4FF0000559D003F0010602F4D4
:105160009077374365D0C10705D0D10503D5616C71
:1051700041F001016164410705D5D90703D0616C95
:1051800041F002016164810705D5D90703D0616C44
:1051900041F004016164010707D502F020013143A9
:1051A00003D0616C41F008016164616C00293AD060
:1051B000800604D5900602D5204603F083FB2068C4
:1051C0004069616CC0F38010090700D460B32046C9
:1051D00003F043FB20684069400621D52068143065
:1051E00050E8001F21F0400140E80012002AF5D1EC
:1051F000E06BA8B16E490165E06BFDF7A7FD0028E3
:1052000011D0E06B016D01B0BDE8F04008478306A6
:105210000FD593060DD52046BDE8F84003F052BBEC
:105220002046FFF78DFFF8BD2046FFF789FF656434
:10523000F8BD266B2023012E7DD1C6067BD5D60670
:1052400079D508684868009048694FF00206400622
:1052500041D5E16B086840680004000CE8D0A28DDD
:105260008242E5D9E085C869B0F5807F2DD02068FD
:105270000C3050E8001F21F4807140E80012002A31
:10528000F5D12068143050E8001F21F0010140E8FA
:105290000012002AF5D12068143050E8001F21F0D8
:1052A000400140E80012002AF5D184F8423025631D
:1052B00020680C3050E8001F21F0100140E8001277
:1052C000002AF5D1E06BFDF7F8FC6663A08DE18D57
:1052D000401A81B22AE0A08DE18D401A81B2E08DA2
:1052E0000028A5D00029A3D022680C3252E8000F74
:1052F00020F4907042E80007002FF5D120681430A8
:1053000050E8002F22F0010240E80027002FF5D1DD
:1053100084F84230256320680C3050E8002F22F0DA
:10532000100240E80023002BF5D166632046FFF70A
:1053300006FFF8BDFFE705062BD5150629D594F81D
:1053400041002128F5D1A068B0F5805F01D1206926
:10535000B0B1206A411C2162216800784860E08C6D
:10536000401E0004000CE084E3D12068C16821F0F5
:105370008001C1602068C16841F04001C160D8E788
:10538000206A0088C0F308004860206A801C206200
:10539000E5E74006CDD55006CBD5CA68204622F0B9
:1053A0004002CA6084F8413000F08CF9C1E7000087
:1053B000B587000870B5040004D094F841000025BA
:1053C00010B106E0012070BD84F84050204600F086
:1053D00023F8242084F841002068C16821F400519A
:1053E000C160204603F0D0FA2068016921F49041A1
:1053F00001612068416921F02A0141612068C1688A
:1054000041F40051C1606564202084F8410084F8B3
:1054100042006563002070BD2DE9F04F87B004465F
:1054200014216846FBF768FC7C48DFF8EC811438EF
:10543000D4F800C079490226032207230025071566
:105440004FF0006A4FF0400BC4454BD1D1F800C07B
:105450004CF0100CC1F800C0096801F01001059172
:10546000016841F002010160016801F0020105914B
:10547000016841F0010101600068CDE9025200F0CD
:10548000010005908020CDE90006914698466946C6
:1054900004936348FDF7FEFD3002CDE90006CDE937
:1054A00002596946CDF810805E48FDF7F3FD5F4E66
:1054B0005D48C6E903577561B56186E8010CB8011E
:1054C000C6E9075030467562FDF722FD08B1FCF7CA
:1054D0008CFFA663002211462520B463FDF746FF2A
:1054E00025203FE0DFF848814FF40039C4453ED124
:1054F0004A49091FD1F800C04CF4802CC1F800C003
:10550000096801F480210591016841F004010160FE
:105510000068029500F0040005904FF44060CDE96A
:10552000000669464348CDE90323FDF7B3FD3F4E2E
:10553000414860363060C6E901A5C6E90357756188
:10554000B561C6E9075930467562FDF7E1FC08B15F
:10555000FCF74BFFE663002211462720B463FDF7FA
:1055600005FF2720FDF7F4FE07B0BDE8F08F334BB1
:105570009C45F9D10B6843F020030B60096801F0EA
:1055800020010591016841F0400101600068029529
:1055900000F0400005904FF48440CDE9000608205B
:1055A000CDE9032069462648FDF774FD1F4E1E48CD
:1055B000C036903830604FF02068C6E90185C6E9F2
:1055C00003577561B561C6E9075930467562FDF745
:1055D0009FFC08B1FCF709FFE663B463194E12485B
:1055E000C6E9035775611838B56186E801094FF4BB
:1055F0008030C6E9075030467562FDF789FC08B176
:10560000FCF7F3FEA663002211464720B463FDF7C2
:10561000ADFE4720A6E700000010014044380240DC
:105620000004024000000240B8640240CC12002096
:105630000048004000080240286002400014014079
:1056400000180240EC1300207047000070B50446BB
:1056500090F84100202801D0022070BD49B342B328
:105660002162A284E28400206064212384F8413016
:10567000A56B114BEB63A56B104B2B64A56B104B0B
:10568000EB64A36B1865256813462A1DA06BFDF714
:10569000A9FC21686FF0400008602068143050E8D1
:1056A000001F41F0800140E80012002AF5D10020DF
:1056B00070BD012070BD00000F88000851880008EF
:1056C000C58700087047704770B5044600203C4D00
:1056D0002074A27B288861684243D4F8F400FBF769
:1056E000F2FAA17B288841436068FBF705FBA07BA9
:1056F00010FB00F128884143D4F81801FBF7FCFAAD
:10570000207BA17B10FB01F128884143D4F80C01D8
:10571000FBF7F2FA00202BE0D4F8F41001EB800242
:1057200092ED000AB5EEC00AF1EE10FA1ED0227C0E
:1057300001EB820181ED000A227C616A8854A16933
:10574000227B01EB8001237C91ED000A6169095CF9
:1057500012FB03116FF0030202EB8101D4F80C215C
:10576000114481ED000A217C491C2174401CC0B207
:10577000A17B8142D0D8002010E0636AE2691B5C03
:1057800002EB830292ED000A10FB0101D4F818210C
:10579000401C02EB8101C0B281ED000A217C8142F4
:1057A000EBD8C8B224F8780F14F86C0C6080208114
:1057B0006181218361832084618424F8301C70BD61
:1057C00008020020FEE70000F0B58D4C0F462DEDDD
:1057D000068B054687B01646D0ED040A94ED050AFF
:1057E000884830EEC00AB0EEC00A10EE101A8142AE
:1057F00019DC95ED050A94ED061A30EE410AB0EE7B
:10580000C00A10EE101A81420DDC95ED060A94EDE7
:10581000071A30EE410AB0EEC00A10EE101A8142AB
:1058200001DC2878F0B39FED789A80EE890AFAF7C8
:10583000C7FCF0EE400AF0EE609AD5ED050A80EE66
:10584000890AFAF7BDFCD5ED060AF0EE401A80EEA3
:10585000890AB0EE61AAFAF7B3FCD5ED040AF0EEBE
:1058600040AA80EE890AFAF7E7FCF0EE400AB0EEB3
:10587000608AD5ED050A80EE890AFAF7DDFCD5EDE0
:10588000060AF0EE408A80EE890AFAF7D5FC29EE86
:10589000AA2A68EE280AB0EE401AB0EE420A00EEDC
:1058A000810A00E02BE084ED080A2AEE080A6AEE7D
:1058B000880A002084ED090A29EE810A00EEE80A30
:1058C00084ED0A0A29EEA80A20EE010A0AEEC80AA7
:1058D00084ED0B0A29EE8A0A84ED0C0A28EE410AAF
:1058E00002EE680A84ED0D0A2AEE410A84ED0E0AE2
:1058F0002AEE2A0AC4ED0F8A84ED100A28700020CF
:105900004FEA0D0107EB800292ED000A05EB8002E1
:10591000D2ED010A01EB8002401C20EE200AC0B249
:10592000032882ED000AEDD39DED000AD4ED085A5C
:105930009DED011A94ED094A20EE252ADDED020ABB
:10594000D4ED0A1A002004EE012A03A901EEA02AD0
:1059500087ED002A94ED0B3AD4ED0C2A94ED0D2A34
:1059600060EE033A42EE813A42EE203AC7ED013A48
:10597000D4ED0E3AD4ED0F4A94ED105A20EE230ADE
:1059800004EE810A05EE200A87ED020A06EB80028A
:1059900092ED000A01EB8002401CC0B282ED000AC9
:1059A0000328F3D39DED031ADDED040A9DED050AEE
:1059B00061EE255A44EE205A41EE805A61EE031AF8
:1059C00021EE231A42EEA01A04EEA01AC6ED005AE8
:1059D00042EE001A05EE001AC6ED011A86ED021A13
:1059E00095ED040A84ED050A95ED050A84ED060A95
:1059F00095ED060A84ED070A07B0BDEC068BF0BDF5
:105A0000840100206F12833AE12E654210B50446EE
:105A10002DED048BD0F8EC00D0ED009A90ED019ABA
:105A2000D0ED028A29EEA90A90ED038A09EE090A4F
:105A300008EEA80A08EE080A05F058FF5FF000001B
:105A4000D4F8EC1001EB8001401CD1ED000AC0B28B
:105A5000042860EE800AC1ED000AF1D33E48D4F874
:105A6000001190ED6F0A60EE090AB6EE000A60EED2
:105A7000800AC1ED040AD0ED6F0AD4F8001160EE7F
:105A8000A80A60EE800AC1ED050AD0ED6F0AD4F8CD
:105A9000001120EEA91AFEEE000A21EE201A81ED77
:105AA0000A1A90ED6F1AD4F8001121EE081A21EEAF
:105AB000001A81ED0B1A90ED6F1AD4F8001121EE47
:105AC000081A21EE201A81ED101A90ED6F1AD4F801
:105AD000001121EE291A21EE201A81ED111A90ED04
