:020000040800F2
:10000000E8250020C1010008493D00089739000893
:10001000453D0008A70800087D4C000800000000CE
:100020000000000000000000000000004542000841
:10003000D311000800000000E93F00084742000813
:10004000DB010008DB010008DB010008DB01000820
:10005000DB010008DB010008DB010008DB01000810
:10006000DB010008DB010008DB010008DB01000800
:10007000DB010008DB010008DB010008DB010008F0
:10008000DB010008DB010008DB010008CD080008E7
:10009000AD080008BD080008DB010008DB0100080E
:1000A000DB0100083143000821430008DB010008A0
:1000B000DB010008DB010008DB010008DB010008B0
:1000C000DB010008DB010008DB010008DB010008A0
:1000D000DB010008594C0008DB010008DB010008C7
:1000E000DB010008DB010008DB01000841430008D8
:1000F0006143000851430008DB010008DB010008F0
:10010000DB010008DB010008DB010008DB0100085F
:10011000DB010008DB010008DB010008DB0100084F
:10012000DB01000899100008A9100008DB01000895
:10013000DB010008DB010008DB010008FD08000806
:10014000DD080008ED080008DB010008DB010008FD
:10015000DB010008B9100008DB010008694C000849
:10016000DB010008DB010008DB010008DB010008FF
:10017000DB010008DB010008DB01000800000000D3
:10018000DB010008DB010008DB010008DB010008DF
:10019000DB010008DB010008DB010008DB010008CF
:1001A0000000000000000000DB010008DFF80CD0B8
:1001B00000F02AFB0048004761740008E825002091
:1001C0000648804706480047FEE7FEE7FEE7FEE7F1
:1001D000FEE7FEE7FEE7FEE7FEE7FEE70D43000869
:1001E000AD0100082DE9F05F0546002092469B46D0
:1001F00088460646814640241BE02846414647463D
:10020000224600F033FA53465A46C01A914110D3A1
:1002100011461846224600F01AFA2D1A67EB01081B
:100220004F4622460120002100F011FA17EB000989
:100230004E41201EA4F10104DFDC484631462A4627
:100240004346BDE8F09F40EA01039B0703D009E065
:1002500008C9121F08C0042AFAD203E011F8013BB2
:1002600000F8013B521EF9D27047D2B201E000F80B
:10027000012B491EFBD270470022F6E710B513464A
:100280000A4604461946FFF7F0FF204610BD421CFF
:1002900010F8011B0029FBD1801A7047034611F8A2
:1002A000012B00F8012B002AF9D1184670472DE9DF
:1002B000FE4F804681EA0300C00F0C46009021F0FB
:1002C000004123F00045B8EB0200A94105D24046A9
:1002D000214690461C460B46024623F00040104340
:1002E00047D0270DC7F30A00C3F30A510290401A02
:1002F000019040286BDAC3F3130040F4801B009890
:10030000924620B10023D2EB030A63EB0B0B01985A
:100310005946C0F14002504600F099F906460D4694
:1003200050465946019A00F0B1F910EB08006141BE
:10033000002487EA115284EAE7731A4340D0009AF6
:1003400062B3019A012A4FEA075215DC001B61EBE8
:1003500002014FF0004202EA0752CDE90042001CC0
:1003600041F5801132462B4600F0E8F903B0BDE8B4
:10037000F08F40462146F9E7001B61EB0201001CAB
:1003800041F5801300185B412018A2F5001747EBD8
:10039000030140EAD570B6196D4111E06D084FEACE
:1003A000360645EAC0754FEA0752001B61EB0201B1
:1003B000001C41F5801149084FEA300000195141F5
:1003C00032462B4603B0BDE8F04F00F0A8B90098C4
:1003D000012240000023D0EB020263EBE07300989F
:1003E00021464FEAE074B8EB000061EB0401E9E755
:1003F00083F000435BE781F0004158E72DE9FE4FB1
:1004000081EA030404F0004421F0004100944FF01D
:10041000000B23F0004350EA01045ED052EA0304CB
:100420005BD0C3F30A54C1F30A552C44A4F2F3344D
:100430000194A0FB0254C1F3130141F48011C3F3F2
:10044000130343F4801301FB024400FB034E840AB0
:10045000970A44EA815447EA8357A4FB0768029548
:100460008D0A05FB07854FEA932C04FB0C542705E6
:10047000029D4FEA065847EA1637B5EB08056EEBC2
:10048000070C870E920E47EA811742EA8312A7FBF8
:100490000201B6EB0B0164EB00042B0D43EA0C33B5
:1004A0005E1844EB1C50DA465146E7FB0201C5F3E7
:1004B00013044FEA0B3343EA14534FEA0432019C0E
:1004C00043EA0603A4F10C040294009CCDE900B4B5
:1004D00000F034F903B0BDE8F08F00200146F9E7E1
:1004E0002DE9F04D81EA030404F0004B21F00045B2
:1004F00014464FF0000A23F0004150EA050220D0D4
:1005000054EA01021DD0C5F30A570246C5F313038E
:10051000C1F31300C1F30A5640F4801543F480136D
:10052000A7EB0608101BD64608F2FD3873EB050052
:1005300002D308F1010801E092185B41B8F1000F05
:1005400003DA00200146BDE8F08D00204FF4801151
:10055000064684460EE0171B73EB050705D3121BF6
:1005600063EB050306434CEA010C49084FEA3000EF
:1005700092185B4150EA0107EDD152EA030012D014
:1005800082EA040083EA0501084305D0101BAB4151
:1005900006D20122002306E000224FF0004302E0D1
:1005A0006FF0010253101AEB06004CEB085110EBF0
:1005B0000A0041EB0B01BDE8F04D00F0B0B8C1F30B
:1005C0000A5210B5C1F3130140F2FF3341F4801118
:1005D0009A4201DA002010BD40F233439A42A2F25F
:1005E000334203DC524200F041F810BD904010BD90
:1005F00000F0004230F000400AD0C10D01F56071FA
:10060000C0F3160042EA0151C20840071143704787
:1006100000200146704701F0004330B421F0004152
:1006200050EA010206D00A0DA2F56072C1F313016F
:10063000002A02DC30BC00207047440F44EAC104A9
:10064000C100E01830BC00EBC25000F031B8202AE5
:1006500004DB203A00FA02F1002070479140C2F119
:10066000200320FA03F3194390407047202A04DB4B
:10067000203A21FA02F00021704721FA02F3D0401B
:10068000C2F120029140084319467047202A06DB38
:10069000CB17203A41FA02F043EAE07306E041FA50
:1006A00002F3D040C2F1200291400843194670473E
:1006B0000029A8BF7047401C490008BF20F0010076
:1006C000704710B4B0FA80FC00FA0CF050EA010454
:1006D00004BF10BC704749B1CCF1200421FA04F4E6
:1006E00011FA0CF118BF012121430843A3EB0C01BF
:1006F000CB1D4FEA00614FEA102042BF002010BC22
:10070000704700EBC35010440029A4BF10BC7047D1
:10071000401C490008BF20F0010010BC704710B514
:10072000141E73F1000408DA401C41F10001921814
:100730005B411A4301D120F0010010BD2DE9F04DBD
:1007400092469B4611B1B1FA81F202E0B0FA80F212
:1007500020329046FFF77BFF04460F4640EA0A002E
:1007600041EA0B0153465A46084313D0114653EA57
:10077000010019D0C8F140025046FFF777FF054647
:100780000E46504659464246FFF761FF084305D0E2
:10079000012004E020463946BDE8F08D00200543E5
:1007A00046EAE0762C4337430A986305E40AA0EB57
:1007B00008000022FD0A44EA47540A3002D500200E
:1007C0000146E9E7010510196941DDE9084500190D
:1007D0006941BDE8F04DA2E730B5041E71F1000497
:1007E00004DB4FF00044404264EB0101141E73F13E
:1007F000000405DB1C464FF00043524263EB040348
:10080000994208BF904230BD064C074D06E0E068B3
:1008100040F0010394E8070098471034AC42F6D347
:10082000FFF7C8FC00860008208600080EB5C10F3F
:1008300080EAE0700844CA07002140F233438DE8A3
:100840000E000A460B46FFF779FF03B000BD0EB558
:1008500040F2334102910021CDE900110A460B46D6
:10086000FFF76CFF03B000BD70B5C1F30A5201F091
:1008700000450024C1F3130140F2FF3341F480111D
:100880009A4201DA002070BD40F233439A42A2F24C
:10089000334203DC5242FFF7E9FE00E090402C4374
:1008A000F1D0404270BD00BFFEE7000010B5024825
:1008B00000F0BFFE10BD0000640B002010B5024820
:1008C00000F0B7FE10BD0000640B002010B5024818
:1008D00000F0AFFE10BD0000640B002010B5024810
:1008E00000F0A7FE10BD00008C0B002010B50248E0
:1008F00000F09FFE10BD00008C0B002010B50248D8
:1009000000F097FE10BD00008C0B002010B50F48C2
:1009100000780F490978884215D00C4800780C49B6
:100920000870002404E00A48007804F021FF641CE9
:10093000052CF8DB002402E005F05CFC641C1E2C96
:10094000FADB012010BD0020FCE700004C1800205D
:10095000DF00002010B50F4880780F4909788842E1
:1009600015D00C4880780C490870002404E00A482F
:10097000007804F089FF641C052CF8DB002402E0F9
:1009800005F058FC641C1E2CFADB012010BD002071
:10099000FCE700004C180020DE00002001B10164DB
:1009A000704790F8742012028A828B8A7522125C3A
:1009B0001A448A828A8A00EE102AB8EE400A81ED33
:1009C000060A7622125C120212B28A818B89772281
:1009D000125C1A4412B28A81B1F90C2000EE102A7E
:1009E000B8EEC00A81ED040A7822125C120212B23B
:1009F000CA83CB8B7922125C1A4412B2CA83B1F932
:100A00001E2000EE102AB8EEC00A81ED080A7A22F4
:100A1000125C81F82420704700210171704710B5E5
:100A20000446207938B904F1440003F087FA04F150
:100A30008C0003F083FA0120207110BD0146888AE2
:100A40008A8B904204DB888A8A8B801A80B2704736
:100A5000888A8A8B801A41F6FF72104480B2F6E7CA
:100A6000F0B58BB004460E4617462660E7660025B3
:100A700048E00120099007900020089040F20120F2
:100A800000EB85004001019040F2022000EB850060
:100A90004001029040F2032000EB850040010390EA
:100AA0004FF4017000EB8500B0F5037F03D140F2F5
:100AB0000120049005E04FF4017000EB8500400137
:100AC00004903E48864203D106950E200A9007E026
:100AD0003B48864204D105F10E0006900E200A9094
:100AE00027B9002005900220206705E0012F03D1DF
:100AF000012005901020206701A9304600F02EFC4F
:100B0000681CC5B2032DB4DB0120099007900020BA
:100B1000089043F6E07001904FF48040029045F653
:100B2000E07003904FF4804004902448864204D142
:100B3000042006900E200A9006E02148864203D148
:100B4000112006900E200A9027B90020059002205F
:100B5000206705E0012F03D10120059010202067B8
:100B600001A9304600F0FAFB3046216F00F035FB5A
:100B7000304601F03CF80021216161610821A1614A
:100B80008801A0600021A162E16208212163401E6A
:100B900020620021216461640821A16440F2FF20E9
:100BA000A063002006E0002204F1940141F8202017
:100BB000411CC8B20B28F6DB0BB0F0BD640B002063
:100BC0008C0B002030B5039C0160427183718483DB
:100BD000002585638562C0F8D450C0F8D850C0F8AD
:100BE000E050C0F8E45030BD30B505460C4634B195
:100BF0002068A0F2012005F1940141F82040284628
:100C000000F001F830BD30B50025858000210022BC
:100C10000023002400BF0DE000F1940555F8215099
:100C200035B100F1940555F821502D781544EAB2FC
:100C30004D1CE9B20429EFDB1AB1858805F58075F2
:100C4000858004210DE000F1940555F8215035B15F
:100C500000F1940555F821502D781D44EBB24D1C40
:100C6000E9B20829EFDB13B18588103585800821AA
:100C70000DE000F1940555F8215035B100F19405CF
:100C800055F821502D782544ECB24D1CE9B20B29C2
:100C9000EFDB14B185886D1C858030BD70B50546CD
:100CA000002400BFD8E005F1940050F8240000B9FA
:100CB000D0E005F1940050F82400007940B905F126
:100CC000940050F824100022284600F0ABF9C1E04F
:100CD00005F1940050F82400806A68B105F194028F
:100CE00052F8240052F82420916A884705F19400B4
:100CF00050F8240080ED0B0A05F1940050F8240010
:100D0000807920B1012825D0022878D167E005F14B
:100D1000940151F82410D1F8D81091ED001AF0EE9A
:100D2000410A05F1940151F82410D1F8D41091ED45
:100D3000001AB0EE410A05F1940151F8241001F1B6
:100D4000440003F003F805F1940050F8240080ED0E
:100D5000370A55E005F1940151F82410D1F8D81064
:100D600091ED001AF0EE410A05F1940151F82410BA
:100D7000D1F8D41091ED001AB0EE410A05F19401BA
:100D800051F8241001F1440002F0E0FF05F1940055
:100D900050F8240080ED370A05F1940151F8241031
:100DA000D1F8E41091ED001AF0EE410A05F194013A
:100DB00051F82410D1F8E01091ED001AB0EE410A7C
:100DC00005F1940151F8241001F18C0002F0BEFFEE
:100DD00005F1940050F8240080ED3A0A10E005F186
:100DE000940252F8240052F82420116B884705F130
:100DF000940050F8240080ED0D0A01E0FFE700BFE9
:100E000000BF05F1940050F82400806B68B105F133
:100E1000940252F8240052F82420916B884705F17F
:100E2000940050F8240080ED0F0A05F1940050F86A
:100E30002400006CD0ED000AB0EE600A06F02FFA34
:100E4000064605F1940050F824103246284600F07A
:100E5000E9F800BF601CC4B20B2CFFF624AF70BDD4
:100E60002DE9F04704460E4691461D46DDE9087817
:100E70005FB104F14400864201D1C4F8D47004F19A
:100E80008C00864201D1C4F8E070B8F1000F0BD09D
:100E900004F14400864201D1C4F8D88004F18C00EA
:100EA000864201D1C4F8E480BDB1D5ED042AB0EE8C
:100EB000622AD5ED032AF0EE621AD5ED022AB0EED1
:100EC000621AD5ED012AF0EE620AD5ED002AB0EEE5
:100ED000620A4946304606F023FCBDE8F08770B54B
:100EE000044604F1740304F15002E16E206800F03E
:100EF000C8FA216F206800F070F994F85000401E85
:100F0000C5B204F1940050F825102046FFF749FDC2
:100F100070BD10B50446A088B0F5807F32D006DCE5
:100F200001280CD0102813D0112870D119E0A0F29C
:100F3000011080B30F2840D0102868D14EE0042360
:100F400004F18C0204F13801206800F05BF95EE0E6
:100F5000022304F17C0204F12001206800F052F920
:100F600055E0022304F17C0204F12001206800F026
:100F700049F9042304F18C0204F13801206800F0DF
:100F800041F944E0012304F1840204F108012068DE
:100F900000F038F93BE0FFE7012304F1840204F19B
:100FA0000801206800F02EF9042304F18C0204F1FA
:100FB0003801206800F026F929E0012304F18402B9
:100FC00004F10801206800F01DF9022304F17C02FD
:100FD00004F12001206800F015F918E0012304F164
:100FE000840204F10801206800F00CF9022304F1E6
:100FF0007C0204F12001206800F004F9042304F1CC
:101000008C0204F13801206800F0FCF800BF00BF3A
:1010100010BD417919B1F1EE400AB0EE600A80EDE1
:10102000020A704770B5034608780C2831D2DFE811
:1010300000F030060708091415161722232400BFF4
:1010400000BF00BF441E6406200EC2F3072503F153
:1010500084042554451C62551CE000BF00BF00BF3E
:10106000441F6406200EC2F3072503F17C042554B7
:10107000451C62550EE000BF00BFA0F109046406E4
:10108000200EC2F3072503F18C042554451C62553C
:1010900000BF00BF00BF70BD10B5024800F048FEA1
:1010A00010BD0000480E002010B5024800F040FEC0
:1010B00010BD0000E80D002010B5024800F038FE19
:1010C00010BD0000A80E0020014608781038182333
:1010D000B0FBF3F20848805CC865032A05D90868AC
:1010E0006FF30900001D886503E008686FF30900CD
:1010F0008865886D70470000BE7E000801460020AC
:101100008A6A8B69CBB932B1012A0DD0022A03D089
:10111000032A10D10EE000BFCB6A03F08073B3F155
:10112000807F00D1012007E0CB6AB3F1C07F00D1FE
:10113000012001E000E000BF34E08B69B3F5005FFF
:101140001AD132B1012A07D0022A03D0032A11D1C1
:101150000AE000BF01200EE0CB6A03F08073B3F118
:10116000807F00D1012006E0CB6AB3F1C07F00D1BF
:10117000012000E000BF15E032B1012A05D0022AAB
:1011800004D0032A0CD103E000BF00BF012008E017
:10119000CB6A03F08073B3F1807F00D1012000E0BF
:1011A00000BF00BF704730B50468246824F4802471
:1011B00005682C60046863608468402C04D104686E
:1011C000A2600468E16003E00468A1600468E26072
:1011D00030BD704772B600BFFEE710B5024692F808
:1011E0002030012B01D0022B06D110684069084342
:1011F00014686061002010BD506A40F48020506285
:101200000120F8E7F0B504460D461E4694F820701C
:1012100020688368A86800B900E000BF012F01D0F2
:10122000022F7CD103F0806030B903F0006018B960
:1012300003F08050002873D0C3F30161022905D95F
:10124000606A40F4000060620120F0BD0120884027
:101250003060A86860B9B5F800C0E86840EA4C5C46
:10126000206800F5C07000EB0110C0F800C00FE06E
:10127000D5E901C040EACC00D5F80CC040EA0C002A
:10128000D4F800C00CF5C07C0CEB011CCCF80000BD
:10129000D5F810C0206800F5C07000EB0110C0F850
:1012A00004C0287D01280ED1206800F5C07000EB35
:1012B0000110406840F4807C206800F5C07000EBAD
:1012C0000110C0F804C0D079000692F806C040EAC8
:1012D0000C4092F805C040EA0C2C10794CEA000C46
:1012E000206800F5C07000EB0110C0F80CC0D07889
:1012F000000692F802C040EA0C4092F801C040EAB1
:101300000C2092F800C040EA0C00D4F800C00CF5A4
:10131000C07C0CEB011CCCF80800206801E016E052
:101320000FE000F5C07000EB0110006840F0010C08
:10133000206800F5C07000EB0110C0F800C000206C
:1013400083E7606A40F40010606201207DE7606A14
:1013500040F480206062012077E70000F0B5044689
:101360000A46216894F82050012D01D0022D7ED12B
:10137000424901F50071086840F001000860086802
:1013800020F47C5008600868566A40EA062008602D
:10139000107D00F01F06012000FA06F3C86998438B
:1013A000C861A1F50071D069C8B9D1F80C029843A1
:1013B000C1F80C02908880B2968940EA064601F591
:1013C0001070576940F83760108880B2168940EA7B
:1013D000064601F51070576900EBC7004660D069FA
:1013E000012819D1D1F80C021843C1F80C029088D9
:1013F00080B2168840EA064601F51070576940F839
:101400003760908980B2168940EA064601F510706F
:10141000576900EBC7004660906928B9D1F804020B
:101420009843C1F8040204E0D1F804021843C1F85B
:101430000402106928B9D1F814029843C1F81402C3
:1014400004E0D1F814021843C1F81402106A01280C
:1014500004D1D1F81C021843C1F81C02D1F80002D3
:1014600020F00100C1F800020020F0BDFFE7606A33
:1014700040F4802060620120F7E700000064004033
:10148000704770B5044694F82050012D01D0022D0C
:101490007DD151B92068C06800F0030080B9606A4E
:1014A00040F400106062012070BD2068006900F007
:1014B000030028B9606A40F4001060620120F3E77D
:1014C000206800F5D87000EB0110006800F00400FF
:1014D0009060906840B9206800F5D87000EB01106A
:1014E0000068400D106007E0206800F5D87000EB40
:1014F00001100068C0085060206800F5D87000EB4B
:101500000110006800F00200D060206800F5D8707B
:1015100000EB0110406800F00F001061206800F53A
:10152000D87000EB0110406800F47F40000A906121
:10153000206800F5D87000EB01104068000C506185
:10154000206800F5D87000EB0110806818702068E2
:1015500000F5D87000EB0110806800F47F40000AAD
:101560005870206800F5D87000EB0110806800F416
:101570007F00000C9870206800F5D87000EB011017
:101580008068000ED870206800F5D87000E02FE069
:1015900000EB0110C0681871206800F5D87000EBEE
:1015A0000110C06800F47F40000A5871206800F5FF
:1015B000D87000EB0110C06800F47F00000C987137
:1015C000206800F5D87000EB0110C068000ED871DB
:1015D00031B92068C06840F020002668F06005E05E
:1015E0002068006940F020002668306100205BE739
:1015F000606A40F480206062012055E701460020C7
:1016000091F82020012A01D0022A11D10B689B6891
:1016100003F0806303B1401C0B689B6803F0006318
:1016200003B1401C0B689B6803F0805303B1401C5E
:1016300070472DE9F05F0446002520684669206860
:10164000D0F80490206887682068D0F80CA0206843
:10165000D0F810B02068D0F8188006F001000028FB
:1016600055D007F00100C0B101202168886007F063
:10167000020018B1204600F0EAFA0EE007F004007C
:1016800010B145F4006508E007F0080010B145F41A
:10169000805502E0204600F0D9FA07F48070C8B106
:1016A0004FF480702168886007F4007018B12046FC
:1016B00000F0CFFA0EE007F4806010B145F4005559
:1016C00008E007F4006010B145F4804502E02046D0
:1016D00000F0BEFA07F48030C8B14FF480302168C2
:1016E000886007F4003018B1204600F0B4FA0EE02C
:1016F00007F4802010B145F4004508E007F400200D
:1017000010B145F4803502E0204600F0A3FA06F05F
:10171000080038B10AF0100020B145F4007510201F
:101720002168C86006F0040040B10AF0080028B142
:1017300008202168C860204600F02EFA06F002005A
:1017400038B12068C06800F0030010B1204600F0F6
:1017500025FA06F0400038B10BF0100020B145F436
:10176000806510202168086106F0200040B10BF070
:10177000080028B1082021680861204600F026FAF8
:1017800006F0100038B12068006900F0030010B1C5
:10179000204600F01DFA06F4003040B109F01000B8
:1017A00028B1102021684860204600F01FFA06F496
:1017B000803040B109F0080028B108202168486055
:1017C000204600F049FA06F4004088B309F004000E
:1017D00078B306F4807020B108F0010008B145F03C
:1017E000010506F4007020B108F0020008B145F0D0
:1017F000020506F4806020B108F0040008B145F04D
:10180000040506F40060A0B108F0700088B108F08B
:101810007000402817D006DC10280BD020280CD0F0
:10182000302819D10CE0502810D0602814D110E0D5
:101830001DE019E045F008050FE045F010050CE04B
:1018400045F0200509E045F0400506E045F080053B
:1018500003E045F4807500E000BF00BF20688069A8
:1018600020F07000216888610420216848602DB153
:10187000606A284360622046FFF702FEBDE8F09FE1
:1018800070B504460CB9012070BD94F8200010B961
:10189000204600F0AFF82068006840F001002168A1
:1018A000086000F047FD05460DE000F043FD401BD9
:1018B0000A2808D9606A40F400306062052084F884
:1018C00020000120E0E72068406800F001000028C7
:1018D000EBD02068006820F002002168086000F06A
:1018E00029FD05460DE000F025FD401B0A2808D91A
:1018F000606A40F400306062052084F82000012016
:10190000C2E72068406800F002000028EBD1207E8A
:10191000012806D12068006840F080002168086036
:1019200005E02068006820F0800021680860607E83
:10193000012806D12068006840F040002168086056
:1019400005E02068006820F0400021680860A07E63
:10195000012806D12068006840F020002168086056
:1019600005E02068006820F0200021680860E07E23
:10197000012806D12068006820F010002168086066
:1019800005E02068006840F0100021680860207FB2
:10199000012806D12068006840F00800216808602E
:1019A00005E02068006820F0080021680860607F7A
:1019B000012806D12068006840F004002168086012
:1019C00005E02068006820F0040021680860D4E980
:1019D0000201084321690843616908436168491E9F
:1019E00008432168C86100206062012084F820005B
:1019F000002049E710B586B00446142101A8FEF77F
:101A00003BFC5F492068884251D15E480068401C19
:101A10005C4908600846006801280FD100BF00201B
:101A200000905948006840F0007057490860084627
:101A3000006800F00070009000BF00BF00BF0020F1
:101A4000009051481038006840F008004E491039A5
:101A500008600846006800F00800009000BF00BF62
:101A600003200190022002900020039003200490A4
:101A70000920059001A9454800F04EFB00221146BF
:101A8000132000F0E1FC132000F0CEFC00221146F0
:101A9000142000F0D9FC142000F0C6FC00221146EE
:101AA000152000F0D1FC152000F0BEFC65E038499F
:101AB0002068884261D100BF002000903248006851
:101AC00040F08060304908600846006800F080609F
:101AD000009000BF00BF2B480068401C29490860E7
:101AE0000846006801280FD100BF0020009026485A
:101AF000006840F00070244908600846006800F063
:101B00000070009000BF00BF00BF002000901E4882
:101B10001038006840F002001B4910390860084680
:101B2000006800F00200009000BF00BF4FF440507A
:101B300001900220029000200390032004900920CD
:101B4000059001A9134800F0E7FA002211463F2052
:101B500000F07AFC3F2000F067FC00221146402094
:101B600000F072FC402000F05FFC00221146412092
:101B700000F06AFC412000F057FC06B010BD0000E8
:101B8000006400400000002040380240000C024089
:101B900000680040000402407047000010B5044691
:101BA0000648844202D10648FFF799F90548844265
:101BB00002D10548FFF793F910BD0000640B002027
:101BC000680500208C0B0020F80000207047000002
:101BD00010B504460348844202D1034805F040F999
:101BE00010BD0000640B0020D0070020704770B5C6
:101BF000044694F82000012822D1022084F8200015
:101C00002068006820F001002168086000F092FB65
:101C100005460DE000F08EFB401B0A2808D9606ADB
:101C200040F400306062052084F82000012070BD7F
:101C30002068406800F001000028EBD16062F6E700
:101C4000606A40F4002060620120F0E7704770474E
:101C50007047704770477047704770B50446A56D70
:101C600000F068FB064694F83500022808D0802072
:101C7000606500BF002084F8340000BF012070BD03
:101C80002068006820F0160021680860206840691C
:101C900020F0800021684861206C08B9A06C28B150
:101CA0002068006820F0080021680860206800684B
:101CB00020F001002168086010E000F03BFB801B71
:101CC00005280BD920206065032084F8350000BF6B
:101CD000002084F8340000BF0320D0E720680068AB
:101CE00000F001000028E8D194F85C103F20884003
:101CF000A860012084F8350000BF002084F834007B
:101D000000BF00BFBBE7014691F83500022803D0B1
:101D10008020486501207047052081F8350008685B
:101D2000006820F001000A6810600020F3E700005E
:101D3000F8B50446002000908C4800684FF4165116
:101D4000B0FBF1F7A56D2E6894F85C100820884070
:101D5000304098B12068006800F0040070B120683D
:101D6000006820F004002168086094F85C100820E6
:101D70008840A860606D40F00100606594F85C10D8
:101D800001208840304068B12068406900F0800040
:101D900040B194F85C1001208840A860606D40F06C
:101DA0000200606594F85C1004208840304068B1FF
:101DB0002068006800F0020040B194F85C10042034
:101DC0008840A860606D40F00400606594F85C1085
:101DD00010208840304078B32068006800F0080088
:101DE00050B394F85C1010208840A8602068006808
:101DF00000F4802080B12068006800F4002028B939
:101E0000206CC8B12046216C884715E0A06C98B1C1
:101E10002046A16C88470FE02068006800F48070BD
:101E200028B92068006820F0080021680860206C4C
:101E300010B12046216C884794F85C10202088401F
:101E40003040002865D02068006800F010000028AD
:101E50005FD094F85C1020208840A86094F835008A
:101E6000052828D12068006820F016002168086045
:101E70002068406920F0800021684861206C08B922
:101E8000A06C28B12068006820F008002168086074
:101E900094F85C103F208840A860012084F8350049
:101EA00000BF002084F8340000BF206D10B1204630
:101EB000216D8847F8BD2068006800F4802080B15B
:101EC0002068006800F4002028B9606C10B120463A
:101ED000616C88471DE0E06BD8B12046E16B884714
:101EE00017E02068006800F4807068B92068006816
:101EF00020F0100021680860012084F8350000BF40
:101F0000002084F8340000BFE06B10B12046E16B84
:101F10008847606D38B3606D00F00100F0B10520B6
:101F200084F835002068006820F00100216808600E
:101F300000BF0098401C0090B84200D905E020681E
:101F4000006800F001000028F3D100BF012084F8F0
:101F5000350000BF002084F8340000BFE06C10B1F1
:101F60002046E16C884700BFA4E700001000002075
:101F70002DE9F0410446002500F0DCF9074614B9CC
:101F80000120BDE8F081606A00B100BF022084F842
:101F9000350000BF002084F8340000BF20680068CE
:101FA00020F00100216808600AE000F0C3F9C01BBE
:101FB000052805D920206065032084F83500E0E776
:101FC0002068006800F001000028EED12068056854
:101FD00021480540D4E901010843E168084321692B
:101FE000084361690843A1690843E1690843216A1C
:101FF00008430543606A042803D1D4E90B01084370
:102000000543206805602068456925F00705606A7A
:102010000543606A04280DD1A06A0543E06A48B10F
:102020002046FFF76BF828B140206065012084F856
:102030003500A6E7206845612046FFF745F80646CB
:1020400094F85C103F208840B0600020606501205B
:1020500084F83500002094E73F8010F02DE9F04728
:1020600004460D4616461F464FF00008D4F8589017
:1020700000BF94F83400012802D10220BDE8F087A7
:10208000012084F8340000BF94F83500012825D1E0
:10209000022084F83500002060653B463246294620
:1020A0002046FFF780F894F85C103F208840C9F87C
:1020B00008002068006840F0160021680860206C65
:1020C00028B12068006840F0080021680860206896
:1020D000006840F001002168086006E000BF0020B1
:1020E00084F8340000BF4FF002084046C6E7000005
:1020F00070B5044600F01EF906462546681C10B16E
:1021000004480078054400BF00F014F9801BA84281
:10211000FAD370BD0C000020F8B502460B4600252E
:10212000002400200021E0E0012606FA01F51E68E7
:1021300006EA0504AC4274D11E7906F00306012EAE
:1021400004D01E7906F00306022E13D190684F00CA
:102150000326BE40B0434F00DE68BE40304390606F
:10216000506801268E40B0431E79C6F300168E409B
:10217000304350601E7906F00306032E09D0D06864
:102180004F000326BE40B0434F009E68BE40304320
:10219000D0601E7906F00306022E13D1CF0802F19B
:1021A000200656F827004E07F70E0F26BE40B04314
:1021B0004F07FF0E1E69BE403043CF0802F12006D4
:1021C00046F8270010684F000326BE40B0431E7932
:1021D00006F003064F00BE40304310605E6806F410
:1021E0004036002E1DD000BF00260096414E3668B6
:1021F00046F480463F4F3E603E46366806F48046D1
:10220000009600BF00BF3C4E8F0856F827008E078F
:10221000370F0F26BE40B043384EB24202D10026DF
:102220002EE061E0364EB24201D1012628E0354E63
:10223000B24201D1022623E0334EB24201D103263D
:102240001EE0324EB24201D1042619E0304EB242B5
:1022500001D1052614E02F4EB24201D106260FE02F
:102260002D4EB24201D107260AE02C4EB24201D1D6
:10227000082605E02A4EB24201D1092600E00A26CE
:102280008F073F0FBE4030431B4E8F0846F8270094
:10229000244E3068A0435E6806F4801606B12043E1
:1022A000204E3060361D3068A0435E6806F400168C
:1022B00006B120431B4E361D30601A4E361F306863
:1022C000A0435E6806F4003606B12043154E361F63
:1022D0003060361F3068A0435E6806F4803606B171
:1022E0002043104E083E3060491C1029FFF41CAFFB
:1022F000F8BD0000443802400838014000000240A8
:102300000004024000080240000C0240001002409D
:102310000014024000180240001C0240002002404D
:1023200000240240083C01400AB1816101E00B0435
:102330008361704701480068704700000400002076
:102340000348006803490978084401490860704758
:10235000040000200C00002010B50D48006840F477
:1023600000700B4908600846006840F4806008600F
:102370000846006840F480700860032000F0A2F86E
:102380000F2000F007F800F02BF8002010BD00002F
:10239000003C024070B504460E4800784FF47A7154
:1023A000B1FBF0F00C490968B1FBF0F5284600F0EC
:1023B00071FC08B1012070BD102C07D2002221460B
:1023C000501E00F041F80548046001E00120F2E7EA
:1023D0000020F0E70C000020100000200800002082
:1023E00008B500BF002000900E48006840F480400F
:1023F0000C4908600846006800F48040009000BF67
:1024000000BF00BF00200090081F006840F080500F
:10241000091F08600846006800F08050009000BF67
:1024200000BF08BD4438024001460846002809DBC9
:1024300000F01F0301229A4043099B0003F1E023AF
:10244000C3F8002100BF70472DE9F05F80460D46BC
:102450001646002702F050FC074639462A46334606
:1024600001F00700C0F1070ABAF1040F02D94FF0DA
:10247000040A01E0C0F1070AD14600F1040ABAF1EA
:10248000070F02D24FF0000A01E0A0F1030AD44680
:102490004FF0010A0AFA09FAAAF1010A0AEA020A45
:1024A0000AFA0CFA4FF0010B0BFA0CFBABF1010B23
:1024B0000BEA030B4AEA0B042146404602F024FCD7
:1024C000BDE8F09F00BF00F00702064B19684FF609
:1024D000FF031940044B0B4343EA0221014B1960EF
:1024E00000BF70470CED00E00000FA0538B500248D
:1024F00000BF002000901D48006840F080501B493C
:1025000008600846006800F08050009000BF00BFDF
:10251000012017490864FFF70DFF044607E0FFF7A5
:1025200009FF001BB0F57A7F01D9032038BD11489F
:10253000406800F48030B0F5803FF0D101200C49B4
:102540004864FFF7F7FE044607E0FFF7F3FE001BC1
:10255000B0F57A7F01D90320E8E70648406800F427
:102560000030B0F5003FF0D10020DFE740380240F6
:1025700000000E420070004070B504460D460CB9D4
:10258000012070BD5848006800F00F00A84209D231
:1025900055490D700846006800F00F00A84201D0B0
:1025A0000120EEE7207800F0020002281DD12078FB
:1025B00000F00400042805D14C48006840F4E050C5
:1025C0004A490860207800F00800082805D14748EB
:1025D000006840F46040454908604448006820F0C5
:1025E000F000A168084341490860207800F001002C
:1025F000A8B36068012807D13C4808380068C0F3D8
:102600004040B8B90120BCE76068022802D0606889
:10261000032807D1354808380068C0F3406048B93E
:102620000120AEE7314808380068C0F3400008B91F
:102630000120A6E72D48006820F0030061680843E8
:102640002A490860FFF776FE064609E0FFF772FEAA
:10265000801B41F28831884202D9032091E707E0CC
:102660002248006800F00C006168B0EB810FEDD1EA
:102670001D48006800F00F00A84209D91A490D70E2
:102680000846006800F00F00A84201D0012078E75A
:10269000207800F00400042807D11448006820F4D2
:1026A000E050E168084311490860207800F0080014
:1026B000082808D10D48006820F46040216940EAEC
:1026C000C1000A49086000F03FF808490968C1F3F1
:1026D0000311074A515CC840064908600648006873
:1026E000FFF758FE00204CE7003C0240083802404B
:1026F000C67E000810000020080000200148006885
:10270000704700001000002000B5FFF7F7FF0449F4
:102710000968C1F38221034A515CC84000BD000032
:1027200008380240D67E000800B5FFF7E7FF0449ED
:102730000968C1F34231034A515CC84000BD000042
:1027400008380240D67E00082DE9F0470024002515
:102750000026A1462548006800F00C0020B104289E
:1027600005D008283AD105E0DFF8849039E0DFF899
:10277000849036E01D48001F006800F03F041B48AD
:10278000001F006800F4800078B11A481749091F3B
:102790000968C1F38811A0FB01700146224600239D
:1027A0003846FDF71FFD05460EE011480F49091F89
:1027B0000968C1F38811A0FB01700146224600237D
:1027C0003846FDF70FFD05460848001F0068C0F3B6
:1027D0000140401C4600B5FBF6F902E0DFF810901E
:1027E00000BF00BF4846BDE8F0870000083802403F
:1027F0000024F400001BB700F8B504460CB9012012
:10280000F8BD207800F00100002874D0F948006875
:1028100000F00C0004280DD0F648006800F00C0011
:10282000082813D1F348001F006800F48000B0F5B9
:10283000800F0BD1EF4808380068C0F340400028F3
:1028400059D06068002856D10120D9E700BF6068E0
:10285000B0F5803F08D1E7480838006840F4803080
:10286000E449083908601EE06068B0F5A02F0DD17A
:10287000E0480838006840F48020DE4908390860E4
:102880000846006840F4803008600CE0D9480838F9
:10289000006820F48030D74908390860084600688D
:1028A00020F48020086000BF606890B1FFF742FD0F
:1028B000054606E0FFF73EFD401B642801D90320D2
:1028C0009EE7CC4808380068C0F340400028F1D0AB
:1028D00011E0FFF72FFD054606E0FFF72BFD401B3B
:1028E000642801D903208BE7C24808380068C0F388
:1028F00040400028F1D1207800F0020002285FD18A
:10290000BC48006800F00C0058B1BA48006800F0FC
:102910000C0008281CD1B748001F006800F4800094
:10292000B0B9B44808380068C0F3400020B1E0688E
:10293000012801D0012063E7AE480838006820F084
:10294000F800216940EAC100AA490839086037E067
:10295000E06800B30120A8490860FFF7EBFC0546DA
:1029600006E0FFF7E7FC401B022801D9032047E7F8
:10297000A04808380068C0F340000028F1D09D4806
:102980000838006820F0F800216940EAC100994940
:102990000839086014E0002097490860FFF7CAFC76
:1029A000054606E0FFF7C6FC401B022801D90320BC
:1029B00026E7904808380068C0F340000028F1D1AD
:1029C000207800F0080008282CD16069A8B1012007
:1029D0008A490860FFF7AEFC054606E0FFF7AAFC4F
:1029E000401B022801D903200AE782486C300068A6
:1029F000C0F340000028F1D014E000207F490860B7
:102A0000FFF798FC054606E0FFF794FC401B022800
:102A100001D90320F4E677486C300068C0F3400029
:102A20000028F1D1207800F00400042870D100279C
:102A300070483830006800F0805090B900BF002026
:102A400000906C483830006840F080506949383157
:102A500008600846006800F08050009000BF00BF8A
:102A600001276748006800F48070B0B964480068C6
:102A700040F4807062490860FFF75CFC054606E0A0
:102A8000FFF758FC401B022801D90320B8E65C4838
:102A9000006800F480700028F2D000BFA068012810
:102AA00008D154486830006840F00100514968314D
:102AB00008601DE0A06805280DD14E486830006808
:102AC00040F004004B49683108600846006840F057
:102AD000010008600CE047486830006820F0010001
:102AE0004449683108600846006820F00400086026
:102AF00000BFA068A8B1FFF71DFC054609E0FFF77D
:102B000019FC401B41F28831884202D9032077E644
:102B100026E0384868300068C0F340000028EED056
:102B200013E0FFF707FC054608E0FFF703FC401B36
:102B300041F28831884201D9032061E62D4868308E
:102B40000068C0F340000028EFD1012F07D12948C9
:102B50003830006820F0805026493831086000BFC6
:102B6000A069002845D02348006800F00C00082820
:102B70005DD0A069022845D100201F490866FFF7F3
:102B8000D9FB054606E0FFF7D5FB401B022801D91B
:102B9000032035E6174808380068C0F34060002875
:102BA000F1D1D4E907010843616A40EA81110122A9
:102BB000A06AC2EB500041EA00412C20005D41EACE
:102BC00000600C49091F086001200B490866FFF7E7
:102BD000B1FB054606E0FFF7ADFB401B022801D91B
:102BE00003200DE6034808380068C0F34060002861
:102BF000F1D049E00838024000004742800E4742C9
:102C000000700040002021490866FFF793FB05464D
:102C100006E0FFF78FFB401B022801D90320EFE5F8
:102C20001B480068C0F340600028F2D12CE0A06986
:102C3000012800D1E4E51648001D0668A0690128B6
:102C400020D006F48001E06981421BD106F03F01EB
:102C5000206A814216D147F6C0703040616AB0EBFD
:102C6000811F0FD106F440310122A06AC2EB50004F
:102C7000B1EB004F06D106F070612C20005DB1EB86
:102C8000006F01D00120BBE50020B9E500004742FC
:102C90000038024070B504462546681EB0F1807FBA
:102CA00001D301200FE0681E4FF0E02148610F21A1
:102CB0004FF0FF3002F028F800204FF0E02188614B
:102CC00007200861002070BD7047704710B50446AA
:102CD0000CB9012010BD94F83D0028B9002084F8FB
:102CE0003C00204600F026F8022084F83D00211D1B
:102CF000206801F03DFB012084F8460000BF84F805
:102D00003E0001213F200155402001554120015541
:102D100000BF00BF012084F8420043200155442039
:102D200001554520015500BF012084F83D000020D9
:102D3000D0E7000038B504464B492068884218D1D6
:102D400000BF002000904948006840F40030474927
:102D500008600846006800F40030009000BF00BF23
:102D6000002211461920FFF76FFB1920FFF75CFBCB
:102D700078E03F492068884218D100BF00200090C9
:102D80003A48006840F480203849086008460068E6
:102D900000F48020009000BF00BF002211461A20DE
:102DA000FFF752FB1A20FFF73FFB5BE03149206839
:102DB00088421AD100BF002000902C48001F0068F4
:102DC00040F040002949091F08600846006800F0EB
:102DD0004000009000BF00BF002201212B20FFF720
:102DE00033FB2B20FFF720FB3CE02349206888427F
:102DF0001AD100BF002000901C48001F006840F05E
:102E000080001A49091F08600846006800F0800029
:102E1000009000BF00BF002211462C20FFF714FBDA
:102E20002C20FFF701FB1DE014492068884219D1CE
:102E300000BF002000900D48001F006840F4807023
:102E40000A49091F08600846006800F48070009075
:102E500000BF00BF002211462D20FFF7F5FA2D20FC
:102E6000FFF7E2FA38BD0000004401404438024058
:102E70000048014000180040001C004000200040B5
:102E8000014691F83D00012801D001207047022041
:102E900081F83D000868C06840F001000B68D86008
:102EA0001A4B086898421BD00868B0F1804F17D0C1
:102EB000174B0868984213D0164B086898420FD0F9
:102EC000154B086898420BD0144B0868984207D0FD
:102ED000134B0868984203D0124B086898420CD1F3
:102EE0000868806800F00702062A0CD008680068AD
:102EF00040F001000B68186005E00868006840F0C9
:102F000001000B6818600020C0E7000000000140CD
:102F10000004004000080040000C00400004014094
:102F200000400140001800402DE9F04104460D46E4
:102F3000002700BF94F83C00012802D10220BDE820
:102F4000F081012084F83C0000BF022084F83D009D
:102F50002068866826F0770626F47F46206886601B
:102F60002868502833D00CDC202850D004DC0028FE
:102F70004BD0102851D149E0302849D040284CD1BD
:102F800039E060282DD0702807D0B0F5805F03D0DD
:102F9000B0F5005F41D10DE041E0D5E902136A6868
:102FA000206801F051FA2068866846F077062068AC
:102FB000866034E0D5E902136A68206801F044FABB
:102FC0002068806840F480402168886027E0EA68D3
:102FD0006968206801F04CFA5021206801F03FFA3E
:102FE0001DE0EA686968206801F055FA60212068F0
:102FF00001F035FA13E0EA686968206801F038FAF0
:103000004021206801F02BFA09E000BF00BF00BF9B
:103010002968206801F023FA01E0012700BF00BF02
:10302000012084F83D0000BF002084F83C0000BF70
:10303000384684E7704710B5044620680069C0F33D
:103040004000D8B12068C068C0F34000B0B16FF054
:10305000020021680861012020772068806900F063
:10306000030018B12046FFF7E5FF05E0204600F019
:10307000ADF8204600F0ABF800202077206800690A
:10308000C0F38000D8B12068C068C0F38000B0B140
:103090006FF00400216808610220207720688069B1
:1030A00000F4407018B12046FFF7C4FF05E0204649
:1030B00000F08CF8204600F08AF800202077206885
:1030C0000069C0F3C000D8B12068C068C0F3C00078
:1030D000B0B16FF0080021680861042020772068F3
:1030E000C06900F0030018B12046FFF7A3FF05E018
:1030F000204600F06BF8204600F069F800202077A9
:1031000020680069C0F30010D8B12068C068C0F31F
:103110000010B0B16FF0100021680861082020771E
:103120002068C06900F4407018B12046FFF782FFA4
:1031300005E0204600F04AF8204600F048F800205C
:1031400020772068006900F0010058B12068C0684D
:1031500000F0010030B16FF00100216808612046E5
:1031600000F036F820680069C0F3C01058B120683C
:10317000C068C0F3C01030B16FF0800021680861F2
:103180002046FFF7A1FD20680069C0F3801058B108
:103190002068C068C0F3801030B16FF04000216833
:1031A0000861204600F06EF820680069C0F3401006
:1031B00058B12068C068C0F3401030B16FF02000F3
:1031C000216808612046FFF780FD10BD70477047F9
:1031D00070B504462148844206D144F201030C2212
:1031E0001F49204803F0FAFE1F48844201D101F034
:1031F0000DFD1E48844204D104F06EFC184800F016
:10320000D7FF1B48844202D1164803F06FFF1948CC
:10321000844221D11848FDF711FC05B21748D0EDC2
:10322000031AB0EE611AD0ED021AF0EE610AD0ED89
:10323000011AB0EE610A2946114803F039F90F4826
:1032400001780F4803F0A3F80D490868FDF726FD43
:103250000B490868FDF75DFE70BD0000B40B00204F
:10326000580B0020D0070020FC0B0020440C00204D
:103270008C0C0020D40C0020280600204C180020C4
:10328000140700207047000070B504460D46214623
:10329000014800F0C3FE70BD2C0B002010B50446A1
:1032A0002146024800F0A1FE10BD00002C0B0020BA
:1032B0002DE9F84F0446206805682068C668206834
:1032C00047694FF00009CA4605F00F09B9F1000F30
:1032D0000AD105F0200038B106F0200020B12046C8
:1032E00001F0E0F9BDE8F88FB9F1000F7CD007F0EC
:1032F000010018B906F49070002875D005F001009F
:1033000030B106F4807018B1206C40F001002064E8
:1033100005F0040030B107F0010018B1206C40F056
:103320000200206405F0020030B107F0010018B17E
:10333000206C40F00400206405F0080048B106F05D
:10334000200010B907F0010018B1206C40F008000F
:103350002064206C002846D005F0200028B106F03B
:10336000200010B1204601F09DF920684069C0F3AB
:10337000801A206C00F0080010B9BAF1000F2DD0AF
:10338000204601F036F92068406900F040004028EE
:1033900020D100BF00BF2168143151E8001F21F087
:1033A00040002168143141E80002002AF3D100BF37
:1033B000A06B50B17548A16B0865A06BFEF7A3FC2C
:1033C00088B1A06B016D88470DE02046FFF766FFCE
:1033D00009E009E02046FFF761FF04E02046FFF71F
:1033E0005DFF002020647DE7206B012876D105F089
:1033F0001000002872D006F010000028FAD000BF9C
:1034000000200090206800680090206840680090CC
:1034100000BF00BF2068406900F0400040285ED136
:10342000A06B006840681FFA80F8B8F1000F54D014
:10343000A08D404551DDA4F82E80A06BC069B0F589
:10344000807F43D000BF00BF21680C3151E8001FCE
:1034500021F4807021680C3141E80002002AF3D188
:1034600000BF00BF00BF2168143151E8001F21F0E8
:1034700001002168143141E80002002AF3D100BFA5
:1034800000BF00BF2168143151E8001F21F0400047
:103490002168143141E80002002AF3D100BF202046
:1034A00084F83E000020206300BF00BF21680C317B
:1034B00051E8001F21F0100021680C3141E80002A2
:1034C000002AF3D100BFA06BFEF7C7FBA08DE28DF1
:1034D000801A81B22046FFF7D7FE03E740E0A08DB7
:1034E000E18D401A1FFA80F8E08DC0B3B8F1000FEB
:1034F00035D000BF00BF21680C3151E8001F21F416
:10350000907021680C3141E80002002AF3D100BF1D
:1035100000BF00BF2168143151E8001F21F00100F5
:103520002168143141E80002002AF3D100BF2020B5
:1035300084F83E000020206300BF00BF21680C31EA
:1035400051E8001F21F0100021680C3141E8000211
:10355000002AF3D100BF41462046FFF795FEC1E6A1
:1035600005F0800030B106F0800018B1204601F06F
:1035700093FAB7E605F0400030B106F0400018B10C
:10358000204601F06CF8ADE600BFABE6BF44000892
:1035900010B504460CB9012010BDA06900B100E0CF
:1035A00000BF94F83D0028B9002084F83C00204674
:1035B00000F028F8242084F83D002068C06820F43A
:1035C00000502168C860204601F0E8F820680069D2
:1035D00020F49040216808612068406920F02A00AA
:1035E000216848612068C06840F400502168C860C4
:1035F00000202064202084F83D0084F83E00002054
:10360000CAE7000010B586B00446142101A8FCF7F3
:1036100033FE8A492068884258D100BF00200090BC
:103620008748006840F01000854908600846006837
:1036300000F01000009000BF00BF00BF002000900D
:103640007F481438006840F002007D491439086052
:103650000846006800F00200009000BF00BFC020D4
:103660000190022002900020039003200490072084
:10367000059001A97348FEF74FFD73487349086030
:103680004FF000604860002170488160C1604FF4D5
:1036900080610161002141618161C1614FF440316C
:1036A000016200214162FEF763FC08B1FDF792FD63
:1036B00000BF6648A063846300BF00221146252036
:1036C000FEF7C2FE2520FEF7AFFEB5E06049206898
:1036D000884232D100BF002000905948001F006886
:1036E00040F400305649091F08600846006800F49D
:1036F0000030009000BF00BF00BF00200090504885
:103700001438006840F008004D4914390860084634
:10371000006800F00800009000BF00BF602001902A
:1037200002200290002003900320049007200590BF
:1037300001A94848FEF7F0FC7EE04749206888422E
:103740007AD100BF002000903D48006840F0200082
:103750003B4908600846006800F02000009000BF68
:1037600000BF00BF0020009035481438006840F0CA
:1037700040003349143908600846006800F04000F2
:10378000009000BF00BF4FF48440019002200290DF
:1037900000200390032004900820059001A92F48E1
:1037A000FEF7BAFC284818382D49086080054860A3
:1037B00000212B488160C1604FF4806101610021CC
:1037C00041618161C1614FF40031016200214162B8
:1037D000FEF7CEFB08B1FDF7FDFC00BF2048A0635B
:1037E000846300BF184860301E4908604FF02060B5
:1037F000486040211B4881600021C1604FF4806116
:103800000161002141618161C1614FF48031016238
:1038100000214162FEF7ACFB08B1FDF7DBFC00BF05
:1038200010486063846300BF002211464720FEF702
:103830000BFE4720FEF7F8FD06B010BD001001405A
:10384000443802400004024040640240E80D002079
:1038500000440040000C02400014014000180240E7
:10386000480E0020A80E002070B504460D461646EE
:1038700094F83E00202816D105B10EB9012070BD84
:1038800000BF94F83C00012801D10220F7E7012095
:1038900084F83C0000BF00202063324629462046C1
:1038A00001F092F8EBE70220E9E7000010B50446CA
:1038B0002146024800F0CCFB10BD00002C0B00207C
:1038C00070472DE9F84F04460E46174699464FF0CB
:1038D000000A94F83D0020285AD106B117B90120FA
:1038E000BDE8F88F00BF94F83C00012801D1022008
:1038F000F6E7012084F83C0000BF0020206421206E
:1039000084F83D00FEF716FD8246A784E784A06890
:10391000B0F5805F04D1206910B90025B04602E0FF
:1039200035464FF0000800BF002084F83C0000BF7F
:103930001BE05346002280212046CDF8009001F084
:10394000DBF808B10320CBE745B9B8F80000C0F3B5
:1039500008002168486008F1020803E0287821681F
:1039600048606D1CE08C401EE084E08C0028E0D1B3
:103970005346002240212046CDF8009001F0BCF8CB
:1039800008B10320ACE7202084F83D000020A7E721
:103990000220A5E7704700BFFEE7000010B50F4802
:1039A0000F4908600520486000210D488160C16012
:1039B0004FF400310161490141610021017601218B
:1039C0004176002181760121C1760021017741777E
:1039D000FDF756FF08B1FDF7FDFB10BD0064004088
:1039E000640B002010B50F480F490860052048609F
:1039F00000210D488160C1604FF40031016149012F
:103A00004161002101760121417600218176012169
:103A1000C176002101774177FDF732FF08B1FDF74C
:103A2000D9FB10BD006800408C0B002008B500BF1A
:103A3000002000901248006840F48000104908609F
:103A40000846006800F48000009000BF00BF00221C
:103A500011463920FEF7F8FC3920FEF7E5FC00227C
:103A600011463A20FEF7F0FC3A20FEF7DDFC00227A
:103A700011464520FEF7E8FC4520FEF7D5FC08BDC1
:103A80003038024000B587B0142102A8FCF7F4FBDF
:103A900000BF002001903548006840F040003349E5
:103AA00008600846006800F04000019000BF00BFB9
:103AB00000BF002001900846006840F00100086047
:103AC0000846006800F00100019000BF00BF00BF81
:103AD000002001900846006840F002000860084697
:103AE000006800F00200019000BF00BF00BF00208E
:103AF00001900846006840F0080008600846006829
:103B000000F00800019000BF00BF00BF002001903E
:103B10000846006840F0040008600846006800F0AD
:103B20000400019000BF00BF00BF002001900846C4
:103B3000006840F0800008600846006800F08000DF
:103B4000019000BF00BF01223C210948FEF7ECFBB9
:103B50003C20029001200390002004900320059057
:103B600002A90348FEF7D8FA07B000BD303802407A
:103B7000001C024010B50A480A49086053204860FA
:103B800000210848816040F2CF71C16000210161CD
:103B90008161FFF79BF808B1FDF71CFB10BD000029
:103BA00000440140B40B002010B50A480A490860DF
:103BB00040F24730486000210748816042F20F71AF
:103BC000C160002101618161FFF780F808B1FDF754
:103BD00001FB10BD00480140FC0B00201FB5002078
:103BE00000900190029003900E480F490860B420A5
:103BF000486000210C48816042F20F71C1600021D1
:103C000001618161FFF762F808B1FDF7E3FA4FF453
:103C10008050009069460448FFF786F908B1FDF727
:103C2000D9FA1FBD00180040440C002010B50A4806
:103C30000A4908601B20486000210848816040F262
:103C4000CF71C160002101618161FFF73FF808B1C8
:103C5000FDF7C0FA10BD0000001C00408C0C0020D5
:103C600010B50A480A490860B42048600021084895
:103C7000816040F2CF71C1600021016180218161CA
:103C8000FFF724F808B1FDF7A5FA10BD00200040A9
:103C9000D40C002010B50C480C4908600C48486052
:103CA0004FF48051094881600021C1604FF4806168
:103CB00001610C21416100218161C161FFF768FC54
:103CC00008B1FDF787FA10BD001001401C0D00205F
:103CD000A086010010B50B480B4908604FF4E13095
:103CE0004860002108488160C16001610C21416188
:103CF00000218161C161FFF74BFC08B1FDF76AFA51
:103D000010BD000000440040600D002010B50B48BD
:103D10000B4908604FF4E130486000210848816099
:103D2000C16001610C21416100218161C161FFF726
:103D30002FFC08B1FDF74EFA10BD00000014014041
:103D4000A40D002000BFFEE700BFFEE7B0EE401A62
:103D500010B99FED790A704790ED100A80ED110AB5
:103D600090ED0F0A80ED100AC0ED060A80ED071AEB
:103D700030EEC10A80ED0F0A017811B1012974D12A
:103D800074E090ED010AD0ED0F1A20EE210A80EDCB
:103D9000090A90ED0A0AD0ED021A90ED0F2A01EE01
:103DA000820A80ED0A0A90ED0D0A80ED0E0A90ED70
:103DB0000C0A80ED0D0A90ED0F0AD0ED101A30EECE
:103DC000610A80ED0C0A90ED030AD0ED0C1A20EE8A
:103DD000210A80ED0B0A90ED0A0AD0ED051AB4EE27
:103DE000E10AF1EE10FA04DD90ED050A80ED0A0A11
:103DF00010E090ED0A0AD0ED051AF1EE611AB4EE6A
:103E0000E10AF1EE10FA05D290ED050AB1EE400A92
:103E100080ED0A0A90ED090AD0ED0A1A30EE210A67
:103E2000D0ED0B1A30EE210A80ED080A90ED080A59
:103E3000D0ED041AB4EEE10AF1EE10FA04DD90EDD3
:103E4000040A80ED080A10E090ED080AD0ED041A8B
:103E5000F1EE611AB4EEE10AF1EE10FA05D290ED3E
:103E6000040AB1EE400A80ED080A61E090ED0F0A05
:103E7000D0ED101A30EE610AD0ED011A20EE210AC1
:103E800080ED090A90ED020AD0ED0F1A20EE210A0A
:103E900080ED0A0A90ED0D0A80ED0E0A90ED0C0AF5
:103EA00080ED0D0A90ED0F0AD0ED101AB0EE002A49
:103EB00002EE610AD0ED111A30EE210A80ED0C0AF3
:103EC00090ED030AD0ED0C1A20EE210A80ED0B0ACA
:103ED00090ED090AD0ED0A1A30EE210AD0ED0B1A46
:103EE00030EE210AD0ED081A30EE210A80ED080AE2
:103EF00090ED080AD0ED041AB4EEE10AF1EE10FAE2
:103F000004DD90ED040A80ED080A10E090ED080A47
:103F1000D0ED041AF1EE611AB4EEE10AF1EE10FAF6
:103F200005D290ED040AB1EE400A80ED080A00BF08
:103F300000BF90ED080A0EE70000000000B97047CE
:103F40009FED100A80ED110A80ED100A80ED0F0A36
:103F50009FED0C0A80ED0E0A80ED0D0A80ED0C0A33
:103F60009FED080A80ED0B0A80ED0A0A80ED090A30
:103F700080ED080A9FED030A80ED060A80ED070A2E
:103F800000BFDCE70000000000B102B9704701701B
:103F900092ED001A80ED011A92ED011A80ED021ADD
:103FA00092ED021A80ED031A80ED040AC0ED050AB5
:103FB0009FED0C1A80ED0E1A80ED0D1A80ED0C1A93
:103FC0009FED081A80ED081A80ED0B1A80ED0A1A91
:103FD00080ED091A80ED111A80ED101A80ED0F1A8C
:103FE00000BFD3E700000000704738B504460D4617
:103FF0002068A84211D100BF00200090206800680E
:1040000000680090206800684068009000BF00BF12
:1040100020681222211DFFF727FC38BD70B5044629
:104020000D462068A84204D120681222211DFFF706
:104030001BFC70BDB0F5257F02DB4FF4257003E05B
:1040400010F5257F00DC0148704700006CFDFFFF84
:1040500070B504460D462068A84207D12068122298
:10406000211DFFF701FC204600F001F870BD00B5EE
:1040700002461179507941EA0020C0F30A00D0824B
:104080005079C110907941EA4010C0F30A0102F161
:104090001600118390798111D07941EA8001107A5C
:1040A00041EA8020C0F30A0102F116005183107A20
:1040B0004110507A41EAC010C0F30A0102F1160023
:1040C0009183507AC0F3011120208154507A00115D
:1040D000810882F82110917AD07A41EA002000B25A
:1040E0005084117B507B41EA002001B202F1220092
:1040F0009184917BD07B41EA002001B202F1220041
:10410000D184117C28208154517C29208154917CB8
:10411000D07C41EA00205085117D507D41EA00208D
:1041200001B202F11600D183D08AA0F5806000B2FE
:10413000D082108BA0F5806001B202F116001183CD
:10414000508BA0F5806001B202F116005183908B74
:10415000A0F5806001B202F116009183D08BA0F52A
:10416000806001B202F11600D183B2F91600FFF7A8
:1041700061FFD082B2F91800FFF75CFF02F116016F
:104180001083B2F91A00FFF755FF02F116015083B0
:10419000B2F91C00FFF74EFF02F116019083B2F94D
:1041A0001E00FFF747FF02F11601D08300BD00009B
:1041B0001C494978012903D11B494989418002E002
:1041C0001949898941801749D1F8031000EE101A66
:1041D000F2EE040AB4EEE00AF1EE10FA04D2B3EE05
:1041E000090A80ED020A03E00E49D1F8031081604C
:1041F0000E49098901800D49097803290BD00B4923
:104200000978042907D009490978052903D0074905
:104210000978072902D10021017101E00121017112
:104220007047000039000020E1170020D41700205B
:1042300070B505460C462C601222291D2046FFF75A
:1042400013FB70BD704710B5FEF77AF810BD000083
:1042500000B593B0302107A8FCF70EF8142102A88E
:10426000FCF70AF800BF002001902648006840F0E3
:104270008050244908600846006800F08050019092
:1042800000BF00BF00BF002001901F48006840F43D
:1042900040401D4908600846006800F44040019015
:1042A00000BF00BF012007900004089002200D907D
:1042B00041050E9106210F91B42110910221119117
:1042C0000721129107A8FEF797FA08B1FCF782FFC1
:1042D000FEF70CF908B1FCF77DFF0F2002900220D9
:1042E0000390002004904FF4A05005904FF48050AC
:1042F0000690052102A8FEF73FF908B1FCF76AFF16
:1043000013B000BD40380240007000400348006810
:1043100040F47000014908607047000088ED00E03B
:1043200010B50248FEF787FE10BD0000FC0B002010
:1043300010B50248FEF77FFE10BD0000B40B002050
:1043400010B50248FEF777FE10BD0000440C0020B7
:1043500010B50248FEF76FFE10BD0000D40C00201F
:1043600010B50248FEF767FE10BD00008C0C00205F
:1043700010B50268294B98420ED0B0F1804F0BD097
:10438000274B984208D0274B984205D0264B98429D
:1043900002D0264B984203D122F070024B681A4398
:1043A0001E4B984220D0B0F1804F1DD01C4B98423C
:1043B0001AD01C4B984217D01B4B984214D01B4B61
:1043C000984211D01A4B98420ED01A4B98420BD0FB
:1043D000194B984208D0194B984205D0184B984277
:1043E00002D0184B984203D122F44072CB681A4392
:1043F00022F080034C6943EA040202608B68C362C6
:104400000B688362054B984202D0084B984201D159
:104410000B6903630123436110BD000000000140EC
:104420000004004000080040000C0040000401406F
:104430000040014000440140004801400018004095
:10444000001C00400020004030B50C46816821F47B
:104450007F4142EA032525432943816030BD0A4656
:10446000816821F0700142F00703194381607047B1
:1044700030B50B461446026A056A25F0010505624F
:10448000816921F0F00141EA041122F00A021A4385
:104490008161026230BD30B50B461446056A25F0D5
:1044A000100505628169026A21F4704141EA043114
:1044B00022F0A00242EA03128161026230BD70B5AF
:1044C0000546AC6B0020E085E0842046FEF7E6FE62
:1044D00070BD70B506460025B46B20684069C0F316
:1044E000C01594F83D00212805D125B10020E084B5
:1044F000204600F0C4F820684069C0F3801594F8A5
:104500003E00222805D125B10020E085204600F09C
:1045100070F8206C40F0100020642046FEF7BEFECC
:1045200070BD70B50546AC6B2868006800F48070FB
:10453000002842D1E08500BF00BF21680C3151E85E
:10454000001F21F4807021680C3141E80002002A2C
:10455000F3D100BF00BF00BF2168143151E8001F34
:1045600021F001002168143141E80002002AF3D152
:1045700000BF00BF00BF2168143151E8001F21F0C7
:1045800040002168143141E80002002AF3D100BF45
:10459000202084F83E00206B01280ED100BF00BF10
:1045A00021680C3151E8001F21F0100021680C3106
:1045B00041E80002002AF3D100BF206B012804D19A
:1045C000A18D2046FEF760FE02E02046FFF76EF95F
:1045D00070BD70B50546AC6B206B012805D1A08D70
:1045E00041082046FEF750FE02E02046FFF768F93A
:1045F00070BD00BF00BF02680C3252E8002F22F4E9
:10460000907102680C3242E80013002BF3D100BF16
:1046100000BF00BF0268143252E8002F22F00101EF
:104620000268143242E80013002BF3D100BF016B83
:1046300001290ED100BF00BF02680C3252E8002FE2
:1046400022F0100102680C3242E80013002BF3D173
:1046500000BF202180F83E1000210163704710B593
:1046600004462068C06820F040002168C86020200F
:1046700084F83D002046FFF78DF9002010BD00BFF3
:1046800000BF02680C3252E8002F22F0C00102681D
:104690000C3242E80013002BF3D100BF202180F838
:1046A0003D107047F8B5044694F83E00222873D1B7
:1046B000A068B0F5805F0CD1206950B90025A66ACA
:1046C00020684068C0F308003080A06A801CA062A7
:1046D00015E0A56A0026A068B0F5805F03D0A06849
:1046E00028B9206918B920684068287004E020685B
:1046F000406800F07F002870A06A401CA062E08D36
:10470000401E80B2E085002844D12068C06820F0B7
:1047100020002168C8602068C06820F4807021688B
:10472000C8602068406920F00100216848612020AD
:1047300084F83E00206B012826D10020206300BFB2
:1047400000BF21680C3151E8001F21F010002168E2
:104750000C3141E80002002AF3D100BF2068006854
:1047600000F0100010280AD100BF0020009020683F
:104770000068009020684068009000BF00BFA18DD5
:104780002046FEF781FD02E02046FFF78FF800206B
:10479000F8BD01E00020FBE70220F9E72DE9F84F22
:1047A00004462068006920F44050E168084321680D
:1047B00008612169A068084361690843E169084309
:1047C00000902068C06849F20C6188430099084352
:1047D0002168C8602068406920F44070A1690843DE
:1047E0002168486176492068884203D0754920686D
:1047F000884203D1FDF798FF814602E0FDF784FF70
:104800008146E069B0F5004F6CD102206168A0FBE1
:10481000015003461920A9FB007001462A4638467C
:10482000FBF7E0FC6421B0FBF1F04FEA001A022034
:104830006168A0FB01510B461920A9FB00712A46B3
:104840003846FBF7CFFC834602206168A0FB01508D
:1048500003461920A9FB00712A463846FBF7C2FC23
:104860006421B0FBF1F000EBC00101EB0010ABEBF9
:104870008000322101EBC0006421B0FBF1F000F0B8
:10488000F8000AEB400A02206168A0FB01500346D1
:104890001920A9FB007001462A463846FBF7A2FC06
:1048A000834602206168A0FB015003461920A9FB42
:1048B00000712A463846FBF795FC6421B0FBF1F005
:1048C00000EBC00101EB0010ABEB8000322101EBEB
:1048D000C0006421B0FBF1F000F0070050442168F3
:1048E00088606AE004206168A0FB0150034619203B
:1048F000A9FB007001462A463846FBF773FC824646
:1049000004206168A0FB015003461920A9FB007038
:1049100001462A463846FBF765FC6421B0FBF1F0FE
:1049200000EBC00101EB0010AAEB8000322101EB8B
:1049300000106421B0FBF1F000F0F00A042061687F
:10494000A0FB017003461920A9FB00513A462846F6
:10495000FBF748FC6421B0FBF1F00AEB001A0420DD
:104960006168A0FB01510B461920A9FB00712A4682
:104970003846FBF737FC834604206168A0FB0150F2
:1049800003461920A9FB007001462A463846FBF76A
:1049900029FC6421B0FBF1F000EBC00101EB001039
:1049A000ABEB8000322101EB00106421B0FBF1F091
:1049B00000F00F00504421688860BDE8F88F0000C7
:1049C000001001400014014077B581B0044615463F
:1049D0000298A062A58500202064222084F83E0071
:1049E0002A48A16BC8632A48A16B08642948A16BB7
:1049F000C8640020A16B086502AE32682368191DE7
:104A00002B46A06BFDF72AFB00BF0020009020681A
:104A10000068009020684068009000BF00BF00BFA1
:104A2000002084F83C0000BF206970B100BF00BFC7
:104A300021680C3151E8001F41F4807021680C316D
:104A400041E80002002AF3D100BF00BF00BF216887
:104A5000143151E8001F41F001002168143141E890
:104A60000002002AF3D100BF00BF00BF216814314B
:104A700051E8001F41F040002168143141E8000274
:104A8000002AF3D100BF002004B070BD2345000808
:104A9000D3450008D3440008014691F83D00212881
:104AA00028D18868B0F5805F0BD1086948B90A6AD7
:104AB0001088C0F308000B685860086A801C086200
:104AC00005E00B6A581C086218780B685860C88C9F
:104AD000401E80B2C88458B90868C06820F08000C1
:104AE0000B68D8600868C06840F040000B68D86068
:104AF000002070470220FCE72DE9F04104460D46F6
:104B000017469846069E34E0701C88B32EB1FDF718
:104B100011FCA0EB0800B0422BD900BF00BF2168F8
:104B20000C3151E8001F21F4D07021680C3141E8AC
:104B30000002002AF3D100BF00BF00BF216814317A
:104B400051E8001F21F001002168143141E8000202
:104B5000002AF3D100BF202084F83D0084F83E00F5
:104B600000BF002084F83C0000BF0320BDE8F081B6
:104B7000FFE7206800682840A84201D1012000E03A
:104B80000020B842C0D00020F0E7000010B51C485B
:104B9000007805281FDA1B4800781B49087000249C
:104BA00012E0002000F0FCFE3220FDF7A1FA002008
:104BB00000F0DEFD3220FDF79BFA002000F064FEDD
:104BC0003220FDF795FA641C052CEADB0C480078CE
:104BD000401C0B49087000F06FFF6420FDF788FA55
:104BE00000F0C6FF6420FDF783FA01F01FF864208F
:104BF000FDF77EFA01F076F86420FDF779FA10BD32
:104C0000DC0000204C180020DF00002010B5114807
:104C1000007820B1012807D002280ED109E000F069
:104C20002FF800B109E000BFFBF794FE00B104E0EB
:104C300000BFFBF76BFE00B100BF00BF0548007866
:104C4000401C0449087008460078032801D1002060
:104C5000087010BDE000002010B50248FEF728FBE8
:104C600010BD00001C0D002010B50348FEF720FB0E
:104C700002F098FD10BD0000A40D002000BFFEE76B
:104C800010B50F4840780F490978884215D00C4874
:104C900040780C490870002404E00A48007800F0CD
:104CA0007FFE641C052CF8DB002402E001F0E2FA30
:104CB000641C1E2CFADB012010BD0020FCE7000064
:104CC0004C180020DD00002003B40198410000983A
:104CD00050EAC12018BF04204A0D18BF40F001005F
:104CE00040F2FF72B2EB515F08BF40F002000128B2
:104CF00008BF052002B0704702480068C0F30220D8
:104D0000704700000CED00E010B5002804DB0A0736
:104D1000130E054A135406E00A07140E034A00F066
:104D20000F031B1FD45410BD00E400E018ED00E099
:104D3000EFF31080704700002DE9F0412DED020BDC
:104D40009FED3D0B2DED028B9FED3D8BDDE9025478
:104D5000C4F30A50A0F2FF36142E37DA002E18DA08
:104D600053EC102B9DED020B51EC100BFBF79FFA4F
:104D700053EC182BFBF730FD57D2002CBCBF4FF083
:104D80000044002551DB54EA050018BF2E4C1BD10E
:104D90004BE02E4820FA06F704EA070028431FD00C
:104DA00053EC102B9DED020B51EC100BFBF77FFA2F
:104DB00053EC182BFBF710FD37D2002C03DD4FF41A
:104DC0008010F0400444BC4300252EE0332E07DC65
:104DD000A6F114004FF0FF3121FA00F73D4206D151
:104DE0009DED020BBDEC028B02B0BDE8F08153ECEF
:104DF000102B9DED020B51EC100BFBF7FCFA53EC62
:104E0000182BFBF7E9FC10D2002C0DDD142E08BF87
:104E1000641C09D0C6F13400012101FA00F02844D5
:104E2000A84238BF641C0546BD43CDE902549DED40
:104E3000020BD7E7000000009C7500883CE4377E39
:104E400000000000000000000000F03FFFFF0F0026
:104E500010B52F499FED2C1B2DED020B84B005984A
:104E600020F000408842D8BF9DED040B2DDD29497C
:104E7000884209D1049840B94FF0010000F072FC5B
:104E800000F03EFC06B010BD05DB9DED040B00F00C
:104E90002BFC06B010BD68469DED040B00F03CF8FD
:104EA00010F0030004BF9DED021B9DED000B0CD024
:104EB00001280ED09DED021B9DED000B022817D09E
:104EC000012000F079FB06B010BD00F041FA06B0F9
:104ED00010BD9DED021B9DED000B012000F06CFB51
:104EE00051EC100B81F0004106B041EC100B10BDED
:104EF00000F02EFA51EC100B81F0004106B041ECAD
:104F0000100B10BD000000000000000000000000B9
:104F1000FB21E93F0000F07F2DE9F14F04462DED24
:104F2000020B2DED088B8AB09FEDE70B80ED020B95
:104F3000139EE74826F0004585420ADC9DED120BE2
:104F4000002084ED000B0AB0BDEC088B03B0BDE877
:104F5000F08FE0489FEDE0AB9FEDE1BBA84247DD5D
:104F6000E14F9FEDE39B9FEDE48B9DED120B53EC26
:104F70001A2B51EC100B002E1CDDFBF739FA41EC1B
:104F8000100BBD4208D053EC1B2B51EC100BFBF760
:104F90002FFAC4E900010BE053EC192B51EC100B74
:104FA000FBF726FA53EC182BFBF722FAC4E90001B1
:104FB0000120C8E7FBF77BF941EC100BBD4208D09C
:104FC00053EC1B2B51EC100BFBF771F9C4E90001FA
:104FD0000BE053EC192B51EC100BFBF768F953EC79
:104FE000182BFBF764F9C4E900014FF0FF30AAE782
:104FF000C348A84279DB9DED120B51EC100B02F077
:10500000C7F841EC180B9FEDC00B53EC102BFBF7CE
:10501000F5F99FEDBF1B53EC112BFBF748F9FBF79C
:1050200023FC0746FBF702FC41EC190B53EC1A2B4F
:10503000FBF7E4F953EC182BFBF7DDF941EC180B07
:1050400053EC1B2B51EC190BFBF7D8F9DFF8C8A276
:1050500041EC100B4FEA15580125FA4453EC102B84
:1050600051EC180BFBF7C4F9032DC4E900013DD046
:10507000C1F30A5005EB4511A8EB0000113981423C
:1050800034DA0AEB051BB0EE48AA9BED000BF0EEFC
:1050900068AA53EC102B51EC190BFBF7AFF941EC5C
:1050A0001B0B51EC1A0B53EC1B2BFBF7A1F941EC3A
:1050B000180B51EC1A0B53EC182BFBF799F953EC26
:1050C0001B2BFBF795F99BED020B41EC1A0B53ECF4
:1050D000102B51EC190BFBF791F953EC1A2BFBF742
:1050E00087F941EC100B6D1CB8E70EE0002EA8BF4D
:1050F0003846BFF628AF94ED000B51EC100B81F051
:105100000041C4E9000178421DE7C6F3130040F4F2
:10511000801EC6F30A50A0F2F530471100F01F05BB
:10512000C5F12000DDF848B00890002006900790F7
:105130000520EC467949002D07EB0002794408BFB1
:1051400051F8221009D051F8223001EB8201AB4016
:105150004A68089922FA01F11943A1FB0E26A1FB26
:105160000B131A449A4234BF0123002303EB0608B1
:105170000CEB8003D3E901A60E448E4234BF01211B
:10518000002192448A4411B1924502D903E092452C
:1051900001D2012100E00021C3E901A641444CF8FD
:1051A0002010011EA0F10100C4DC029800F10050A3
:1051B000850F0298DDE903678000DDF81480FBF7B6
:1051C00035FB41EC1A0B3046FBF741FB9FED541BBE
:1051D00053EC112BFBF712F941EC1B0B3846FBF794
:1051E00036FB9FED511B53EC112BFBF707F941ECFC
:1051F000180B4046FBF72BFB9FED4D1B53EC112B7F
:10520000FBF7FCF841EC190B51EC180B53EC192B84
:10521000FBF74DF853EC1B2BFBF749F853EC1A2B1B
:10522000FBF745F8CDE90801002008909DED080B3B
:1052300053EC1A2B51EC100BFBF7DAF853EC1B2B49
:10524000FBF7D6F853EC182BFBF7D2F853EC192BDD
:10525000FBF7D1F89FED381B53EC112BFBF7CEF881
:105260009FED370B41EC180B53EC102B9DED080B09
:1052700051EC100BFBF7C2F853EC182BFBF717F8A7
:105280009FED310B41EC180B53EC102B9DED080BEF
:1052900051EC100BFBF7B2F853EC182BFBF707F8A7
:1052A00041EC100B139810F0004F06D06D4251ECFA
:1052B000100B81F0004141EC100B284684ED000BEF
:1052C00041E60000000000000000000000000000B7
:1052D000FB21E93F7CD9024000004054FB21F93F0B
:1052E0003163621A61B4D03DFB21F93F0000000038
:1052F0000000601A61B4D03D7370032E8A19A33B7D
:10530000FB2139410000000083C8C96D305FE43FD4
:10531000000000000000E03FB23400000034000054
:10532000000000000000103E000000000000103CE3
:10533000000000000000103A182D4454FB21F93DF4
:105340003326A611460B113C00000054FB21F93D09
:1053500010B52DED040B2DED088B82B0B0EE419A07
:10536000F0EE619A0B9820F000449FED4BABB4F146
:10537000795F11DA9DED0A0B51EC100BFBF774FA13
:10538000002801BFB0EE4A0AF0EE6A0A02B0BDEC96
:10539000088B04BF04B010BD9DED0A0B53EC102B1D
:1053A00051EC100BFBF72AF841EC180B3C48062196
:1053B000B0EE480AF0EE680A784400F081F853EC49
:1053C000182B51EC100BFBF719F89DED0A0B41EC73
:1053D0001B0B53EC192B51EC100BFBF70FF841ECA6
:1053E000190B53EC1B2B51EC180BFBF707F853EC84
:1053F000192BFAF7FDFF9FED2C0B41EC190B53EC29
:10540000102B51EC180BFAF7F9FF41EC100B284860
:10541000844210DA53EC192B51EC100BFAF7E8FF29
:1054200053EC1A2BFAF7E7FF41EC100B02B0BDEC7E
:10543000088B04B010BD1F48A042BCBF9FED1E1BCF
:105440008DED001B06DBA4F50010019000200090FC
:105450009DED001B51EC100B53EC112BFAF7C8FF1C
:105460009DED000B41EC180B53EC102B51EC1A0B7B
:10547000FAF7BEFF41EC1A0B53EC192B51EC180B49
:10548000FAF7B6FF53EC1A2BFAF7B5FF41EC100B05
:10549000CCE7000000000000000000000000F03F2A
:1054A0002431000000000000000000000000E03F88
:1054B0003333D33F0000E93F000000000000D23F3B
:1054C00070B504462DED028B4D1E00EBC500B0EE0D
:1054D000408AF0EE608A90ED000B35F0060017D0A0
:1054E00053EC182B51EC100BFAF788FF41EC100B22
:1054F0006D1E04EBC50090ED001B51EC100B53EC3E
:10550000112BFAF7D4FE41EC100B35F00600E7D171
:10551000022D36D0042D1CD0062D1CBFBDEC028BF5
:1055200070BD53EC182B51EC100BFAF767FF94ED9C
:105530000A1B53EC112BFAF7BAFE53EC182BFAF7AF
:105540005DFF94ED081B53EC112BFAF7B0FE41EC14
:10555000100B53EC182B51EC100BFAF74FFF94ED96
:10556000061B53EC112BFAF7A2FE53EC182BFAF79B
:1055700045FF94ED040B53EC102BFAF798FE41EC29
:10558000100B53EC182B51EC100BFAF737FF94ED7E
:10559000021B53EC112BFAF78AFE53EC182BFAF787
:1055A0002DFF94ED001B53EC112BFAF780FEBDECA0
:1055B000028B41EC100B70BD31B504462DED040B90
:1055C0002DED0A8BB0EE41BAF0EE61BA0B989DED6D
:1055D0000A0B20F00040B0F1795F0DDA51EC100BAE
:1055E000FFF772FB042808BF00F09AF89DED0A0B44
:1055F000BDEC0A8B05B030BD53EC102B51EC100BF9
:10560000FAF7FCFE41EC180B9DED0A0B53EC182B3E
:1056100051EC100BFAF7F2FE41EC190B2C48B0EEEE
:10562000480AF0EE680A05217844FFF749FF9FED2C
:105630002ACBB0EE40AAF0EE60AA9CB353EC1C2B30
:1056400051EC190BFAF7DAFE41EC1C0B53EC1A2B58
:1056500051EC190BFAF7D2FE9FED210B41EC190B1F
:1056600053EC102B51EC1B0BFAF7C8FE53EC192B23
:10567000FAF7BEFE53EC182BFAF7C0FE53EC1B2BC7
:10568000FAF7B6FE53EC1C2BFAF7B2FE9DED0A1B9F
:1056900053EC112BFAF7AFFEBDEC0A8B05B041ECD1
:1056A000100B30BDFFE753EC1A2B51EC180BFAF737
:1056B000A5FE53EC1C2BFAF7FAFD53EC192BFAF765
:1056C0009DFE9DED0A1B53EC112BFAF7F0FDE3E76D
:1056D000AC2F000000000000495555555555C5BF79
:1056E000000000000000E03F10B553EC102B51EC1F
:1056F000100BFAF7DCFD41EC100B10BD00000000B0
:105700009FED050B10B553EC102B51EC100BFAF775
:10571000E7FE41EC100B10BD00000000000000008F
:105720009FED050B10B553EC102B51EC100BFAF755
:1057300065FE41EC100B10BD0000000000000010E1
:1057400002E008C8121F08C1002AFAD1704770474A
:10575000002001E001C1121F002AFBD1704780F335
:10576000108870470149086070470000F40000206D
:1057700010B5044600201CE00022C0EB0013404995
:10578000CA540222C0EB001319444A70C0EB001344
:105790003B4919448870C0EB001239491144C9785B
:1057A00021F00701491CC0EB0013354A1A44D1709F
:1057B000401C0128E0DB01200CE0C0EB0012304966
:1057C0001144C97821F00702C0EB00132C49194499
:1057D000CA70401C0128F0DB2A480068C07820F01D
:1057E0003800303027490968C87026480068B0F88A
:1057F000030020F4707023490968A1F80300142104
:1058000020480068808861F38E101E4909688880EE
:10581000C8211C480068008961F38C001949096897
:10582000088140F24D3117480068B0F8090061F373
:105830004F1014490968A1F809001248006800795E
:1058400020F03C0008300F49096808710D480068D5
:10585000C0F80B400B480068B0F807006FF3090070
:10586000801C08490968A1F8070005480D3802F0B6
:1058700055FA1E2102480D3801F046FF10BD000008
:1058800095190020D000002010B5044600201CE02F
:105890000022C0EB00134049CA540322C0EB00139E
:1058A00019444A70C0EB00133B4919448870C0EB9F
:1058B000001239491144C97821F00701491CC0EB95
:1058C0000013354A1A44D170401C0128E0DB012046
:1058D0000CE0C0EB001230491144C97821F00702F6
:1058E000C0EB00132C491944CA70401C0128F0DB9E
:1058F0002A480068C07820F038003030274909680D
:10590000C87026480068B0F8030020F4707023497E
:105910000968A1F80300142120480068808861F319
:105920008E101E4909688880C8211C4800680089BB
:1059300061F38C0019490968088140F21731174852
:105940000068B0F8090061F34F1014490968A1F824
:10595000090012480068007920F03C0008300F4927
:10596000096808710D480068C0F80B400B480068D2
:10597000B0F807006FF30900801C08490968A1F816
:10598000070005480D3802F0C9F91E2102480D38FC
:1059900001F0BAFE10BD0000B3190020D4000020B1
:1059A00010B5044600201CE00022C0EB0013404963
:1059B000CA540122C0EB001319444A70C0EB001313
:1059C0003B4919448870C0EB001239491144C97829
:1059D00021F00701491CC0EB0013354A1A44D1706D
:1059E000401C0128E0DB01200CE0C0EB0012304934
:1059F0001144C97821F00702C0EB00132C49194467
:105A0000CA70401C0128F0DB2A480068C07820F0EA
:105A10003800303027490968C87026480068B0F857
:105A2000030020F4707023490968A1F803001421D1
:105A300020480068808861F38E101E4909688880BC
:105A400040F261411B480068008961F38C001949EC
:105A50000968088140F2332116480068B0F809004F
:105A600061F34F1013490968A1F809001148006853
:105A7000007920F03C0008300E49096808710D4893
:105A80000068C0F80B400B480068B0F807006FF3DF
:105A90000900801C07490968A1F8070004480D386F
:105AA00002F03CF91E2102480D3801F02DFE10BD18
:105AB000D1190020D800002010B5002029494873D2
:105AC000002128488173C173007C20F00700401C2E
:105AD000244908740846007C20F0380038300874E7
