:020000040800F2
:10000000B834002031020008513F0008873B000847
:100010004D3F00083D080008BD50000800000000EA
:10002000000000000000000000000000794200080D
:100030003F11000800000000F1410008D54600080B
:100040004B0200084B0200084B0200084B0200085C
:100050004B0200084B0200084B0200084B0200084C
:100060004B0200084B0200084B0200084B0200083C
:10007000E50F00084B0200084B0200084B02000885
:100080004B0200084B0200084B0200086108000800
:1000900041080008510800084B0200084B02000804
:1000A0004B020008B5470008A54700084B020008AE
:1000B0004B0200084B0200084B0200084B020008EC
:1000C0004B0200084B0200084B0200084B020008DC
:1000D0004B020008855000084B02000895500008AC
:1000E0004B0200084B0200084B020008C5470008FD
:1000F000E5470008D54700084B0200084B020008FE
:100100004B0200084B0200084B0200084B0200089B
:100110004B0200084B0200084B0200084B0200088B
:100120004B020008F50F0008051000084B020008FC
:100130004B0200084B0200084B020008910800081F
:1001400071080008810800084B0200084B020008F3
:100150004B0200081510000825100008A9500008DF
:100160004B0200084B0200084B0200084B0200083B
:100170004B0200084B0200084B0200080000000080
:100180004B0200084B02000800F002F800F040F8B3
:100190000AA090E8000C82448344AAF10107DA45E2
:1001A00001D100F035F8AFF2090EBAE80F0013F0F4
:1001B000010F18BFFB1A43F001031847FC99000018
:1001C0001C9A0000103A24BF78C878C1FAD85207A8
:1001D00024BF30C830C144BF04680C6070470000C1
:1001E0000023002400250026103A28BF78C1FBD840
:1001F000520728BF30C148BF0B6070471FB509F0D8
:1002000030F99DE8030000F0F9F91FBD10B510BDED
:1002100000F092FA1146FFF7F1FF07F02DF800F019
:10022000B0FA03B4FFF7F2FF03BC00F0E1FA0000FC
:100230000948804709480047FEE7FEE7FEE7FEE77A
:10024000FEE7FEE7FEE7FEE7FEE7FEE704480549B6
:10025000054A064B704700009147000889010008D5
:10026000B81C0020B8340020B82C0020B82C002086
:1002700070B5064600F0A6F9056806F10B0020F0FF
:100280000704B4429CBF002070BD2B466A68BAB117
:100290001068A04210D304F1080188423CBF5068A6
:1002A000586007D35168101941601168091B01603B
:1002B00058601460101D70BD13465268002AE7D1C3
:1002C0002146284600F086F90028DED170BD70B5C1
:1002D0000446051F00F076F90068002C14BF44683E
:1002E00070BD002C18BFAC423CBF20466468F8D3F8
:1002F00001680A18AA4218BF456003D12A6805465A
:100300001144016028684119A1421CBF6C6070BD96
:100310006168696021680844286070BD53EA020C76
:1003200000F069802DE9F04B4FF00006002B1FBF55
:10033000B3FA83F503FA05F424FA05F65E4012BF1A
:100340001643B2FA82F502FA05F4C5F120051EBF84
:1003500022FA05FC44EA0C04203556EA044C4FEA24
:10036000144418BF641C4FF000084FF0000990427D
:1003700071EB030C39D3002919BFB1FA81F701FAE7
:1003800007F6B0FA80F700FA07F6C7F120071EBF9C
:1003900020FA07FC46EA0C062037B6FBF4FCA7EB74
:1003A0000507103F07F01F0BCBF120060CFA0BFBE3
:1003B0002CFA06F644BFB3460026202FA4BF5E46A3
:1003C0004FF0000B5BEA060C08BF4FF0010B19EB76
:1003D0000B09ABFB027C48EB0608C01B06FB02CCFA
:1003E0000BFB03CC71EB0C01C1E70B460246414607
:1003F0004846BDE8F08B13B54FF000004FF0000108
:10040000AFF30080BDE81C40704740EA010310B51F
:100410009B070FD1042A0DD310C808C9121F9C4294
:10042000F8D020BA19BA884201D9012010BD4FF086
:10043000FF3010BD1AB1D30703D0521C07E00020D3
:1004400010BD10F8013B11F8014B1B1B07D110F830
:10045000013B11F8014B1B1B01D1921EF1D1184633
:1004600010BD10B5431C02E010F8011B71B18107EB
:10047000FAD14FF0013202C88C1A8C4314EAC2112F
:10048000F9D0C01A0A0603D0C01E10BDC01A10BD94
:100490000A0401D0801E10BD0902FCD0401E10BD10
:1004A000032A40F2308010F0030C00F0158011F8A0
:1004B000013BBCF1020F624498BF11F801CB00F878
:1004C000013B38BF11F8013BA2F1040298BF00F8CC
:1004D00001CB38BF00F8013B11F0030300F0CF80DF
:1004E000083AC0F0088051F8043B083A51F804CBB0
:1004F000A0E80810F5E7121D5CBF51F8043B40F876
:10050000043BAFF30080D20724BF11F8013B11F880
:1005100001CB48BF11F8012B24BF00F8013B00F8C4
:1005200001CB48BF00F8012B70474FF000020429AF
:10053000C0F0128010F0030C00F01B80CCF1040C12
:10054000BCF1020F18BF00F8012BA8BF20F8022B46
:10055000A1EB0C0100F00DB85FEAC17C24BF00F8EC
:10056000012B00F8012B48BF00F8012B70474FF01A
:10057000000200B5134694469646203922BFA0E8F3
:100580000C50A0E80C50B1F12001BFF4F7AF0907FF
:1005900028BFA0E80C5048BF0CC05DF804EB8900F0
:1005A00028BF40F8042B08BF704748BF20F8022B33
:1005B00011F0804F18BF00F8012B7047704770474B
:1005C0007047000000487047601C0020704770476B
:1005D0007047704738B504460A4600206946AFF3B5
:1005E0000080002808BF38BD02460099204600F070
:1005F00081F8012038BD012000F096B8F8B5AFF3BE
:100600000080054600200C46102000BF0646A819B1
:10061000A0420DD9324669460020AFF300800700A2
:1006200008BF00F081F80098A04218BF0546C41921
:10063000FFF7C8FF05600746F01D20F007004619C8
:10064000284600F00AF8B44208BFF8BDA21B3146A4
:100650003868BDE8F84000F04DB800210160C0E9FD
:10066000011070471020704710B500F03FF8006887
:1006700010BD10B5044600F039F8046010BD10B587
:10068000203AC0F00B80B1E81850203AA0E818508A
:10069000B1E81850A0E81850BFF4F5AF5FEA027C4B
:1006A00024BFB1E81850A0E8185044BF18C918C0BA
:1006B000BDE810405FEA827C24BF51F8043B40F85B
:1006C000043B08BF7047D20728BF31F8023B48BF40
:1006D00011F8012B28BF20F8023B48BF00F8012B7E
:1006E0007047000000487047581C002000487047C1
:1006F000581C0020034640688C46002818BF8842DA
:100700003CBF03464068F8D318681844884207D0B5
:100710000CF1030020F00700001D411A521A014697
:10072000081D0A60FFF7D3BD10B500F039F8BDE829
:10073000104000F02FB870477546FFF7D3FFAE4664
:1007400005006946534620F00700854618B020B5DD
:10075000FFF77CFDBDE820404FF000064FF000079A
:100760004FF000084FF0000B21F00701AC46ACE859
:10077000C009ACE8C009ACE8C009ACE8C0098D46C6
:10078000704710B50446AFF300802046BDE8104026
:10079000FFF747BD002801D000F02AB870470000DD
:1007A00010B5012805D0002103A000F027F8012092
:1007B00010BD09A1F8E7000053494752544D454D7B
:1007C0003A204F7574206F662068656170206D65F2
:1007D0006D6F7279000000003A2048656170206DED
:1007E000656D6F727920636F7272757074656400E5
:1007F00001491820ABBEFEE72600020070B5054691
:100800000C460A2000E06D1C00F011F835B1287884
:100810000028F8D102E0641C00F009F814B1207837
:100820000028F8D1BDE870400A20AFF3008008B579
:1008300069468DF800000320ABBE08BD00BFFEE78F
:1008400010B5024800F010FF10BD0000E80B0020BA
:1008500010B5024800F008FF10BD0000E80B0020B2
:1008600010B5024800F000FF10BD0000E80B0020AA
:1008700010B5024800F0F8FE10BD0000100C00207A
:1008800010B5024800F0F0FE10BD0000100C002072
:1008900010B5024800F0E8FE10BD0000100C00206A
:1008A00001B10164704740F207230A689A4236D1C9
:1008B00090F8A42012028A828B8AA522125C1A4424
:1008C0008A828A8A00EE102AB8EE400A81ED060A72
:1008D000A622125C120212B28A818B89A722125CB4
:1008E0001A4412B28A81B1F90C2000EE102AB8EE37
:1008F000C00A81ED040AA822125C120212B2CA8355
:10090000CB8BA922125C1A4412B2CA83B1F91E2001
:1009100000EE102AB8EEC00A81ED080A35E090F822
:10092000A42012028A828B8AA522125C1A448A822F
:100930008A8A00EE102AB8EE400A81ED060AA62245
:10094000125C120212B28A818B89A722125C1A44AD
:1009500012B28A81B1F90C2000EE102AB8EEC00A5A
:1009600081ED040AA822125C120212B2CA83CB8B58
:10097000A922125C1A4412B2CA83B1F91E2000EEF9
:10098000102AB8EEC00A81ED080AAA22125C81F88A
:100990002420704700210171704710B5044620796A
:1009A00038B904F1440003F0CDFB04F18C0003F0EE
:1009B000C9FB0120207110BD0146888A8A8B9042B4
:1009C00004DB888A8A8B801A80B27047888A8A8B77
:1009D000801A41F6FF72104480B2F6E7F0B58BB092
:1009E00004460E4617462660C4F89C7000254AE06F
:1009F0000120099007900020089040F2012000EBB0
:100A000085004001019040F2022000EB850040018A
:100A1000029040F2032000EB8500400103904FF468
:100A2000017000EB8500B0F5037F03D140F2012097
:100A3000049005E04FF4017000EB85004001049044
:100A40002F48864203D106950E200A9007E02D48D4
:100A5000864204D105F10E0006900E200A902FB9AF
:100A6000002005900220C4F8A00006E0012F04D168
:100A7000012005901020C4F8A00001A9304600F024
:100A80007BFC681CC5B2032DB2DB3046D4F8A01045
:100A900000F0B8FB304601F0C4F80021216161612B
:100AA0000821A1618801A0600021A165E1650821FC
:100AB0002166401E20650021216761670821A1672A
:100AC00040F2FF20A0660021A162E16208212163BB
:100AD0004FF4FF7020620021216461640821A16449
:100AE00040F2FE20A063002006E0002204F1C401D1
:100AF00041F82020411CC8B20B28F6DB0BB0F0BD3A
:100B0000E80B0020100C002030B5039C01604271FE
:100B100083718483002585638562C0F8D450C0F852
:100B2000D850C0F8E050C0F8E45030BD30B50546AC
:100B30000C4634B12068A0F2012005F1C40141F84F
:100B40002040284600F001F830BD30B500258580F2
:100B5000002100220023002400BF0DE000F1C405A5
:100B600055F8215035B100F1C40555F821502D78C4
:100B70001544EAB24D1CE9B20429EFDB1AB18588AD
:100B800005F58075858004210DE000F1C40555F858
:100B9000215035B100F1C40555F821502D781D4480
:100BA000EBB24D1CE9B20829EFDB13B18588103593
:100BB000858008210DE000F1C40555F8215035B1BC
:100BC00000F1C40555F821502D782544ECB24D1C98
:100BD000E9B20B29EFDB14B185886D1C858030BD2F
:100BE00070B50546002400BFD8E005F1C40050F8F8
:100BF000240000B9D0E005F1C40050F824000079C9
:100C000040B905F1C40050F824100022284600F035
:100C1000AFF9C1E005F1C40050F82400806A68B162
:100C200005F1C40252F8240052F82420916A884742
:100C300005F1C40050F8240080ED0B0A05F1C40052
:100C400050F82400807920B1012825D0022878D1DD
:100C500067E005F1C40151F82410D1F8D81091EDE6
:100C6000001AF0EE410A05F1C40151F82410D1F840
:100C7000D41091ED001AB0EE410A05F1C40151F80B
:100C8000241001F1440003F065F905F1C40050F8A7
:100C9000240080ED370A55E005F1C40151F8241015
:100CA000D1F8D81091ED001AF0EE410A05F1C40117
:100CB00051F82410D1F8D41091ED001AB0EE410A89
:100CC00005F1C40151F8241001F1440003F042F988
:100CD00005F1C40050F8240080ED370A05F1C40185
:100CE00051F82410D1F8E41091ED001AF0EE410A09
:100CF00005F1C40151F82410D1F8E01091ED001A6B
:100D0000B0EE410A05F1C40151F8241001F18C0044
:100D100003F020F905F1C40050F8240080ED3A0AF0
:100D200010E005F1C40252F8240052F82420116B9F
:100D3000884705F1C40050F8240080ED0D0A01E059
:100D4000FFE700BF00BF05F1C40050F82400806B2E
:100D500068B105F1C40252F8240052F82420916BC6
:100D6000884705F1C40050F8240080ED0F0A05F112
:100D7000C40050F82400006CD0ED000AB0EE600A08
:100D800006F0C9F9064605F1C40050F824103246B1
:100D9000284600F0EDF800BF601CC4B20B2CFFF633
:100DA00024AF70BD2DE9F04704460E4691461D461E
:100DB000DDE908785FB104F14400864201D1C4F84E
:100DC000D47004F18C00864201D1C4F8E070B8F10F
:100DD000000F0BD004F14400864201D1C4F8D88042
:100DE00004F18C00864201D1C4F8E480BDB1D5ED98
:100DF000042AB0EE622AD5ED032AF0EE621AD5ED90
:100E0000022AB0EE621AD5ED012AF0EE620AD5EDA3
:100E1000002AB0EE620A4946304606F080FBBDE883
:100E2000F0878163704770B5044604F1A40304F1B0
:100E30008002D4F89C10206800F031FBD4F8A01098
:100E4000206800F0DFF994F88000401EC5B204F17C
:100E5000C40050F825102046FFF725FD70BD10B5E1
:100E60000446A088B0F5807F32D006DC01280CD083
:100E7000102813D0112870D119E0A0F2011080B30E
:100E80000F2840D0102868D14EE0042304F1BC02A2
:100E900004F13801206800F0CAF95EE0022304F191
:100EA000AC0204F12001206800F0C1F955E00223F2
:100EB00004F1AC0204F12001206800F0B8F9042329
:100EC00004F1BC0204F13801206800F0B0F944E0FC
:100ED000012304F1B40204F10801206800F0A7F92D
:100EE0003BE0FFE7012304F1B40204F108012068AC
:100EF00000F09DF9042304F1BC0204F138012068DC
:100F000000F095F929E0012304F1B40204F108018D
:100F1000206800F08CF9022304F1AC0204F12001F6
:100F2000206800F084F918E0012304F1B40204F110
:100F30000801206800F07BF9022304F1AC0204F1FF
:100F40002001206800F073F9042304F1BC0204F1CD
:100F50003801206800F06BF900BF00BF10BD417977
:100F600019B1F1EE400AB0EE600A80ED020A704756
:100F700070B5034608780C2831D2DFE800F030065F
:100F80000708091415161722232400BF00BF00BF4D
:100F9000441E6406200EC2F3072503F1B404255451
:100FA000451C62551CE000BF00BF00BF441F640623
:100FB000200EC2F3072503F1AC042554451C6255ED
:100FC0000EE000BF00BFA0F109046406200EC2F3CA
:100FD000072503F1BC042554451C625500BF00BF22
:100FE00000BF70BD10B5024800F0BCFE10BD00008F
:100FF000380F002010B5024800F0B4FE10BD00000C
:10100000980F002010B5024800F0ACFE10BD0000A3
:10101000780E002010B5024800F0A4FE10BD0000BC
:10102000F80F002010B5024800F09CFE10BD000033
:10103000D80E00200146087810381823B0FBF3F2D0
:101040000848805CC865032A05D908686FF3090061
:10105000001D886503E008686FF309008865886DE6
:101060007047000076940008014600208A6A8B6968
:10107000CBB932B1012A0DD0022A03D0032A10D1F4
:101080000EE000BFCB6A03F08073B3F1807F00D124
:10109000012007E0CB6AB3F1C07F00D1012001E05D
:1010A00000E000BF34E08B69B3F5005F1AD132B1C4
:1010B000012A07D0022A03D0032A11D10AE000BF77
:1010C00001200EE0CB6A03F08073B3F1807F00D182
:1010D000012006E0CB6AB3F1C07F00D1012000E01F
:1010E00000BF15E032B1012A05D0022A04D0032A3C
:1010F0000CD103E000BF00BF012008E0CB6A03F081
:101100008073B3F1807F00D1012000E000BF00BFF9
:10111000704730B50468246824F4802405682C6086
:10112000046863608468402C04D10468A260046889
:10113000E16003E00468A1600468E26030BD7047CC
:1011400072B600BFFEE70A7802700A780F2A58D1FB
:101150000A7E002A55D14A788B7842EA0322C2F3EC
:101160000A0242808A78D210CB7842EA4312C2F354
:101170000A028280CA7892110B7942EA83024B7983
:1011800042EA8322C2F30A02C2804A7952108B7962
:1011900042EAC312C2F30A0202818A791211CB79A0
:1011A00042EA0312C2F30A024281CA79D2110B7ACF
:1011B00042EA43024B7A42EA4322C2F30A028281A4
:1011C0004A7A92108B7A42EA8312C2F30A02C281EF
:1011D0008A7A5211CB7A42EAC30202820A7B4B7BA3
:1011E00042EA0322C2F30A0242824A7BD2108B7B7C
:1011F00042EA4312C2F30A028282CA7D82750A7EE3
:10120000C275704710B5024692F82030012B01D00C
:10121000022B06D110684069084314686061002001
:1012200010BD506A40F4802050620120F8E7F0B50C
:1012300004460D461E4694F8207020688368A8680E
:1012400000B900E000BF012F01D0022F7DD103F0D3
:10125000806030B903F0006018B903F080500028B6
:101260007ED0C3F30161012088403060A86860B976
:10127000B5F800C0E86840EA4C5C206800F5C07032
:1012800000EB0110C0F800C00FE0D5E901C040EA52
:10129000CC00D5F80CC040EA0C00D4F800C00CF526
:1012A000C07C0CEB011CCCF80000D5F810C0206805
:1012B00000F5C07000EB0110C0F804C0287D0128C3
:1012C0000ED1206800F5C07000EB0110406840F4BA
:1012D000807C206800F5C07000EB0110C0F804C0ED
:1012E000D079000692F806C040EA0C4092F805C09A
:1012F00040EA0C2092F804C040EA0C00D4F800C088
:101300000CF5C07C0CEB011CCCF80C00D07800066E
:1013100092F802C040EA0C4092F801C040EA0C206A
:1013200092F800C040EA0C00D4F800C00CF5C07C74
:101330000CEB011CCCF80800206800F5C07000EB35
:101340000110006840F0010C01E00FE008E02068A7
:1013500000F5C07000EB0110C0F800C00020F0BD27
:10136000606A40F4001060620120F8E7606A40F4AF
:10137000802060620120F2E7F0B504460A46216849
:1013800094F82050012D01D0022D7ED1424901F563
:101390000071086840F001000860086820F47C5083
:1013A00008600868566A40EA06200860107D00F070
:1013B0001F06012000FA06F3C8699843C861A1F529
:1013C0000071D069C8B9D1F80C029843C1F80C0279
:1013D000908880B2968940EA064601F510705769F8
:1013E00040F83760108880B2168940EA064601F559
:1013F0001070576900EBC7004660D069012819D109
:10140000D1F80C021843C1F80C02908880B21688FB
:1014100040EA064601F51070576940F83760908938
:1014200080B2168940EA064601F51070576900EB54
:10143000C7004660906928B9D1F804029843C1F802
:10144000040204E0D1F804021843C1F80402106950
:1014500028B9D1F814029843C1F8140204E0D1F875
:1014600014021843C1F81402106A012804D1D1F8FB
:101470001C021843C1F81C02D1F8000220F0010040
:10148000C1F800020020F0BDFFE7606A40F4802050
:1014900060620120F7E7000000640040704770B50B
:1014A000044694F82050012D01D0022D7DD151B970
:1014B0002068C06800F0030080B9606A40F4001042
:1014C0006062012070BD2068006900F0030028B947
:1014D000606A40F4001060620120F3E7206800F5C4
:1014E000D87000EB0110006800F004009060906874
:1014F00040B9206800F5D87000EB01100068400D7D
:10150000106007E0206800F5D87000EB011000685B
:10151000C0085060206800F5D87000EB011000682A
:1015200000F00200D060206800F5D87000EB0110D8
:10153000406800F00F00082802D30820106108E07E
:10154000206800F5D87000EB0110406800F00F0033
:101550001061206800F5D87000EB0110406800F4BD
:101560007F40000A9061206800F5D87000EB011000
:101570004068000C5061206800F5D87000EB011045
:1015800080681870206800F5D87000EB0110806842
:1015900000F47F40000A5870206800F5D87000EB16
:1015A0000110806800F47F0000E03CE0000C9870BF
:1015B000206800F5D87000EB01108068000ED8702C
:1015C000206800F5D87000EB0110C0681871206821
:1015D00000F5D87000EB0110C06800F47F40000AED
:1015E0005871206800F5D87000EB0110C06800F455
:1015F0007F00000C9871206800F5D87000EB011096
:10160000C068000ED87131B92068C06840F0200071
:101610002668F06005E02068006940F02000266838
:10162000306100204EE7606A40F480206062012053
:1016300048E70146002091F82020012A01D0022A23
:1016400011D10B689B6803F0806303B1401C0B68E9
:101650009B6803F0006303B1401C0B689B6803F0B8
:10166000805303B1401C70472DE9F05F044600250C
:10167000206846692068D0F8049020688768206850
:10168000D0F80CA02068D0F810B02068D0F81880EE
:1016900006F00100002855D007F00100C0B101207C
:1016A0002168886007F0020018B1204600F0E9FACE
:1016B0000EE007F0040010B145F4006508E007F003
:1016C000080010B145F4805502E0204600F0D8FA39
:1016D00007F48070C8B14FF480702168886007F407
:1016E000007018B1204600F0CEFA0EE007F48060DA
:1016F00010B145F4005508E007F4006010B145F45E
:10170000804502E0204600F0BDFA07F48030C8B101
:101710004FF480302168886007F4003018B120460B
:1017200000F0B3FA0EE007F4802010B145F4004554
:1017300008E007F4002010B145F4803502E02046AF
:1017400000F0A2FA06F0080038B10AF0100020B14B
:1017500045F4007510202168C86006F0040040B10F
:101760000AF0080028B108202168C860204600F06F
:101770002DFA06F0020038B12068C06800F00300BE
:1017800010B1204600F024FA06F0400038B10BF00A
:10179000100020B145F4806510202168086106F032
:1017A000200040B10BF0080028B108202168086132
:1017B000204600F025FA06F0100038B120680069D4
:1017C00000F0030010B1204600F01CFA06F40030CF
:1017D00040B109F0100028B110202168486020466F
:1017E00000F01EFA06F4803040B109F0080028B17C
:1017F000082021684860204600F048FA06F40040BE
:1018000088B309F0040078B306F4807020B108F0C2
:10181000010008B145F0010506F4007020B108F0A0
:10182000020008B145F0020506F4806020B108F01E
:10183000040008B145F0040506F40060A0B108F00A
:10184000700088B108F07000402817D006DC10281E
:101850000BD020280CD0302819D10CE0502810D003
:10186000602814D110E01DE019E045F008050FE0F4
:1018700045F010050CE045F0200509E045F0400575
:1018800006E045F0800503E045F4807500E000BF08
:1018900000BF2068806920F0700021688861042002
:1018A000216848602DB1606A284360622046FFF7D6
:1018B000F5FDBDE8F09F70B504460CB9012070BD80
:1018C00094F8200010B9204600F0B0F820680068B5
:1018D00040F001002168086000F01EFD05460DE0A3
:1018E00000F01AFD401B0A2808D9606A40F4003055
:1018F0006062052084F820000120E0E7206840684D
:1019000000F001000028EBD02068006820F0020001
:101910002168086000F000FD05460DE000F0FCFCC9
:10192000401B0A2808D9606A40F400306062052034
:1019300084F820000120C2E72068406800F002001F
:101940000028EBD1207E012806D12068006840F0F5
:1019500080002168086005E02068006820F08000B1
:1019600021680860607E012806D12068006840F088
:1019700040002168086005E02068006820F0400011
:1019800021680860A07E012806D12068006840F028
:1019900020002168086005E02068006820F0200031
:1019A00021680860E07E012806D12068006820F0E8
:1019B00010002168086005E02068006840F0100011
:1019C00021680860207F012806D12068006840F067
:1019D00008002168086005E02068006820F0080021
:1019E00021680860607F012806D12068006840F007
:1019F00004002168086005E02068006820F0040009
:101A000021680860D4E9020108432169084361693B
:101A100008436168491E08432168C861002060626C
:101A2000012084F82000002049E7000010B586B0AE
:101A30000446142101A8FEF79AFD5E4920688842F9
:101A400051D15D480068401C5B4908600846006849
:101A500001280FD100BF002000905848006840F0D6
:101A60000070564908600846006800F00070009059
:101A700000BF00BF00BF0020009050481038006831
:101A800040F008004D49103908600846006800F031
:101A90000800009000BF00BF0320019002200290C8
:101AA00000200390032004900920059001A94448D8
:101AB00000F038FB00221146132000F0BBFC13207D
:101AC00000F0A4FC00221146142000F0B3FC142006
:101AD00000F09CFC00221146152000F0ABFC152004
:101AE00000F094FC64E037492068884260D100BF70
:101AF000002000903148006840F080602F49086065
:101B00000846006800F08060009000BF00BF2A48CF
:101B10000068401C284908600846006801280FD169
:101B200000BF002000902548006840F00070234965
:101B300008600846006800F00070009000BF00BF19
:101B400000BF002000901D481038006840F00200DF
:101B50001A49103908600846006800F00200009039
:101B600000BF00BF6020019002200290002003907F
:101B7000032004900920059001A9134800F0D2FA2F
:101B8000002211463F2000F055FC3F2000F03EFCB3
:101B900000221146402000F04DFC402000F036FCB1
:101BA00000221146412000F045FC412000F02EFCAF
:101BB00006B010BD00640040040000204038024020
:101BC000000C024000680040000402407047000022
:101BD00010B504460648844202D10648FFF723F9AF
:101BE0000548844202D10548FFF71DF910BD0000E9
:101BF000E80B0020B8050020100C00201801002080
:101C00007047000010B504460348844202D10348DF
:101C100005F062F810BD0000E80B002080080020ED
:101C2000704770B5044694F82000012822D10220A4
:101C300084F820002068006820F001002168086016
:101C400000F06AFB05460DE000F066FB401B0A2829
:101C500008D9606A40F400306062052084F82000F2
:101C6000012070BD2068406800F001000028EBD121
:101C70006062F6E7606A40F4002060620120F0E7ED
:101C8000704770477047704770477047704770B52E
:101C90000446A56D00F040FB064694F83500022886
:101CA00008D08020606500BF002084F8340000BFA9
:101CB000012070BD2068006820F0160021680860CF
:101CC0002068406920F0800021684861206C08B9D4
:101CD000A06C28B12068006820F008002168086026
:101CE0002068006820F001002168086010E000F022
:101CF00013FB801B05280BD920206065032084F886
:101D0000350000BF002084F8340000BF0320D0E776
:101D10002068006800F001000028E8D194F85C1009
:101D20003F208840A860012084F8350000BF0020D3
:101D300084F8340000BF00BFBBE7014691F83500CE
:101D4000022803D08020486501207047052081F8D3
:101D500035000868006820F001000A681060002063
:101D6000F3E70000F8B50446002000908C480068B6
:101D70004FF41651B0FBF1F7A56D2E6894F85C1086
:101D800008208840304098B12068006800F00400C6
:101D900070B12068006820F004002168086094F8A1
:101DA0005C1008208840A860606D40F0010060650C
:101DB00094F85C1001208840304068B12068406988
:101DC00000F0800040B194F85C1001208840A860C9
:101DD000606D40F00200606594F85C10042088405B
:101DE000304068B12068006800F0020040B194F80B
:101DF0005C1004208840A860606D40F004006065BD
:101E000094F85C1010208840304078B32068006857
:101E100000F0080050B394F85C1010208840A860CF
:101E20002068006800F4802080B12068006800F419
:101E3000002028B9206CC8B12046216C884715E0E5
:101E4000A06C98B12046A16C88470FE0206800681C
:101E500000F4807028B92068006820F0080021682C
:101E60000860206C10B12046216C884794F85C1003
:101E7000202088403040002865D02068006800F0AD
:101E8000100000285FD094F85C1020208840A860E3
:101E900094F83500052828D12068006820F0160045
:101EA000216808602068406920F08000216848614E
:101EB000206C08B9A06C28B12068006820F00800E8
:101EC0002168086094F85C103F208840A8600120D9
:101ED00084F8350000BF002084F8340000BF206D76
:101EE00010B12046216D8847F8BD2068006800F4D5
:101EF000802080B12068006800F4002028B9606C60
:101F000010B12046616C88471DE0E06BD8B12046D7
:101F1000E16B884717E02068006800F4807068B9BA
:101F20002068006820F0100021680860012084F813
:101F3000350000BF002084F8340000BFE06B10B112
:101F40002046E16B8847606D38B3606D00F001009A
:101F5000F0B1052084F835002068006820F0010009
:101F60002168086000BF0098401C0090B84200D96A
:101F700005E02068006800F001000028F3D100BFF0
:101F8000012084F8350000BF002084F8340000BF31
:101F9000E06C10B12046E16C884700BFA4E7000068
:101FA000140000202DE9F0410446002500F0B4F9AA
:101FB000074614B90120BDE8F081606A00B100BF96
:101FC000022084F8350000BF002084F8340000BFF0
:101FD0002068006820F00100216808600AE000F035
:101FE0009BF9C01B052805D920206065032084F8D3
:101FF0003500E0E72068006800F001000028EED11D
:102000002068056821480540D4E901010843E168DA
:1020100008432169084361690843A1690843E169EC
:102020000843216A08430543606A042803D1D4E9C0
:102030000B0108430543206805602068456925F0C9
:102040000705606A0543606A04280DD1A06A05434C
:10205000E06A48B12046FFF707F828B140206065E4
:10206000012084F83500A6E7206845612046FEF788
:10207000E1FF064694F85C103F208840B0600020E5
:102080006065012084F83500002094E73F8010F05F
:102090002DE9F04704460D4616461F464FF000084E
:1020A000D4F8589000BF94F83400012802D10220DF
:1020B000BDE8F087012084F8340000BF94F83500B3
:1020C000012825D1022084F83500002060653B46B8
:1020D000324629462046FFF71CF894F85C103F2052
:1020E0008840C9F808002068006840F016002168A0
:1020F0000860206C28B12068006840F00800216862
:1021000008602068006840F001002168086006E06F
:1021100000BF002084F8340000BF4FF002084046A2
:10212000C6E70000F8B502460B4600250024002053
:102130000021D6E0012606FA01F51E6806EA05042C
:10214000AC4274D11E7906F00306012E04D01E792C
:1021500006F00306022E13D190684F000326BE40FE
:10216000B0434F00DE68BE403043906050680126A7
:102170008E40B0431E79C6F300168E403043506047
:102180001E7906F00306032E09D0D0684F000326FF
:10219000BE40B0434F009E68BE403043D0601E79C1
:1021A00006F00306022E13D1CF0802F1200656F8DE
:1021B00027004E07F70E0F26BE40B0434F07FF0E15
:1021C0001E69BE403043CF0802F1200646F82700C2
:1021D00010684F000326BE40B0431E7906F0030688
:1021E0004F00BE40304310605E6806F44036002E5B
:1021F00076D000BF002600963C4E366846F48046F6
:102200003A4F3E603E46366806F48046009600BF70
:1022100000BF374E8F0856F827008E07370F0F265E
:10222000BE40B043334EB24202D1002624E057E014
:10223000314EB24201D101261EE0304EB24201D1F0
:10224000022619E02E4EB24201D1032614E02D4E93
:10225000B24201D104260FE02B4EB24201D1052635
:102260000AE02A4EB24201D1062605E0284EB242CB
:1022700001D1072600E008268F073F0FBE403043FC
:102280001B4E8F0846F82700224E3068A0435E6838
:1022900006F4801606B120431E4E3060361D3068AD
:1022A000A0435E6806F4001606B12043194E361DA1
:1022B0003060184E361F3068A0435E6806F4003662
:1022C00006B12043134E361F3060361F3068A043DE
:1022D0005E6806F4803606B120430E4E083E30603C
:1022E000491C1029FFF426AFF8BD00004438024015
:1022F000083801400000024000040240000802408B
:10230000000C02400010024000140240001802407D
:10231000001C0240083C0140014800687047000072
:10232000080000200348006803490978084401496F
:1023300008607047080000201000002010B50D480C
:10234000006840F400700B4908600846006840F4DB
:10235000806008600846006840F4807008600320D0
:1023600000F0A6F80F2000F007F800F02BF800208E
:1023700010BD0000003C024070B504460E480078D5
:102380004FF47A71B1FBF0F00C490968B1FBF0F53C
:10239000284600F02FFC08B1012070BD102C07D298
:1023A00000222146501E00F045F80548046001E077
:1023B0000120F2E70020F0E71000002014000020C8
:1023C0000C00002008B500BF002000900E480068F7
:1023D00040F480400C4908600846006800F48040E2
:1023E000009000BF00BF00BF00200090081F0068E1
:1023F00040F08050091F08600846006800F08050D7
:10240000009000BF00BF08BD4438024001460846A6
:1024100000280DDB00BF00BF00F01F0301229A401F
:1024200043099B0003F1E023C3F8002100BF00BF74
:1024300000BF70472DE9F05F80460D461646002725
:1024400002F0E8FE074639462A46334601F0070007
:10245000C0F1070ABAF1040F02D94FF0040A01E0F3
:10246000C0F1070AD14600F1040ABAF1070F02D2FF
:102470004FF0000A01E0A0F1030AD4464FF0010A30
:102480000AFA09FAAAF1010A0AEA020A0AFA0CFA95
:102490004FF0010B0BFA0CFBABF1010B0BEA030B3A
:1024A0004AEA0B042146404602F0BCFEBDE8F09F1C
:1024B00000BF00F00702064B19684FF6FF031940F2
:1024C000044B0B4343EA0221014B196000BF7047E4
:1024D0000CED00E00000FA0570B504460D460CB99D
:1024E000012070BD5848006800F00700A84209D2DA
:1024F00055490D700846006800F00700A84201D059
:102500000120EEE7207800F0020002281DD120789B
:1025100000F00400042805D14C48006840F4E05065
:102520004A490860207800F00800082805D147488B
:10253000006840F46040454908604448006820F065
:10254000F000A168084341490860207800F00100CC
:10255000A8B36068012807D13C4808380068C0F378
:102560004040B8B90120BCE76068022802D060682A
:10257000032807D1354808380068C0F3406048B9DF
:102580000120AEE7314808380068C0F3400008B9C0
:102590000120A6E72D48006820F003006168084389
:1025A0002A490860FFF7B8FE064609E0FFF7B4FEC7
:1025B000801B41F28831884202D9032091E707E06D
:1025C0002248006800F00C006168B0EB810FEDD18B
:1025D0001D48006800F00700A84209D91A490D708B
:1025E0000846006800F00700A84201D0012078E703
:1025F000207800F00400042807D11448006820F473
:10260000E050E168084311490860207800F00800B4
:10261000082808D10D48006820F46040216940EA8C
:10262000C1000A49086000F03FF808490968C1F391
:102630000311074A515CC840064908600648006813
:10264000FFF79AFE00204CE7003C024008380240A9
:102650007E940008140000200C000020014800684F
:10266000704700001400002000B5FFF7F7FF044991
:102670000968C1F38221034A515CC84000BD0000D3
:10268000083802408E94000800B5FFF7E7FF0449C0
:102690000968C1F34231034A515CC84000BD0000E3
:1026A000083802408E9400082DE9F04700240025E8
:1026B0000026A1462548006800F00C0020B104283F
:1026C00005D008283AD105E0DFF8849039E0DFF83A
:1026D000849036E01D48001F006800F03F041B484E
:1026E000001F006800F4800078B11A481749091FDC
:1026F0000968C1F38811A0FB01700146224600233E
:102700003846FDF70BFE05460EE011480F49091F3C
:102710000968C1F38811A0FB01700146224600231D
:102720003846FDF7FBFD05460848001F0068C0F36A
:102730000140401C4600B5FBF6F902E0DFF81090BE
:1027400000BF00BF4846BDE8F087000008380240DF
:102750000024F400001BB700F8B504460CB90120B2
:10276000F8BD207800F00100002874D0F948006816
:1027700000F00C0004280DD0F648006800F00C00B2
:10278000082813D1F348001F006800F48000B0F55A
:10279000800F0BD1EF4808380068C0F34040002894
:1027A00059D06068002856D10120D9E700BF606881
:1027B000B0F5803F08D1E7480838006840F4803021
:1027C000E449083908601EE06068B0F5A02F0DD11B
:1027D000E0480838006840F48020DE490839086085
:1027E0000846006840F4803008600CE0D94808389A
:1027F000006820F48030D74908390860084600682E
:1028000020F48020086000BF606890B1FFF784FD6D
:10281000054606E0FFF780FD401B642801D9032030
:102820009EE7CC4808380068C0F340400028F1D04B
:1028300011E0FFF771FD054606E0FFF76DFD401B57
:10284000642801D903208BE7C24808380068C0F328
:1028500040400028F1D1207800F0020002285FD12A
:10286000BC48006800F00C0058B1BA48006800F09D
:102870000C0008281CD1B748001F006800F4800035
:10288000B0B9B44808380068C0F3400020B1E0682F
:10289000012801D0012063E7AE480838006820F025
:1028A000F800216940EAC100AA490839086037E008
:1028B000E06800B30120A8490860FFF72DFD054638
:1028C00006E0FFF729FD401B022801D9032047E756
:1028D000A04808380068C0F340000028F1D09D48A7
:1028E0000838006820F0F800216940EAC1009949E1
:1028F0000839086014E0002097490860FFF70CFDD4
:10290000054606E0FFF708FD401B022801D9032019
:1029100026E7904808380068C0F340000028F1D14D
:10292000207800F0080008282CD16069A8B10120A7
:102930008A490860FFF7F0FC054606E0FFF7ECFC6B
:10294000401B022801D903200AE782486C30006846
:10295000C0F340000028F1D014E000207F49086057
:10296000FFF7DAFC054606E0FFF7D6FC401B02281D
:1029700001D90320F4E677486C300068C0F34000CA
:102980000028F1D1207800F00400042870D100273D
:1029900070483830006800F0805090B900BF0020C7
:1029A00000906C483830006840F0805069493831F8
:1029B00008600846006800F08050009000BF00BF2B
:1029C00001276748006800F48070B0B96448006867
:1029D00040F4807062490860FFF79EFC054606E0FF
:1029E000FFF79AFC401B022801D90320B8E65C4897
:1029F000006800F480700028F2D000BFA0680128B1
:102A000008D154486830006840F0010051496831ED
:102A100008601DE0A06805280DD14E4868300068A8
:102A200040F004004B49683108600846006840F0F7
:102A3000010008600CE047486830006820F00100A1
:102A40004449683108600846006820F004000860C6
:102A500000BFA068A8B1FFF75FFC054609E0FFF7DB
:102A60005BFC401B41F28831884202D9032077E6A3
:102A700026E0384868300068C0F340000028EED0F7
:102A800013E0FFF749FC054608E0FFF745FC401B53
:102A900041F28831884201D9032061E62D4868302F
:102AA0000068C0F340000028EFD1012F07D129486A
:102AB0003830006820F0805026493831086000BF67
:102AC000A069002845D02348006800F00C000828C1
:102AD0005DD0A069022845D100201F490866FFF794
:102AE0001BFC054606E0FFF717FC401B022801D936
:102AF000032035E6174808380068C0F34060002816
:102B0000F1D1D4E907010843616A40EA8111012249
:102B1000A06AC2EB500041EA00412C20005D41EA6E
:102B200000600C49091F086001200B490866FFF787
:102B3000F3FB054606E0FFF7EFFB401B022801D937
:102B400003200DE6034808380068C0F34060002801
:102B5000F1D049E00838024000004742800E474269
:102B600000700040002021490866FFF7D5FB0546AC
:102B700006E0FFF7D1FB401B022801D90320EFE557
:102B80001B480068C0F340600028F2D12CE0A06927
:102B9000012800D1E4E51648001D0668A069012857
:102BA00020D006F48001E06981421BD106F03F018C
:102BB000206A814216D147F6C0703040616AB0EB9E
:102BC000811F0FD106F440310122A06AC2EB5000F0
:102BD000B1EB004F06D106F070612C20005DB1EB27
:102BE000006F01D00120BBE50020B9E5000047429D
:102BF0000038024070B504462546681EB0F1807F5B
:102C000001D301200FE0681E4FF0E02148610F2141
:102C10004FF0FF3002F006FB00204FF0E02188610A
:102C200007200861002070BD7047704710B504464A
:102C30000CB9012010BD94F83D0028B9002084F89B
:102C40003C00204600F026F8022084F83D00211DBB
:102C5000206801F0CFFD012084F8460000BF84F811
:102C60003E0001213F2001554020015541200155E2
:102C700000BF00BF012084F84200432001554420DA
:102C800001554520015500BF012084F83D0000207A
:102C9000D0E7000038B504464B492068884218D177
:102CA00000BF002000904948006840F400304749C8
:102CB00008600846006800F40030009000BF00BFC4
:102CC000002205211920FFF7B5FB1920FFF79EFB15
:102CD00078E03F492068884218D100BF002000906A
:102CE0003A48006840F48020384908600846006887
:102CF00000F48020009000BF00BF002211461A207F
:102D0000FFF798FB1A20FFF781FB5BE03149206851
:102D100088421AD100BF002000902C48001F006894
:102D200040F040002949091F08600846006800F08B
:102D30004000009000BF00BF002201212B20FFF7C0
:102D400079FB2B20FFF762FB3CE023492068884297
:102D50001AD100BF002000901C48001F006840F0FE
:102D600080001A49091F08600846006800F08000CA
:102D7000009000BF00BF002211462C20FFF75AFB35
:102D80002C20FFF743FB1DE014492068884219D12D
:102D900000BF002000900D48001F006840F48070C4
:102DA0000A49091F08600846006800F48070009016
:102DB00000BF00BF002211462D20FFF73BFB2D2056
:102DC000FFF724FB38BD00000044014044380240B6
:102DD0000048014000180040001C00400020004056
:102DE000014691F83D00012801D0012070470220E2
:102DF00081F83D000868C06840F001000B68D860A9
:102E00001A4B086898421BD00868B0F1804F17D061
:102E1000174B0868984213D0164B086898420FD099
:102E2000154B086898420BD0144B0868984207D09D
:102E3000134B0868984203D0124B086898420CD193
:102E40000868806800F00702062A0CD0086800684D
:102E500040F001000B68186005E00868006840F069
:102E600001000B6818600020C0E70000000001406E
:102E70000004004000080040000C00400004014035
:102E8000004001400018004001460868C06820F07A
:102E900001000A68D06000BF0868006A41F21112A0
:102EA000104050B90868006A9210104028B90868AC
:102EB000006820F001000A68106000BF012081F85E
:102EC0003D00002070472DE9F04104460D460027E3
:102ED00000BF94F83C00012802D10220BDE8F08137
:102EE000012084F83C0000BF022084F83D002068E7
:102EF000866826F0770626F47F4620688660286874
:102F0000502833D00CDC202850D004DC00284BD0D3
:102F1000102851D149E0302849D040284CD139E01F
:102F200060282DD0702807D0B0F5805F03D0B0F5B1
:102F3000005F41D10DE041E0D5E902136A682068E5
:102F400001F0CCFC2068866846F077062068866031
:102F500034E0D5E902136A68206801F0BFFC2068FC
:102F6000806840F480402168886027E0EA686968EA
:102F7000206801F0C7FC5021206801F0BAFC1DE078
:102F8000EA686968206801F0D0FC6021206801F0DF
:102F9000B0FC13E0EA686968206801F0B3FC4021E6
:102FA000206801F0A6FC09E000BF00BF00BF29684F
:102FB000206801F09EFC01E0012700BF00BF012056
:102FC00084F83D0000BF002084F83C0000BF384674
:102FD00084E7704770B504462068C56820680669B4
:102FE00006F00200022819D105F00200022815D1CE
:102FF000401F21680861012020772068806900F067
:10300000030018B12046FFF7E4FF05E0204600F07A
:1030100097F8204600F095F80020207706F004008D
:10302000042819D105F00400042815D1C0432168F3
:103030000861022020772068806900F4407018B190
:103040002046FFF7C6FF05E0204600F079F820464D
:1030500000F077F80020207706F00800082819D142
:1030600005F00800082815D1C04321680861042034
:1030700020772068C06900F0030018B12046FFF7F0
:10308000A8FF05E0204600F05BF8204600F059F864
:103090000020207706F01000102819D105F010004C
:1030A000102815D1C04321680861082020772068C6
:1030B000C06900F4407018B12046FFF78AFF05E0B0
:1030C000204600F03DF8204600F03BF80020207735
:1030D00006F0010048B105F0010030B16FF00100C9
:1030E00021680861204600F02DF806F08000802855
:1030F00009D105F08000802805D1C043216808610E
:103100002046FFF791FD06F04000402809D105F068
:103110004000402805D1C04321680861204600F0E6
:10312000A7F806F02000202809D105F0200020286B
:1031300005D1C043216808612046FFF776FD70BDC8
:103140007047704770B504463B4884422ED104F066
:1031500041FE3A4800893A49C1F80B003948407CA1
:10316000012810D1084690F8220020F03C000830D9
:1031700081F82200084690F8310020F03C00083029
:1031800081F8310010E02E4890F8220020F03C0039
:103190000C302B4981F82200084690F8310020F0CD
:1031A0003C000C3081F8310005F07CFA264884425E
:1031B00016D104F0ABFC254801F01CF844F20103E1
:1031C0000C222249224803F045FE1C4801F0F2F986
:1031D0002049214801F066FA1F49204801F0E0F932
:1031E0001F48844202D11A4803F0BCFE1D488442A5
:1031F00021D11D48FDF7E0FB05B21248D0ED031ABE
:10320000B0EE611AD0ED021AF0EE610AD0ED011AAB
:10321000B0EE610A2946154802F062FE09480178BD
:10322000124802F0D6FD11490868FDF7D9FC0F4994
:103230000868FDF714FE70BD380C0020381C002013
:10324000FA19002058100020C80C0020DC0B0020C8
:10325000800800203819002001010020A00D002066
:10326000100D0020580D0020A80600209407002013
:103270007047F8B504460E46174694F842002028D9
:103280002ED106B10FB90120F8BD01202063002026
:1032900060633A463146204601F01AFE0546EDB914
:1032A000206B012819D100BF002000902068006821
:1032B000009020684068009000BF00BF00BF00BFC2
:1032C00021680C3151E8001F41F0100021680C31D9
:1032D00041E80002002AF3D100E001252846D3E7A7
:1032E0000220D1E770B504460D46084884420CD14F
:1032F0000120074908700A2206490448FFF7B9FF70
:1033000005480088401C0449088070BDA00D0020BD
:10331000070100204C1C00201A00002010B50446B4
:103320000648844208D10A220549FFF7A2FF054852
:103330000088401C0349088010BD0000A00D00203B
:103340004C1C00201C0000202DE9F84F044620688A
:1033500005682068C668206847694FF00009CA46BA
:1033600005F00F09B9F1000F0AD105F0200038B1BE
:1033700006F0200020B1204601F015FCBDE8F88FD2
:10338000B9F1000F7CD007F0010018B906F4907075
:10339000002875D005F0010030B106F4807018B136
:1033A000606C40F00100606405F0040030B107F08B
:1033B000010018B1606C40F00200606405F002008A
:1033C00030B107F0010018B1606C40F00400606497
:1033D00005F0080048B106F0200010B907F0010020
:1033E00018B1606C40F008006064606C002846D042
:1033F00005F0200028B106F0200010B1204601F0B1
:10340000D2FB20684069C0F3801A606C00F00800AD
:1034100010B9BAF1000F2DD0204601F06BFB2068E7
:10342000406900F04000402820D100BF00BF216863
:10343000143151E8001F21F040002168143141E8A7
:103440000002002AF3D100BFE06B50B17748E16B76
:103450000865E06BFEF771FC88B1E06B016D884791
:103460000DE02046FFF75AFF09E009E02046FFF78C
:1034700055FF04E02046FFF751FF002060647DE720
:10348000206B012878D105F01000002874D006F0D8
:1034900010000028FAD000BF0020009020680068CB
:1034A000009020684068009000BF00BF206840691D
:1034B00000F04000402860D1E06B006840681FFACF
:1034C00080F8B8F1000F56D0A08D404553DDA4F828
:1034D0002E80E06BC069B0F5807F43D000BF00BF95
:1034E00021680C3151E8001F21F4807021680C31F3
:1034F00041E80002002AF3D100BF00BF00BF2168ED
:10350000143151E8001F21F001002168143141E815
:103510000002002AF3D100BF00BF00BF21681431B0
:1035200051E8001F21F040002168143141E80002F9
:10353000002AF3D100BF202084F84200002020633D
:1035400000BF00BF21680C3151E8001F21F01000BE
:1035500021680C3141E80002002AF3D100BFE06B82
:10356000FEF795FB02206063A08DE28D801A81B288
:103570002046FFF7B7FE01E742E0A08DE18D401A3B
:103580001FFA80F8E08DD0B3B8F1000F37D000BF3C
:1035900000BF21680C3151E8001F21F490702168B0
:1035A0000C3141E80002002AF3D100BF00BF00BF88
:1035B0002168143151E8001F21F001002168143105
:1035C00041E80002002AF3D100BF202084F8420025
:1035D0000020206300BF00BF21680C3151E8001FAC
:1035E00021F0100021680C3141E80002002AF3D1DB
:1035F00000BF0220606341462046FFF773FEBDE630
:1036000005F0800030B106F0800018B1204601F0CE
:10361000C3FCB3E605F0400030B106F0400018B13D
:10362000204601F09DFAA9E600BFA7E6534900082D
:1036300010B504460CB9012010BDA06900B100E02E
:1036400000BF94F8410028B9002084F840002046CB
:1036500000F02AF8242084F841002068C06820F493
:1036600000502168C860204601F01CFB20680069FA
:1036700020F49040216808612068406920F02A0009
:10368000216848612068C06840F400502168C86023
:1036900000206064202084F8410084F8420000206B
:1036A000606300BFC8E7000010B586B0044614216F
:1036B00001A8FCF75CFFBE49206888427ED100BFAC
:1036C00000200090BB48006840F01000B949086035
:1036D0000846006800F01000009000BF00BF00BF67
:1036E00000200090B3481438006840F00200B1494F
:1036F000143908600846006800F00200009000BF1E
:1037000000BF00BF002000900846006840F00100A4
:1037100008600846006800F00100009000BF00BF8C
:10372000802001900220029000200390032004904A
:103730000720059001A9A048FEF7F4FC4FF40070A3
:1037400001900220029000200390032004900720A3
:10375000059001A99948FEF7E5FC99489949086048
:103760004FF000604860002196488160C1604FF4CE
:1037700080610161002141618161C1614FF440318B
:10378000016200214162FEF70DFC08B1FDF7D8FC93
:1037900000BF8C48E063846300BF894878308A4961
:1037A00008604FF000604860402187488160002138
:1037B000C1604FF480610161002100E017E04161C8
:1037C0008161C16101624162FEF7ECFB08B1FDF766
:1037D000B7FC00BF7C48A063846300BF0022114691
:1037E0002520FEF727FE2520FEF710FEDEE07749B4
:1037F000206888425BD100BF002000906D48001F08
:10380000006840F480206B49091F08600846006882
:1038100000F48020009000BF00BF00BF0020009097
:1038200064481438006840F00400624914390860A4
:103830000846006800F00400009000BF00BF4FF48D
:103840004060019002200290002003900320049029
:103850000720059001A95E48FEF764FC5D485E49BB
:1038600008604FF00060486000215B488160C160E3
:103870004FF480610161002141618161C1614FF4B8
:103880000031016200214162FEF78CFB08B1FDF7B7
:1038900057FC00BF5048E063846300BF002211461C
:1038A0002720FEF7C7FD2720FEF7B0FD7EE04B493D
:1038B000206888427AD100BF002000903D4800680F
:1038C00040F020003B4908600846006800F02000F6
:1038D000009000BF00BF00BF0020009035481438A2
:1038E000006840F040003349143908600846006819
:1038F00000F04000009000BF00BF4FF484400190F2
:1039000002200290002003900320049008200590DC
:1039100001A93348FEF706FC2948183831490860E8
:103920008005486000212F488160C1604FF48061AC
:103930000161002141618161C1614FF40031016287
:1039400000214162FEF72EFB08B1FDF7F9FB00BF35
:103950002448E063846300BF19486030224908604E
:103960004FF02060486040211F4881600021C16005
:103970004FF480610161002141618161C1614FF4B7
:103980008031016200214162FEF70CFB08B1FDF7B6
:10399000D7FB00BF1448A063846300BF0022114618
:1039A0004720FEF747FD4720FEF730FD06B010BD6B
:1039B0000010014044380240000402400000024070
:1039C00040640240780E0020D80E002000480040DD
:1039D0000008024028600240380F00200014014017
:1039E00000180240980F0020F80F002010B5044680
:1039F000084884420CD10120074908700A2207496F
:103A00000448FFF736FC06480088401C044908803B
:103A100010BD0000A00D0020070100204C1C00205C
:103A20001A00002070472DE9F84F04460E4617464D
:103A300099464FF0000A94F84100202850D106B171
:103A400017B90120BDE8F88F00206064212084F8B8
:103A50004100FEF761FC8246A784E784A068B0F5C8
:103A6000805F04D1206910B90025B04602E03546D8
:103A70004FF000081EE05346002280212046CDF87A
:103A8000009001F0B9FA20B1202084F84100032011
:103A9000D8E745B9B8F80000C0F3080021684860CD
:103AA00008F1020803E02878216848606D1CE08C6A
:103AB000401EE084E08C0028DDD1534600224021E6
:103AC0002046CDF8009001F097FA20B1202084F82C
:103AD00041000320B6E7202084F841000020B1E730
:103AE0000220AFE7F7B50446154694F841002028B8
:103AF00036D1019800B10DB90120FEBD01982062B8
:103B0000A584E58400206064212084F841001548E4
:103B1000A16BC8631448A16B08641448A16BC86406
:103B20000020A16B086501AE23681A1D31682B4681
:103B3000A06BFEF7ADFA6FF040002168086000BF8F
:103B400000BF2168143151E8001F41F08000216856
:103B5000143141E80002002AF3D100BF0020CCE775
:103B60000220CAE78F4A0008E74A000867490008B0
:103B700010B504460248844201D104F025F910BD75
:103B8000300E0020704700BFFEE7000010B510485F
:103B9000104908600320486000210E488160C16020
:103BA0004FF4102101614FF40011416100210176B1
:103BB00001214176002181760121C1760021017722
:103BC0004177FDF778FE08B1FDF7BAFA10BD0000A5
:103BD00000640040E80B002010B510481049086050
:103BE0000320486000210E488160C1604FF410211D
:103BF00001614FF4001141610021017601214176FC
:103C0000002181760121C176002101774177FDF7FE
:103C100052FE08B1FDF794FA10BD000000680040A4
:103C2000100C002008B500BF00200090224800685A
:103C300040F48000204908600846006800F48000D5
:103C4000009000BF00BF00BF002000900846006841
:103C500040F4001008600846006800F4001000906E
:103C600000BF00BF002211460C20FEF7E3FB0C2032
:103C7000FEF7CCFB002211463920FEF7DBFB392092
:103C8000FEF7C4FB002211463A20FEF7D3FB3A2090
:103C9000FEF7BCFB002211464520FEF7CBFB45207A
:103CA000FEF7B4FB002211464620FEF7C3FB462078
:103CB000FEF7ACFB08BD00003038024008B500BF7D
:103CC000002000902C48006840F002002A4908605B
:103CD0000846006800F00200009000BF00BF00BF6F
:103CE000002000900846006840F040000860084648
:103CF000006800F04000009000BF00BF00BF00203F
:103D000000900846006840F001000860084600681E
:103D100000F00100009000BF00BF00BF0020009035
:103D20000846006840F0080008600846006800F097
:103D30000800009000BF00BF00BF002000900846B0
:103D4000006840F0040008600846006800F00400C5
:103D5000009000BF00BF00BF002000900846006830
:103D600040F0800008600846006800F08000009085
:103D700000BF00BF08BD00003038024010B50A483F
:103D80000A49086040F247304860002107488160D6
:103D900042F21071C160002101618161FEF746FFAE
:103DA00008B1FDF7CDF910BD00440140380C0020EA
:103DB00010B50A480A4908605320486000210848A5
:103DC000816040F2E731C160002101618161FEF74D
:103DD0002DFF08B1FDF7B4F910BD00000048014007
:103DE000800C00201FB500200090019002900390ED
:103DF0000E480F490860B420486000210C488160DB
:103E000042F20F71C160002101618161FEF70EFF76
:103E100008B1FDF795F94FF48050009069460448C9
:103E2000FFF751F808B1FDF78BF91FBD00180040EE
:103E3000C80C002010B50A480A4908601B204860D9
:103E400000210848816040F2CF71C160002101610A
:103E50008161FEF7EBFE08B1FDF772F910BD0000BD
:103E6000001C0040100D002010B50A480A490860E7
:103E7000A720486000210848816040F2CF71C160EE
:103E80000021016180218161FEF7D0FE08B1FDF7BC
:103E900057F910BD00200040580D002010B50B4808
:103EA0000B4908604FF4E130486000210848816008
:103EB000C16001610C21416100218161C161FFF795
:103EC000B7FB08B1FDF73CF910BD00000010014040
:103ED000A00D002010B50C480C4908600C48486043
:103EE0004FF48051094881600021C1604FF4806126
:103EF00001610C21416100218161C161FFF798FBE3
:103F000008B1FDF71DF910BD00480040E80D002084
:103F1000A086010010B50B480B4908604FF4E13052
:103F20004860002108488160C16001610C21416145
:103F300000218161C161FFF77BFB08B1FDF700F94A
:103F400010BD000000140140300E002000BFFEE74D
:103F500000BFFEE7B0EE401A10B99FED790A704736
:103F600090ED100A80ED110A90ED0F0A80ED100A15
:103F7000C0ED060A80ED071A30EEC10A80ED0F0A87
:103F8000017811B1012974D174E090ED010AD0EDEE
:103F90000F1A20EE210A80ED090A90ED0A0AD0EDF1
:103FA000021A90ED0F2A01EE820A80ED0A0A90EDC6
:103FB0000D0A80ED0E0A90ED0C0A80ED0D0A90EDD1
:103FC0000F0AD0ED101A30EE610A80ED0C0A90ED68
:103FD000030AD0ED0C1A20EE210A80ED0B0A90EDB9
:103FE0000A0AD0ED051AB4EEE10AF1EE10FA04DD8A
:103FF00090ED050A80ED0A0A10E090ED0A0AD0ED76
:10400000051AF1EE611AB4EEE10AF1EE10FA05D2EA
:1040100090ED050AB1EE400A80ED0A0A90ED090A1A
:10402000D0ED0A1A30EE210AD0ED0B1A30EE210A3B
:1040300080ED080A90ED080AD0ED041AB4EEE10A0A
:10404000F1EE10FA04DD90ED040A80ED080A10E0AC
:1040500090ED080AD0ED041AF1EE611AB4EEE10A0F
:10406000F1EE10FA05D290ED040AB1EE400A80EDAF
:10407000080A61E090ED0F0AD0ED101A30EE610AE7
:10408000D0ED011A20EE210A80ED090A90ED020A16
:10409000D0ED0F1A20EE210A80ED0A0A90ED0D0AEC
:1040A00080ED0E0A90ED0C0A80ED0D0A90ED0F0ADE
:1040B000D0ED101AB0EE002A02EE610AD0ED111A0E
:1040C00030EE210A80ED0C0A90ED030AD0ED0C1AB7
:1040D00020EE210A80ED0B0A90ED090AD0ED0A1AB4
:1040E00030EE210AD0ED0B1A30EE210AD0ED081A7D
:1040F00030EE210A80ED080A90ED080AD0ED041A8E
:10410000B4EEE10AF1EE10FA04DD90ED040A80ED60
:10411000080A10E090ED080AD0ED041AF1EE611AD9
:10412000B4EEE10AF1EE10FA05D290ED040AB1EE18
:10413000400A80ED080A00BF00BF90ED080A0EE7B4
:104140000000000000B970479FED100A80ED110AD1
:1041500080ED100A80ED0F0A9FED0C0A80ED0E0A2B
:1041600080ED0D0A80ED0C0A9FED080A80ED0B0A28
:1041700080ED0A0A80ED090A80ED080A9FED030A26
:1041800080ED060A80ED070A00BFDCE700000000B2
:1041900000B102B97047017092ED001A80ED011A6A
:1041A00092ED011A80ED021A92ED021A80ED031AC7
:1041B00080ED040AC0ED050A9FED0C1A80ED0E1A81
:1041C00080ED0D1A80ED0C1A9FED081A80ED081A8B
:1041D00080ED0B1A80ED0A1A80ED091A80ED111A94
:1041E00080ED101A80ED0F1A00BFD3E70000000029
:1041F000704700001D494978012903D11C494989AC
:10420000418002E01A49898941801849D1F8031098
:1042100000EE101AF2EE040AB4EEE00AF1EE10FA23
:1042200004D2B3EE070A80ED020A03E00F49D1F889
:10423000031081600F49098901800E49C988818076
:104240000C49097803290BD00A490978042907D0B9
:1042500008490978052903D006490978072902D1B8
:104260005221817101E0422181717047CC00002010
:1042700045190020381900207047000010B52DEDB9
:10428000108B86B004469FEDB70AB0EE40AA9FEDB2
:10429000B50AB0EE409A9FEDB40AF0EE40AA9FED49
:1042A000B30AB0EE408A9FEDB20AB0EE40EA9FED4D
:1042B000B10AF0EE40EAB0480078012808D1AF48D2
:1042C000408900EE100AB8EE400AB0EE40AA19E0AC
:1042D000AB48407801280DD1AA48D0ED010AA74883
:1042E000408900EE100AB8EE400A30EE800AB0EEC7
:1042F00040AA07E0A148408900EE100AB8EE400A43
:10430000B0EE40AA94ED370A60EE2A0AB4F90C0028
:1043100000EE100AB8EEC00A20EE800A00EE900A05
:10432000F8EEE00A20EE8E1A00EE900AF8EEE00AAF
:1043300001EE200AD4ED370A60EE880A94ED371AB0
:1043400000EE810A30EE2E0AB0EE409AB5EEC09A29
:10435000F1EE10FA06DB8C4890ED000A30EE090A07
:1043600080ED000A89480078401C8849087008469A
:10437000007804280CD100200870834890ED000AD2
:10438000834880ED000A9FED770A7F4880ED000AA0
:104390007F4890ED000AB4EECA0AF1EE10FA7CDD17
:1043A00090ED000ACAEE000AB0EE60FA29EE0F0A9C
:1043B000784880ED000A90ED000AB5EEC00AF1EEF3
:1043C00010FA05D294ED370A06B0BDEC108B10BD83
:1043D000B4F90C0000EE100AB8EEC00A60EE2A8AAA
:1043E000B4F90C0000EE100AB8EEC00A60EE0E0A36
:1043F00000EE100AB8EEC01A664890ED000A10EE02
:10440000810A70EE2E9A94ED370AB5EEC00AF1EEED
:1044100010FA52DDB0EE000A28EE000A10EE101A73
:10442000084604F0ADFF41EC1B0B28EEA80AF1EEA4
:10443000000A68EE200A00EEE90A10EE101A08469B
:1044400004F09EFF41EC1D0BB0EE4D0AF0EE6D0A3C
:1044500000F0FCFF8DED000BB1EE680A10EE100AC3
:1044600004F08EFF41EC1C0B9DED000B53EC102B68
:1044700004F0C0F953EC1B2BCDE902019DED020BBA
:1044800051EC100B04F06AFACDE904019DED040B28
:1044900051EC100B04F07CF900E05FE00FEE900AA5
:1044A0009FED3D0AF4EEC0FAF1EE10FA02DD9FED49
:1044B0003A0A89E7B0EE6F0A86E7B0EE000A28EE06
:1044C000000A10EE101A084604F05AFF41EC1D0BCA
:1044D00028EEA80AF1EE000A68EE200A00EEE90ACA
:1044E00010EE101A084604F04BFF41EC1B0BB0EE27
:1044F0004B0AF0EE6B0A00F0A9FF8DED000BB1EE58
:10450000680A10EE100A04F03BFF41EC1C0B9DED15
:10451000000B53EC102B04F049FE53EC1D2BCDE99E
:1045200002019DED020B51EC100B04F017FACDE9DE
:1045300004019DED040B51EC100B04F029F90FEE72
:10454000900A9FED160AF4EEC0FAF1EE10FA02D2CC
:104550009FED120A38E7B0EE6F0A35E794ED370A9F
:1045600032E70000000000004F020636FC11043460
:10457000C3031C348D9782400001002038190020AD
:1045800058100020381C00200801002014010020D1
:104590000C0100201001002000007A4600007AC6BD
:1045A00070B504460D46052229462046FFF79AFAC3
:1045B00070BD000010B50446608A20B10A2232495D
:1045C0003248FEF756FE607D217D40EA01202080C2
:1045D00020884FF2F001884254D12D4800780128FC
:1045E00050D1A17DE07D41EA00206080A17DE07D89
:1045F00041EA002000EE100AB8EEC00ADFED250AFD
:1046000020EE200A84ED010A217E607E41EA00202E
:104610002081A17EE07E41EA002000EE100AB8EE83
:10462000C00ADFED1C0A20EE200A84ED030A217F78
:10463000607F41EA0020608294ED010ADFED160AF6
:10464000B4EEE00AF1EE10FA06DB9FED130A0E4815
:10465000143880ED010A0CE094ED010AB5EEC00AB1
:10466000F1EE10FA05D29FED0D0A0748143880EDDF
:10467000010A608A18B101200949087002E000208F
:104680000749087010BD00004C1C0020A00D002040
:10469000070100200AD7233C000048420000000028
:1046A000000100204FF2F2120280094A1278012A1A
:1046B00007D10A7BC2F3400282704A89A0F8032026
:1046C00004E03222A0F8032001228270704700002B
:1046D0000601002010B5FDF725FE10BD00B593B012
:1046E000302107A8FBF743FF142102A8FBF73FFF87
:1046F00000BF002001902448006840F0805022490B
:1047000008600846006800F08050019000BF00BFBC
:1047100000BF002001901D48006840F480401B4904
:1047200008600846006800F48040019000BF00BFA8
:10473000012007900004089002200D9041050E9181
:1047400006210F91A82110910221119104211291AB
:1047500007A8FEF701F808B1FCF7F2FC0F20029061
:1047600002200390002004904FF4A05005904FF4D5
:1047700080500690052102A8FDF7AEFE08B1FCF7B7
:10478000DFFC13B000BD0000403802400070004064
:104790000348006840F47000014908607047000059
:1047A00088ED00E010B50248FEF714FC10BD0000D3
:1047B000800C002010B50248FEF70CFC10BD000074
:1047C000380C002010B50248FEF704FC10BD0000B4
:1047D000C80C002010B50248FEF7FCFB10BD00001D
:1047E000580D002010B50248FEF7F4FB10BD000084
:1047F000100D002010B502682D4B98420ED0B0F17C
:10480000804F0BD02B4B984208D02B4B984205D0B1
:104810002A4B984202D02A4B984203D122F07002D0
:104820004B681A43224B984220D0B0F1804F1DD0E4
:10483000204B98421AD0204B984217D01F4B9842D9
:1048400014D01F4B984211D01E4B98420ED01E4BD5
:1048500098420BD01D4B984208D01D4B984205D072
:104860001C4B984202D01C4B984203D122F4407258
:10487000CB681A4322F080034C6943EA04020260C9
:104880008B68C3620B688362094B984202D00C4B61
:10489000984201D10B69036301234361036903F06B
:1048A00001031BB1036923F00103036110BD000084
:1048B000000001400004004000080040000C0040DF
:1048C0000004014000400140004401400048014014
:1048D00000180040001C00400020004030B50C468D
:1048E000816821F47F4142EA032525432943816001
:1048F00030BD0A46816821F0700142F00703194378
:104900008160704730B50B461446026A056A25F08F
:1049100001050562816921F0F00141EA041122F0EC
:104920000A021A438161026230BD30B50B4614465B
:10493000026A056A25F010050562816921F470415B
:1049400041EA043122F0A00242EA031281610262CC
:1049500030BD70B50546AC6B0020E085E084204694
:10496000FEF7DCFC70BD70B506460025B46B206810
:104970004069C0F3C01594F84100212805D125B144
:104980000020E084204600F0FBF820684069C0F376
:10499000801594F84200222805D125B10020E08539
:1049A000204600F0A7F8606C40F0100060642046DC
:1049B000FEF7B4FC70BD70B50546AC6B28680068A6
:1049C00000F48070002842D1E08500BF00BF21685C
:1049D0000C3151E8001F21F4807021680C3141E84E
:1049E0000002002AF3D100BF00BF00BF21681431CC
:1049F00051E8001F21F001002168143141E8000254
:104A0000002AF3D100BF00BF00BF2168143151E874
:104A1000001F21F040002168143141E80002002A03
:104A2000F3D100BF202084F84200206B01280ED172
:104A300000BF00BF21680C3151E8001F21F01000B9
:104A400021680C3141E80002002AF3D100BF0020A8
:104A50006063206B012804D1A18D2046FEF742FC43
:104A600002E02046FEF7C2FF70BD70B50546AC6B94
:104A700001206063206B012805D1A08D41082046EC
:104A8000FEF730FC02E02046FEF7CCFF70BD70B5AB
:104A90000546AC6B2868006800F48070F8B9002007
:104AA000E08400BF00BF2168143151E8001F21F0ED
:104AB00080002168143141E80002002AF3D100BFD0
:104AC00000BF00BF21680C3151E8001F41F04000D9
:104AD00021680C3141E80002002AF3D102E02046AF
:104AE000FFF746F870BD70B50446A56B2846FFF782
:104AF00049F870BD00BF00BF02680C3252E8002FB9
:104B000022F4907102680C3242E80013002BF3D1BA
:104B100000BF00BF00BF0268143252E8002F22F02D
:104B200001010268143242E80013002BF3D100BFE8
:104B3000016B01290ED100BF00BF02680C3252E8A0
:104B4000002F22F0100102680C3242E80013002B03
:104B5000F3D100BF202180F842100021016370478B
:104B600010B504462068C06820F040002168C86085
:104B7000202084F841002046FEF7FAFF002010BDF7
:104B800000BF00BF02680C3252E8002F22F0C001C3
:104B900002680C3242E80013002BF3D100BF202141
:104BA00080F841107047F8B5044694F84200222876
:104BB00075D1A068B0F5805F0CD1206950B900258F
:104BC000A66A20684068C0F308003080A06A801C94
:104BD000A06215E0A56A0026A068B0F5805F03D04A
:104BE000A06828B9206918B920684068287004E0D6
:104BF0002068406800F07F002870A06A401CA06216
:104C0000E08D401E80B2E085002846D12068C06853
:104C100020F020002168C8602068C06820F48070FF
:104C20002168C8602068406920F00100216848615F
:104C3000202084F8420000206063206B012826D1E8
:104C40000020206300BF00BF21680C3151E8001F25
:104C500021F0100021680C3141E80002002AF3D154
:104C600000BF2068006800F0100010280AD100BFC3
:104C70000020009020680068009020684068009044
:104C800000BF00BFA18D2046FEF72CFB02E02046AE
:104C9000FEF7ACFE0020F8BD01E00020FBE702209B
:104CA000F9E700002DE9F84F04462068006920F478
:104CB0004050E1680843216808612169A068084301
:104CC00061690843E169084300902068C06849F2BF
:104CD0000C618843009908432168C86020684069D6
:104CE00020F44070A1690843216848617649206832
:104CF000884203D075492068884203D1FDF7C4FC7F
:104D0000814602E0FDF7B0FC8146E069B0F5004F56
:104D10006CD102206168A0FB015003461920A9FB59
:104D2000007001462A463846FBF7F8FA6421B0FBCA
:104D3000F1F04FEA001A02206168A0FB01510B4616
:104D40001920A9FB00712A463846FBF7E7FA83468B
:104D500002206168A0FB015003461920A9FB0071E5
:104D60002A463846FBF7DAFA6421B0FBF1F000EB93
:104D7000C00101EB0010ABEB8000322101EBC00061
:104D80006421B0FBF1F000F0F8000AEB400A0220C9
:104D90006168A0FB015003461920A9FB0070014681
:104DA0002A463846FBF7BAFA834602206168A0FB20
:104DB000015003461920A9FB00712A463846FBF72B
:104DC000ADFA6421B0FBF1F000EBC00101EB001083
:104DD000ABEB8000322101EBC0006421B0FBF1F0AD
:104DE00000F007005044216888606AE00420616890
:104DF000A0FB015003461920A9FB007001462A467A
:104E00003846FBF78BFA824604206168A0FB01500C
:104E100003461920A9FB007001462A463846FBF7D5
:104E20007DFA6421B0FBF1F000EBC00101EB001052
:104E3000AAEB8000322101EB00106421B0FBF1F0FD
:104E400000F0F00A04206168A0FB017003461920FD
:104E5000A9FB00513A462846FBF760FA6421B0FBF3
:104E6000F1F00AEB001A04206168A0FB01510B4627
:104E70001920A9FB00712A463846FBF74FFA8346F2
:104E800004206168A0FB015003461920A9FB0070B3
:104E900001462A463846FBF741FA6421B0FBF1F09F
:104EA00000EBC00101EB0010ABEB8000322101EB05
:104EB00000106421B0FBF1F000F00F0050442168B5
:104EC0008860BDE8F88F0000001001400014014028
:104ED00077B581B0044615460298A062A5850020EA
:104EE0006064222084F842002848E16BC8632848A7
:104EF000E16B08642748E16BC8640020E16B08653A
:104F000002AE32682368191D2B46E06BFDF7C0F82E
:104F100000BF002000902068006800902068406872
:104F2000009000BF00BF206970B100BF00BF2168C2
:104F30000C3151E8001F41F4807021680C3141E8C8
:104F40000002002AF3D100BF00BF00BF2168143166
:104F500051E8001F41F001002168143141E80002CE
:104F6000002AF3D100BF00BF00BF2168143151E80F
:104F7000001F41F040002168143141E80002002A7E
:104F8000F3D100BF002004B070BD0000B749000895
:104F90006B4A000867490008014691F84100212842
:104FA00028D18868B0F5805F0BD1086948B90A6AD2
:104FB0001088C0F308000B685860086A801C0862FB
:104FC00005E00B6A581C086218780B685860C88C9A
:104FD000401E80B2C88458B90868C06820F08000BC
:104FE0000B68D8600868C06840F040000B68D86063
:104FF000002070470220FCE72DE9F84304460D46E7
:1050000017469846089E31E0701C70B3FDF784F98E
:10501000A0EB0800B04200D816B90320BDE8F88321
:105020002068C06800F00400F8B1802D1ED0402D2B
:105030001CD020680068C0F3C000B0B100BF0020E1
:10504000009020680068009020684068009000BFD1
:1050500000BF2046FFF74EFD0820606400BF00201F
:1050600084F8400000BF0120D8E7FFE7206800680F
:105070002840A84201D1012000E00020B842C3D05E
:105080000020CBE710B50248FEF75EF910BD000026
:10509000A00D002010B50348FEF756F900F010F8F7
:1050A00010BD0000E80D002010B50348FEF74CF9D4
:1050B00002F09AFB10BD0000300E002000BFFEE79A
:1050C00008B541480068006800F0200060B100BFEA
:1050D000002000903C480068006800903A48006852
:1050E0004068009000BF6EE03848006800F0100093
:1050F000002868D000BF0020009033480068006896
:105100000090314800684068009000BF00BF304800
:105110000068006800F4002058BB2D480068006853
:1051200020F001002A4909680860294800684068A1
:10513000C0F13200274908803220254909684860BB
:1051400023480068006840F400202149096808608D
:105150001F480068006840F001001D4909680860A8
:105160001C48008819282ED11B491C48FBF7EBFF6F
:1051700029E017480068006820F001001449096818
:105180000860134800684068C0F132001149088087
:1051900032200F49096848601148806A20F40020D5
:1051A0000F4988620A480068006840F00100084919
:1051B0000968086007480088192804D10649193190
:1051C0000648FBF7C0FF08BDE80D0020004800407E
:1051D000380F0020E8000020AF190020E21900205D
:1051E0000060024003B401984100009850EAC120D9
:1051F00018BF04204A0D18BF40F0010040F2FF72B2
:10520000B2EB515F08BF40F00200012808BF052043
:1052100002B0704702480068C0F3022070470000E7
:105220000CED00E010B5002804DB0A07130E054A58
:10523000135406E00A07140E034A00F00F031B1F65
:10524000D45410BD00E400E018ED00E0EFF310804E
:1052500070470000000000002DE9F0412DED020B29
:105260009FED3D0B2DED028B9FED3D8BDDE9025453
:10527000C4F30A50A0F2FF36142E37DA002E18DAE3
:1052800053EC102B9DED020B51EC100B03F0B2FA16
:1052900053EC182B03F07CFE57D2002CBCBF4FF010
:1052A0000044002551DB54EA050018BF2E4C1BD1E9
:1052B0004BE02E4820FA06F704EA070028431FD0E7
:1052C00053EC102B9DED020B51EC100B03F092FAF6
:1052D00053EC182B03F05CFE37D2002C03DD4FF4A7
:1052E0008010F0400444BC4300252EE0332E07DC40
:1052F000A6F114004FF0FF3121FA00F73D4206D12C
:105300009DED020BBDEC028B02B0BDE8F08153ECC9
:10531000102B9DED020B51EC100B03F06FFE53ECC4
:10532000182B03F035FE10D2002C0DDD142E08BF13
:10533000641C09D0C6F13400012101FA00F02844B0
:10534000A84238BF641C0546BD43CDE902549DED1B
:10535000020BD7E7000000009C7500883CE4377E14
:1053600000000000000000000000F03FFFFF0F0001
:1053700010B52F499FED2C1B2DED020B84B0059825
:1053800020F000408842D8BF9DED040B2DDD294957
:10539000884209D1049840B94FF00100FBF769F940
:1053A00000F086FC06B010BD05DB9DED040B00F09F
:1053B00073FC06B010BD68469DED040B00F084F848
:1053C00010F0030004BF9DED021B9DED000B0CD0FF
:1053D00001280ED09DED021B9DED000B022817D079
:1053E000012000F0C1FB06B010BD00F089FA06B044
:1053F00010BD9DED021B9DED000B012000F0B4FBE4
:1054000051EC100B03F0B7F906B041EC100B10BDD6
:1054100000F076FA51EC100B03F0ADF906B041EC58
:10542000100B10BD00000000000000000000000094
:10543000FB21E93F0000F07F2DED020B019820F0E9
:10544000004001909DED000B02B0704700B52DEDBE
:10545000048BB0EE409AF0EE609A83B051EC190BD9
:1054600003F0D8FD41EC180B18EE100A18EE901A54
:105470008DED008B002818BF0120084320F000406C
:10548000C0F17F6000F1E040C00F14D019EE101A97
:1054900019EE900A8DED009B002918BF01210843E9
:1054A00020F00040C0F17F6000F1E040C00F04BF79
:1054B0000120FBF7DEF8B0EE480A03B0F0EE680A10
:1054C000BDEC048B00BD00002DE9F14F04462DED2D
:1054D000020B2DED088B8AB09FEDE70B80ED020BE0
:1054E000139EE74826F0004585420ADC9DED120B2D
:1054F000002084ED000B0AB0BDEC088B03B0BDE8C2
:10550000F08FE0489FEDE0AB9FEDE1BBA84247DDA7
:10551000E14F9FEDE39B9FEDE48B9DED120B53EC70
:105520001A2B51EC100B002E1CDD03F03FFE41EC5A
:10553000100BBD4208D053EC1B2B51EC100B03F0A9
:1055400035FEC4E900010BE053EC192B51EC100BB4
:1055500003F02CFE53EC182B03F028FEC4E90001E5
:105560000120C8E703F046F941EC100BBD4208D01A
:1055700053EC1B2B51EC100B03F03CF9C4E9000178
:105580000BE053EC192B51EC100B03F033F953ECF7
:10559000182B03F02FF9C4E900014FF0FF30AAE700
:1055A000C348A84279DB9DED120B51EC100B01F0C2
:1055B0002BFD41EC180B9FEDC00B53EC102B03F0AF
:1055C000E9FB9FEDBF1B53EC112B03F013F903F024
:1055D0001DFB074603F077FB41EC190B53EC1A2B2C
:1055E00003F0D8FB53EC182B03F008FD41EC180B2B
:1055F00053EC1B2B51EC190B03F0CCFBDFF8C8A2CA
:1056000041EC100B4FEA15580125FA4453EC102BCE
:1056100051EC180B03F0CAFD032DC4E900013DD085
:10562000C1F30A5005EB4511A8EB00001139814286
:1056300034DA0AEB051BB0EE48AA9BED000BF0EE46
:1056400068AA53EC102B51EC190B03F0A3FB41ECAF
:105650001B0B51EC1A0B53EC1B2B03F0A7FD41EC79
:10566000180B51EC1A0B53EC182B03F09FFD53EC65
:105670001B2B03F09BFD9BED020B41EC1A0B53EC33
:10568000102B51EC190B03F085FB53EC1A2B03F094
:105690008DFD41EC100B6D1CB8E70EE0002EA8BF8D
:1056A0003846BFF628AF94ED000B51EC100B03F019
:1056B00062F8C4E9000178421DE7C6F3130040F424
:1056C000801EC6F30A50A0F2F530471100F01F0506
:1056D000C5F12000DDF848B0089000200690079042
:1056E0000520EC467949002D07EB0002794408BFFC
:1056F00051F8221009D051F8223001EB8201AB4061
:105700004A68089922FA01F11943A1FB0E26A1FB70
:105710000B131A449A4234BF0123002303EB0608FB
:105720000CEB8003D3E901A60E448E4234BF012165
:10573000002192448A4411B1924502D903E0924576
:1057400001D2012100E00021C3E901A641444CF847
:105750002010011EA0F10100C4DC029800F10050ED
:10576000850F0298DDE903678000DDF8148003F0FF
:10577000AAFA41EC1A0B304603F0BCFA9FED541B19
:1057800053EC112B03F006FB41EC1B0B384603F0E6
:10579000B1FA9FED511B53EC112B03F0FBFA41ECD6
:1057A000180B404603F0A6FA9FED4D1B53EC112B4E
:1057B00003F0F0FA41EC190B51EC180B53EC192BD8
:1057C00003F018F853EC1B2B03F014F853EC1A2BCE
:1057D00003F010F8CDE90801002008909DED080BBA
:1057E00053EC1A2B51EC100B03F0E0FC53EC1B2B89
:1057F00003F0DCFC53EC182B03F0D8FC53EC192B12
:1058000003F0FCFB9FED381B53EC112B03F0C2FAA5
:105810009FED370B41EC180B53EC102B9DED080B53
:1058200051EC100B03F0B6FA53EC182B02F0E2FF28
:105830009FED310B41EC180B53EC102B9DED080B39
:1058400051EC100B03F0A6FA53EC182B02F0D2FF28
:1058500041EC100B139810F0004F06D06D4251EC44
:10586000100B02F088FF41EC100B284684ED000B72
:1058700041E6000000000000000000000000000001
:10588000FB21E93F7CD9024000004054FB21F93F55
:105890003163621A61B4D03DFB21F93F0000000082
:1058A0000000601A61B4D03D7370032E8A19A33BC7
:1058B000FB2139410000000083C8C96D305FE43F1F
:1058C000000000000000E03FBA440000084400006F
:1058D000000000000000103E000000000000103C2E
:1058E000000000000000103A182D4454FB21F93D3F
:1058F0003326A611460B113C00000054FB21F93D54
:1059000010B52DED040B2DED088B82B0B0EE419A51
:10591000F0EE619A0B9820F000449FED4BABB4F190
:10592000795F11DA9DED0A0B51EC100B03F06EF963
:10593000002801BFB0EE4A0AF0EE6A0A02B0BDECE0
:10594000088B04BF04B010BD9DED0A0B53EC102B67
:1059500051EC100B03F01EFA41EC180B3C480621E9
:10596000B0EE480AF0EE680A784400F081F853EC93
:10597000182B51EC100B03F00DFA9DED0A0B41ECC6
:105980001B0B53EC192B51EC100B03F003FA41ECF9
:10599000190B53EC1B2B51EC180B03F0FBF953ECD8
:1059A000192B03F003FC9FED2C0B41EC190B53EC6E
:1059B000102B51EC180B03F0EDF941EC100B2848BB
:1059C000844210DA53EC192B51EC100B03F0EEFB70
:1059D00053EC1A2B03F012FB41EC100B02B0BDECA0
:1059E000088B04B010BD1F48A042BCBF9FED1E1B1A
:1059F0008DED001B06DBA4F5001001900020009047
:105A00009DED001B51EC100B53EC112B03F0CEFB62
:105A10009DED000B41EC180B53EC102B51EC1A0BC5
:105A200003F0C4FB41EC1A0B53EC192B51EC180B8F
:105A300003F0BCFB53EC1A2B03F0E0FA41EC100B23
:105A4000CCE7000000000000000000000000F03F74
:105A50002C41000000000000000000000000E03FBA
:105A60003333D33F0000E93F000000000000D23F85
:105A700070B504462DED028B4D1E00EBC500B0EE57
:105A8000408AF0EE608A90ED000B35F0060017D0EA
:105A900053EC182B51EC100B03F07CF941EC100B7C
:105AA0006D1E04EBC50090ED001B51EC100B53EC88
:105AB000112B02F09FFE41EC100B35F00600E7D1F0
:105AC000022D36D0042D1CD0062D1CBFBDEC028B40
:105AD00070BD53EC182B51EC100B03F05BF994EDF7
